:100000000C9463000C948B000C948B000C948B006C
:100010000C948B000C948B000C948B000C942B058F
:100020000C948B000C948B000C948B000C94290680
:100030000C948B000C948B000C948B000C948B0014
:100040000C94DF050C948B000C94AD050C94870583
:100050000C948B000C948B000C948B000C948B00F4
:100060000C948B000C948B000000000024002700EF
:100070002A0000000000250028002B0002000000DC
:100080000800020100000304070000000000000057
:1000900000000000002300260029000404040404DA
:1000A0000404040202020202020303030303030125
:1000B00002040810204080010204081020010204FC
:1000C000081020002A0711241FBECFEFD8E0DEBFA2
:1000D000CDBF11E0A0E0B1E0EAE9F7E202C005908F
:1000E0000D92A432B107D9F722E0A4E2B1E001C039
:1000F0001D92AA39B207E1F710E0C3E6D0E004C0D0
:100100002197FE010E948512C236D107C9F70E94CD
:100110008F070C94CB130C940000AF92BF92CF9238
:10012000DF92EF92FF920F931F93CF93DF936C01B7
:100130007B018B01040F151FEB015E01AE18BF0898
:10014000C017D10759F06991D601ED91FC9101904A
:10015000F081E02DC6010995892B79F7C501DF9162
:10016000CF911F910F91FF90EF90DF90CF90BF90B4
:10017000AF90089542E050E061E271E08CEB91E0D5
:100180000C948D00FC01538D448D252F30E0842F7D
:1001900090E0821B930B541710F0CF9608950197AF
:1001A0000895FC01918D828D981761F0A28DAE0F9C
:1001B000BF2FB11D5D968C91928D9F5F9F73928F23
:1001C00090E008958FEF9FEF0895FC01918D828D4F
:1001D000981731F0828DE80FF11D858D90E008951C
:1001E0008FEF9FEF0895FC01918D228D892F90E074
:1001F000805C9F4F821B91098F73992708958CEB28
:1002000091E00E94F30021E0892B09F420E0822F85
:10021000089580E090E0892B29F00E94FF00811171
:100220000C9400000895FC01A48DA80FB92FB11DF6
:10023000A35ABF4F2C91848D90E001968F7399271C
:10024000848FA689B7892C93A089B1898C918370FA
:1002500080648C93938D848D981306C00288F389F3
:10026000E02D80818F7D80830895EF92FF920F9320
:100270001F93CF93DF93EC0181E0888F9B8D8C8D52
:1002800098131AC0E889F989808185FF15C09FB746
:10029000F894EE89FF896083E889F9898081837009
:1002A000806480839FBF81E090E0DF91CF911F91B8
:1002B0000F91FF90EF900895F62E0B8D10E00F5FD9
:1002C0001F4F0F731127E02E8C8D8E110CC00FB6AF
:1002D00007FCFACFE889F989808185FFF5CFCE0147
:1002E0000E941301F1CFEB8DEC0FFD2FF11DE35AAE
:1002F000FF4FF0829FB7F8940B8FEA89FB898081CA
:100300008062CFCFCF93DF93EC01888D8823B9F043
:10031000AA89BB89E889F9898C9185FD03C0808110
:1003200086FD0DC00FB607FCF7CF8C9185FFF2CF8D
:10033000808185FFEDCFCE010E941301E9CFDF91CF
:10034000CF910895833081F028F4813099F0823084
:10035000A9F008958730A9F08830C9F08430B1F44D
:10036000809180008F7D03C0809180008F77809383
:100370008000089584B58F7784BD089584B58F7DFE
:10038000FBCF8091B0008F778093B000089580916B
:10039000B0008F7DF9CF1F93CF93DF93282F30E0EC
:1003A000F901E358FF4F8491F901E155FF4FD491D2
:1003B000F901E556FF4FC491CC23A9F0162F811106
:1003C0000E94A201EC2FF0E0EE0FFF1FEE58FF4F4E
:1003D000A591B4918FB7F894EC91111108C0D09504
:1003E000DE23DC938FBFDF91CF911F910895DE2B29
:1003F000F8CF9091000189130BC0ECE7F0E0E49195
:100400009FEF90930001E13049F028F0E23061F075
:1004100060E00C94CB0110926E00FACF90916F00C7
:100420009D7F90936F00F4CF909170009D7F90938B
:10043000700091E09093B0009091B100987F94602B
:100440009093B1001092B300E3CFCF93DF9390E08D
:10045000FC01E155FF4F249185569F4FFC0184918B
:100460008823C9F090E0880F991FFC01E859FF4FDD
:10047000A591B491FC01EE58FF4FC591D491611143
:100480000DC09FB7F8948C91209582238C9388811E
:10049000282328839FBFDF91CF910895623051F4C4
:1004A0009FB7F8943C91822F809583238C93E881A9
:1004B0002E2BEFCF8FB7F894EC912E2B2C938FBF70
:1004C000EACF3FB7F89480912A0190912B01A09137
:1004D0002C01B0912D0126B5A89B05C02F3F19F026
:1004E0000196A11DB11D3FBFBA2FA92F982F8827B4
:1004F000BC01CD01620F711D811D911D42E0660F8F
:10050000771F881F991F4A95D1F708958F929F9260
:10051000AF92BF92CF92DF92EF92FF924B015C01BC
:100520000E9461026B017C010E9461026C197D09CD
:100530008E099F09683E734081059105A8F321E06B
:10054000821A9108A108B10888EEC80E83E0D81E6F
:10055000E11CF11C81149104A104B10429F7FF905E
:10056000EF90DF90CF90BF90AF909F908F900895C5
:10057000CF92DF92EF92FF92CF93DF93DC01179639
:10058000CC911797D0E06111DC2F18962C91189719
:1005900030E0220F331F2F563F4F50E040E0F9016B
:1005A00085919491FC01F080BA0190E080E0EF2DFC
:1005B000EC23ED1310C04F5F5F4F1D96CD90DD9083
:1005C000ED90FC9050976C157D058E059F0538F3D6
:1005D0006FEF7FEFCB01DF91CF91FF90EF90DF9036
:1005E000CF9008958F929F92AF92BF92CF92DF9259
:1005F000EF92FF920F931F93CF93DF93CDB7DEB7A8
:10060000C054D1400FB6F894DEBF0FBECDBF2FB798
:10061000F8944091B8015091B9016091BA0170917C
:10062000BB012FBFFC0101851285238534856A013A
:100630007B01C01AD10AE20AF30A97018601003D44
:10064000174021053105B0F4FC018189C05CDE4F03
:100650000FB6F894DEBF0FBECDBFDF91CF911F91D3
:100660000F91FF90EF90DF90CF90BF90AF909F9051
:100670008F9008958C01FC014187528763877487AE
:100680001482138212821182108262E085810E949C
:10069000250261E070E080E090E00E94860261E067
:1006A000F80185810E94250260E0F80185810E94A1
:1006B000CB01F80186818551823028F58BE291E1EA
:1006C0000197F1F762E0F80185810E942502F801A7
:1006D000828990E08230910538F0880F991F880F49
:1006E000991F05970197F1F7F89460E0C8010E94FF
:1006F000B8026F3F7F4F8F4F9F4F61F4F801118A0F
:10070000789480E0A3CF64E170E080E090E00E9404
:100710008602D8CF61E0C8010E94B8026F3F7F4FC8
:100720008F4F9F4F59F3CE0101967C015E019FEBE5
:10073000A91A9EEFB90A670160E0C8010E94B802D9
:10074000F601608371838283938361E0C8010E9414
:10075000B802F6016483758386839783F8E0CF0E31
:10076000D11CCA14DB0441F7789430E020E0F70193
:1007700080809180A280B380448155816681778199
:10078000FFEF8F169F06AF06BF0631F04F3F8FEF8A
:1007900058076807780719F4F801118AB2CFF901F0
:1007A00083E0F595E7958A95E1F7E00FF11F8081E9
:1007B000880F84169506A606B706F0F080832F5F93
:1007C0003F4FF8E0EF0EF11C2832310581F6F801B9
:1007D000448120818181280F3327331F8281280F94
:1007E000311D8381820F932F911D99274817190678
:1007F00099F681E0818B2ACF8160E0CF0F931F9320
:10080000CF93DF93EC018B0188859985029749F49A
:100810006130710509F436C04CF560E00115110531
:1008200091F188859985049749F40130110509F4FF
:1008300051C09CF50115110509F43BC088859985C7
:10084000059709F0C5C00A30110508F0C1C0F801CC
:10085000E45DFB4F0C9485127E0488049604A80482
:10086000C004C204C804D204E004E6046230710586
:1008700091F060E003301105A1F68C850E94CB0158
:1008800060E005C061E08C850E94CB0161E08E854F
:100890000E94CB01C6CF61E0F0CF0230110501F11B
:1008A0000330110559F661E08C850E94CB0160E0B0
:1008B0001CC061E08C850E94CB0160E08E850E94A7
:1008C000CB0161E088890E94CB0160E08A890E94A7
:1008D000CB01B4CF60E08C850E94CB0161E0EECF0C
:1008E00060E08C850E94CB0161E08E850E94CB0187
:1008F00060E088890E94CB0161E0E8CF60E08C85F0
:100900000E94CB0161E08E850E94CB0161E009C0AD
:1009100060E08C850E94CB0161E08E850E94CB0156
:1009200060E088890E94CB0160E00DC060E08C85AA
:100930000E94CB0161E08E850E94CB0160E0888936
:100940000E94CB0161E08A890E94CB0161E011C065
:1009500060E08C850E94CB0161E08E850E94CB0116
:1009600060E088890E94CB0161E08A890E94CB0106
:1009700060E08C89DF91CF911F910F910C94CB0196
:1009800061E0E7CF61E08C850E94CB0160E0E5CFBC
:1009900061E08C850E94CB0160E08E850E94CB01D6
:1009A00061E0DFCF61E08C850E94CB0160E08E8545
:1009B0000E94CB0161E088890E94CB0160E0D5CF25
:1009C00061E08C850E94CB0160E09DCF60E0F9CFB3
:1009D000DF91CF911F910F910895FC01EE0FFF1F42
:1009E000E456FE4F208131812130310511F411820E
:1009F000108261E00C942502682F8CEB91E00C943E
:100A000035010F931F93CF93DF938B01D82FC92FFD
:100A100082E00E94FC04C801AD2FBC2F809324010A
:100A200090932501A0932601B09327010E94FC0416
:100A3000812F0E94FC048D2F0E94FC048C2FDF91DB
:100A4000CF911F910F910C94FC048FEF0E94FC0436
:100A500085E50C94FC041F920F920FB60F9211249F
:100A60002F933F934F935F936F937F938F939F93B6
:100A7000AF93BF93EF93FF93809133019091340133
:100A8000A0913501B0913601892B8A2B8B2BD1F1A6
:100A900090912E01E0912F01F09130018081892702
:100AA00080838091330190913401A0913501B09100
:100AB0003601181619061A061B069CF4809133019C
:100AC00090913401A0913501B09136010197A109AF
:100AD000B1098093330190933401A0933501B09311
:100AE0003601FF91EF91BF91AF919F918F917F91CF
:100AF0006F915F914F913F912F910F900FBE0F908B
:100B00001F901895809100010E94F901EACF1F9271
:100B10000F920FB60F9211242F933F934F935F9331
:100B20006F937F938F939F93AF93BF93EF93FF93B5
:100B30008CEB91E00E941301FF91EF91BF91AF9177
:100B40009F918F917F916F915F914F913F912F91E5
:100B50000F900FBE0F901F9018951F920F920FB617
:100B60000F9211242F938F939F93EF93FF93E09114
:100B7000CC01F091CD018081E091D201F091D301BF
:100B800082FD1BC090818091D5018F5F8F73209172
:100B9000D601821741F0E091D501F0E0E454FE4F18
:100BA000958F8093D501FF91EF919F918F912F9118
:100BB0000F900FBE0F901F9018958081F4CF1F9259
:100BC0000F920FB60F9211242F933F938F939F9301
:100BD000AF93BF938091B8019091B901A091BA01F0
:100BE000B091BB013091290123E0230F2D3758F537
:100BF0000196A11DB11D209329018093B801909306
:100C0000B901A093BA01B093BB0180912A019091E0
:100C10002B01A0912C01B0912D010196A11DB11DB8
:100C200080932A0190932B01A0932C01B0932D0166
:100C3000BF91AF919F918F913F912F910F900FBED8
:100C40000F901F90189526E8230F0296A11DB11D45
:100C5000D2CF1F920F920FB60F9211242F933F9372
:100C60004F935F936F937F938F939F93AF93BF93B4
:100C7000CF93DF93EF93FF9380912801C0917D0282
:100C8000D0E087FF24C010928500109284008091EC
:100C900028018F5F8093280180912801082E000C85
:100CA000990B8C179D0724F4809128018C30C4F196
:100CB0008091840090918500049680349C4908F4CA
:100CC0007AC08091840090918500049676C08091CE
:100CD0002801082E000C990B8C179D07C4F6E09193
:100CE00028018E2FEE0F990BFC01EE0FFF1FE80F6E
:100CF000F91FE75AFD4F808186FFC9CFE091280197
:100D00008E2FEE0F990BFC01EE0FFF1FE80FF91F5E
:100D1000E75AFD4F808160E08F730E94CB01B7CF0F
:100D20002091840030918500E09128018E2FEE0FF4
:100D3000990BFC01EE0FFF1FE80FF91FE75AFD4F5B
:100D400081819281820F931F909389008093880004
:100D5000E09128018E2FEE0F990BFC01EE0FFF1F83
:100D6000E80FF91FE75AFD4F808186FF11C0E0911F
:100D700028018E2FEE0F990BFC01EE0FFF1FE80FDD
:100D8000F91FE75AFD4F808161E08F730E94CB010C
:100D9000FF91EF91DF91CF91BF91AF919F918F9193
:100DA0007F916F915F914F913F912F910F900FBE67
:100DB0000F901F90189580E49CE990938900809390
:100DC00088008FEF80932801E3CFCF92DF92EF92DC
:100DD000FF920F931F93E82FF92F05C001501109BF
:100DE0002109310961F1908196239417B9F305C067
:100DF000015011092109310911F1908196239413B1
:100E0000F7CFC12CD12CE12CF12C0AC08FEFC81ADE
:100E1000D80AE80AF80A0C151D052E053F0579F0D9
:100E200080818623841791F36C2D7D2D8E2D9F2D2F
:100E30001F910F91FF90EF90DF90CF90089560E0A9
:100E400070E080E090E01F910F91FF90EF90DF90B5
:100E5000CF9008951092BF011092BE0188EE93E0EA
:100E6000A0E0B0E08093C0019093C101A093C201C3
:100E7000B093C30183E191E09093BD018093BC01E5
:100E800085EC90E09093C9018093C80184EC90E0D8
:100E90009093CB018093CA0180EC90E09093CD01B8
:100EA0008093CC0181EC90E09093CF018093CE01B0
:100EB00082EC90E09093D1018093D00186EC90E099
:100EC0009093D3018093D2011092D5011092D60154
:100ED0001092D7011092D801EEE7F2E026E932E055
:100EE0004FEF68EB7BE080917D028C30B0F491E0B5
:100EF000980F90937D02808390E0DC01AA0FBB1FC6
:100F0000A80FB91FA75ABD4F12967C936E931197E5
:100F100033962E173F0739F708954083F9CFCF93C3
:100F2000DF93CDB7DEB76E970FB6F894DEBF0FBE76
:100F3000CDBF789484B5826084BD84B5816084BD62
:100F400085B5826085BD85B5816085BD80916E0067
:100F5000816080936E001092810080918100826098
:100F600080938100809181008160809381008091D5
:100F700080008160809380008091B10084608093C4
:100F8000B1008091B00081608093B00080917A00C0
:100F9000846080937A0080917A00826080937A00E6
:100FA00080917A00816080937A0080917A008068D5
:100FB00080937A001092C100E091CC01F091CD01B4
:100FC00082E08083E091C801F091C9011082E09134
:100FD000CA01F091CB0180E180831092D401E091AD
:100FE000D001F091D10186E08083E091CE01F091B3
:100FF000CF01808180618083E091CE01F091CF01AB
:10100000808188608083E091CE01F091CF01808162
:1010100080688083E091CE01F091CF0180818F7D47
:1010200080838CEB91E00E94820168EC70E080E0AC
:1010300090E00E94860261E08DE00E94250260E05F
:101040008DE00E94CB0128EA31E0E0E9F1E081E0A7
:1010500090E02E173F0709F47CC781939193F9CF55
:1010600080938501992309F499C7E0918401E230C6
:1010700039F480938301F0E0E15BFE4F80838EC7FB
:10108000E330C8F390918301915090938301F3CFA3
:10109000109284011092860189C76701CC0CDD1C77
:1010A000873049F590938F01F0920401E09203019B
:1010B00010915601812F90E09093020180930101DD
:1010C000F601E456FE4F11821082880F991FFC0131
:1010D000E456FE4F1182108261E0802F0E942502AB
:1010E00060E0812F0E94250262E370E080E090E0E2
:1010F0000E94860277C790E08A30910509F05EC0B1
:101100008091870190918801009751F0209105010D
:1011100030910601E216F30609F443C00E9442131F
:1011200083E190E00E94A6125C01DC0115960C930D
:1011300015978BE016968C931697F701E155FF4FA4
:10114000E4911796EC931797F701E556FF4FE4915A
:101150001896EC9380E89EE3A0E0B0E0F501858767
:101160009687A787B08BB0928801A092870162E032
:10117000802F0E9425022FB7F8948091B80190919A
:10118000B901A091BA01B091BB012FBF805D97401A
:10119000A109B109F50181879287A387B48787E305
:1011A000828BF0920601E0920501F601E456FE4FB3
:1011B0001182108281E080938E0114C70B9709F091
:1011C0005EC080918B0190918C01009751F020912D
:1011D000070130910801E216F30609F443C00E94AA
:1011E000421383E190E00E94A6125C01DC01159697
:1011F0000C9315978BE016968C931697F701E15593
:10120000FF4FE4911796EC931797F701E556FF4FC0
:10121000E4911896EC9380E89EE3A0E0B0E0F5013D
:1012200085879687A787B08BB0928C01A0928B019F
:1012300062E0802F0E9425022FB7F8948091B801B8
:101240009091B901A091BA01B091BB012FBF805D0F
:101250009740A109B109F50181879287A387B487D7
:1012600087E3828BF0920801E0920701F601E456D1
:10127000FE4F1182108281E080938D01B3C6809170
:10128000030190910401E816F90639F080910101FB
:1012900090910201E816F90651F410928F01F601BF
:1012A000E456FE4F81E090E0918380839BC680915D
:1012B000050190910601E816F90619F410928E01C5
:1012C000EECF8091070190910801E816F90639F7F1
:1012D00010928D01E4CF2091030130910401E216B8
:1012E000F30639F02091010130910201E216F30674
:1012F000C9F410928F01843009F4B0C23CF58130FA
:1013000009F422C1833009F06DC6C7010E94ED04C3
:101310001091560161E0802F0E94250211111DC11C
:1013200060E017C12091050130910601E216F30635
:1013300019F410928E01DFCF20910701309108013E
:10134000E216F306C1F610928D01D5CF883009F46C
:1013500045C3893009F44EC3853009F043C6C7013F
:101360000E94ED048091560180938901809157017C
:1013700080938A018091890190918A019C8F8B8F43
:1013800080915801809389018091590180938A014D
:10139000A0918901B0918A01BE8FAD8F1A161B06EC
:1013A0000CF058C280910001801321C1ECE7F0E0FD
:1013B000149117FD17C661E0802F0E9425021123AA
:1013C000B9F0EB8DFC8D2F01712C612C60E072E186
:1013D0008AE790E0A3019F010E94011169017A014F
:1013E000F1E0CF1AD108E108F108123009F0EFC19D
:1013F0008B8D9C8D2C01712C612C60E072E18AE751
:1014000090E0A30192010E94011149015A017A0161
:10141000690191E0C91AD108E108F108AFEFCA16D5
:10142000D104E104F10409F00CF4A4C160E472E415
:101430008FE090E0A30192010E94011169017A01FD
:10144000B1E0CB1AD108E108F108123009F049C126
:1014500082E0EFEFCE16D104E104F10409F00CF4C0
:101460006CC060E970ED83E090E0A30192010E94FE
:10147000011169017A01F1E0CF1AD108E108F10800
:1014800083E02FEFC216D104E104F10409F00CF45B
:1014900054C068E478EE81E090E0A30192010E94DC
:1014A000011169017A0181E0C81AD108E108F10847
:1014B00084E09FEFC916D104E104F104F1F1ECF1ED
:1014C00064E274EF80E090E0A30192010E940111B8
:1014D00069017A01A1E0CA1AD108E108F10885E0A2
:1014E000FFEFCF16D104E104F10439F130F162E1EC
:1014F0007AE780E090E0A30192010E940111690166
:101500007A01A1E0CA1AD108E108F10886E0BFEF2C
:10151000CB16D104E104F10481F078F07501640187
:101520009AE0F594E794D794C7949A95D1F721E07F
:10153000C21AD108E108F10887E09091B100987FC4
:10154000892B8093B1001DC1C7010E94ED046091F9
:101550005601802F0E94CB0145C51F3F11F461E069
:10156000F8CFF701E358FF4FE491E33021F138F46D
:10157000E130B9F0E230D1F017FDF1CFD1CEE73054
:1015800031F1E83061F1E430B9F780918000806298
:1015900080938000812F90E090938B0080938A004D
:1015A00021C584B5806884BD17BD1CC584B5806223
:1015B00084BD18BD17C5809180008068809380002D
:1015C000812F90E090938900809388000BC58091D3
:1015D000B00080688093B0001093B30003C5809181
:1015E000B00080628093B0001093B400FBC48F3FC2
:1015F00009F0F8C400930001ECE7F0E0E4911E2F3D
:10160000EF3F09F4EFC4E13031F150F0E23009F47A
:1016100043C0E7FDE7C461E0802F0E942502D1CEE0
:1016200014BC15BC84B5826084BD85B5816085BD60
:10163000F701E556FF4FE491F0E0EE0FFF1FEE5883
:10164000FF4F85919491F701E155FF4FE491E093AD
:10165000320110E0B0CE1092800010928100809193
:1016600081008860809381008091810081608093F7
:101670008100F701E556FF4FE491F0E0EE0FFF1F08
:10168000EE58FF4F85919491F701E155FF4FE4919A
:10169000E093310111E08FCE1092B0001092B100B2
:1016A0008091B00082608093B0008091B100816031
:1016B0008093B100F701E556FF4FE491F0E0EE0FA3
:1016C000FF1FEE58FF4F85919491909330018093C6
:1016D0002F01F701E155FF4FE491E0932E0112E055
:1016E0006ACE8FEFC816D104E104F10409F00CF4BE
:1016F0006CC068E478EE81E090E0A30192010E9462
:10170000011169017A0191E0C91AD108E108F108D3
:1017100084E01111E5CE83E0EFEFCE16D104E104B1
:10172000F10459F154F162E17AE780E090E0A3011D
:1017300092010E94011169017A01B1E0CB1AD1082E
:10174000E108F10884E0EFEFCE16D104E104F104E2
:10175000A1F098F0750164012AE0F594E794D7941C
:10176000C7942A95D1F7F1E0CF1AD108E108F10822
:1017700085E003C081E01111E0CE95B5987F892BFB
:1017800085BD2B8D3C8D220F331FAD8DBE8D0E94EC
:101790008B1228EE33E040E050E00E942B11113014
:1017A000B9F1123009F446C011111CC4C7BC209312
:1017B0003B0130933C0140933D0150933E018091A9
:1017C0006E00826080936E000DC482E0D4CF91E001
:1017D000C114D104F1E0EF06F10484F068E478EE7E
:1017E00081E090E0A30192010E94011169017A0158
:1017F00081E0C81AD108E108F10893E0113009F03E
:10180000C0CF80918100887F892B80938100B9CFE0
:10181000D0928900C092880020933701309338011C
:101820004093390150933A0180916F008260809318
:101830006F00D8C3C092B3002093330130933401BA
:1018400040933501509336018091700082608093FF
:101850007000C8C3802F0E94F901C4C3C7010E9451
:10186000ED04B090560194EB9B1508F4BBC3EFE375
:10187000F1E090E080E021913191E216F30651F021
:10188000232B09F0A3C0FC01EE0FFF1FE15CFE4F0C
:10189000F182E082FC01EE0FFF1FE80FF91FE25812
:1018A000FD4FF08081819281ABE0AF15F0F161E0F6
:1018B000802F0E9425028F2D90E0AC01440F551F10
:1018C000FA01E80FF91FE75AFD4F202F2F7300810F
:1018D000007C022B008330E020E0F901EE0FFF1FB7
:1018E000E20FF31FE75AFD4F608166FD14C02F5FC2
:1018F0003F4F2C30310589F71092800022E0209371
:1019000081001092850010928400B19A20916F009E
:10191000226020936F00840F951FFC01E75AFD4F52
:1019200080818064808390E080E0BBE0BF1508F494
:1019300059C3B8E5CB2EB2E0DB2EC91AD10897FD0A
:10194000D394CC0CDD1CCC0CDD1C08E810E0081B8B
:10195000110987FD1395000F111F000F111F28019A
:10196000012E000C6608770896010D2C000C440B24
:10197000550B2419350946095709AB2DB0E00E94D3
:10198000201124EB30E040E050E00E940111420EB3
:10199000531E641E751E401651062CF086014C1411
:1019A0005D040CF4820102501109000F111F2FB7C2
:1019B000F8948F2D90E0FC01EE0FFF1FE80FF91F48
:1019C000E75AFD4F128301832FBF0CC30196883065
:1019D000910509F050CF90E080E05CCF8FB7F8948C
:1019E0004091B8015091B9016091BA017091BB0169
:1019F0008FBFF8C2809156016091580140915A0101
:101A000020915C0110915E01909160019093890199
:101A10009091610190938A01E0908901F0908A0190
:101A2000F701F85FE130F04108F0DCC21C861B864C
:101A30001A8219821F8A188E198E1A8EE0E0F8E039
:101A4000F887EF83E82FF0E0FE87ED8770E0788B72
:101A50006F8750E05A8B498B30E03C8B2B8B61E0D9
:101A60000E94250261E08F850E94250261E089893C
:101A70000E94250261E08B890E9425021E8A1D8A30
:101A800084E090E09A8789872F813885032E000CA7
:101A9000440B550B60E077E883E993E00E94011165
:101AA000CA01B901212F30E050E040E00E9401114D
:101AB0002B833C834D835E838701F7FE04C00027A0
:101AC00011270E191F091E141F040CF048C081E0D5
:101AD00090E09A83898374E0E72EF12C01151105BB
:101AE00009F480C20E9461028F88988CA98CBA8CFC
:101AF0002B013C01481859086A087B088B809C80A0
:101B0000AD80BE80481459046A047B0438F36F8B9F
:101B1000788F898F9A8F8B859C8529813A81213096
:101B2000310519F501969C878B872F81388582179F
:101B3000930711F41C861B868B859C8529853A8525
:101B4000B1012530310509F0B7010E947112BC01C5
:101B5000CE0101960E94FE0301501109BFCFEF286C
:101B600009F4B9CF1A821982B6CF892B21F48F815B
:101B700098859C878B878B859C8501979C878B8715
:101B8000DBCF6FE070E080E090E00E9486026CE9BD
:101B9000E62E61E0F62E10E000E0D7018D919D91D8
:101BA0007D01019709F03AC0B02E60E0802F0E94BD
:101BB00025020E942505F801E358FF4F8491F801A2
:101BC000E155FF4FC490F801E556FF4FD49070E007
:101BD00060E0DD2099F081110E94A201ED2DF0E07E
:101BE000EE0FFF1FEF56FF4FA591B491EC91CE225F
:101BF00091E080E009F490E0692F782F072E000C27
:101C0000880B990B0E9408100E9401058B2D0E94E1
:101C1000FC0481E00E94FC040E94BA000F5F1F4F89
:101C20000C31110509F0B9CF00E911E0F12CF801F0
:101C3000819191918F01019731F50E9425058F2D9A
:101C40008770806480937C0080917A0080648093A8
:101C50007A0080917A0086FDFCCF809178006091B7
:101C60007900762F682F072E000C880B990B0E94A5
:101C700008100E9401058F2D0E94FC0482E00E9442
:101C8000FC040E94BA00F394FCE0FF12D0CF8091D4
:101C90008F01882309F460C01091030160E0812F57
:101CA0000E94CB0183E090E00197F1F761E0812F82
:101CB0000E94CB0183E290E00197F1F760E0812F71
:101CC0000E94CB0180910101909102019927FC01B2
:101CD000E155FF4F6491FC01E556FF4FE491F0E0C0
:101CE000EE0FFF1FEF56FF4F8591949100E412E431
:101CF0002FE030E0462F0E94E5066B017C01C11405
:101D0000D104E104F10439F02FEFC21AD20AE20A39
:101D1000F20A8FE0F8220E942505C701B6010E9451
:101D2000061020E030E048EE51E40E94C91120E0A6
:101D300030E040E05FE30E9443100E940105809183
:101D400003010E94FC04809101010E94FC0487E0D1
:101D50000E94FC040E94BA0080918E01882309F43D
:101D600073C00091870110918801C8010E94F2029E
:101D7000882349F0D80116968C918C3009F482C0E2
:101D800038F48B30E9F060E070E080EC9FE741C010
:101D900085518230C0F7F801F2806F2D70E0762F08
:101DA000662766277F778381682B90E080E00E941A
:101DB00006102DEC3CEC4CEC5DE30E9443107FC020
:101DC000F801628170E090E080E00E9406106B01F3
:101DD0007C01D80113961C9117FF0AC0AC019B012E
:101DE00060E070E080E89FEB0E945C116B017C0179
:101DF0001F70612F70E090E080E00E9408102DECD1
:101E00003CEC4CEC5DE30E944310A70196010E945C
:101E10005D110E943B128B010E94250583E00E9408
:101E2000FC040093890110938A01802F0E94FC0416
:101E3000812F0E94FC04809105010E94FC048AE02D
:101E40000E94FC040E94BA0080918D01882309F44D
:101E500071C000918B0110918C01C8010E94F202A7
:101E6000882359F0D80116968C918B3030F08D3044
:101E700050F18551823008F4B8C060E070E080EC29
:101E80009FE73DC0F801F2806F2D70E090E080E0A8
:101E90000E9406104B015C01D80113966C916F7083
:101EA00070E090E080E00E9408102DEC3CEC4CECDF
:101EB0005DE30E944310A50194010E945D11F7FEAD
:101EC000A8CF9058A6CFF801618170E090E080E043
:101ED0000E9408102DEC3CEC4CEC5DE30E9443109A
:101EE0006B017C01D8016C9170E090E080E00E9471
:101EF00008109B01AC01C701B6010E945D110E9450
:101F00003B128B010E94250583E00E94FC04009394
:101F1000890110938A01802F0E94FC04812F0E9466
:101F2000FC04809107010E94FC048BE00E94FC04E9
:101F30000E94BA006AE070E080E090E00E948602B1
:101F400080E090E0892B29F00E94FF0081110E941F
:101F500000004AE0242E312C8CEB91E00E94F3002B
:101F6000892B09F40ECE8CEB91E00E94F300181639
:101F7000190694F78CEB91E00E94D10090918601B4
:101F8000853509F06DC891116BC8809185018F3F2F
:101F900029F481E0809384018093860180918401FB
:101FA0008F5F843308F074C8809384018091860128
:101FB000882391F2809183018111CECF8091840199
:101FC000843050F2109286018091540100915501A5
:101FD000E02EF12C90915301913009F45EC89230BB
:101FE00009F479C910928401B7CFF8016081718139
:101FF00076276727762790E080E00E9406102DEC78
:102000003CEC4CEC5DE30E94431079CFE89409C0AE
:1020100097FB3EF490958095709561957F4F8F4F1B
:102020009F4F9923A9F0F92F96E9BB279395F69531
:10203000879577956795B795F111F8CFFAF4BB0FAF
:1020400011F460FF1BC06F5F7F4F8F4F9F4F16C013
:10205000882311F096E911C0772321F09EE8872F9D
:10206000762F05C0662371F096E8862F70E060E059
:102070002AF09A95660F771F881FDAF7880F9695D2
:10208000879597F908950E9456100C94C7100E94E6
:10209000B91038F00E94C01020F0952311F00C9474
:1020A000B0100C94B61011240C94FB100E94D810A0
:1020B00070F3959FC1F3950F50E0551F629FF0019B
:1020C000729FBB27F00DB11D639FAA27F00DB11DB4
:1020D000AA1F649F6627B00DA11D661F829F22273D
:1020E000B00DA11D621F739FB00DA11D621F839FC4
:1020F000A00D611D221F749F3327A00D611D231F9A
:10210000849F600D211D822F762F6A2F11249F57E7
:1021100050409AF0F1F088234AF0EE0FFF1FBB1FEA
:10212000661F771F881F91505040A9F79E3F5105A9
:1021300080F00C94B0100C94FB105F3FE4F3983ED9
:10214000D4F3869577956795B795F795E7959F5F53
:10215000C1F7FE2B880F911D9695879597F90895E5
:1021600097F99F6780E870E060E008959FEF80EC4A
:10217000089500240A9416161706180609060895ED
:1021800000240A9412161306140605060895092E53
:102190000394000C11F4882352F0BB0F40F4BF2BC2
:1021A00011F460FF04C06F5F7F4F8F4F9F4F089502
:1021B00057FD9058440F551F59F05F3F71F04795F8
:1021C000880F97FB991F61F09F3F79F087950895DD
:1021D000121613061406551FF2CF4695F1DF08C0FC
:1021E000161617061806991FF1CF86957105610519
:1021F00008940895E894BB2766277727CB0197F9C1
:102200000895052E97FB1EF400940E94181157FDA7
:1022100007D00E942B1107FC03D04EF40C94181128
:1022200050954095309521953F4F4F4F5F4F089502
:1022300090958095709561957F4F8F4F9F4F089532
:102240000E944D11A59F900DB49F900DA49F800DED
:10225000911D11240895A1E21A2EAA1BBB1BFD019A
:102260000DC0AA1FBB1FEE1FFF1FA217B307E40775
:10227000F50720F0A21BB30BE40BF50B661F771FCD
:10228000881F991F1A9469F76095709580959095AD
:102290009B01AC01BD01CF010895A29FB001B39F86
:1022A000C001A39F700D811D1124911DB29F700D5F
:1022B000811D1124911D08955058BB27AA270E9403
:1022C00074110C94C7100E94B91038F00E94C0100D
:1022D00020F039F49F3F19F426F40C94B6100EF454
:1022E000E095E7FB0C94B010E92F0E94D81058F34A
:1022F000BA17620773078407950720F079F4A6F5EB
:102300000C94FA100EF4E0950B2EBA2FA02D0B01B1
:10231000B90190010C01CA01A0011124FF27591B2A
:1023200099F0593F50F4503E68F11A16F040A22F30
:10233000232F342F4427585FF3CF469537952795A1
:10234000A795F0405395C9F77EF41F16BA0B620BA0
:10235000730B840BBAF09150A1F0FF0FBB1F661FE7
:10236000771F881FC2F70EC0BA0F621F731F841F2A
:1023700048F4879577956795B795F7959E3F08F050
:10238000B0CF9395880F08F09927EE0F9795879512
:1023900008950E94DD110C94C7100E94C01058F0DF
:1023A0000E94B91040F029F45F3F29F00C94B0105E
:1023B00051110C94FB100C94B6100E94D81068F3C5
:1023C0009923B1F3552391F3951B550BBB27AA27EE
:1023D00062177307840738F09F5F5F4F220F331F28
:1023E000441FAA1FA9F335D00E2E3AF0E0E832D0F0
:1023F00091505040E695001CCAF72BD0FE2F29D0F3
:10240000660F771F881FBB1F261737074807AB07C4
:10241000B0E809F0BB0B802DBF01FF2793585F4F39
:102420003AF09E3F510578F00C94B0100C94FB10DC
:102430005F3FE4F3983ED4F3869577956795B7951B
:10244000F7959F5FC9F7880F911D9695879597F926
:102450000895E1E0660F771F881FBB1F621773079F
:102460008407BA0720F0621B730B840BBA0BEE1FB4
:1024700088F7E09508950E9442126894B1110C9477
:10248000FB1008950E94E01088F09F5798F0B92F34
:102490009927B751B0F0E1F0660F771F881F991F99
:1024A0001AF0BA95C9F714C0B13091F00E94FA1031
:1024B000B1E008950C94FA10672F782F8827B85F41
:1024C00039F0B93FCCF3869577956795B395D9F7F1
:1024D0003EF490958095709561957F4F8F4F9F4FFB
:1024E000089597FB072E16F4009407D077FD09D0C6
:1024F0000E94921207FC05D03EF4909581959F4F63
:102500000895709561957F4F0895EE0FFF1F059018
:10251000F491E02D09940E944D11B7FF0895821B9C
:10252000930B0895AA1BBB1B51E107C0AA1FBB1F39
:10253000A617B70710F0A61BB70B881F991F5A954F
:10254000A9F780959095BC01CD0108950F931F9335
:10255000CF93DF938230910510F482E090E0E09118
:102560009802F091990230E020E0B0E0A0E03097CE
:1025700099F42115310509F44AC0281B390B243080
:102580003105D8F58A819B816115710589F1FB01BF
:1025900093838283FE0111C04081518102811381A6
:1025A00048175907E0F04817590799F4109761F058
:1025B00012960C93129713961C933296CF01DF91CB
:1025C000CF911F910F910895009398021093990253
:1025D000F4CF2115310551F04217530738F0A90106
:1025E000DB019A01BD01DF01F801C1CFEF01F9CF95
:1025F0009093990280939802CDCFFE01E20FF31FD2
:10260000819391932250310939832883D7CF209128
:10261000960230919702232B41F420910B013091C7
:102620000C0130939702209396022091090130917A
:102630000A012115310541F42DB73EB740910D0136
:1026400050910E01241B350BE0919602F0919702F8
:10265000E217F307A0F42E1B3F0B2817390778F079
:10266000AC014E5F5F4F2417350748F04E0F5F1FD8
:102670005093970240939602819391939FCFF0E0FD
:10268000E0E09CCFCF93DF930097E9F0FC01329715
:1026900013821282A0919802B0919902ED0130E06C
:1026A00020E01097A1F420813181820F931F2091A7
:1026B0009602309197022817390709F061C0F0930C
:1026C0009702E0939602DF91CF910895EA01CE1729
:1026D000DF07E8F54A815B819E0141155105B1F79D
:1026E000E901FB83EA8349915991C40FD51FEC1787
:1026F000FD0761F4808191810296840F951FE901A5
:1027000099838883828193819B838A83F0E0E0E0D0
:1027100012968D919C9113970097B9F52D913C914C
:102720001197CD010296820F931F2091960230914E
:1027300097022817390739F6309751F51092990208
:1027400010929802B0939702A0939602BCCFD383C5
:10275000C28340815181840F951FC817D90761F446
:102760004E5F5F4F88819981480F591F5183408385
:102770008A819B81938382832115310509F0B0CF33
:10278000F0939902E09398029ECFFD01DC01C0CF47
:0A27900013821282D7CFF894FFCF16
:10279A00FF0C000D00FFFFFFFF00009A02800000FF
:1027AA0000000035018D00C2008201F300D100E56E
:0427BA00000D0A0004
:00000001FF
