:100000000C9463000C948B000C948B000C948B006C
:100010000C948B000C948B000C948B000C947B0B39
:100020000C94540E0C948B000C948B000C94790C53
:100030000C948B000C948B000C948B000C948B0014
:100040000C942F0C0C948B000C94FD0B0C94D70B80
:100050000C948B000C948B000C948B000C948B00F4
:100060000C94350D0C948B00000000002400270038
:100070002A0000000000250028002B0002000000DC
:100080000800020100000304070000000000000057
:1000900000000000002300260029000404040404DA
:1000A0000404040202020202020303030303030125
:1000B00002040810204080010204081020010204FC
:1000C000081020004C0F11241FBECFEFD8E0DEBF78
:1000D000CDBF12E0A0E0B1E0ECE0FCE402C005908E
:1000E0000D92AE34B107D9F725E0AEE4B2E001C01D
:1000F0001D92A93BB207E1F710E0C3E6D0E004C0CF
:100100002197FE010E94EF23C236D107C9F70E9452
:10011000CD0F0C9404260C940000AEE8B4E01196C8
:100120008C93119790E0FC01E155FF4FE4911496F8
:10013000EC931497FC01E556FF4FE491F0E0EE0FCD
:10014000FF1FEF56FF4F8591949113969C938E93CA
:100150001297089590916F0380916E032FEF3FEFF8
:10016000981748F4E92FF0E0E25BFC4F208130E083
:100170009F5F90936F03C901089590916F038091E1
:100180006E032FEF3FEF981748F4E92FF0E0E25BA2
:10019000FC4F208130E09F5F90936F03C901089569
:1001A00080916E0390916F03891B990B08950895B8
:1001B0000895AF92BF92CF92DF92EF92FF920F938A
:1001C0001F93CF93DF936C017B018B01040F151FED
:1001D000EB015E01AE18BF08C017D10759F0699155
:1001E000D601ED91FC910190F081E02DC6010995B9
:1001F000892B79F7C501DF91CF911F910F91FF9066
:10020000EF90DF90CF90BF90AF900895FC01538D99
:10021000448D252F30E0842F90E0821B930B5417E0
:1002200010F0CF96089501970895FC01918D828D6D
:10023000981761F0A28DAE0FBF2FB11D5D968C9106
:10024000928D9F5F9F73928F90E008958FEF9FEF45
:100250000895FC01918D828D981731F0828DE80F01
:10026000F11D858D90E008958FEF9FEF0895FC01BB
:10027000918D228D892F90E0805C9F4F821B910988
:100280008F739927089580EC93E00E94370121E055
:10029000892B09F420E0822F089580E090E0892BDB
:1002A00029F00E94430181110C9400000895FC0183
:1002B000A48DA80FB92FB11DA35ABF4F2C91848DC7
:1002C00090E001968F739927848FA689B7892C9324
:1002D000A089B1898C91837080648C93938D848D77
:1002E000981306C00288F389E02D80818F7D80837A
:1002F0000895EF92FF920F931F93CF93DF93EC013A
:1003000081E0888F9B8D8C8D98131AC0E889F989BC
:10031000808185FF15C09FB7F894EE89FF896083BF
:10032000E889F98980818370806480839FBF81E040
:1003300090E0DF91CF911F910F91FF90EF90089582
:10034000F62E0B8D10E00F5F1F4F0F731127E02E5D
:100350008C8D8E110CC00FB607FCFACFE889F98995
:10036000808185FFF5CFCE010E945701F1CFEB8D43
:10037000EC0FFD2FF11DE35AFF4FF0829FB7F89469
:100380000B8FEA89FB8980818062CFCFCF93DF9387
:10039000EC01888D8823B9F0AA89BB89E889F9899D
:1003A0008C9185FD03C0808186FD0DC00FB607FCD2
:1003B000F7CF8C9185FFF2CF808185FFEDCFCE0105
:1003C0000E945701E9CFDF91CF910895833081F0EA
:1003D00028F4813099F08230A9F008958730A9F08F
:1003E0008830C9F08430B1F4809180008F7D03C0E3
:1003F000809180008F7780938000089584B58F77F7
:1004000084BD089584B58F7DFBCF8091B0008F7738
:100410008093B00008958091B0008F7DF9CF1F9335
:10042000CF93DF93282F30E0F901E358FF4F8491F9
:10043000F901E155FF4FD491F901E556FF4FC49101
:10044000CC23A9F0162F81110E94E601EC2FF0E0D9
:10045000EE0FFF1FEE58FF4FA591B4918FB7F894A0
:10046000EC91111108C0D095DE23DC938FBFDF9192
:10047000CF911F910895DE2BF8CF90910001891341
:100480000BC0ECE7F0E0E4919FEF90930001E130C6
:1004900049F028F0E23061F060E00C940F02109215
:1004A0006E00FACF90916F009D7F90936F00F4CF14
:1004B000909170009D7F9093700091E09093B000B8
:1004C0009091B100987F94609093B1001092B30026
:1004D000E3CFCF93DF9390E0FC01E155FF4F2491F0
:1004E00085569F4FFC0184918823C9F090E0880FC6
:1004F000991FFC01E859FF4FA591B491FC01EE58FA
:10050000FF4FC591D49161110DC09FB7F8948C91A4
:10051000209582238C938881282328839FBFDF9195
:10052000CF910895623051F49FB7F8943C91822F97
:10053000809583238C93E8812E2BEFCF8FB7F8948F
:10054000EC912E2B2C938FBFEACF1F93CF93DF9389
:10055000182FEB0161E00E946902209739F460E0F6
:10056000812FDF91CF911F910C940F02CF3FD105C6
:1005700011F461E0F5CFE12FF0E0E358FF4FE49193
:10058000E33031F140F4E130B1F0E230E1F0C03875
:10059000D1057CF7E4CFE73029F1E83059F1E430B8
:1005A000B1F780918000806280938000D0938B00AF
:1005B000C0938A0004C084B5806884BDC7BDDF9144
:1005C000CF911F91089584B5806284BDC8BDF7CFD7
:1005D00080918000806880938000D0938900C093D0
:1005E0008800EDCF8091B00080688093B000C09308
:1005F000B300E5CF8091B00080628093B000C093DB
:10060000B400DDCF3FB7F89480919A0290919B029D
:10061000A0919C02B0919D0226B5A89B05C02F3FDA
:1006200019F00196A11DB11D3FBFBA2FA92F982F18
:100630008827BC01CD01620F711D811D911D42E013
:10064000660F771F881F991F4A95D1F708958F92DB
:100650009F92AF92BF92CF92DF92EF92FF926B0187
:100660007C010E9402034B015C01C114D104E1042E
:10067000F104B9F00E940203681979098A099B09FB
:10068000683E73408105910580F321E0C21AD108CC
:10069000E108F10888EE880E83E0981EA11CB11CC9
:1006A000E4CFFF90EF90DF90CF90BF90AF909F90FE
:1006B0008F9008950F931F93CF93DF93EC018B01DD
:1006C00088859985029749F46130710509F436C02F
:1006D0004CF560E00115110591F188859985049725
:1006E00049F40130110509F451C09CF501151105BB
:1006F00009F43BC088859985059709F0C5C00A3083
:10070000110508F0C1C0F801E857FC4F0C94EF2325
:10071000DA03E403F20304041C041E0424042E047C
:100720003C0442046230710591F060E00330110531
:10073000A1F68C850E940F0260E005C061E08C8507
:100740000E940F0261E08E850E940F02C6CF61E019
:10075000F0CF0230110501F10330110559F661E0C7
:100760008C850E940F0260E01CC061E08C850E94B5
:100770000F0260E08E850E940F0261E088890E946E
:100780000F0260E08A890E940F02B4CF60E08C857E
:100790000E940F0261E0EECF60E08C850E940F02A4
:1007A00061E08E850E940F0260E088890E940F023E
:1007B00061E0E8CF60E08C850E940F0261E08E85E9
:1007C0000E940F0261E009C060E08C850E940F0268
:1007D00061E08E850E940F0260E088890E940F020E
:1007E00060E00DC060E08C850E940F0261E08E85A4
:1007F0000E940F0260E088890E940F0261E08A89EE
:100800000E940F0261E011C060E08C850E940F021F
:1008100061E08E850E940F0260E088890E940F02CD
:1008200061E08A890E940F0260E08C89DF91CF919C
:100830001F910F910C940F0261E0E7CF61E08C856E
:100840000E940F0260E0E5CF61E08C850E940F02FC
:1008500060E08E850E940F0261E0DFCF61E08C8551
:100860000E940F0260E08E850E940F0261E088897D
:100870000E940F0260E0D5CF61E08C850E940F02DC
:1008800060E09DCF60E0F9CFDF91CF911F910F9194
:10089000089520917502260F3327331F2132310529
:1008A000ECF420919603FC0190E080E0243069F0A4
:1008B00082E00895A09175022191AC014B5A5D4FE1
:1008C000A40FB52FB11D2C930196861798F3809134
:1008D0007502680F6093750280E0089581E00895C5
:1008E0001092960381E0809395031092700361E06B
:1008F00082E10E940F0261E083E10E940F02E9EBB6
:10090000F0E080818E7F808380818D7F808388E48A
:100910008093B80085E48093BC000895CF93DF9363
:1009200091E0909354028823B9F0C091B800D0911F
:10093000BA008091BC008A7B8093BC0060E082E1B9
:100940000E940F0260E083E10E940F020E94700487
:10095000D093BA00C093B800DF91CF9108958F92E1
:100960009F92AF92BF92CF92DF92EF92FF920F933E
:100970001F93CF93DF93D091BF03D13208F0D7C03C
:10098000182FC091BE030E9402036B017C0180916D
:10099000960381116BC082E08093960310939503B8
:1009A0008FEF8093940310929303D0939203AEE958
:1009B000B3E0E2E7F3E080E0D81391C01092710356
:1009C00080917103CC0FC82BC09371038091700389
:1009D000813009F088C0109270030E9402036B01FD
:1009E0007C01809171038093BB008091980390916A
:1009F0009903A0919A03B0919B03892B8A2B8B2B8F
:100A0000A1F00E9402030091980310919903209194
:100A10009A0330919B036C197D098E099F09061773
:100A200017072807390708F442C08091BC0083FDEE
:100A3000D8CF85EC8093BC000E9402036B017C013F
:100A400080919603823009F450C0809194038F3FC7
:100A500009F46FC080919403803209F46CC08091D6
:100A60009403803309F469C084E026C08091980320
:100A700090919903A0919A03B0919B03892B8A2BA3
:100A80008B2B09F484CF0E940203809098039090EE
:100A90009903A0909A03B0909B036C197D098E096D
:100AA0009F0986169706A806B90608F070CF8091B0
:100AB00097030E948E0485E010929D031092BF035D
:100AC00010929C03DF91CF911F910F91FF90EF90B7
:100AD000DF90CF90BF90AF909F908F9008959D91A1
:100AE00091938F5F69CF85EEA5CF80919803909108
:100AF0009903A0919A03B0919B03892B8A2B8B2B8E
:100B000009F49ECF0E94020300919803109199036B
:100B100020919A0330919B036C197D098E099F09DE
:100B2000061717072807390708F08ACFC0CF81E0DA
:100B3000C3CF80E0C1CF82E0BFCF83E0BDCF0895B7
:100B4000E0916F0380916E03E81730F4F0E0E25B10
:100B5000FC4F808190E008958FEF9FEF0895CF9232
:100B6000DF92EF92FF920F931F93CF93DF937C015D
:100B7000CB018A0120919C03222389F0EB016B01B8
:100B8000C40ED51ECC15DD0569F06991D701ED9134
:100B9000FC910190F081E02DC7010995F3CF642FFE
:100BA0000E944904C801DF91CF911F910F91FF90DE
:100BB000EF90DF90CF900895CF93DF931F92CDB742
:100BC000DEB7698320919C032223F9F02091BF03B3
:100BD000203258F021E030E0FC013383228390E0A2
:100BE00080E00F90DF91CF91089580919D03E82FD1
:100BF000F0E0E256FC4F998190838F5F80939D03D4
:100C00008093BF0381E090E0ECCF61E0CE010196DC
:100C10000E944904F7CF682F8DE594E00C94DC0521
:100C2000CF93DF93F0E0E0E0EB01C40FD51F988194
:100C3000992311F0903320F48E2FDF91CF910895F6
:100C400086EC890F8730C0F385EA890F8630A0F3E0
:100C500085E8890F853080F321E030E097FF21C0DF
:100C6000923CE0F022E095FF06C023E094FF03C031
:100C700024E093FD25E0DE01119630E0CD018C1BD0
:100C80009D0B821793076CF48D9190E0689415F892
:100C9000959587951694E1F7029781F34F5F5F4F23
:100CA000C3CF3196420F531FBFCFFC01248131E0E7
:100CB00030939C032093BE0310929D031092BF03B8
:100CC0008385862B90E00E940B0681E00C94AF0494
:100CD000CF92DF92EF92FF92CF93DF93DC011796D2
:100CE000CC911797D0E06111DC2F18962C911897B2
:100CF00030E0220F331F2F563F4F50E040E0F90104
:100D000085919491FC01F080BA0190E080E0EF2D94
:100D1000EC23ED1310C04F5F5F4F1D96CD90DD901B
:100D2000ED90FC9050976C157D058E059F0538F36E
:100D30006FEF7FEFCB01DF91CF91FF90EF90DF90CE
:100D4000CF9008958F929F92AF92BF92CF92DF92F1
:100D5000EF92FF920F931F93CF93DF93CDB7DEB740
:100D6000C054D1400FB6F894DEBF0FBECDBF2FB731
:100D7000F89440914A0350914B0360914C03709159
:100D80004D032FBFFC0101851285238534856A013F
:100D90007B01C01AD10AE20AF30A97018601003DDD
:100DA000174021053105B0F4FC018189C05CDE4F9C
:100DB0000FB6F894DEBF0FBECDBFDF91CF911F916C
:100DC0000F91FF90EF90DF90CF90BF90AF909F90EA
:100DD0008F9008958C01FC01418752876387748747
:100DE0001482138212821182108262E085810E9435
:100DF000690261E070E080E090E00E94270361E01A
:100E0000F80185810E94690260E0F80185810E94F5
:100E10000F02F80186818551823028F58BE291E13D
:100E20000197F1F762E0F80185810E946902F801FB
:100E3000828990E08230910538F0880F991F880FE1
:100E4000991F05970197F1F7F89460E0C8010E9497
:100E500068066F3F7F4F8F4F9F4F61F4F801118AF3
:100E6000789480E0A3CF64E170E080E090E00E949D
:100E70002703D8CF61E0C8010E9468066F3F7F4F0B
:100E80008F4F9F4F59F3CE0101967C015E019FEB7E
:100E9000A91A9EEFB90A670160E0C8010E946806BE
:100EA000F601608371838283938361E0C8010E94AD
:100EB0006806F6016483758386839783F8E0CF0E16
:100EC000D11CCA14DB0441F7789430E020E0F7012C
:100ED00080809180A280B380448155816681778132
:100EE000FFEF8F169F06AF06BF0631F04F3F8FEF23
:100EF00058076807780719F4F801118AB2CFF90189
:100F000083E0F595E7958A95E1F7E00FF11F808181
:100F1000880F84169506A606B706F0F080832F5F2B
:100F20003F4FF8E0EF0EF11C2832310581F6F80151
:100F3000448120818181280F3327331F8281280F2C
:100F4000311D8381820F932F911D99274817190610
:100F500099F681E0818B2ACF8160E0CFFC01EE0F12
:100F6000FF1FE25DFC4F208131812130310511F4FA
:100F70001182108261E00C946902682F80EC93E08A
:100F80000C947901CF92DF92EF92FF92CF936B0195
:100F90007C0183E00E94BD07C701B6010E94852342
:100FA000862FC72F6093C4027093C5020E94BD07AD
:100FB0008C2FCF91FF90EF90DF90CF900C94BD07D6
:100FC0000F931F93CF93DF938B01D82FC92F82E00C
:100FD0000E94BD07C801AD2FBC2F80935002909393
:100FE0005102A0935202B09353020E94BD07812F79
:100FF0000E94BD078D2F0E94BD078C2FDF91CF91DE
:101000001F910F910C94BD078FEF0E94BD0785E5DE
:101010000C94BD070F931F93CF93DF93DC0157967A
:10102000ED91FC9140910503808510E0481708F090
:1010300064C0142F11700091020301114FC0842F5E
:1010400090E0880F991FE80FF91F0184F285E02DC9
:101050002CEE3FEF112311F024E130E0C0910303A7
:10106000D09104032C0F3D1FC90163E470E00E947E
:10107000C723E617F70760F0C90168E270E00E9435
:10108000C7236F5F7F4F81E090E06E177F0710F5F9
:101090002C0F3D1FC90163E470E00E94C723E617CF
:1010A000F70750F0C90168E270E00E94C7236F5F44
:1010B0007F4F6E177F0760F42C0F3D1FC90163E45B
:1010C00070E00E94C723E617F707E8F41FEF15C08A
:1010D00082E090E090934F0280934E020F5F009366
:1010E000020380914E0290914F020817190628F0D2
:1010F000109202034F5F40930503812FDF91CF9140
:101100001F910F910895C90168E270E00E94C72302
:101110006F5F7F4F6E177F07C8F283E090E0DACFF2
:10112000089590E080E008955F926F927F928F9291
:101130009F92AF92BF92CF92DF92EF92FF920F9366
:101140001F93CF93DF937C01562EDC015796ED91D0
:10115000FC913F964A01B4E18B0E911CD3E4CD2E55
:10116000D12CC401B6010E94C7235B01C8E2D0E0C4
:10117000C401BE010E94C7233B018FEF681A780AA1
:1011800024513109C901B6010E94C7234B01C9018D
:10119000BE010E94C7239B012F5F3F4F04511109DD
:1011A000C801B6010E94C7236B01C801BE010E949D
:1011B000C7236F5F7F4F80E090E0DC0140E0C0819B
:1011C000D181CA15DB0568F16C167D0650F1C2812C
:1011D000D381C815D90510F12C173D0720F1880FD0
:1011E000991FAA1FBB1F816034964F5F5412E7CF2F
:1011F000F70183879487A587B68781E0DF91CF9138
:101200001F910F91FF90EF90DF90CF90BF90AF9024
:101210009F908F907F906F905F900895CC15DD0523
:1012200010F480E0EBCF6C177D07D8F3880F991F7F
:10123000AA1FBB1FD9CF0F931F93CF938C01C62F2B
:101240000E9455066C2F6460C8010E9455066C2FE1
:101250006B7FC8010E94550683EC90E00197F1F77F
:10126000CF911F910F9108950F931F93CF93DF9309
:101270008C01D62FC42F607F642B0E941B0980E154
:10128000D89FB00111246C2BC801DF91CF911F9121
:101290000F910C941B09CF93DF93CDB7DEB728973E
:1012A0000FB6F894DEBF0FBECDBF28E0E2E7F1E055
:1012B000DE01119601900D922A95E1F7FC0120853F
:1012C000241710F44FEF420F50E0440F551F21E058
:1012D00030E02C0F3D1F420F531FFA012081620F97
:1012E000606840E028960FB6F894DEBF0FBECDBF11
:1012F000DF91CF910C94340941E00E94340981E0E0
:1013000090E0089542E050E06EEA71E080EC93E0F6
:101310000C94D9000C9482090F931F93CF93DF9301
:10132000EC0188819981009759F02A813B81261729
:10133000370730F081E0DF91CF911F910F91089531
:101340008B016F5F7F4F0E942125009759F0998391
:1013500088831B830A832C813D81232B59F7FC0151
:101360001082E8CF80E0E7CF85ED8093BC008091CC
:10137000980390919903A0919A03B0919B030796CB
:10138000A11DB11D23E0B695A795979587952A9540
:10139000D1F72091BC0024FD03C01092960308955C
:1013A000409198035091990360919A0370919B0327
:1013B000452B462B472B69F30097A105B10541F05A
:1013C00025E32A95F1F700000197A109B109E1CFC2
:1013D000809197030C948E04CF93DF93EC0189895D
:1013E0009A89009749F0FC01108E48E050E06FEFB9
:1013F00070E007960E94E725188E198E8D858D8BDB
:1014000040E061E0CE010E9434098BE39FE1019747
:10141000F1F7DF91CF9108956F927F928F929F9213
:10142000AF92BF92CF92DF92EF92FF920F931F93F2
:10143000CF93DF93EC01742E022F2A8130E050E02D
:1014400040E090E080E0821793070CF0AEC0EB81A3
:10145000FC81E40FF51F495F5F4FA081B1816A17DE
:101460007B0769F4682E188DDE01179680E0181747
:1014700041F09D91691609F474C08F5FF8CF019611
:10148000E2CF183008F07CC081E0810F888F6E01B8
:101490008FE0C80ED11CBF016E5F7F4F88E0D60180
:1014A0001D928A95E9F75601F60130E020E090E8B8
:1014B000F92EDB0143E050E08D918F2190E0022E68
:1014C00002C0880F991F0A94E2F7042E02C0959576
:1014D00087950A94E2F79081892B80834F5F5F4F55
:1014E0004830510549F7F6942F5F3F4F3196283029
:1014F0003105F9F68D809E80E12EF12CB70183E055
:10150000660F771F8A95E1F7606440E0C4010E948E
:101510003409B8E0CB0ED11CF50161915F01D40113
:10152000ED91FC910190F081E02DC4010995CA1460
:10153000DB0491F7FE01EE0DFF1D6782ED81FE8158
:101540006789061720F0802F0E94BB23092F708E19
:10155000018F8585858B402F672DCF010E944B0918
:10156000812FDF91CF911F910F91FF90EF90DF902E
:10157000CF90BF90AF909F908F907F906F90089585
:10158000E881F9810190F081E02DCE01DF91CF91CA
:101590001F910F91FF90EF90DF90CF90BF90AF9091
:1015A0009F908F907F906F9009948FEFDACF0F9379
:1015B0001F93CF93DF938C01EB016E377105E0F041
:1015C000DC0154968C9154978617170630F0539689
:1015D0008C9186171706A9F0A0F0F80181899289ED
:1015E0000097A9F0218D408DBE010E940C0A8F3F0B
:1015F00071F0C82FD0E005C06032710510F4CAE266
:10160000D0E0CE01DF91CF911F910F910895D801C5
:101610001E962C9130E090E080E0821793077CF7D3
:10162000AC01440F551F480F591FD8011F96ED916B
:10163000FC91E40FF51F40815181C417D50721F4B7
:10164000C281CF3FB9F6DBCF0196E7CF0F931F934F
:10165000CF93DF938C01EB016E377105E0F0DC0175
:1016600054968C9154978617170630F053968C91A8
:1016700086171706A9F0A0F0F801818992890097D2
:10168000A9F0218D408DBE010E940C0A8F3F71F0A0
:10169000C82FD0E005C06032710510F4CAE2D0E076
:1016A000CE01DF91CF911F910F910895CE01815A04
:1016B00091098F359105A0F3D8011E962C9130E049
:1016C00090E080E0821793074CF7AC01440F551F60
:1016D000480F591FD8011F96ED91FC91E40FF51F9B
:1016E00040815181C417D50721F4C281CF3F89F6CB
:1016F000D5CF0196E7CF1F920F920FB60F9211240C
:101700002F933F934F935F936F937F938F939F9309
:10171000AF93BF93EF93FF938091A3029091A402A4
:10172000A091A502B091A602892B8A2B8B2BD1F117
:1017300090919E02E0919F02F091A0028081892702
:1017400080838091A3029091A402A091A502B09100
:10175000A602181619061A061B069CF48091A3020D
:101760009091A402A091A502B091A6020197A109AF
:10177000B1098093A3029093A402A093A502B09311
:10178000A602FF91EF91BF91AF919F918F917F91B1
:101790006F915F914F913F912F910F900FBE0F90DE
:1017A0001F901895809100010E943D02EACF1F9280
:1017B0000F920FB60F9211242F933F934F935F9385
:1017C0006F937F938F939F93AF93BF93EF93FF9309
:1017D00080EC93E00E945701FF91EF91BF91AF9190
:1017E0009F918F917F916F915F914F913F912F9139
:1017F0000F900FBE0F901F9018951F920F920FB66B
:101800000F9211242F938F939F93EF93FF93E09167
:10181000D003F091D1038081E091D603F091D703FA
:1018200082FD1BC090818091D9038F5F8F732091BF
:10183000DA03821741F0E091D903F0E0E054FC4F65
:10184000958F8093D903FF91EF919F918F912F9165
:101850000F900FBE0F901F9018958081F4CF1F92AC
:101860000F920FB60F9211242F933F938F939F9354
:10187000AF93BF9380914A0390914B03A0914C0387
:10188000B0914D033091990223E0230F2D3758F585
:101890000196A11DB11D2093990280934A03909354
:1018A0004B03A0934C03B0934D0380919A02909107
:1018B0009B02A0919C02B0919D020196A11DB11DB9
:1018C00080939A0290939B02A0939C02B0939D02F6
:1018D000BF91AF919F918F913F912F910F900FBE2C
:1018E0000F901F90189526E8230F0296A11DB11D99
:1018F000D2CF1F920F920FB60F9211242F933F93C6
:101900004F935F936F937F938F939F93AF93BF9307
:10191000CF93DF93EF93FF9380919802C0918D0452
:10192000D0E087FF24C0109285001092840080913F
:1019300098028F5F8093980280919802082E000C85
:10194000990B8C179D0724F4809198028C30C4F178
:101950008091840090918500049680349C4908F41D
:101960007AC08091840090918500049676C0809121
:101970009802082E000C990B8C179D07C4F6E09175
:1019800098028E2FEE0F990BFC01EE0FFF1FE80F50
:10199000F91FE759FB4F808186FFC9CFE09198027C
:1019A0008E2FEE0F990BFC01EE0FFF1FE80FF91FB2
:1019B000E759FB4F808160E08F730E940F02B7CF21
:1019C0002091840030918500E09198028E2FEE0FD7
:1019D000990BFC01EE0FFF1FE80FF91FE759FB4FB2
:1019E00081819281820F931F909389008093880058
:1019F000E09198028E2FEE0F990BFC01EE0FFF1F66
:101A0000E80FF91FE759FB4F808186FF11C0E09175
:101A100098028E2FEE0F990BFC01EE0FFF1FE80FBF
:101A2000F91FE759FB4F808161E08F730E940F021D
:101A3000FF91EF91DF91CF91BF91AF919F918F91E6
:101A40007F916F915F914F913F912F910F900FBEBA
:101A50000F901F90189580E49CE9909389008093E3
:101A600088008FEF80939802E3CF1F920F920FB6FA
:101A70000F9211242F933F934F935F936F937F9314
:101A80008F939F93AF93BF93EF93FF938091B90090
:101A9000887F803609F44AC0F0F5883209F4A7C07F
:101AA00018F5803109F49BC0B8F4882309F4F9C013
:101AB000883009F494C0FF91EF91BF91AF919F914D
:101AC0008F917F916F915F914F913F912F910F90E7
:101AD0000FBE0F901F901895883109F488C080328E
:101AE00051F78093940314C0803409F49DC040F4EE
:101AF0008033B9F38833F9F68093940385ECB0C052
:101B0000803509F485C0883509F496C0883499F683
:101B10000E94B409D0CF883909F48CC038F58837D1
:101B200029F050F4883611F0803729F683E080934D
:101B300096031092970257C0883809F47BC0803909
:101B400019F0803809F0B7CF80919702803208F001
:101B500071C0E091970281E08E0F8093970280918F
:101B6000BB00F0E0E958FD4F80833DC0803B39F079
:101B7000E0F4803A09F479C0883A09F09CCF84E017
:101B8000809396031092760210927502E091C10242
:101B9000F091C20209958091750281110FC081E018
:101BA000809375021092550209C0803C09F4A6CFBB
:101BB000883C09F4A3CF883B09F07DCFE091760201
:101BC00081E08E0F80937602F0E0EB5AFD4F80812A
:101BD0008093BB00909176028091750229C080911C
:101BE00071038093BB0085EC8093BC0064CF90911F
:101BF000930380919203981758F5E091930381E045
:101C00008E0F80939303F0E0EE58FC4F8081E9CF74
:101C1000E091930381E08E0F809393038091BB004A
:101C2000F0E0EE58FC4F80839091930380919203F3
:101C30009817C8F285E8D8CFE091930381E08E0F22
:101C4000809393038091BB00F0E0EE58FC4F8083BB
:101C50008091950381115CCF81E08093700384EAC9
:101C60008093BC001092960326CF85EC8093BC0035
:101C70001092960380919702803230F4E09197029F
:101C8000F0E0E958FD4F10826091970270E0E0911A
:101C9000BF02F091C00287E792E009951092970287
:101CA0000ACF1092940334CF1F920F920FB60F9267
:101CB00011242F933F934F935F936F937F938F9351
:101CC0009F93AF93BF93EF93FF93E0919004F091B4
:101CD00091049081809192049823209193043091F3
:101CE00094042F3F320731F02F5F3F4F309394041D
:101CF0002093930480918E04811135C0911116C0F8
:101D000020919304309194042536310558F01092B7
:101D10009504309398042093970481E0809396046F
:101D200080938E04109294041092930480919005F5
:101D3000813041F480918F05911161C061E0811182
:101D400061C02D9AFF91EF91BF91AF919F918F91BB
:101D50007F916F915F914F913F912F910F900FBEA7
:101D60000F901F90189580918E048130A1F49923D3
:101D7000E9F2E09196048E0F80939604F0E0EE0F66
:101D8000FF1FE257FB4F2091930430919404328758
:101D9000218782E0C5CF80918E04823039F5911180
:101DA00019C0E091960481E0E03720F0809395041B
:101DB00083E0B6CF8E0F80939604F0E0EE0FFF1F06
:101DC000E257FB4F2091930430919404328721878E
:101DD00081E0A6CF209193043091940425363105FB
:101DE00008F4A4CF83E080938E04A0CF80918E046A
:101DF000833009F09BCF992309F494CF97CF8823A0
:101E000021F060E00E940F029DCF2D989BCFCF92D2
:101E1000DF92EF92FF920F931F93E82FF92F05C0E7
:101E2000015011092109310961F19081962394171C
:101E3000B9F305C0015011092109310911F190814F
:101E400096239413F7CFC12CD12CE12CF12C0AC08E
:101E50008FEFC81AD80AE80AF80A0C151D052E05D6
:101E60003F0579F080818623841791F36C2D7D2DB9
:101E70008E2D9F2D1F910F91FF90EF90DF90CF90AF
:101E8000089560E070E080E090E01F910F91FF9076
:101E9000EF90DF90CF9008951092C3031092C20389
:101EA00088EE93E0A0E0B0E08093C4039093C50374
:101EB000A093C603B093C7032EE831E03093C1036B
:101EC0002093C00325EC30E03093CD032093CC0366
:101ED00024EC30E03093CF032093CE0320EC30E0AD
:101EE0003093D1032093D00321EC30E03093D3031F
:101EF0002093D20322EC30E03093D5032093D40317
:101F000026EC30E03093D7032093D6031092D90308
:101F10001092DA031092DB031092DC03109260043B
:101F200010925F048093610490936204A093630411
:101F3000B093640480EA91E090935E0480935D0422
:101F40008EE894E09093A9058093A80580E00E9414
:101F50008D0010928F05E7E7F5E02FEF48EB5BE08F
:101F600080918D048C30B8F491E0980F90938D049B
:101F7000808390E0DC01AA0FBB1FA80FB91FA759EF
:101F8000BB4F12965C934E931197339685E0EF38D2
:101F9000F80731F708952083F8CFCF93DF93CDB7BB
:101FA000DEB7E1970FB6F894DEBF0FBECDBF7894D1
:101FB00084B5826084BD84B5816084BD85B582604E
:101FC00085BD85B5816085BD80916E0081608093FF
:101FD0006E00109281008091810082608093810068
:101FE0008091810081608093810080918000816078
:101FF000809380008091B10084608093B1008091D3
:10200000B00081608093B00080917A0084608093FA
:102010007A0080917A00826080937A0080917A00C1
:10202000816080937A0080917A00806880937A0042
:102030001092C10010926F0310926E0310929D03D4
:102040001092BF030E94700487ED90E09093C2024B
:102050008093C10288ED90E09093C0028093BF020C
:10206000E091D003F091D10382E08083E091CC0332
:10207000F091CD031082E091CE03F091CF0380E187
:1020800080831092D803E091D403F091D50386E0C9
:102090008083E091D203F091D303808180618083BB
:1020A000E091D203F091D303808188608083E09136
:1020B000D203F091D303808180688083E091D203C2
:1020C000F091D30380818F7D808380EC93E00E9428
:1020D000C60168EC70E080E090E00E94270361E0B8
:1020E0008DE00E94690260E08DE00E940F0281E0B5
:1020F00090E090931F0380931E039093210380939D
:1021000020039093230380932203909325038093CD
:1021100024039093270380932603909329038093AD
:10212000280390932B0380932A0390932D0380938D
:102130002C039E012F5F3F4F190180EC93E00E941A
:1021400037016C01892B11F40C940C1980EC93E08D
:102150000E9437011816190684F780EC93E00E945C
:1021600015019091FF02853509F061C091115FC0A2
:102170008091FE028F3F29F481E08093FD028093DD
:10218000FF028091FD028F5F843308F068C0809366
:10219000FD028091FF02882381F28091FC0281116F
:1021A000CCCF8091FD02843040F21092FF02E0918A
:1021B000CD020091CE02E02EF12C1091CC02123013
:1021C00009F4CCC0133009F44FC0113069F5E73081
:1021D00009F055C0F0926701E0926601D090CF02FD
:1021E0008D2D90E09093650180936401F701EE0FCF
:1021F000FF1FE25DFC4F11821082880F991FFC01C6
:10220000E25DFC4F1182108261E0802F0E94690222
:1022100060E08D2D0E94690262E370E080E090E052
:102220000E94270310931D031092FD0286CF809316
:10223000FE02992309F4A5CFE091FD02E23039F4C2
:102240008093FC02F0E0E853FD4F80839ACFE330A7
:10225000C8F39091FC0291509093FC02F3CF10923E
:10226000FD021092FF0295CFEEE2F3E023E0EA34A4
:10227000F20711F40C94F11811921192F7CFF0E0DB
:10228000EB30F10519F410931C03CECFEC30F105BF
:1022900019F410931B03C8CFEE30F10521F481E04F
:1022A00080931A03C1CFE231F105E1F48091190363
:1022B0008111BACF11E010939C0388E68093BE038E
:1022C00010929D031092BF038BE690E00E940B06D4
:1022D00090E080E00E940B0681E00E94AF04109322
:1022E0001903A2CFE130F10581F58091660190914B
:1022F0006701E816F90639F0809164019091650153
:10230000E816F90661F410921D03F701EE0FFF1FA6
:10231000E25DFC4F81E090E09183808385CF8091E6
:10232000680190916901E816F90629F410921C03DE
:1023300010921B03EACF80916A0190916B01E8161D
:10234000F90619F710921A03E0CF329709F06CCF13
:10235000F701EE0FFF1FE25EFC4FDCCFE150E331EF
:1023600008F062CF0E2E000CFF0BE754FE4E0C94CB
:10237000EF23CC111411D5110714DF11141114110E
:10238000C714D3149A1514111411F415141132161C
:102390003D17E81814110C17C7010E94AE07609191
:1023A000CF02802F0E940F023FCFC7010E94AE07CD
:1023B0006091CF0270E0802F0E94A50235CFC70147
:1023C0000E94AE078091CF028093C4028091D00218
:1023D0008093C5028091C4029091C5029AA389A3FB
:1023E0008091D1028093C4028091D2028093C50271
:1023F000A091C402B091C502BCA3ABA31A161B06E0
:102400000CF001C2809100018013CDC0ECE7F0E038
:10241000149117FD09CF61E0802F0E9469021123FA
:10242000B9F0E9A1FAA12F01712C612C60E072E1F1
:102430008AE790E0A3019F010E94362269017A0198
:10244000F1E0CF1AD108E108F108123009F098C183
:1024500029A13AA12901712C612C60E072E18AE77F
:1024600090E0A3010E94362249015A017A016901D4
:1024700031E0C31AD108E108F1088FEFC816D10482
:10248000E104F10409F00CF44EC160E472E48FE061
:1024900090E0A30192010E94362269017A0191E045
:1024A000C91AD108E108F108123009F0F3C082E03E
:1024B000AFEFCA16D104E104F10409F00CF46CC0CA
:1024C00060E970ED83E090E0A30192010E94362262
:1024D00069017A01B1E0CB1AD108E108F10883E083
:1024E000EFEFCE16D104E104F10409F00CF454C06E
:1024F00068E478EE81E090E0A30192010E94362228
:1025000069017A0181E0C81AD108E108F10884E084
:102510009FEFC916D104E104F104F1F1ECF164E29A
:1025200074EF80E090E0A30192010E9436226901DD
:102530007A0191E0C91AD108E108F10885E0FFEFBE
:10254000CF16D104E104F10439F130F162E17AE708
:1025500080E090E0A30192010E94362269017A0195
:10256000A1E0CA1AD108E108F10886E0BFEFCB1656
:10257000D104E104F10481F078F0750164019AE07E
:10258000F594E794D794C7949A95D1F7F1E0CF1AD0
:10259000D108E108F10887E09091B100987F892B7C
:1025A0008093B100C7C08F3F09F03ECE0093000179
:1025B000ECE7F0E014911F3F09F436CE113031F111
:1025C00050F0123009F442C017FD2ECE61E0802F8A
:1025D0000E94690226CF14BC15BC84B5826084BDFC
:1025E00085B5816085BDF701E556FF4FE491F0E0C8
:1025F000EE0FFF1FEE58FF4F85919491F701E155C3
:10260000FF4FE491E093A20210E005CF109280000A
:102610001092810080918100886080938100809178
:102620008100816080938100F701E556FF4FE491BE
:10263000F0E0EE0FFF1FEE58FF4F85919491F701E8
:10264000E155FF4FE491E093A102E5CE1092B00076
:102650001092B1008091B00082608093B0008091B0
:10266000B10081608093B100F701E556FF4FE4911E
:10267000F0E0EE0FFF1FEE58FF4F8591949190937D
:10268000A00280939F02F701E155FF4FE491E09390
:102690009E02C1CEFFEFCF16D104E104F10409F090
:1026A0000CF46CC068E478EE81E090E0A301920144
:1026B0000E94362269017A0181E0C81AD108E10836
:1026C000F10884E011113BCF83E0EFEFCE16D10487
:1026D000E104F10459F154F162E17AE780E090E01D
:1026E000A30192010E94362269017A01A1E0CA1A6F
:1026F000D108E108F10884E0BFEFCB16D104E10472
:10270000F104A1F098F0750164012AE0F594E794D2
:10271000D794C7942A95D1F7E1E0CE1AD108E10801
:10272000F10885E003C081E0111136CF95B5987F9F
:10273000892B85BD29A13AA1220F331FABA1BCA1D2
:102740000E94F52328EE33E040E050E00E9414227E
:102750001130B9F1123009F446C0111165CDC7BC72
:102760002093AB023093AC024093AD025093AE0283
:1027700080916E00826080936E0056CD82E0D4CF4F
:1027800091E0C114D104E1E0EE06F10484F068E4C4
:1027900078EE81E090E0A30192010E943622690167
:1027A0007A01F1E0CF1AD108E108F10893E0113085
:1027B00009F0C0CF80918100887F892B80938100B0
:1027C000B9CFD0928900C09288002093A70230939D
:1027D000A8024093A9025093AA0280916F008260E0
:1027E00080936F0021CDC092B3002093A302309359
:1027F000A4024093A5025093A602809170008260CB
:102800008093700011CD802F0E943D020DCDC70135
:102810000E94AE07C090CF0224EB2C1508F404CD23
:10282000EFEAF2E090E080E021913191E216F306C8
:1028300051F0232B09F0A3C0FC01EE0FFF1FE1555F
:10284000FD4FF182E082FC01EE0FFF1FE80FF91F40
:10285000E958FA4FD080818192813BE03D15F0F13B
:1028600061E0802F0E9469028D2D90E0AC01440F41
:10287000551FFA01E80FF91FE759FB4F202F2F735F
:102880000081007C022B008330E020E0F901EE0F94
:10289000FF1FE20FF31FE759FB4F608166FD14C075
:1028A0002F5F3F4F2C30310589F71092800022E0D6
:1028B000209381001092850010928400B19A20919B
:1028C0006F00226020936F00840F951FFC01E75971
:1028D000FB4F80818064808390E080E0B8E5EB2E40
:1028E000B2E0FB2EE91AF10897FDF394EE0CFF1C01
:1028F000EE0CFF1C08E810E0081B110987FD13957A
:10290000000F111F000F111F4801012E000CAA0813
:10291000BB0897010F2C000C440B550B28193909E3
:102920004A095B09AC2DB0E00E94552224EB30E04F
:1029300040E050E00E943622820E931EA41EB51E77
:10294000ABE0AD1508F470CC801691062CF0870131
:102950008E149F040CF4840102501109000F111F02
:102960002FB7F8948D2D90E0FC01EE0FFF1FE80FBC
:10297000F91FE759FB4F128301832FBF55CC0196F6
:102980008830910509F050CF90E080E05CCF8FB7A0
:10299000F89440914A0350914B0360914C0370911D
:1029A0004D038FBF41CC8091CF026091D102409105
:1029B000D3022091D5021091D7029091D902909321
:1029C000C4029091DA029093C502E090C402F090A4
:1029D000C502F701F85FE130F04108F025CC1C8614
:1029E0001B861A8219821F8A188E198E1A8EE0E0B1
:1029F000F8E0F887EF83E82FF0E0FE87ED8770E0DE
:102A0000788B6F8750E05A8B498B30E03C8B2B8B57
:102A100061E00E94690261E08F850E94690261E0C5
:102A200089890E94690261E08B890E9469021E8A7D
:102A30001D8A84E090E09A8789872F813885032E4C
:102A4000000C440B550B60E077E883E993E00E94AB
:102A50003622CA01B901212F30E050E040E00E9447
:102A600036222B833C834D835E838701F7FE04C0AF
:102A7000002711270E191F091E141F040CF048C04F
:102A800081E090E09A83898374E0E72EF12C0115B0
:102A9000110509F4C9CB0E9402038F88988CA98C78
:102AA000BA8C2B013C01481859086A087B088B80B6
:102AB0009C80AD80BE80481459046A047B0438F3BE
:102AC0006F8B788F898F9A8F8B859C8529813A812E
:102AD0002130310519F501969C878B872F81388528
:102AE0008217930711F41C861B86015011098B85F0
:102AF0009C8529853A856AE070E02530310509F02A
:102B0000B7010E94DB23BC01C1010E945A03BFCF61
:102B1000EF2809F4B9CF1A821982B6CF892B21F494
:102B20008F8198859C878B878B859C8501979C8757
:102B30008B87DBCF8091000390910103009751F0C8
:102B40002091680130916901E216F30609F440C052
:102B50000E94982483E190E00E94FC236C01FC0118
:102B600005838BE08683F701E155FF4FE491D601A1
:102B70001796EC931797F701E556FF4FE4911896D7
:102B8000EC9380E89EE3A0E0B0E0F60185879687AD
:102B9000A787B08BD0920103C092000362E0802F20
:102BA0000E9469022FB7F89480914A0390914B03D9
:102BB000A0914C03B0914D032FBF805D9740A109B8
:102BC000B109F60181879287A387B48787E3828B57
:102BD000F0926901E0926801F701EE0FFF1FE25DDC
:102BE000FC4F1182108220CB809117039091180323
:102BF000009749F020916A0130916B01E216F306CB
:102C000061F10E94982484E290E00E94FC236C0110
:102C10008EE894E0D60158969C938E935797802F18
:102C20000E948D0010928F05D0921803C092170356
:102C300082E08093B0008093B10084E68093B3007B
:102C40008093B4001092B20080918E04833011F40E
:102C500010928E0484E080937000F0926B01E092F9
:102C60006A01BACF8091C6029091C702009711F015
:102C70000E94982411E001E000939C031093BE038E
:102C800010929D031092BF0381E00E94AF04811156
:102C900001C019AB1F5F1F3779F78BE190E00E94ED
:102CA000FC238C01FC011382128229A9248390E168
:102CB000918782E082871386128A118A138A148A86
:102CC000158A968B878B108E118EFF24F394F28ECB
:102CD0008EE791E09183808381E2868781E091E0B5
:102CE000908B87878AE0848786E085871093C70268
:102CF0000093C6028091C302811118C010926F0325
:102D000010926E0310929D031092BF030E947004F4
:102D100087ED90E09093C2028093C10288ED90E02D
:102D20009093C0028093BF02F092C302D80115961F
:102D30001C9215971A968C911A97823018F098E089
:102D400015969C93F801808762E370E080E090E044
:102D50000E942703D8011B966C91C8010E9455065A
:102D600068EE73E080E090E00E94270360E3C80112
:102D70000E941B094BE4E42E46E4F42EC7010197A0
:102D8000F1F760E3C8010E941B09C7010197F1F741
:102D900060E3C8010E941B0983E592E00197F1F707
:102DA00060E2C8010E941B09F8016581606240E091
:102DB000C8010E94340984E0D80116968C9340E043
:102DC0006CE0C8010E94340940E061E0C8010E9443
:102DD00034095BE3E52E5FE1F52EC7010197F1F7BA
:102DE00082E0F801878340E066E0C8010E94340970
:102DF00040E062E0C8010E943409C7010197F1F781
:102E000088E0D8011B968C9360E0C8010E945506AB
:102E1000C8010E94EC0908CA8091CF028093C402C5
:102E20008091D0028093C502E090C402F090C50268
:102E30006701DD24EE24B1E0FB220130A1F419E0AA
:102E400005E061E0802F0E94690261E0812F0E940D
:102E50006902EF2859F4B601802F0E94A50270E0A4
:102E600060E0812FA9CA1AE006E0EBCF70E060E0D5
:102E7000802F0E94A502B601F4CF0091D102E0900C
:102E8000C602F090C702E114F10409F4CDC9C701EC
:102E9000002309F4BECF9090CF028090D0021C8E08
:102EA0001B8E1E8E1D8E18A21F8E70E060E0CE015C
:102EB0004B960E948C092B8D3C8D811136C02115BB
:102EC000310519F0C9010E9498241C8E1B8E18A28E
:102ED0001F8E1E8E1D8E32EDA32E32E0B32E10E01B
:102EE000065F1F4FC501885C9240801791072CF543
:102EF000F50181915F0189831A82CF8CD8A0FFEF01
:102F0000CF1ADF0AB601CE014B960E948C098823A6
:102F100049F32B8D3C8D8F8D98A1B101820F931FAA
:102F20000E94EE25D8A2CF8EDDCF18A21F8E60EBB7
:102F300071E0C9010E94EE25CECF892DD7015796A9
:102F40006C91961618F00E94BB23892FF701808E92
:102F5000818F9585958B482F682DC7010E944B095D
:102F60006DB67EB60F8D18A1C80101962DB73EB77C
:102F7000281B390B0FB6F8943EBF0FBE2DBFADB75F
:102F8000BEB711965D01892B21F00115110511F5D0
:102F90001C92912C812CF501E80DF91D808188236C
:102FA00009F407C1C82ED12C11E087FF43C011E0FE
:102FB000D12CC12C823CF0F13196DE01139611E048
:102FC000880F87FF12C01F5F21912F7730E02D936C
:102FD0003D93F6CF6B8D7C8DA801CD010E94F52528
:102FE000F501E00FF11F1082D4CFC82ED12CE12FB4
:102FF000F0E0012E02C0D594C7940A94E2F7DA8279
:10300000C982EE0FFF1FE20DF31D30E020E0D12C4E
:10301000C12C92918291022E02C0880F991F0A94AE
:10302000E2F791838083C80ED91E2A5F3F4F2E1688
:103030003F0679F7F701828D882309F448C0958906
:10304000808D981708F043C00190F081E02D028434
:10305000F385E02D9601A401B501C7010995D701BB
:1030600056962C91882339F0281748F58FEF820F58
:10307000D70155968C93F7018589821740F1218DF0
:103080003789822F90E00196632F70E00E94DB2346
:10309000892BD1F0108E81E0820F632F0E94BB2319
:1030A000918F8585858B492F60E0C7010E944B0970
:1030B000F0E2CF16D10459F4810E911C6CCFF701C8
:1030C000908D9150890FD4CFC7010E94EC09D70190
:1030D00058969C91589756968C915697981760F7EA
:1030E000ED91FC910084F185E02DB601C7010995B1
:1030F0006C01D701ED91FC910190F081E02D682FDA
:10310000C701BFEFCB16D10409F0D8F50995D70157
:1031100058968C9158978F5F58968C9358975696DF
:103120009C9156978913C8CFF501E80DF91DE10F61
:10313000F11D8081882309F4BFCF5A968C915A974C
:10314000882309F4B9CF59962C91599757963C91F9
:10315000822F90E00196632F70E00E94DB23892B81
:10316000F9F0F701108E81E0820F632F0E94BB23DC
:10317000918F8585858B492F60E0C7010E944B099F
:103180009BCF0995D701ED91FC910190F081E02D45
:103190006D2DC7010995F701808D8F5F808FB7CFA7
:1031A00060E070E0CB010E942703C7010E94EC0998
:1031B00083CF0FB6F8947EBE0FBE6DBE8B8D9C8DF7
:1031C000009711F40C9414110E9498240C9414117B
:1031D0008091C6029091C702009709F01ACE0C9414
:1031E000141110921D0310921C0310921B031092D5
:1031F0001A03109219030E94040860E070E0CB01EA
:103200000E94C20780E00E94BD078FEF0E94BD07A9
:103210000E948A090C9414116FE070E080E090E045
:103220000E9427039EE2E92E93E0F92E10E000E0D1
:10323000D7018D919D917D01019709F03AC0902EA3
:1032400060E0802F0E9469020E940408F801E358A0
:10325000FF4F8491F801E155FF4FA490F801E55626
:10326000FF4FB49070E060E0BB2099F081110E94A4
:10327000E601EB2DF0E0EE0FFF1FEF56FF4FA5919B
:10328000B491EC91AE2291E080E009F490E0692FD6
:10329000782F072E000C880B990B0E940B210E949F
:1032A000E007892D0E94BD0781E00E94BD070E94B2
:1032B0008A090F5F1F4F0E30110509F0B9CF0EE1DB
:1032C00013E0F12CF801819191918F01019729F57B
:1032D0000E9404088F2D806480937C0080917A0086
:1032E000806480937A0080917A0086FDFCCF809183
:1032F000780060917900762F682F072E000C880BDC
:10330000990B0E940B210E94E0078F2D0E94BD07A0
:1033100082E00E94BD070E948A09F394F8E0FF1240
:10332000D1CF80911D03882309F460C010916601FC
:1033300060E0812F0E940F0283E090E00197F1F797
:1033400061E0812F0E940F0283E290E00197F1F784
:1033500060E0812F0E940F028091640190916501CD
:103360009927FC01E155FF4F6491FC01E556FF4FA1
:10337000E491F0E0EE0FFF1FEF56FF4F859194911F
:1033800000E315E720E030E0462F0E94070F4B01D5
:103390005C0181149104A104B10439F02FEF821A69
:1033A000920AA20AB20A3FE0B3220E940408C501B1
:1033B000B4010E94092120E030E048EE51E40E946F
:1033C000132320E030E040E05FE30E9446210E94AA
:1033D000E007809166010E94BD07809164010E9410
:1033E000BD0787E00E94BD070E948A0980911C03E7
:1033F000882309F472C000910003109101030115A4
:10340000110509F4ADC0C8010E94A206882349F045
:10341000D80116968C918C3009F481C038F48B3029
:10342000E9F060E070E080EC9FE741C085518230B8
:10343000C0F7F801F2806F2D70E0762F66276627BF
:103440007F778381682B90E080E00E9409212DEC3A
:103450003CEC4CEC5DE30E9446217EC0F8016281A9
:1034600070E090E080E00E9409214B015C01D801EE
:1034700013961C9117FF0AC0AC019B0160E070E03D
:1034800080E89FEB0E94A6224B015C011F70612F18
:1034900070E090E080E00E940B212DEC3CEC4CECC5
:1034A0005DE30E944621A50194010E94A7220E948B
:1034B00085238B010E940408B801110F880B990B1A
:1034C0000E940B210E94C207809168010E94BD07E3
:1034D0008BE00E94BD070E948A0980911B0388230C
:1034E00009F473C000910003109101030115110547
:1034F00009F422C1C8010E94A206882359F0D8010C
:1035000016968C918B3030F08D3068F18551823079
:1035100008F401C160E070E080EC9FE740C0F80172
:10352000F2806F2D70E090E080E00E9409214B0155
:103530005C01D80113966C916F7070E090E080E0B0
:103540000E940B212DEC3CEC4CEC5DE30E944621EB
:10355000A50194010E94A722F7FEA9CF9058A7CFFA
:1035600010E000E0A7CFF801618170E090E080E01A
:103570000E940B212DEC3CEC4CEC5DE30E944621BB
:103580004B015C01D8016C9170E090E080E00E94FA
:103590000B219B01AC01C501B4010E94A7220E942E
:1035A00085238B010E940408B801110F880B990B29
:1035B0000E940B210E94C207809168010E94BD07F2
:1035C0008CE00E94BD070E948A0980911A0388231B
:1035D000F1F0E0901703F0901803E114F10409F002
:1035E000AEC0CC24CA94DC2C0E940408B601DD0CC9
:1035F000880B990B0E940B210E94C20780916A01DF
:103600000E94BD078EE00E94BD070E948A0980913A
:103610001903882309F4C1C581E080939C0388E6DF
:103620008093BE0310929D031092BF038BE390E042
:103630000E940B0680E00E94AF040E9402036B010F
:103640007C018091960381110BC581E080939603E4
:10365000809395039FEF90939403109293039DE0C2
:10366000909392038093710380917103806D809396
:10367000710380917003813009F0A5C51092700329
:103680000E9402036B017C01809171038093BB0057
:103690008091980390919903A0919A03B0919B0314
:1036A000892B8A2B8B2BA1F00E9402030091980397
:1036B0001091990320919A0330919B036C197D0915
:1036C0008E099F09061717072807390708F4E9C468
:1036D0008091BC0083FDD8CF85EC8093BC000E9414
:1036E00002036B017C0180919603813009F46DC562
:1036F000809193038E3008F08AC580919303E2E7AE
:10370000F3E0AEE4B3E090E0981709F4CFC4219160
:103710002D939F5FF9CFF80160817181762767272C
:10372000762790E080E00E9409212DEC3CEC4CECE7
:103730005DE30E94462133CF10E000E033CF80915B
:103740008E04833009F04DCF8091060381110DC0A6
:103750004BE950E061EB71E080EC93E00E94D9000E
:103760000E94820981E08093060387E994E09093A8
:103770001403809313038091960480931503909112
:103780009504992321F0109295041092960490913B
:1037900095049093160310920B0310920C03109251
:1037A0000D0310920E0390E8D7011A969C93209176
:1037B000990430919A04265831092C35310588F442
:1037C0008430A9F580919B0490919C04819748973F
:1037D00040F480919D0490919E040897089708F406
:1037E0005FC0809115038A3108F491C0E091130302
:1037F000F0911403208131812A30310508F065C031
:1038000010920F038FEF9FEFDC0180930B039093D7
:103810000C03A0930D03B0930E0381E0D7011A9619
:103820008C931A9782E190E08D939C9326C1843407
:10383000C1F680919B0490919C04825491098F97CA
:1038400080F600E312E020E936E040E352E060E277
:10385000C7010E949408882321F2E0911303F0919C
:103860001403EA57FF4F808191810897089708F069
:10387000B8CFF70183859485A585B68580930B0322
:1038800090930C03A0930D03B0930E0380E28093FA
:103890000F0387E090E0909308038093070312C022
:1038A00010920F038FEF9FEFDC0180930B03909337
:1038B0000C03A0930D03B0930E0381E8F7018287F8
:1038C00087E090E091838083D8C0228133812452A5
:1038D00031092A313105D8F443E050E060E0812C11
:1038E000912C540190E04817590708F05AC02481E0
:1038F0003581285031092830310548F42681378137
:1039000022313105C0F12032310508F43FC081E099
:103910008093050389E793E0909304038093030366
:1039200010920203C7010E940A08813009F0CEC03C
:10393000812C912C540110E0D7015796ED91FC9108
:103940005897908580910503891708F046C0C701F4
:103950000E940A08082FC7010E940A08011133C0FB
:10396000813009F0B3C0880C991CAA1CBB1C689458
:1039700080F81F5FE1CF2930310548F22131310550
:1039800030F6880C991CAA1CBB1C06C0880C991C1C
:10399000AA1CBB1C689480F86F5F4E5F5F4F349623
:1039A000A2CF60930F0380920B0390920C03A0921E
:1039B0000D03B0920E0382E190E090930803809390
:1039C0000703F7017FCF013009F080C081117EC06D
:1039D000880C991CAA1CBB1CCCCF812F90E0199697
:1039E0009C938E9318971B968D929D92AD92BC924C
:1039F0001E97882D8F7390E015969C938E93149745
:103A0000940146E0369527954A95E1F72F713327C3
:103A100013963C932E931297940122273071232BF7
:103A200031F4805C9F4F15969C938E93149780E899
:103A3000D7011A968C931A9793FE03C088E81A96BA
:103A40008C93818592858F3C994020F4F701828583
:103A5000816082878EE090E0D7018D939C931093D4
:103A60000F0380920B0390920C03A0920D03B0926F
:103A70000E03909308038093070380910B039091AA
:103A80000C03A0910D03B0910E038D3BE2E49E0761
:103A9000EFEFAE07B10509F4DFC208F0A9C212E0EA
:103AA000C12ED12C873E28E192072FEFA207B10546
:103AB00009F496C208F081C28F3E9041AF4FB10524
:103AC00009F4C2C24AE0C42ED12C8AC2D70157964B
:103AD000ED91FC918385948588974D9708F04DC0B2
:103AE000858596850C970B9708F047C083E08093F7
:103AF00005038CEB91E090930403809303031092F1
:103B00000203C7010E940A088130B9F5C7010E946B
:103B10000A08811132C0812C912C540110E0D70188
:103B20005796ED91FC9158979085809105038917E0
:103B300008F067C0C7010E940A08782E1330C1F050
:103B4000C7010E940A08082F133029F4C7010E94F8
:103B50000A08081312C0B1E07B124AC001110DC05F
:103B6000880C991CAA1CBB1C689480F81F5FD7CFD7
:103B7000C7010E940A08781619F38091150382364E
:103B800008F484C0E0911303F091140382819381BF
:103B9000C397859708F07AC0848195814A974397A7
:103BA00008F074C000EB11E020E135E040EB51E09B
:103BB0006CE2C7010E949408882309F467C080E37F
:103BC00080930F03F70183859485A585B68580933F
:103BD0000B0390930C03A0930D03B0930E0382E0AC
:103BE00090E290930A038093090388E090E053CE1B
:103BF0007110C3CF013009F6880C991CAA1CBB1C9C
:103C0000B5CF812F90E019969C938E9318971B96B1
:103C10008D929D92AD92BC921E97282D30E0892DF9
:103C20001432F8F480E81A968C931A9715963C9300
:103C30002E931497892D90E013969C938E93129750
:103C4000A0FE03C088E81A968C93818592858337FD
:103C50009A4020F4F7018285816082878FE090E0AE
:103C6000FBCE90E81A969C931A9797FE03C098E8AB
:103C70001A969C93D70115963C932E9314978F77A1
:103C800090E013969C938E931297DFCFE0911303ED
:103C9000F091140382819381209115032C33A1F5B7
:103CA000865891098D35910578F584819581CE9757
:103CB0008C9750F506E212E02CE236E044EF51E03A
:103CC0006CE1C7010E9494088823F1F0E09113038E
:103CD000F0911403EA58FF4F80819181079708976C
:103CE00098F4F70183859485A585B68580930B03A9
:103CF00090930C03A0930D03B0930E038CE180937B
:103D00000F0385E090E0C7CD40911503E0911303C8
:103D1000F091140382819381423289F49C012850EE
:103D200031092730310558F4DF01AE5BBF4F2D91CB
:103D30003C91285031092730310508F458C08D577F
:103D400091098735910508F467C0E0911303F0915C
:103D5000140382819381835491098F9780F4809119
:103D60001503843009F08DC084819581819748972F
:103D700030F4868197810897089708F4ACC0D70182
:103D80005796ED91FC918085823209F0B9C0E0919F
:103D90001303F0911403828193810497059708F02F
:103DA000AFC0848195810B970A9708F0A9C00CE0F9
:103DB00013E02CE137E044E051E06FE0C7010E94DE
:103DC0009408882309F49CC0F70183859485A58510
:103DD000B68580930B0390930C03A0930D03B093CF
:103DE0000E038FE080930F0382E090E054CD109299
:103DF0000F038FEF9FEFDC0180930B0390930C0375
:103E0000A0930D03B0930E0381E0D7011A968C9313
:103E10001A9784E090E008CD443208F496CF84816C
:103E20009581CE978C9708F090CF0EE012E02AE2B1
:103E300036E04EE052E060E1C7010E94940888231A
:103E400009F483CFE0911303F0911403EA5BFF4F71
:103E5000808191810897079708F077CFF7018385D4
:103E60009485A585B68580930B0390930C03A0934E
:103E70000D03B0930E0380E180930F0384E090E084
:103E80000ACD843408F47BCF8481958182549109D2
:103E90008F9708F074CF00E312E020E936E040E3AA
:103EA00052E060E2C7010E949408882309F467CFBA
:103EB000F70183859485A585B68580930B03909340
:103EC0000C03A0930D03B0930E0380E280930F03C5
:103ED00080E190E0E0CC10920F038FEF9FEFDC01C8
:103EE00080930B0390930C03A0930D03B0930E03E8
:103EF00081E0D7011A968C931A9780E190E094CCD8
:103F000000911503063008F450C0E0911303F091BE
:103F10001403329625EC3DE94CE151E813E08AE0C8
:103F2000B82E8481958161917191B89E4001B99EAE
:103F3000900C1124DB01AA0FBB1FAA0FBB1FAA0FF5
:103F4000BB1FA12C8A169B0688F0B69ED001B79E97
:103F5000B00D112463E0880F991F6A95E1F7AA2438
:103F6000A394A817B90710F482E0A82E63E971E0C2
:103F700080E091E00E9404229B01AC012A251F5F92
:103F80000113CFCF20930B0330930C0340930D0309
:103F900050930E0380E280930F0310920803109257
:103FA0000703D7011D921C9268CD80918E04833047
:103FB00009F017CB10928E0414CBCC24C394D12CCF
:103FC0008F3CF0E39F07FFEFAF07B10549F0F5E045
:103FD000CF2ED12C873C9843AF4FB10509F072CD5D
:103FE00080918E04833009F0FFCA10928E04FCCABF
:103FF000853A3AE593073FEFA307B10549F198F4F5
:1040000068E0C62ED12C853BFAE49F07FFEFAF078F
:10401000B10531F359E0C52ED12C8D3A9245AF4F01
:10402000B105F1F24FCD873938E693073FEFA3078B
:10403000B105B1F285389A47AF4FB10509F042CDCD
:10404000B3E0CB2ED12CCCCFA4E0CA2ED12CC8CF3C
:10405000E6E0CE2ED12CC4CF77E0C72ED12CC0CF36
:104060008091980390919903A0919A03B0919B033A
:10407000892B8A2B8B2B09F4E4CA0E94020300913E
:1040800098031091990320919A0330919B036C1926
:104090007D098E099F09061717072807390708F0B9
:1040A000D0CA809197030E948E0480E010926F0323
:1040B00080936E038E3008F470C00E94BD00182FEC
:1040C0000E94BD001EA31DA28DA09EA0882A992A31
:1040D0000E94BD00182F0E94BD0018A71FA2AFA00C
:1040E000B8A4A82AB92A0E94BD00182F0E94BD00BA
:1040F0001AA719A6C9A4DAA4C82AD92A0E94BD0001
:104100000E94BD000E94BD00182F0E94BD001CA788
:104110001BA6EBA4FCA4E82AF92A0E94BD00182FD4
:104120000E94BD001EA71DA60DA51EA5082B192BBC
:104130000E94BD00782E0E94BD009A828982BC82B6
:10414000AB82DE82CD82F886EF821A87098778AA51
:104150001FA62FA538A9822B932B9C878B878E01B6
:104160000F5F1F4FF12C0E940408D8016D917D91C3
:104170008D01072E000C880B990B0E940B210E94C9
:10418000C2078F2D0E94BD0782E10E94BD070E94D9
:104190008A09F394B6E0FB12E6CF6AE070E080E0B3
:1041A00090E00E94270380E090E0892B11F40C94AA
:1041B00099100E944301882311F40C9499100E94D5
:1041C00000000C94991085EE88CA80919803909114
:1041D0009903A0919A03B0919B03892B8A2B8B2B77
:1041E00009F481CA0E940203009198031091990377
:1041F00020919A0330919B036C197D098E099F09C8
:10420000061717072807390708F06DCA4ACF8EE04E
:1042100076CAE89409C097FB3EF490958095709516
:1042200061957F4F8F4F9F4F9923A9F0F92F96E902
:10423000BB279395F695879577956795B795F11177
:10424000F8CFFAF4BB0F11F460FF1BC06F5F7F4F14
:104250008F4F9F4F16C0882311F096E911C0772326
:1042600021F09EE8872F762F05C0662371F096E82F
:10427000862F70E060E02AF09A95660F771F881FFE
:10428000DAF7880F9695879597F908950E94592136
:104290000C94CA210E94BC2138F00E94C32120F056
:1042A000952311F00C94B3210C94B92111240C9492
:1042B000FE210E94DB2170F3959FC1F3950F50E022
:1042C000551F629FF001729FBB27F00DB11D639FC8
:1042D000AA27F00DB11DAA1F649F6627B00DA11D6E
:1042E000661F829F2227B00DA11D621F739FB00D14
:1042F000A11D621F839FA00D611D221F749F332784
:10430000A00D611D231F849F600D211D822F762F1C
:104310006A2F11249F5750409AF0F1F088234AF0F9
:10432000EE0FFF1FBB1F661F771F881F9150504065
:10433000A9F79E3F510580F00C94B3210C94FE2107
:104340005F3FE4F3983ED4F3869577956795B795EC
:10435000F795E7959F5FC1F7FE2B880F911D969506
:10436000879597F9089597F99F6780E870E060E076
:1043700008959FEF80EC089500240A9416161706FE
:1043800018060906089500240A9412161306140646
:1043900005060895092E0394000C11F4882352F0A9
:1043A000BB0F40F4BF2B11F460FF04C06F5F7F4F61
:1043B0008F4F9F4F089557FD9058440F551F59F048
:1043C0005F3F71F04795880F97FB991F61F09F3F02
:1043D00079F087950895121613061406551FF2CF2B
:1043E0004695F1DF08C0161617061806991FF1CF7B
:1043F00086957105610508940895E894BB276627A2
:104400007727CB0197F90895DB018F939F930E9443
:104410005522BF91AF91A29F800D911DA39F900D3A
:10442000B29F900D11240895A1E21A2EAA1BBB1B66
:10443000FD010DC0AA1FBB1FEE1FFF1FA217B30770
:10444000E407F50720F0A21BB30BE40BF50B661F86
:10445000771F881F991F1A9469F76095709580954A
:1044600090959B01AC01BD01CF010895052E97FBEE
:104470001EF400940E944D2257FD07D00E94142282
:1044800007FC03D04EF40C944D2250954095309586
:1044900021953F4F4F4F5F4F0895909580957095B0
:1044A00061957F4F8F4F9F4F08950E949722A59F40
:1044B000900DB49F900DA49F800D911D112408951F
:1044C0002F923F924F925F926F927F928F929F9224
:1044D000AF92BF92CF92DF92EF92FF920F931F9312
:1044E000CF93DF93CDB7DEB7CA1BDB0B0FB6F894C3
:1044F000DEBF0FBECDBF09942A88398848885F8403
:104500006E847D848C849B84AA84B984C884DF8073
:10451000EE80FD800C811B81AA81B981CE0FD11D57
:104520000FB6F894DEBF0FBECDBFED010895A29F78
:10453000B001B39FC001A39F700D811D1124911D77
:10454000B29F700D811D1124911D08955058BB27F5
:10455000AA270E94BE220C94CA210E94BC2138F0D6
:104560000E94C32120F039F49F3F19F426F40C94E3
:10457000B9210EF4E095E7FB0C94B321E92F0E94DA
:10458000DB2158F3BA17620773078407950720F0F9
:1045900079F4A6F50C94FD210EF4E0950B2EBA2FBC
:1045A000A02D0B01B90190010C01CA01A001112439
:1045B000FF27591B99F0593F50F4503E68F11A16E5
:1045C000F040A22F232F342F4427585FF3CF469576
:1045D00037952795A795F0405395C9F77EF41F1698
:1045E000BA0B620B730B840BBAF09150A1F0FF0F62
:1045F000BB1F661F771F881FC2F70EC0BA0F621F4E
:10460000731F841F48F4879577956795B795F7953D
:104610009E3F08F0B0CF9395880F08F09927EE0FD2
:104620009795879508950E9427230C94CA210E948C
:10463000C32158F00E94BC2140F029F45F3F29F0CB
:104640000C94B32151110C94FE210C94B9210E94B9
:10465000DB2168F39923B1F3552391F3951B550B97
:10466000BB27AA2762177307840738F09F5F5F4F45
:10467000220F331F441FAA1FA9F335D00E2E3AF084
:10468000E0E832D091505040E695001CCAF72BD09C
:10469000FE2F29D0660F771F881FBB1F26173707ED
:1046A0004807AB07B0E809F0BB0B802DBF01FF271F
:1046B00093585F4F3AF09E3F510578F00C94B32128
:1046C0000C94FE215F3FE4F3983ED4F386957795F2
:1046D0006795B795F7959F5FC9F7880F911D9695D8
:1046E000879597F90895E1E0660F771F881FBB1F34
:1046F000621773078407BA0720F0621B730B840BE1
:10470000BA0BEE1F88F7E09508950E948C236894F9
:10471000B1110C94FE2108950E94E32188F09F5767
:1047200098F0B92F9927B751B0F0E1F0660F771FD5
:10473000881F991F1AF0BA95C9F714C0B13091F0CB
:104740000E94FD21B1E008950C94FD21672F782F80
:104750008827B85F39F0B93FCCF386957795679590
:10476000B395D9F73EF490958095709561957F4FFC
:104770008F4F9F4F0895991B79E004C0991F96179A
:1047800008F0961B881F7A95C9F780950895AA1B93
:10479000BB1B51E107C0AA1FBB1FA617B70710F02C
:1047A000A61BB70B881F991F5A95A9F7809590955E
:1047B000BC01CD01089597FB072E16F4009407D095
:1047C00077FD09D00E94C72307FC05D03EF49095E1
:1047D00081959F4F0895709561957F4F0895EE0FD5
:1047E000FF1F0590F491E02D09940E949722B7FFD6
:1047F0000895821B930B08950F931F93CF93DF931C
:104800008230910510F482E090E0E091B705F091DC
:10481000B80530E020E0B0E0A0E0309799F4211531
:10482000310509F44AC0281B390B24303105D8F56D
:104830008A819B816115710589F1FB0193838283D4
:10484000FE0111C04081518102811381481759072F
:10485000E0F04817590799F4109761F012960C93FD
:10486000129713961C933296CF01DF91CF911F912F
:104870000F9108950093B7051093B805F4CF211553
:10488000310551F04217530738F0A901DB019A01B5
:10489000BD01DF01F801C1CFEF01F9CF9093B80559
:1048A0008093B705CDCFFE01E20FF31F8193919363
:1048B0002250310939832883D7CF2091B505309113
:1048C000B605232B41F420916E0130916F01309396
:1048D000B6052093B50520916C0130916D0121152D
:1048E000310541F42DB73EB74091700150917101EF
:1048F000241B350BE091B505F091B605E217F307DF
:10490000A0F42E1B3F0B2817390778F0AC014E5F3F
:104910005F4F2417350748F04E0F5F1F5093B605C1
:104920004093B505819391939FCFF0E0E0E09CCF59
:10493000CF93DF930097E9F0FC0132971382128244
:10494000A091B705B091B805ED0130E020E01097D7
:10495000A1F420813181820F931F2091B505309100
:10496000B6052817390709F061C0F093B605E09342
:10497000B505DF91CF910895EA01CE17DF07E8F57D
:104980004A815B819E0141155105B1F7E901FB8325
:10499000EA8349915991C40FD51FEC17FD0761F4C3
:1049A000808191810296840F951FE9019983888304
:1049B000828193819B838A83F0E0E0E012968D915F
:1049C0009C9113970097B9F52D913C911197CD01CA
:1049D0000296820F931F2091B5053091B6052817D6
:1049E000390739F6309751F51092B8051092B7058E
:1049F000B093B605A093B505BCCFD383C2834081E5
:104A00005181840F951FC817D90761F44E5F5F4F1E
:104A100088819981480F591F518340838A819B81E6
:104A2000938382832115310509F0B0CFF093B80547
:104A3000E093B7059ECFFD01DC01C0CF1382128247
:104A4000D7CFB0E0A0E0E7E2F5E20C9462228C015F
:104A5000009751F4CB010E94FC238C01C801CDB713
:104A6000DEB7E0E10C947E22FC01E60FF71F9C010B
:104A700022503109E217F30708F49DC0D901CD9106
:104A8000DC911197C617D70798F0C530D10530F3E0
:104A9000CE0104978617970708F3C61BD70B2297FA
:104AA000C193D1936D937C93CF010E949824D6CF6C
:104AB0005B01AC1ABD0A4C018C0E9D1EA091B7057E
:104AC000B091B805512C412CF12CE12C109731F507
:104AD0008091B5059091B6058815990509F05CC0DF
:104AE0004616570608F058C080916C0190916D01F0
:104AF000009741F48DB79EB74091700150917101BC
:104B0000841B950BE817F90708F055C0F093B6051C
:104B1000E093B505F90171836083A0CF8D919C91DD
:104B2000119712966C90129713967C901397A81574
:104B3000B90559F56C0142E0C40ED11CCA14DB045E
:104B400020F1AC014A195B09DA011296159780F041
:104B50006282738251834083D9016D937C93E11407
:104B6000F10471F0D7011396FC93EE93129776CF70
:104B700022968C0F9D1FF90191838083F301EFCF63
:104B8000F093B805E093B70569CF4816590608F4C5
:104B90002C017D01D3019ACFCB010E94FC237C0123
:104BA000009749F0AE01B8010E94DE25C8010E94BD
:104BB0009824870153CF10E000E050CFFB01DC01C7
:104BC00002C001900D9241505040D8F70895DC0189
:104BD00001C06D9341505040E0F70895FB01DC01A6
:104BE00001900D920020E1F70895FB01DC01415096
:104BF000504048F001900D920020C9F701C01D926D
:0C4C000041505040E0F70895F894FFCFB9
:104C0C00FF0104CB100441110480120442130492DE
:104C1C00140481150445160482170483180484199E
:104C2C0004851A044B1B04861C044D1D04481E04E9
:104C3C004F1F04872004502104432204542304886A
:104C4C002404D825045826048927048A28048B298F
:104C5C00048C2A048D2B048E2C04622D048F2E04BC
:104C6C00AC2F04AD0C000D00FFFFFFFF0000B905D9
:104C7C0080000000400014005400000000007C097B
:104C8C00D90091089008260B10060000000079014D
:104C9C00D9000601C60137011501290100000000E9
:104CAC00DC05AF0591089F05D000AA00A0050D0AF0
:104CBC00005468652066756E6374696F6E20646558
:104CCC00636F64652826726573756C74732929206B
:104CDC006973206465707265636174656420616ECC
:104CEC0064206D6179206E6F7420776F726B206118
:104CFC007320657870656374656421204A757374DC
:104D0C0020757365206465636F6465282920776955
:104D1C0074686F7574206120706172616D65746563
:104D2C007220616E642049725265636569766572A2
:104D3C002E6465636F6465644952446174612E3CF2
:0E4D4C006669656C646E616D653E202E000028
:00000001FF
