:100000000C9463000C948B000C948B000C948B006C
:100010000C948B000C948B000C948B000C942B058F
:100020000C948B000C948B000C948B000C94290680
:100030000C948B000C948B000C948B000C948B0014
:100040000C94DF050C948B000C94AD050C94870583
:100050000C948B000C948B000C948B000C948B00F4
:100060000C948B000C948B000000000024002700EF
:100070002A0000000000250028002B0002000000DC
:100080000800020100000304070000000000000057
:1000900000000000002300260029000404040404DA
:1000A0000404040202020202020303030303030125
:1000B00002040810204080010204081020010204FC
:1000C000081020002A0711241FBECFEFD8E0DEBFA2
:1000D000CDBF11E0A0E0B1E0E2EDF6E202C0059094
:1000E0000D92A232B107D9F722E0A2E2B1E001C03D
:1000F0001D92A639B207E1F710E0C3E6D0E004C0D4
:100100002197FE010E942112C236D107C9F70E9431
:100110008F070C9467130C940000AF92BF92CF929C
:10012000DF92EF92FF920F931F93CF93DF936C01B7
:100130007B018B01040F151FEB015E01AE18BF0898
:10014000C017D10759F06991D601ED91FC9101904A
:10015000F081E02DC6010995892B79F7C501DF9162
:10016000CF911F910F91FF90EF90DF90CF90BF90B4
:10017000AF90089542E050E06FE171E088EB91E0CC
:100180000C948D00FC01538D448D252F30E0842F7D
:1001900090E0821B930B541710F0CF9608950197AF
:1001A0000895FC01918D828D981761F0A28DAE0F9C
:1001B000BF2FB11D5D968C91928D9F5F9F73928F23
:1001C00090E008958FEF9FEF0895FC01918D828D4F
:1001D000981731F0828DE80FF11D858D90E008951C
:1001E0008FEF9FEF0895FC01918D228D892F90E074
:1001F000805C9F4F821B91098F739927089588EB2C
:1002000091E00E94F30021E0892B09F420E0822F85
:10021000089580E090E0892B29F00E94FF00811171
:100220000C9400000895FC01A48DA80FB92FB11DF6
:10023000A35ABF4F2C91848D90E001968F7399271C
:10024000848FA689B7892C93A089B1898C918370FA
:1002500080648C93938D848D981306C00288F389F3
:10026000E02D80818F7D80830895EF92FF920F9320
:100270001F93CF93DF93EC0181E0888F9B8D8C8D52
:1002800098131AC0E889F989808185FF15C09FB746
:10029000F894EE89FF896083E889F9898081837009
:1002A000806480839FBF81E090E0DF91CF911F91B8
:1002B0000F91FF90EF900895F62E0B8D10E00F5FD9
:1002C0001F4F0F731127E02E8C8D8E110CC00FB6AF
:1002D00007FCFACFE889F989808185FFF5CFCE0147
:1002E0000E941301F1CFEB8DEC0FFD2FF11DE35AAE
:1002F000FF4FF0829FB7F8940B8FEA89FB898081CA
:100300008062CFCFCF93DF93EC01888D8823B9F043
:10031000AA89BB89E889F9898C9185FD03C0808110
:1003200086FD0DC00FB607FCF7CF8C9185FFF2CF8D
:10033000808185FFEDCFCE010E941301E9CFDF91CF
:10034000CF910895833081F028F4813099F0823084
:10035000A9F008958730A9F08830C9F08430B1F44D
:10036000809180008F7D03C0809180008F77809383
:100370008000089584B58F7784BD089584B58F7DFE
:10038000FBCF8091B0008F778093B000089580916B
:10039000B0008F7DF9CF1F93CF93DF93282F30E0EC
:1003A000F901E358FF4F8491F901E155FF4FD491D2
:1003B000F901E556FF4FC491CC23A9F0162F811106
:1003C0000E94A201EC2FF0E0EE0FFF1FEE58FF4F4E
:1003D000A591B4918FB7F894EC91111108C0D09504
:1003E000DE23DC938FBFDF91CF911F910895DE2B29
:1003F000F8CF9091000189130BC0ECE7F0E0E49195
:100400009FEF90930001E13049F028F0E23061F075
:1004100060E00C94CB0110926E00FACF90916F00C7
:100420009D7F90936F00F4CF909170009D7F90938B
:10043000700091E09093B0009091B100987F94602B
:100440009093B1001092B300E3CFCF93DF9390E08D
:10045000FC01E155FF4F249185569F4FFC0184918B
:100460008823C9F090E0880F991FFC01E859FF4FDD
:10047000A591B491FC01EE58FF4FC591D491611143
:100480000DC09FB7F8948C91209582238C9388811E
:10049000282328839FBFDF91CF910895623051F4C4
:1004A0009FB7F8943C91822F809583238C93E881A9
:1004B0002E2BEFCF8FB7F894EC912E2B2C938FBF70
:1004C000EACF3FB7F8948091280190912901A0913B
:1004D0002A01B0912B0126B5A89B05C02F3F19F02A
:1004E0000196A11DB11D3FBFBA2FA92F982F8827B4
:1004F000BC01CD01620F711D811D911D42E0660F8F
:10050000771F881F991F4A95D1F708958F929F9260
:10051000AF92BF92CF92DF92EF92FF924B015C01BC
:100520000E9461026B017C010E9461026C197D09CD
:100530008E099F09683E734081059105A8F321E06B
:10054000821A9108A108B10888EEC80E83E0D81E6F
:10055000E11CF11C81149104A104B10429F7FF905E
:10056000EF90DF90CF90BF90AF909F908F900895C5
:10057000CF92DF92EF92FF92CF93DF93DC01179639
:10058000CC911797D0E06111DC2F18962C91189719
:1005900030E0220F331F2F563F4F50E040E0F9016B
:1005A00085919491FC01F080BA0190E080E0EF2DFC
:1005B000EC23ED1310C04F5F5F4F1D96CD90DD9083
:1005C000ED90FC9050976C157D058E059F0538F3D6
:1005D0006FEF7FEFCB01DF91CF91FF90EF90DF9036
:1005E000CF9008958F929F92AF92BF92CF92DF9259
:1005F000EF92FF920F931F93CF93DF93CDB7DEB7A8
:10060000C054D1400FB6F894DEBF0FBECDBF2FB798
:10061000F8944091B4015091B5016091B601709188
:10062000B7012FBFFC0101851285238534856A013E
:100630007B01C01AD10AE20AF30A97018601003D44
:10064000174021053105B0F4FC018189C05CDE4F03
:100650000FB6F894DEBF0FBECDBFDF91CF911F91D3
:100660000F91FF90EF90DF90CF90BF90AF909F9051
:100670008F9008958C01FC014187528763877487AE
:100680001482138212821182108262E085810E949C
:10069000250261E070E080E090E00E94860261E067
:1006A000F80185810E94250260E0F80185810E94A1
:1006B000CB01F80186818551823028F58BE291E1EA
:1006C0000197F1F762E0F80185810E942502F801A7
:1006D000828990E08230910538F0880F991F880F49
:1006E000991F05970197F1F7F89460E0C8010E94FF
:1006F000B8026F3F7F4F8F4F9F4F61F4F801118A0F
:10070000789480E0A3CF64E170E080E090E00E9404
:100710008602D8CF61E0C8010E94B8026F3F7F4FC8
:100720008F4F9F4F59F3CE0101967C015E019FEBE5
:10073000A91A9EEFB90A670160E0C8010E94B802D9
:10074000F601608371838283938361E0C8010E9414
:10075000B802F6016483758386839783F8E0CF0E31
:10076000D11CCA14DB0441F7789430E020E0F70193
:1007700080809180A280B380448155816681778199
:10078000FFEF8F169F06AF06BF0631F04F3F8FEF8A
:1007900058076807780719F4F801118AB2CFF901F0
:1007A00083E0F595E7958A95E1F7E00FF11F8081E9
:1007B000880F84169506A606B706F0F080832F5F93
:1007C0003F4FF8E0EF0EF11C2832310581F6F801B9
:1007D000448120818181280F3327331F8281280F94
:1007E000311D8381820F932F911D99274817190678
:1007F00099F681E0818B2ACF8160E0CF0F931F9320
:10080000CF93DF93EC018B0188859985029749F49A
:100810006130710509F436C04CF560E00115110531
:1008200091F188859985049749F40130110509F4FF
:1008300051C09CF50115110509F43BC088859985C7
:10084000059709F0C5C00A30110508F0C1C0F801CC
:10085000E45DFB4F0C9421127E0488049604A804E6
:10086000C004C204C804D204E004E6046230710586
:1008700091F060E003301105A1F68C850E94CB0158
:1008800060E005C061E08C850E94CB0161E08E854F
:100890000E94CB01C6CF61E0F0CF0230110501F11B
:1008A0000330110559F661E08C850E94CB0160E0B0
:1008B0001CC061E08C850E94CB0160E08E850E94A7
:1008C000CB0161E088890E94CB0160E08A890E94A7
:1008D000CB01B4CF60E08C850E94CB0161E0EECF0C
:1008E00060E08C850E94CB0161E08E850E94CB0187
:1008F00060E088890E94CB0161E0E8CF60E08C85F0
:100900000E94CB0161E08E850E94CB0161E009C0AD
:1009100060E08C850E94CB0161E08E850E94CB0156
:1009200060E088890E94CB0160E00DC060E08C85AA
:100930000E94CB0161E08E850E94CB0160E0888936
:100940000E94CB0161E08A890E94CB0161E011C065
:1009500060E08C850E94CB0161E08E850E94CB0116
:1009600060E088890E94CB0161E08A890E94CB0106
:1009700060E08C89DF91CF911F910F910C94CB0196
:1009800061E0E7CF61E08C850E94CB0160E0E5CFBC
:1009900061E08C850E94CB0160E08E850E94CB01D6
:1009A00061E0DFCF61E08C850E94CB0160E08E8545
:1009B0000E94CB0161E088890E94CB0160E0D5CF25
:1009C00061E08C850E94CB0160E09DCF60E0F9CFB3
:1009D000DF91CF911F910F910895FC01EE0FFF1F42
:1009E000E856FE4F208131812130310511F411820A
:1009F000108261E00C942502682F88EB91E00C9442
:100A000035010F931F93CF93DF938B01D82FC92FFD
:100A100082E00E94FC04C801AD2FBC2F809322010C
:100A200090932301A0932401B09325010E94FC041C
:100A3000812F0E94FC048D2F0E94FC048C2FDF91DB
:100A4000CF911F910F910C94FC048FEF0E94FC0436
:100A500085E50C94FC041F920F920FB60F9211249F
:100A60002F933F934F935F936F937F938F939F93B6
:100A7000AF93BF93EF93FF93809131019091320137
:100A8000A0913301B0913401892B8A2B8B2BD1F1AA
:100A900090912C01E0912D01F0912E018081892708
:100AA00080838091310190913201A0913301B09106
:100AB0003401181619061A061B069CF480913101A0
:100AC00090913201A0913301B09134010197A109B5
:100AD000B1098093310190933201A0933301B09317
:100AE0003401FF91EF91BF91AF919F918F917F91D1
:100AF0006F915F914F913F912F910F900FBE0F908B
:100B00001F901895809100010E94F901EACF1F9271
:100B10000F920FB60F9211242F933F934F935F9331
:100B20006F937F938F939F93AF93BF93EF93FF93B5
:100B300088EB91E00E941301FF91EF91BF91AF917B
:100B40009F918F917F916F915F914F913F912F91E5
:100B50000F900FBE0F901F9018951F920F920FB617
:100B60000F9211242F938F939F93EF93FF93E09114
:100B7000C801F091C9018081E091CE01F091CF01CF
:100B800082FD1BC090818091D1018F5F8F73209176
:100B9000D201821741F0E091D101F0E0E854FE4F1C
:100BA000958F8093D101FF91EF919F918F912F911C
:100BB0000F900FBE0F901F9018958081F4CF1F9259
:100BC0000F920FB60F9211242F933F938F939F9301
:100BD000AF93BF938091B4019091B501A091B601FC
:100BE000B091B7013091270123E0230F2D3758F53D
:100BF0000196A11DB11D209327018093B40190930C
:100C0000B501A093B601B093B701809128019091EE
:100C10002901A0912A01B0912B010196A11DB11DBE
:100C20008093280190932901A0932A01B0932B016E
:100C3000BF91AF919F918F913F912F910F900FBED8
:100C40000F901F90189526E8230F0296A11DB11D45
:100C5000D2CF1F920F920FB60F9211242F933F9372
:100C60004F935F936F937F938F939F93AF93BF93B4
:100C7000CF93DF93EF93FF9380912601C091790288
:100C8000D0E087FF24C010928500109284008091EC
:100C900026018F5F8093260180912601082E000C8B
:100CA000990B8C179D0724F4809126018C30C4F198
:100CB0008091840090918500049680349C4908F4CA
:100CC0007AC08091840090918500049676C08091CE
:100CD0002601082E000C990B8C179D07C4F6E09195
:100CE00026018E2FEE0F990BFC01EE0FFF1FE80F70
:100CF000F91FEB5AFD4F808186FFC9CFE091260195
:100D00008E2FEE0F990BFC01EE0FFF1FE80FF91F5E
:100D1000EB5AFD4F808160E08F730E94CB01B7CF0B
:100D20002091840030918500E09126018E2FEE0FF6
:100D3000990BFC01EE0FFF1FE80FF91FEB5AFD4F57
:100D400081819281820F931F909389008093880004
:100D5000E09126018E2FEE0F990BFC01EE0FFF1F85
:100D6000E80FF91FEB5AFD4F808186FF11C0E0911B
:100D700026018E2FEE0F990BFC01EE0FFF1FE80FDF
:100D8000F91FEB5AFD4F808161E08F730E94CB0108
:100D9000FF91EF91DF91CF91BF91AF919F918F9193
:100DA0007F916F915F914F913F912F910F900FBE67
:100DB0000F901F90189580E49CE990938900809390
:100DC00088008FEF80932601E3CFCF92DF92EF92DE
:100DD000FF920F931F93E82FF92F05C001501109BF
:100DE0002109310961F1908196239417B9F305C067
:100DF000015011092109310911F1908196239413B1
:100E0000F7CFC12CD12CE12CF12C0AC08FEFC81ADE
:100E1000D80AE80AF80A0C151D052E053F0579F0D9
:100E200080818623841791F36C2D7D2D8E2D9F2D2F
:100E30001F910F91FF90EF90DF90CF90089560E0A9
:100E400070E080E090E01F910F91FF90EF90DF90B5
:100E5000CF9008951092BB011092BA0188EE93E0F2
:100E6000A0E0B0E08093BC019093BD01A093BE01CF
:100E7000B093BF0181E191E09093B9018093B801F3
:100E800085EC90E09093C5018093C40184EC90E0E0
:100E90009093C7018093C60180EC90E09093C901C4
:100EA0008093C80181EC90E09093CB018093CA01BC
:100EB00082EC90E09093CD018093CC0186EC90E0A1
:100EC0009093CF018093CE011092D1011092D20164
:100ED0001092D3011092D401EAE7F2E022E932E065
:100EE0004FEF68EB7BE0809179028C30B0F491E0B9
:100EF000980F90937902808390E0DC01AA0FBB1FCA
:100F0000A80FB91FAB5ABD4F12967C936E931197E1
:100F100033962E173F0739F708954083F9CFCF93C3
:100F2000DF93CDB7DEB76E970FB6F894DEBF0FBE76
:100F3000CDBF789484B5826084BD84B5816084BD62
:100F400085B5826085BD85B5816085BD80916E0067
:100F5000816080936E001092810080918100826098
:100F600080938100809181008160809381008091D5
:100F700080008160809380008091B10084608093C4
:100F8000B1008091B00081608093B00080917A00C0
:100F9000846080937A0080917A00826080937A00E6
:100FA00080917A00816080937A0080917A008068D5
:100FB00080937A001092C100E091C801F091C901BC
:100FC00082E08083E091C401F091C5011082E0913C
:100FD000C601F091C70180E180831092D001E091B9
:100FE000CC01F091CD0186E08083E091CA01F091BF
:100FF000CB01808180618083E091CA01F091CB01B7
:10100000808188608083E091CA01F091CB0180816A
:1010100080688083E091CA01F091CB0180818F7D4F
:10102000808388EB91E00E94820168EC70E080E0B0
:1010300090E00E94860261E08DE00E94250260E05F
:101040008DE00E94CB01ECE8F1E081E090E021E04E
:10105000E43AF20709F4E9C681939193F8CF8093BB
:101060008301992309F407C7E0918201E23039F442
:1010700080938101F0E0E35BFE4F8083FCC6E330A8
:10108000C8F390918101915090938101F3CF109218
:10109000820110928401F7C6E8E9F1E080ED91E069
:1010A0008E179F0709F4C7C411921192F9CFF0E08F
:1010B000EA30F10519F410938A0130C73B9719F40F
:1010C000109389012BC78091030190910401E816C8
:1010D000F90639F08091010190910201E816F906B4
:1010E00061F410928B01F701EE0FFF1FE856FE4FDF
:1010F00081E090E09183808311C7809105019091F8
:101100000601E816F90679F710928A011092890112
:10111000EACFE150EC3008F001C70E2E000CFF0BB7
:10112000EC56F74F0C942112A0088E0FA9082B0B38
:1011300002098E0F8E0FEB0BF70B8E0F8E0FBE0C6E
:10114000C7010E94ED0460915401802F0E94CB01E1
:10115000E5C6C7010E94ED0410915401C12ED12CA7
:1011600061E0802F0E942502111102C060E0EDCFE6
:101170008FEFC816D10411F461E0E7CFF701E3580F
:10118000FF4FE491E33021F148F4E130B9F0E2306F
:10119000D1F090E8C916D1047CF7E8CFE73011F11F
:1011A000E83041F1E430A9F78091800080628093BB
:1011B0008000D0928B00C0928A00B0C684B580684F
:1011C00084BD17BDABC684B5806284BD18BDA6C6FC
:1011D00080918000806880938000D0928900C092C6
:1011E00088009CC68091B00080688093B000109306
:1011F000B30094C68091B00080628093B0001093D9
:10120000B4008CC6C7010E94ED0480915401809304
:1012100085018091550180938601A0918501B0914F
:101220008601BC8FAB8F80915601809385018091A0
:10123000570180938601E0918501F0918601FE8F30
:10124000ED8F1E161F060CF002C280910001801364
:10125000CEC0ECE7F0E0149117FD60C661E0802F8E
:101260000E9425021123B9F08B8D9C8D2C01712CCD
:10127000612C60E072E18AE790E0A30192010E9494
:101280009D1069017A0191E0C91AD108E108F108BD
:10129000123009F099C1AB8DBC8D2D01712C612CE0
:1012A00060E072E18AE790E0A3019D010E949D1039
:1012B00049015A017A016901B1E0CB1AD108E1086C
:1012C000F108EFEFCE16D104E104F10409F00CF4BB
:1012D0004EC160E472E48FE090E0A30192010E94AD
:1012E0009D1069017A01F1E0CF1AD108E108F108F7
:1012F000123009F0F3C082E02FEFC216D104E104EE
:10130000F10409F00CF46CC060E970ED83E090E04A
:10131000A30192010E949D1069017A0181E0C81A1F
:10132000D108E108F10883E09FEFC916D104E10478
:10133000F10409F00CF454C068E478EE81E090E028
:10134000A30192010E949D1069017A0181E0C81AEF
:10135000D108E108F10884E09FEFC916D104E10447
:10136000F104F1F1ECF164E274EF80E090E0A301AC
:1013700092010E949D1069017A01E1E0CE1AD10824
:10138000E108F10885E0FFEFCF16D104E104F10494
:1013900039F130F162E17AE780E090E0A301920157
:1013A0000E949D1069017A01B1E0CB1AD108E108D1
:1013B000F10886E0EFEFCE16D104E104F10481F0EC
:1013C00078F0750164012AE0F594E794D794C79406
:1013D0002A95D1F7F1E0CF1AD108E108F10887E0AA
:1013E0009091B100987F892B8093B100C7C08F3F47
:1013F00009F094C500930001ECE7F0E014911F3F61
:1014000009F48CC5113031F150F0123009F442C0AA
:1014100017FD84C561E0802F0E94250225CF14BCF2
:1014200015BC84B5826084BD85B5816085BDF7013A
:10143000E556FF4FE491F0E0EE0FFF1FEE58FF4F2F
:1014400085919491F701E155FF4FE491E0933001CC
:1014500010E004CF109280001092810080918100F2
:1014600088608093810080918100816080938100F9
:10147000F701E556FF4FE491F0E0EE0FFF1FEE5845
:10148000FF4F85919491F701E155FF4FE491E0936F
:101490002F01E4CE1092B0001092B1008091B00004
:1014A00082608093B0008091B10081608093B10030
:1014B000F701E556FF4FE491F0E0EE0FFF1FEE5805
:1014C000FF4F8591949190932E0180932D01F70108
:1014D000E155FF4FE491E0932C01C0CEAFEFCA1667
:1014E000D104E104F10409F00CF46CC068E478EE76
:1014F00081E090E0A30192010E949D1069017A01B0
:10150000B1E0CB1AD108E108F10884E011113BCF1A
:1015100083E0AFEFCA16D104E104F10459F154F1AC
:1015200062E17AE780E090E0A30192010E949D10C1
:1015300069017A01F1E0CF1AD108E108F10884E0ED
:101540002FEFC216D104E104F104A1F098F0750167
:1015500064019AE0F594E794D794C7949A95D1F7EB
:1015600021E0C21AD108E108F10885E003C081E05A
:10157000111136CF95B5987F892B85BD2B8D3C8D6C
:10158000220F331FAD8DBE8D0E94271228EE33E04F
:1015900040E050E00E94C7101130B9F1123009F458
:1015A00046C01111BBC4C7BC2093390130933A0126
:1015B00040933B0150933C0180916E008260809388
:1015C0006E00ACC482E0D4CF91E0C114D10481E0BC
:1015D000E806F10484F068E478EE81E090E0A3018D
:1015E00092010E949D1069017A0191E0C91AD10807
:1015F000E108F10893E0113009F0C0CF809181003B
:10160000887F892B80938100B9CFD0928900C092C6
:101610008800209335013093360140933701509371
:10162000380180916F00826080936F0077C4C09210
:10163000B300209331013093320140933301509332
:1016400034018091700082608093700067C4802FA5
:101650000E94F90163C4C7010E94ED04B0905401D7
:10166000A4EBAB1508F45AC4EDE3F1E090E080E0A0
:1016700021913191E216F30651F0232B09F0A3C01A
:10168000FC01EE0FFF1FE35CFE4FF182E082FC01E4
:10169000EE0FFF1FE80FF91FE658FD4FF080818124
:1016A0009281BBE0BF15F0F161E0802F0E9425021E
:1016B0008F2D90E0AC01440F551FFA01E80FF91F80
:1016C000EB5AFD4F202F2F730081007C022B0083EB
:1016D00030E020E0F901EE0FFF1FE20FF31FEB5A9D
:1016E000FD4F608166FD14C02F5F3F4F2C303105E8
:1016F00089F71092800022E02093810010928500EB
:1017000010928400B19A20916F00226020936F00A4
:10171000840F951FFC01EB5AFD4F8081806480830C
:1017200090E080E0B8E5CB2EB2E0DB2EC91AD108FC
:1017300097FDD394CC0CDD1CCC0CDD1C08E810E02C
:10174000081B110987FD1395000F111F000F111FB2
:101750002801012E000C6608770896010D2C000C5C
:10176000440B550B2419350946095709AB2DB0E038
:101770000E94BC1024EB30E040E050E00E949D103D
:10178000420E531E641E751EEBE0EF1508F4C6C32F
:10179000401651062CF086014C145D040CF48201B5
:1017A00002501109000F111F2FB7F8948F2D90E0F0
:1017B000FC01EE0FFF1FE80FF91FEB5AFD4F1283DC
:1017C00001832FBFABC301968830910509F050CF3C
:1017D00090E080E05CCF8FB7F8944091B4015091D5
:1017E000B5016091B6017091B7018FBF97C3809129
:1017F0005401609156014091580120915A01109175
:101800005C0190915E019093850190915F019093AE
:101810008601E0908501F0908601F701F85FE130E4
:10182000F04108F07BC31C861B861A8219821F8A2E
:10183000188E198E1A8EE0E0F8E0F887EF83E82F13
:10184000F0E0FE87ED8770E0788B6F8750E05A8B71
:10185000498B30E03C8B2B8B61E00E94250261E0DC
:101860008F850E94250261E089890E94250261E03E
:101870008B890E9425021E8A1D8A84E090E09A8747
:1018800089872F813885032E000C440B550B60E0AF
:1018900077E883E993E00E949D10CA01B901212FE6
:1018A00030E050E040E00E949D102B833C834D834C
:1018B0005E838701F7FE04C0002711270E191F0958
:1018C0001E141F040CF048C081E090E09A838983C5
:1018D000E4E0EE2EF12C0115110509F41FC30E945E
:1018E00061028F88988CA98CBA8C2B013C01481816
:1018F00059086A087B088B809C80AD80BE804814A4
:1019000059046A047B0438F36F8B788F898F9A8F20
:101910008B859C8529813A812130310519F5019605
:101920009C878B872F8138858217930711F41C863B
:101930001B86015011098B859C8529853A85B1014B
:101940002530310509F0B7010E940D12BC01CE010E
:1019500001960E94FE03BFCFEF2809F4B9CF1A8287
:101960001982B6CF892B21F48F8198859C878B872C
:101970008B859C8501979C878B87DBCF8091870126
:1019800090918801009751F0209105013091060156
:10199000E216F30609F443C00E94DE1283E190E0F0
:1019A0000E9442126C01DC0115960C9315978BE096
:1019B00016968C931697F701E155FF4FE491179611
:1019C000EC931797F701E556FF4FE4911896EC93C7
:1019D00080E89EE3A0E0B0E0F60185879687A787C0
:1019E000B08BD0928801C092870162E0802F0E9464
:1019F00025022FB7F8948091B4019091B501A09180
:101A0000B601B091B7012FBF805D9740A109B10920
:101A1000F60181879287A387B48787E3828BF09250
:101A20000601E0920501F701EE0FFF1FE856FE4F99
:101A30001182108273C210928B0110928A0110924F
:101A400089016CC26FE070E080E090E00E94860245
:101A500068E9C62E61E0D62E10E000E0D6018D9137
:101A60009D916D01019709F03AC0902E60E0802FA2
:101A70000E9425020E942505F801E358FF4F84913A
:101A8000F801E155FF4FA490F801E556FF4FB490DF
:101A900070E060E0BB2099F081110E94A201EB2D63
:101AA000F0E0EE0FFF1FEF56FF4FA591B491EC91C0
:101AB000AE2291E080E009F490E0692F782F072EA4
:101AC000000C880B990B0E94A40F0E940105892D20
:101AD0000E94FC0481E00E94FC040E94BA000F5F97
:101AE0001F4F0C31110509F0B9CF0CE811E0D12CD2
:101AF000F801819191918F01019731F50E9425059F
:101B00008D2D8770806480937C0080917A00806442
:101B100080937A0080917A0086FDFCCF80917800D6
:101B200060917900762F682F072E000C880B990B97
:101B30000E94A40F0E9401058D2D0E94FC0482E0EA
:101B40000E94FC040E94BA00D394FCE0DF12D0CFC4
:101B500080918B01882309F460C01091030160E03B
:101B6000812F0E94CB0183E090E00197F1F761E0C3
:101B7000812F0E94CB0183E290E00197F1F760E0B2
:101B8000812F0E94CB018091010190910201992740
:101B9000FC01E155FF4F6491FC01E556FF4FE491D4
:101BA000F0E0EE0FFF1FEF56FF4F8591949100E399
:101BB00015E720E030E0462F0E94E5064B015C016E
:101BC00081149104A104B10439F02FEF821A920A12
:101BD000A20AB20A8FE0B8220E942505C501B4010D
:101BE0000E94A20F20E030E048EE51E40E9465110F
:101BF00020E030E040E05FE30E94DF0F0E9401053B
:101C0000809103010E94FC04809101010E94FC0468
:101C100087E00E94FC040E94BA0080918A01882318
:101C200009F477C000918701109188010115110511
:101C300009F4B2C0C8010E94F202882349F0D80119
:101C400016968C918C3009F486C038F48B30E9F00C
:101C500060E070E080EC9FE741C085518230C0F7C2
:101C6000F801D2806D2D70E0762F662766277F778A
:101C70008381682B90E080E00E94A20F2DEC3CEC69
:101C80004CEC5DE30E94DF0F83C0F801628170E0DD
:101C900090E080E00E94A20F4B015C01D8011396F6
:101CA0001C9117FF0AC0AC019B0160E070E080E866
:101CB0009FEB0E94F8104B015C011F70612F70E0D8
:101CC00090E080E00E94A40F2DEC3CEC4CEC5DE336
:101CD0000E94DF0FA50194010E94F9100E94D71104
:101CE0008B010E94250583E00E94FC04009385017E
:101CF00010938601802F0E94FC04812F0E94FC0417
:101D0000809105010E94FC048AE00E94FC040E946C
:101D1000BA0080918901882309F478C00091870175
:101D2000109188010115110509F458C0C8010E94DD
:101D3000F202882359F0D80116968C918B3030F03E
:101D40008D3068F18551823008F4EBC060E070E0BE
:101D500080EC9FE740C0F801D2806D2D70E090E0EC
:101D600080E00E94A20F4B015C01D80113966C9198
:101D70006F7070E090E080E00E94A40F2DEC3CECCE
:101D80004CEC5DE30E94DF0FA50194010E94F91065
:101D9000D7FEA4CF9058A2CF00E010E0A2CFF80168
:101DA000618170E090E080E00E94A40F2DEC3CEC9B
:101DB0004CEC5DE30E94DF0F6B017C01D8016C915C
:101DC00070E090E080E00E94A40F9B01AC01C7018D
:101DD000B6010E94F9100E94D7117B010E942505CF
:101DE00083E00E94FC04F0928601E09285018E2D32
:101DF0000E94FC048F2D0E94FC04809105010E942A
:101E0000FC048BE00E94FC040E94BA006AE070E0CF
:101E100080E090E00E94860280E090E0892B29F02B
:101E20000E94FF0081110E9400006AE0262E312CE2
:101E300088EB91E00E94F3007C01892B09F402CE2B
:101E400088EB91E00E94F300181619068CF788EBD6
:101E500091E00E94D10090918401853509F0FFC87E
:101E60009111FDC8809183018F3F29F481E0809317
:101E7000820180938401809182018F5F843308F016
:101E800006C98093820180918401882389F2809120
:101E900081018111CDCF80918201843048F210926E
:101EA0008401E091520100915301E02EF12C109138
:101EB0005101123009F42DC9133009F4EDC8113065
:101EC00069F5E73009F0F3C8F0920401E0920301EC
:101ED000D09054018D2D90E09093020180930101E8
:101EE000F701EE0FFF1FE856FE4F11821082880F98
:101EF000991FFC01E856FE4F1182108261E0802F8D
:101F00000E94250260E08D2D0E94250262E370E0B0
:101F100080E090E00E94860210938B011092820173
:101F200087CFF8016081718176276727762790E057
:101F300080E00E94A20F2DEC3CEC4CEC5DE30E9493
:101F4000DF0F49CFE89409C097FB3EF49095809548
:101F5000709561957F4F8F4F9F4F9923A9F0F92F6F
:101F600096E9BB279395F695879577956795B795ED
:101F7000F111F8CFFAF4BB0F11F460FF1BC06F5FD3
:101F80007F4F8F4F9F4F16C0882311F096E911C0E5
:101F9000772321F09EE8872F762F05C0662371F006
:101FA00096E8862F70E060E02AF09A95660F771F1A
:101FB000881FDAF7880F9695879597F908950E94FC
:101FC000F20F0C9463100E94551038F00E945C10C0
:101FD00020F0952311F00C944C100C945210112405
:101FE0000C9497100E94741070F3959FC1F3950F95
:101FF00050E0551F629FF001729FBB27F00DB11D8D
:10200000639FAA27F00DB11DAA1F649F6627B00D1C
:10201000A11D661F829F2227B00DA11D621F739F05
:10202000B00DA11D621F839FA00D611D221F749F13
:102030003327A00D611D231F849F600D211D822F5A
:10204000762F6A2F11249F5750409AF0F1F0882381
:102050004AF0EE0FFF1FBB1F661F771F881F9150AE
:102060005040A9F79E3F510580F00C944C100C9401
:1020700097105F3FE4F3983ED4F386957795679584
:10208000B795F795E7959F5FC1F7FE2B880F911DD8
:102090009695879597F9089597F99F6780E870E07E
:1020A00060E008959FEF80EC089500240A941616CE
:1020B000170618060906089500240A941216130636
:1020C000140605060895092E0394000C11F48823C4
:1020D00052F0BB0F40F4BF2B11F460FF04C06F5FE0
:1020E0007F4F8F4F9F4F089557FD9058440F551FB6
:1020F00059F05F3F71F04795880F97FB991F61F08A
:102100009F3F79F087950895121613061406551F00
:10211000F2CF4695F1DF08C0161617061806991F6C
:10212000F1CF86957105610508940895E894BB2761
:1021300066277727CB0197F90895052E97FB1EF4A4
:1021400000940E94B41057FD07D00E94C71007FCEE
:1021500003D04EF40C94B4105095409530952195D1
:102160003F4F4F4F5F4F08959095809570956195C3
:102170007F4F8F4F9F4F08950E94E910A59F900DAC
:10218000B49F900DA49F800D911D11240895A1E28C
:102190001A2EAA1BBB1BFD010DC0AA1FBB1FEE1FE1
:1021A000FF1FA217B307E407F50720F0A21BB30B2C
:1021B000E40BF50B661F771F881F991F1A9469F7A8
:1021C00060957095809590959B01AC01BD01CF0104
:1021D0000895A29FB001B39FC001A39F700D811D00
:1021E0001124911DB29F700D811D1124911D089520
:1021F0005058BB27AA270E9410110C9463100E940C
:10220000551038F00E945C1020F039F49F3F19F40B
:1022100026F40C9452100EF4E095E7FB0C944C104D
:10222000E92F0E94741058F3BA17620773078407E6
:10223000950720F079F4A6F50C9496100EF4E0952D
:102240000B2EBA2FA02D0B01B90190010C01CA0170
:10225000A0011124FF27591B99F0593F50F4503E1B
:1022600068F11A16F040A22F232F342F4427585F0D
:10227000F3CF469537952795A795F0405395C9F725
:102280007EF41F16BA0B620B730B840BBAF09150DD
:10229000A1F0FF0FBB1F661F771F881FC2F70EC07C
:1022A000BA0F621F731F841F48F48795779567954F
:1022B000B795F7959E3F08F0B0CF9395880F08F03B
:1022C0009927EE0F9795879508950E9479110C94A0
:1022D00063100E945C1058F00E94551040F029F4E1
:1022E0005F3F29F00C944C1051110C9497100C94F2
:1022F00052100E94741068F39923B1F3552391F39F
:10230000951B550BBB27AA2762177307840738F064
:102310009F5F5F4F220F331F441FAA1FA9F335D0C1
:102320000E2E3AF0E0E832D091505040E695001C75
:10233000CAF72BD0FE2F29D0660F771F881FBB1F2F
:10234000261737074807AB07B0E809F0BB0B802D0D
:10235000BF01FF2793585F4F3AF09E3F510578F039
:102360000C944C100C9497105F3FE4F3983ED4F318
:10237000869577956795B795F7959F5FC9F7880F0D
:10238000911D9695879597F90895E1E0660F771F5F
:10239000881FBB1F621773078407BA0720F0621BF0
:1023A000730B840BBA0BEE1F88F7E09508950E941B
:1023B000DE116894B1110C94971008950E947C105E
:1023C00088F09F5798F0B92F9927B751B0F0E1F0F6
:1023D000660F771F881F991F1AF0BA95C9F714C0A6
:1023E000B13091F00E949610B1E008950C949610CF
:1023F000672F782F8827B85F39F0B93FCCF38695DF
:1024000077956795B395D9F73EF49095809570953B
:1024100061957F4F8F4F9F4F089597FB072E16F4BE
:10242000009407D077FD09D00E942E1207FC05D03A
:102430003EF4909581959F4F0895709561957F4FDB
:102440000895EE0FFF1F0590F491E02D09940E946E
:10245000E910B7FF0895821B930B0895AA1BBB1BBD
:1024600051E107C0AA1FBB1FA617B70710F0A61B94
:10247000B70B881F991F5A95A9F780959095BC01B5
:10248000CD0108950F931F93CF93DF938230910571
:1024900010F482E090E0E0919402F091950230E037
:1024A00020E0B0E0A0E0309799F42115310509F45F
:1024B0004AC0281B390B24303105D8F58A819B810D
:1024C0006115710589F1FB0193838283FE0111C0BF
:1024D000408151810281138148175907E0F0481764
:1024E000590799F4109761F012960C93129713966E
:1024F0001C933296CF01DF91CF911F910F910895D8
:102500000093940210939502F4CF2115310551F0F8
:102510004217530738F0A901DB019A01BD01DF0121
:10252000F801C1CFEF01F9CF909395028093940207
:10253000CDCFFE01E20FF31F819391932250310919
:1025400039832883D7CF2091920230919302232B95
:1025500041F42091090130910A01309393022093B4
:10256000920220910701309108012115310541F4B3
:102570002DB73EB740910B0150910C01241B350B38
:10258000E0919202F0919302E217F307A0F42E1B60
:102590003F0B2817390778F0AC014E5F5F4F2417C7
:1025A000350748F04E0F5F1F5093930240939202FD
:1025B000819391939FCFF0E0E0E09CCFCF93DF93A6
:1025C0000097E9F0FC01329713821282A0919402E5
:1025D000B0919502ED0130E020E01097A1F4208148
:1025E0003181820F931F209192023091930228171C
:1025F000390709F061C0F0939302E0939202DF91F2
:10260000CF910895EA01CE17DF07E8F54A815B8193
:102610009E0141155105B1F7E901FB83EA83499118
:102620005991C40FD51FEC17FD0761F4808191818A
:102630000296840F951FE901998388838281938193
:102640009B838A83F0E0E0E012968D919C91139732
:102650000097B9F52D913C911197CD010296820F0B
:10266000931F20919202309193022817390739F66F
:10267000309751F51092950210929402B093930204
:10268000A0939202BCCFD383C28340815181840F37
:10269000951FC817D90761F44E5F5F4F88819981F4
:1026A000480F591F518340838A819B819383828382
:1026B0002115310509F0B0CFF0939502E093940213
:1026C0009ECFFD01DC01C0CF13821282D7CFF894D8
:0226D000FFCF3A
:1026D200FF0C000D00FFFF000096028000000000CA
:1026E2000035018D00C2008201F300D100E5000D2A
:0226F2000A00DC
:00000001FF
