:100000000C9463000C948B000C948B000C948B006C
:100010000C948B000C948B000C948B000C94FD0AB8
:100020000C94D60D0C948B000C948B000C941A0D30
:100030000C948B000C948B000C948B000C948B0014
:100040000C94B10B0C948B000C947F0B0C94590BFB
:100050000C948B000C948B000C948B000C948B00F4
:100060000C94FB0B0C948B00000000002400270074
:100070002A0000000000250028002B0002000000DC
:100080000800020100000304070000000000000057
:1000900000000000002300260029000404040404DA
:1000A0000404040202020202020303030303030125
:1000B00002040810204080010204081020010204FC
:1000C00008102000CE0E11241FBECFEFD8E0DEBFF7
:1000D000CDBF12E0A0E0B1E0E4E0F9E402C0059099
:1000E0000D92AE34B107D9F725E0AEE4B2E001C01D
:1000F0001D92A43BB207E1F710E0C3E6D0E004C0D4
:100100002197FE010E946B22C236D107C9F70E94D7
:100110004F0F0C9480240C940000A9E8B4E01196D1
:100120008C93119790E0FC01E155FF4FE4911496F8
:10013000EC931497FC01E556FF4FE491F0E0EE0FCD
:10014000FF1FEF56FF4F8591949113969C938E93CA
:100150001297089508950895AF92BF92CF92DF92BB
:10016000EF92FF920F931F93CF93DF936C017B016C
:100170008B01040F151FEB015E01AE18BF08C017FD
:10018000D10759F06991D601ED91FC910190F08170
:10019000E02DC6010995892B79F7C501DF91CF9133
:1001A0001F910F91FF90EF90DF90CF90BF90AF9095
:1001B0000895FC01538D448D252F30E0842F90E06D
:1001C000821B930B541710F0CF9608950197089552
:1001D000FC01918D828D981761F0A28DAE0FBF2F1B
:1001E000B11D5D968C91928D9F5F9F73928F90E071
:1001F00008958FEF9FEF0895FC01918D828D9817E0
:1002000031F0828DE80FF11D858D90E008958FEF1C
:100210009FEF0895FC01918D228D892F90E0805CE5
:100220009F4F821B91098F73992708958BEB93E061
:100230000E940A0121E0892B09F420E0822F089511
:1002400080E090E0892B29F00E94160181110C9426
:1002500000000895FC01A48DA80FB92FB11DA35A69
:10026000BF4F2C91848D90E001968F739927848FD6
:10027000A689B7892C93A089B1898C9183708064F9
:100280008C93938D848D981306C00288F389E02D9A
:1002900080818F7D80830895EF92FF920F931F934B
:1002A000CF93DF93EC0181E0888F9B8D8C8D981329
:1002B0001AC0E889F989808185FF15C09FB7F89435
:1002C000EE89FF896083E889F98980818370806481
:1002D00080839FBF81E090E0DF91CF911F910F91CC
:1002E000FF90EF900895F62E0B8D10E00F5F1F4FDB
:1002F0000F731127E02E8C8D8E110CC00FB607FCEA
:10030000FACFE889F989808185FFF5CFCE010E9477
:100310002A01F1CFEB8DEC0FFD2FF11DE35AFF4FBA
:10032000F0829FB7F8940B8FEA89FB898081806205
:10033000CFCFCF93DF93EC01888D8823B9F0AA89C2
:10034000BB89E889F9898C9185FD03C0808186FD90
:100350000DC00FB607FCF7CF8C9185FFF2CF8081DF
:1003600085FFEDCFCE010E942A01E9CFDF91CF9129
:100370000895833081F028F4813099F08230A9F01B
:1003800008958730A9F08830C9F08430B1F48091A5
:1003900080008F7D03C0809180008F7780938000E4
:1003A000089584B58F7784BD089584B58F7DFBCF84
:1003B0008091B0008F778093B00008958091B00055
:1003C0008F7DF9CF1F93CF93DF93282F30E0F90172
:1003D000E358FF4F8491F901E155FF4FD491F901A2
:1003E000E556FF4FC491CC23A9F0162F81110E942E
:1003F000B901EC2FF0E0EE0FFF1FEE58FF4FA59173
:10040000B4918FB7F894EC91111108C0D095DE2308
:10041000DC938FBFDF91CF911F910895DE2BF8CF32
:100420009091000189130BC0ECE7F0E0E4919FEF9D
:1004300090930001E13049F028F0E23061F060E093
:100440000C94E20110926E00FACF90916F009D7FA4
:1004500090936F00F4CF909170009D7F9093700007
:1004600091E09093B0009091B100987F9460909348
:10047000B1001092B300E3CFCF93DF9390E0FC0183
:10048000E155FF4F249185569F4FFC0184918823AD
:10049000C9F090E0880F991FFC01E859FF4FA59122
:1004A000B491FC01EE58FF4FC591D49161110DC07C
:1004B0009FB7F8948C91209582238C938881282370
:1004C00028839FBFDF91CF910895623051F49FB789
:1004D000F8943C91822F809583238C93E8812E2B76
:1004E000EFCF8FB7F894EC912E2B2C938FBFEACFE0
:1004F0003FB7F8948091BA029091BB02A091BC02E0
:10050000B091BD0226B5A89B05C02F3F19F00196FA
:10051000A11DB11D3FBFBA2FA92F982F8827BC015D
:10052000CD01620F711D811D911D42E0660F771F85
:10053000881F991F4A95D1F708958F929F92AF9285
:10054000BF92CF92DF92EF92FF926B017C010E94EB
:1005500078024B015C01C114D104E104F104B9F04B
:100560000E947802681979098A099B09683E7340DC
:100570008105910580F321E0C21AD108E108F10854
:1005800088EE880E83E0981EA11CB11CE4CFFF907A
:10059000EF90DF90CF90BF90AF909F908F90089595
:1005A00020919602260F3327331F21323105ECF4B8
:1005B00020919103FC0190E080E0243069F082E01A
:1005C0000895A09196022191AC014A585D4FA40F65
:1005D000B52FB11D2C930196861798F38091960242
:1005E000680F6093960280E0089581E0089510926C
:1005F000910381E08093900310926B0361E082E1AC
:100600000E94E20161E083E10E94E201E9EBF0E097
:1006100080818E7F808380818D7F808388E480933A
:10062000B80085E48093BC000895CF93DF9391E0F8
:10063000909375028823B9F0C091B800D091BA00A8
:100640008091BC008A7B8093BC0060E082E10E94C4
:10065000E20160E083E10E94E2010E94F702D09390
:10066000BA00C093B800DF91CF910895CF92DF9286
:10067000EF92FF920F931F93CF93DF93D091BA0322
:1006800081E0D13208F09CC0C091B9030E94780289
:100690006B017C018091910381116CC082E0809399
:1006A000910381E0809390038FEF80938F031092EA
:1006B0008E03D0938D03A9E9B3E0EDE6F3E080E08B
:1006C000D8138DC010926C0380916C03CC0FC82B93
:1006D000C0936C0380916B03813009F084C0109249
:1006E0006B030E9478026B017C0180916C03809304
:1006F000BB008091930390919403A0919503B091D6
:100700009603892B8A2B8B2BA1F00E9478020091F3
:1007100093031091940320919503309196036C19E3
:100720007D098E099F09061717072807390708F45E
:1007300042C08091BC0083FDD8CF85EC8093BC0083
:100740000E9478026B017C0180919103823009F450
:100750004CC080918F038F3F09F469C080918F0353
:10076000803209F466C080918F03803309F463C03E
:1007700084E026C08091930390919403A091950307
:10078000B0919603892B8A2B8B2B09F483CF0E947F
:100790007802009193031091940320919503309176
:1007A00096036C197D098E099F09061717072807FC
:1007B000390708F06FCF809192030E94150385E0FE
:1007C000109298031092BA0310929703DF91CF9181
:1007D0001F910F91FF90EF90DF90CF9008959D9122
:1007E00091938F5F6DCF85EEA9CF80919303909108
:1007F0009403A0919503B0919603892B8A2B8B2BA0
:1008000009F4A2CF0E9478020091930310919403FF
:1008100020919503309196036C197D098E099F09EB
:10082000061717072807390708F08ECFC4CF80E0D6
:10083000C7CF82E0C5CF83E0C3CF0895E091E60241
:100840008091E502E81730F4F0E0EB5AFD4F80812B
:1008500090E008958FEF9FEF08959091E6028091C8
:10086000E5022FEF3FEF981748F4E92FF0E0EB5A3D
:10087000FD4F208130E09F5F9093E602C90108950B
:100880008091E5029091E602891B990B0895CF9221
:10089000DF92EF92FF920F931F93CF93DF937C0130
:1008A000CB018A0120919703222389F0EB016B0190
:1008B000C40ED51ECC15DD0569F06991D701ED9107
:1008C000FC910190F081E02DC7010995F3CF642FD1
:1008D0000E94D002C801DF91CF911F910F91FF902C
:1008E000EF90DF90CF900895CF93DF931F92CDB715
:1008F000DEB76983209197032223F9F02091BA0390
:10090000203258F021E030E0FC013383228390E074
:1009100080E00F90DF91CF91089580919803E82FA8
:10092000F0E0E756FC4F998190838F5F80939803A6
:100930008093BA0381E090E0ECCF61E0CE010196B4
:100940000E94D002F7CFCF93DF93F0E0E0E0EB011D
:10095000C40FD51F9881992311F0903320F48E2F66
:10096000DF91CF91089586EC890F8730C0F385EA37
:10097000890F8630A0F385E8890F853080F321E068
:1009800030E097FF21C0923CE0F022E095FF06C0E6
:1009900023E094FF03C024E093FD25E0DE011196DF
:1009A00030E0CD018C1B9D0B821793076CF48D9169
:1009B00090E0689415F8959587951694E1F702975D
:1009C00081F34F5F5F4FC3CF3196420F531FBFCFAD
:1009D000FC01248131E0309397032093B9031092F6
:1009E00098031092BA038385682B88E594E00E94EF
:1009F00074040C943603CF92DF92EF92FF92CF9360
:100A0000DF93DC011796CC911797D0E06111DC2FB2
:100A100018962C91189730E0220F331F2F563F4F16
:100A200050E040E0F90185919491FC01F080BA0119
:100A300090E080E0EF2DEC23ED1310C04F5F5F4F8F
:100A40001D96CD90DD90ED90FC9050976C157D0536
:100A50008E059F0538F36FEF7FEFCB01DF91CF91CC
:100A6000FF90EF90DF90CF9008958F929F92AF927A
:100A7000BF92CF92DF92EF92FF920F931F93CF938B
:100A8000DF93CDB7DEB7C054D1400FB6F894DEBFC8
:100A90000FBECDBF2FB7F894409167035091680304
:100AA0006091690370916A032FBFFC010185128573
:100AB000238534856A017B01C01AD10AE20AF30A50
:100AC00097018601003D174021053105B0F4FC0176
:100AD0008189C05CDE4F0FB6F894DEBF0FBECDBF7C
:100AE000DF91CF911F910F91FF90EF90DF90CF900A
:100AF000BF90AF909F908F9008958C01FC0141872B
:100B00005287638774871482138212821182108243
:100B100062E085810E943C0261E070E080E090E04C
:100B20000E949D0261E0F80185810E943C0260E024
:100B3000F80185810E94E201F801868185518230A9
:100B400028F58BE291E10197F1F762E0F8018581E8
:100B50000E943C02F801828990E08230910538F0D1
:100B6000880F991F880F991F05970197F1F7F8943F
:100B700060E0C8010E94FB046F3F7F4F8F4F9F4F83
:100B800061F4F801118A789480E0A3CF64E170E009
:100B900080E090E00E949D02D8CF61E0C8010E94F1
:100BA000FB046F3F7F4F8F4F9F4F59F3CE0101964C
:100BB0007C015E019FEBA91A9EEFB90A670160E014
:100BC000C8010E94FB04F6016083718382839383D2
:100BD00061E0C8010E94FB04F6016483758386838B
:100BE0009783F8E0CF0ED11CCA14DB0441F7789448
:100BF00030E020E0F70180809180A280B3804481C2
:100C0000558166817781FFEF8F169F06AF06BF067D
:100C100031F04F3F8FEF58076807780719F4F80154
:100C2000118AB2CFF90183E0F595E7958A95E1F74E
:100C3000E00FF11F8081880F84169506A606B7067F
:100C4000F0F080832F5F3F4FF8E0EF0EF11C283269
:100C5000310581F6F801448120818181280F3327F5
:100C6000331F8281280F311D8381820F932F911DA5
:100C700099274817190699F681E0818B2ACF816060
:100C8000E0CF0F931F93CF93DF93EC018B01888507
:100C90009985029749F46130710509F436C04CF525
:100CA00060E00115110591F188859985049749F453
:100CB0000130110509F451C09CF50115110509F425
:100CC0003BC088859985059709F0C5C00A30110594
:100CD00008F0C1C0F801E159F94F0C946B22C1062C
:100CE000CB06D906EB06030705070B0715072307F5
:100CF00029076230710591F060E003301105A1F61B
:100D00008C850E94E20160E005C061E08C850E9454
:100D1000E20161E08E850E94E201C6CF61E0F0CF82
:100D20000230110501F10330110559F661E08C859F
:100D30000E94E20160E01CC061E08C850E94E2013B
:100D400060E08E850E94E20161E088890E94E201F4
:100D500060E08A890E94E201B4CF60E08C850E9445
:100D6000E20161E0EECF60E08C850E94E20161E08B
:100D70008E850E94E20160E088890E94E20161E0C4
:100D8000E8CF60E08C850E94E20161E08E850E94E0
:100D9000E20161E009C060E08C850E94E20161E04F
:100DA0008E850E94E20160E088890E94E20160E095
:100DB0000DC060E08C850E94E20161E08E850E949A
:100DC000E20160E088890E94E20161E08A890E9474
:100DD000E20161E011C060E08C850E94E20161E007
:100DE0008E850E94E20160E088890E94E20161E054
:100DF0008A890E94E20160E08C89DF91CF911F9186
:100E00000F910C94E20161E0E7CF61E08C850E94D4
:100E1000E20160E0E5CF61E08C850E94E20160E0E4
:100E20008E850E94E20161E0DFCF61E08C850E9447
:100E3000E20160E08E850E94E20161E088890E9403
:100E4000E20160E0D5CF61E08C850E94E20160E0C4
:100E50009DCF60E0F9CFDF91CF911F910F91089561
:100E6000FC01EE0FFF1FE55BFC4F2081318121303B
:100E7000310511F41182108261E00C943C02682F5C
:100E80008BEB93E00C944C01CF92DF92EF92FF92A8
:100E9000CF936B017C0183E00E943F07C701B6013D
:100EA0000E940122862FC72F6093DF027093E00219
:100EB0000E943F078C2FCF91FF90EF90DF90CF9053
:100EC0000C943F070F931F93CF93DF938B01D82F81
:100ED000C92F82E00E943F07C801AD2FBC2F80932D
:100EE000500290935102A0935202B09353020E9479
:100EF0003F07812F0E943F078D2F0E943F078C2FB5
:100F0000DF91CF911F910F910C943F078FEF0E94BB
:100F10003F0785E50C943F070F931F93CF93DF9313
:100F2000DC015796ED91FC9140912703808510E0FC
:100F3000481708F064C0142F1170009124030111A8
:100F40004FC0842F90E0880F991FE80FF91F01848C
:100F5000F285E02D2CEE3FEF112311F024E130E07B
:100F6000C0912503D09126032C0F3D1FC90163E4D6
:100F700070E00E944322E617F70760F0C90168E2BB
:100F800070E00E9443226F5F7F4F81E090E06E1718
:100F90007F0710F52C0F3D1FC90163E470E00E942C
:100FA0004322E617F70750F0C90168E270E00E949B
:100FB00043226F5F7F4F6E177F0760F42C0F3D1F3A
:100FC000C90163E470E00E944322E617F707E8F4E2
:100FD0001FEF15C082E090E090934F0280934E0285
:100FE0000F5F0093240380914E0290914F020817E7
:100FF000190628F0109224034F5F40932703812F96
:10100000DF91CF911F910F910895C90168E270E0BF
:101010000E9443226F5F7F4F6E177F07C8F283E005
:1010200090E0DACF089590E080E008955F926F92AB
:101030007F928F929F92AF92BF92CF92DF92EF9268
:10104000FF920F931F93CF93DF937C01562EDC0109
:101050005796ED91FC913F964A01B4E18B0E911C9D
:10106000D3E4CD2ED12CC401B6010E9443225B01F2
:10107000C8E2D0E0C401BE010E9443223B018FEFD1
:10108000681A780A24513109C901B6010E94432225
:101090004B01C901BE010E9443229B012F5F3F4FBC
:1010A00004511109C801B6010E9443226B01C80115
:1010B000BE010E9443226F5F7F4F80E090E0DC0121
:1010C00040E0C081D181CA15DB0568F16C167D0650
:1010D00050F1C281D381C815D90510F12C173D07F5
:1010E00020F1880F991FAA1FBB1F816034964F5FA4
:1010F0005412E7CFF70183879487A587B68781E0ED
:10110000DF91CF911F910F91FF90EF90DF90CF90E3
:10111000BF90AF909F908F907F906F905F90089559
:10112000CC15DD0510F480E0EBCF6C177D07D8F30C
:10113000880F991FAA1FBB1FD9CF0F931F93CF935F
:101140008C01C62F0E94E8046C2F6460C8010E94C5
:10115000E8046C2F6B7FC8010E94E80483EC90E0E8
:101160000197F1F7CF911F910F9108950F931F935E
:10117000CF93DF938C01D62FC42F607F642B0E9406
:101180009D0880E1D89FB00111246C2BC801DF912C
:10119000CF911F910F910C949D08CF93DF93CDB702
:1011A000DEB728970FB6F894DEBF0FBECDBF28E09C
:1011B000E2E7F1E0DE01119601900D922A95E1F748
:1011C000FC012085241710F44FEF420F50E0440F2C
:1011D000551F21E030E02C0F3D1F420F531FFA0135
:1011E0002081620F606840E028960FB6F894DEBF59
:1011F0000FBECDBFDF91CF910C94B60841E00E94A5
:10120000B60881E090E0089542E050E06EEA71E0B7
:101210008BEB93E00C94AC000C9404090F931F9398
:10122000CF93DF93EC0188819981009759F02A814F
:101230003B812617370730F081E0DF91CF911F9176
:101240000F9108958B016F5F7F4F0E949D23009740
:1012500059F0998388831B830A832C813D81232B3A
:1012600059F7FC011082E8CF80E0E7CF85ED80934D
:10127000BC008091930390919403A0919503B09149
:1012800096030796A11DB11D23E0B695A7959795E6
:1012900087952A95D1F72091BC0024FD03C01092B8
:1012A00091030895409193035091940360919503A5
:1012B00070919603452B462B472B69F30097A105A8
:1012C000B10541F025E32A95F1F700000197A10946
:1012D000B109E1CF809192030C941503CF93DF9372
:1012E000EC0189899A89009749F0FC01108E48E049
:1012F00050E06FEF70E007960E946324188E198EFD
:101300008D858D8B40E061E0CE010E94B6088BE3B5
:101310009FE10197F1F7DF91CF9108956F927F924E
:101320008F929F92AF92BF92CF92DF92EF92FF92F5
:101330000F931F93CF93DF93EC01742E022F2A811A
:1013400030E050E040E090E080E0821793070CF03E
:10135000AEC0EB81FC81E40FF51F495F5F4FA081B8
:10136000B1816A177B0769F4682E188DDE01179624
:1013700080E0181741F09D91691609F474C08F5FE1
:10138000F8CF0196E2CF183008F07CC081E0810FE1
:10139000888F6E018FE0C80ED11CBF016E5F7F4F3A
:1013A00088E0D6011D928A95E9F75601F60130E0F2
:1013B00020E090E8F92EDB0143E050E08D918F2191
:1013C00090E0022E02C0880F991F0A94E2F7042EC3
:1013D00002C0959587950A94E2F79081892B8083C6
:1013E0004F5F5F4F4830510549F7F6942F5F3F4FED
:1013F000319628303105F9F68D809E80E12EF12C52
:10140000B70183E0660F771F8A95E1F7606440E0DB
:10141000C4010E94B608B8E0CB0ED11CF501619161
:101420005F01D401ED91FC910190F081E02DC401A8
:101430000995CA14DB0491F7FE01EE0DFF1D6782CA
:10144000ED81FE816789061720F0802F0E943722E8
:10145000092F708E018F8585858B402F672DCF01D9
:101460000E94CD08812FDF91CF911F910F91FF90A6
:10147000EF90DF90CF90BF90AF909F908F907F9034
:101480006F900895E881F9810190F081E02DCE01FF
:10149000DF91CF911F910F91FF90EF90DF90CF9050
:1014A000BF90AF909F908F907F906F9009948FEF37
:1014B000DACF0F931F93CF93DF938C01EB016E373D
:1014C0007105E0F0DC0154968C915497861717064D
:1014D00030F053968C9186171706A9F0A0F0F8010A
:1014E000818992890097A9F0218D408DBE010E94CB
:1014F0008E098F3F71F0C82FD0E005C060327105B2
:1015000010F4CAE2D0E0CE01DF91CF911F910F918C
:101510000895D8011E962C9130E090E080E082176B
:1015200093077CF7AC01440F551F480F591FD80192
:101530001F96ED91FC91E40FF51F40815181C41776
:10154000D50721F4C281CF3FB9F6DBCF0196E7CFB3
:101550000F931F93CF93DF938C01EB016E377105CF
:10156000E0F0DC0154968C9154978617170630F002
:1015700053968C9186171706A9F0A0F0F80181897F
:1015800092890097A9F0218D408DBE010E948E099D
:101590008F3F71F0C82FD0E005C06032710510F4A4
:1015A000CAE2D0E0CE01DF91CF911F910F91089553
:1015B000CE01815A91098F359105A0F3D8011E966D
:1015C0002C9130E090E080E0821793074CF7AC015B
:1015D000440F551F480F591FD8011F96ED91FC91DC
:1015E000E40FF51F40815181C417D50721F4C28152
:1015F000CF3F89F6D5CF0196E7CF1F920F920FB656
:101600000F9211242F933F934F935F936F937F9388
:101610008F939F93AF93BF93EF93FF938091C302F8
:101620009091C402A091C502B091C602892B8A2B69
:101630008B2BD1F19091BE02E091BF02F091C002DC
:101640008081892780838091C3029091C402A091F8
:10165000C502B091C602181619061A061B069CF49C
:101660008091C3029091C402A091C502B091C602BC
:101670000197A109B1098093C3029093C402A0937A
:10168000C502B093C602FF91EF91BF91AF919F91B8
:101690008F917F916F915F914F913F912F910F901B
:1016A0000FBE0F901F901895809100010E941002AC
:1016B000EACF1F920F920FB60F9211242F933F93F0
:1016C0004F935F936F937F938F939F93AF93BF934A
:1016D000EF93FF938BEB93E00E942A01FF91EF9130
:1016E000BF91AF919F918F917F916F915F914F913A
:1016F0003F912F910F900FBE0F901F9018951F9242
:101700000F920FB60F9211242F938F939F93EF9305
:10171000FF93E091CB03F091CC038081E091D10362
:10172000F091D20382FD1BC090818091D4038F5F22
:101730008F732091D503821741F0E091D403F0E03C
:10174000E554FC4F958F8093D403FF91EF919F91C7
:101750008F912F910F900FBE0F901F901895808141
:10176000F4CF1F920F920FB60F9211242F933F9335
:101770008F939F93AF93BF9380916703909168037A
:10178000A0916903B0916A033091B90223E0230F5D
:101790002D3758F50196A11DB11D2093B9028093F4
:1017A000670390936803A0936903B0936A038091E1
:1017B000BA029091BB02A091BC02B091BD02019609
:1017C000A11DB11D8093BA029093BB02A093BC02ED
:1017D000B093BD02BF91AF919F918F913F912F9197
:1017E0000F900FBE0F901F90189526E8230F0296BA
:1017F000A11DB11DD2CF1F920F920FB60F921124CF
:101800002F933F934F935F936F937F938F939F9308
:10181000AF93BF93EF93FF938091B900887F803699
:1018200009F44AC0F0F5883209F4A7C018F58031F0
:1018300009F49BC0B8F4882309F4F9C0883009F48E
:1018400094C0FF91EF91BF91AF919F918F917F9144
:101850006F915F914F913F912F910F900FBE0F901D
:101860001F901895883109F488C0803251F7809311
:101870008F0314C0803409F49DC040F48033B9F361
:101880008833F9F680938F0385ECB0C0803509F476
:1018900085C0883509F496C0883499F60E943609C7
:1018A000D0CF883909F48CC038F5883729F050F446
:1018B000883611F0803729F683E0809391031092E7
:1018C000B80257C0883809F47BC0803919F08038D5
:1018D00009F0B7CF8091B802803208F071C0E09172
:1018E000B80281E08E0F8093B8028091BB00F0E0D7
:1018F000E856FD4F80833DC0803B39F0E0F4803AEC
:1019000009F479C0883A09F09CCF84E08093910370
:101910001092970210929602E091E302F091E40295
:1019200009958091960281110FC081E08093960203
:101930001092760209C0803C09F4A6CF883C09F4D5
:10194000A3CF883B09F07DCFE091970281E08E0F15
:1019500080939702F0E0EA58FD4F80818093BB00AE
:10196000909197028091960229C080916C03809398
:10197000BB0085EC8093BC0064CF90918E03809176
:101980008D03981758F5E0918E0381E08E0F8093B8
:101990008E03F0E0E359FC4F8081E9CFE0918E03A4
:1019A00081E08E0F80938E038091BB00F0E0E359BD
:1019B000FC4F808390918E0380918D039817C8F21D
:1019C00085E8D8CFE0918E0381E08E0F80938E035F
:1019D0008091BB00F0E0E359FC4F8083809190033D
:1019E00081115CCF81E080936B0384EA8093BC001B
:1019F0001092910326CF85EC8093BC001092910346
:101A00008091B802803230F4E091B802F0E0E856FC
:101A1000FD4F10826091B80270E0E091E102F09118
:101A2000E20288E992E009951092B8020ACF10927A
:101A30008F0334CF1F920F920FB60F9211242F9362
:101A40003F934F935F936F937F938F939F93AF9346
:101A5000BF93CF93DF93EF93FF9380915402C09194
:101A60008804D0E087FF24C0109285001092840083
:101A7000809154028F5F8093540280915402082E0B
:101A8000000C990B8C179D0724F4809154028C3024
:101A9000C4F18091840090918500049680349C4923
:101AA00008F47AC08091840090918500049676C0F5
:101AB00080915402082E000C990B8C179D07C4F6D8
:101AC000E09154028E2FEE0F990BFC01EE0FFF1FD9
:101AD000E80FF91FEC59FB4F808186FFC9CFE091D9
:101AE00054028E2FEE0F990BFC01EE0FFF1FE80F33
:101AF000F91FEC59FB4F808160E08F730E94E20177
:101B0000B7CF2091840030918500E09154028E2F50
:101B1000EE0F990BFC01EE0FFF1FE80FF91FEC59B8
:101B2000FB4F81819281820F931F90938900809354
:101B30008800E09154028E2FEE0F990BFC01EE0FFE
:101B4000FF1FE80FF91FEC59FB4F808186FF11C082
:101B5000E09154028E2FEE0F990BFC01EE0FFF1F48
:101B6000E80FF91FEC59FB4F808161E08F730E94F1
:101B7000E201FF91EF91DF91CF91BF91AF919F91E2
:101B80008F917F916F915F914F913F912F910F9026
:101B90000FBE0F901F90189580E49CE990938900E8
:101BA000809388008FEF80935402E3CF1F920F92AF
:101BB0000FB60F9211242F933F934F935F936F9320
:101BC0007F938F939F93AF93BF93EF93FF93E09196
:101BD0008B04F0918C04908180918D049823209146
:101BE0008E0430918F042F3F320731F02F5F3F4F2B
:101BF00030938F0420938E0480918904811135C025
:101C0000911116C020918E0430918F042536310534
:101C100058F010929004309393042093920481E042
:101C2000809391048093890410928F0410928E0403
:101C300080918B05813041F480918A05911161C0BA
:101C400061E0811161C02D9AFF91EF91BF91AF9139
:101C50009F918F917F916F915F914F913F912F91C4
:101C60000F900FBE0F901F901895809189048130BE
:101C7000A1F49923E9F2E09191048E0F80939104ED
:101C8000F0E0EE0FFF1FE757FB4F20918E043091DD
:101C90008F043287218782E0C5CF8091890482300A
:101CA00039F5911119C0E091910481E0E03720F0FD
:101CB0008093900483E0B6CF8E0F80939104F0E080
:101CC000EE0FFF1FE757FB4F20918E0430918F04DA
:101CD0003287218781E0A6CF20918E0430918F0436
:101CE0002536310508F4A4CF83E080938904A0CF82
:101CF00080918904833009F09BCF992309F494CF14
:101D000097CF882321F060E00E94E2019DCF2D98BB
:101D10009BCFCF92DF92EF92FF920F931F93E82F0A
:101D2000F92F05C0015011092109310961F1908194
:101D300096239417B9F305C00150110921093109FF
:101D400011F1908196239413F7CFC12CD12CE12C63
:101D5000F12C0AC08FEFC81AD80AE80AF80A0C1545
:101D60001D052E053F0579F080818623841791F3A8
:101D70006C2D7D2D8E2D9F2D1F910F91FF90EF903B
:101D8000DF90CF90089560E070E080E090E01F91D8
:101D90000F91FF90EF90DF90CF9008951092BE03C7
:101DA0001092BD0388EE93E0A0E0B0E08093BF0303
:101DB0009093C003A093C103B093C2032EE831E017
:101DC0003093BC032093BB0325EC30E03093C80371
:101DD0002093C70324EC30E03093CA032093C90357
:101DE00020EC30E03093CC032093CB0321EC30E0A7
:101DF0003093CE032093CD0322EC30E03093D00318
:101E00002093CF0326EC30E03093D2032093D1030C
:101E10001092D4031092D5031092D6031092D703D8
:101E200010925B0410925A0480935C0490935D04BA
:101E3000A0935E04B0935F0480EA91E0909359040C
:101E40008093580489E894E09093A4058093A305B7
:101E500080E00E948D0010928A05E2E7F5E02FEF06
:101E600048EB5BE0809188048C30B8F491E0980FE7
:101E700090938804808390E0DC01AA0FBB1FA80F19
:101E8000B91FAC59BB4F12965C934E931197339682
:101E900085E0EA38F80731F708952083F8CFCF932B
:101EA000DF93CDB7DEB7A7970FB6F894DEBF0FBEAE
:101EB000CDBF789484B5826084BD84B5816084BDD3
:101EC00085B5826085BD85B5816085BD80916E00D8
:101ED000816080936E001092810080918100826009
:101EE0008093810080918100816080938100809146
:101EF00080008160809380008091B1008460809335
:101F0000B1008091B00081608093B00080917A0030
:101F1000846080937A0080917A00826080937A0056
:101F200080917A00816080937A0080917A00806845
:101F300080937A001092C1001092E6021092E5029E
:101F4000109298031092BA030E94F7028AEA90E076
:101F50009093E4028093E3028BEA90E09093E20294
:101F60008093E102E091CB03F091CC0382E0808387
:101F7000E091C703F091C8031082E091C903F0918A
:101F8000CA0380E180831092D303E091CF03F091E4
:101F9000D00386E08083E091CD03F091CE03808171
:101FA00080618083E091CD03F091CE0380818860D1
:101FB0008083E091CD03F091CE038081806880839F
:101FC000E091CD03F091CE0380818F7D80838BEBF8
:101FD00093E00E94990168EC70E080E090E00E943C
:101FE0009D0261E08DE00E943C0260E08DE00E9475
:101FF000E20181E090E09093400380933F0390934F
:10200000420380934103909344038093430390934E
:10201000460380934503909348038093470390932E
:102020004A03809349032FE433E03AA329A327E628
:1020300033E049A15AA12417350711F40C945F1A13
:10204000DA018D939D93BAA3A9A3F3CF80932003C4
:10205000992311F40C94871AE0911F03E23041F4A4
:1020600080931E03F0E0E651FD4F80830C94871AA5
:10207000E330C0F390911E03915090931E03F2CF72
:1020800010921F03109221030C94901AF0E0EB3091
:10209000F10521F410933D030C94DD1AEC30F105A9
:1020A00021F410933C030C94DD1AEE30F10529F471
:1020B00081E080933B030C94DD1AE130F10589F552
:1020C0008091660190916701E816F90639F08091D8
:1020D000640190916501E816F90669F410923E03D7
:1020E000F701EE0FFF1FE55BFC4F81E090E091836D
:1020F00080830C94DD1A8091680190916901E81643
:10210000F90629F410923D0310923C03E9CF809127
:102110006A0190916B01E816F90611F710923B03E2
:10212000DFCF329711F00C94DD1AF701EE0FFF1F8D
:10213000E15CFC4FDACFE150E13110F00C94DD1A94
:102140000E2E000CFF0BE955FF4E0C946B22B810BD
:10215000DD1AC21052132111DD1ADD1A12141E14D9
:10216000E514DD1ADD1A4415DD1A82155B160F1809
:10217000C7010E9430076091F102802F0E94E201A6
:102180000C94DD1AC7010E9430071091F102C12E94
:10219000D12C61E0802F0E943C02111102C060E04E
:1021A000ECCFFFEFCF16D10411F461E0E6CFF701D9
:1021B000E358FF4FE491E33039F148F4E130C1F0E6
:1021C000E230E1F020E8C216D1047CF7E8CFE73036
:1021D00031F1E83069F1E430A9F780918000806244
:1021E00080938000D0928B00C0928A000C94DD1AFC
:1021F00084B5806884BD17BD0C94DD1A84B58062F7
:1022000084BD18BD0C94DD1A809180008068809395
:102210008000D0928900C09288000C94DD1A8091D1
:10222000B00080688093B0001093B3000C94DD1A66
:102230008091B00080628093B0001093B4000C9441
:10224000DD1AC7010E9430078091F1028093DF02FE
:102250008091F2028093E0024091DF025091E0020F
:102260005CA34BA38091F3028093DF028091F40280
:102270008093E0028091DF029091E0029EA38DA303
:10228000181619060CF00AC2809100018013D0C004
:10229000ECE7F0E0149117FF02C00C94DD1A61E046
:1022A000802F0E943C021123B9F0ABA1BCA12D01EB
:1022B000712C612C60E072E18AE790E0A3019D013E
:1022C0000E94B22069017A01B1E0CB1AD108E1087D
:1022D000F108123009F09FC1EBA1FCA12F01712C74
:1022E000612C60E072E18AE790E0A3019F010E9407
:1022F000B22049015A017A016901F1E0CF1AD108EF
:10230000E108F1082FEFC216D104E104F10409F04D
:102310000CF452C160E472E48FE090E0A3019201FA
:102320000E94B22069017A0181E0C81AD108E1084F
:10233000F108123009F0F7C082E09FEFC916D1040E
:10234000E104F10409F00CF46CC060E970ED83E085
:1023500090E0A30192010E94B22069017A01A1E0FC
:10236000CA1AD108E108F10883E0BFEFCB16D10407
:10237000E104F10409F00CF454C068E478EE81E063
:1023800090E0A30192010E94B22069017A0181E0EC
:10239000C81AD108E108F10884E09FEFC916D104FA
:1023A000E104F104F1F1ECF164E274EF80E090E01B
:1023B000A30192010E94B22069017A0181E0C81A4A
:1023C000D108E108F10885E0FFEFCF16D104E10460
:1023D000F10439F130F162E17AE780E090E0A301A5
:1023E00092010E94B22069017A01B1E0CB1AD108B2
:1023F000E108F10886E0EFEFCE16D104E104F10424
:1024000081F078F0750164012AE0F594E794D7949F
:10241000C7942A95D1F7F1E0CF1AD108E108F10865
:1024200087E09091B100987F892B8093B100CBC059
:102430008F3F11F00C94DD1A00930001ECE7F0E0FF
:1024400014911F3F11F40C94DD1A113041F160F02A
:10245000123009F444C017FF02C00C94DD1A61E089
:10246000802F0E943C0221CF14BC15BC84B5826031
:1024700084BD85B5816085BDF701E556FF4FE491C8
:10248000F0E0EE0FFF1FEE58FF4F85919491F7019A
:10249000E155FF4FE491E093C20210E000CF1092AB
:1024A000800010928100809181008860809381007B
:1024B00080918100816080938100F701E556FF4F94
:1024C000E491F0E0EE0FFF1FEE58FF4F85919491DD
:1024D000F701E155FF4FE491E093C102E0CE109285
:1024E000B0001092B1008091B00082608093B00083
:1024F0008091B10081608093B100F701E556FF4FF4
:10250000E491F0E0EE0FFF1FEE58FF4F859194919C
:102510009093C0028093BF02F701E155FF4FE49111
:10252000E093BE02BCCEEFEFCE16D104E104F1047D
:1025300009F00CF46EC068E478EE81E090E0A3014D
:1025400092010E94B22069017A01F1E0CF1AD1080C
:10255000E108F10884E0111137CF83E0AFEFCA162C
:10256000D104E104F10459F154F162E17AE780E029
:1025700090E0A30192010E94B22069017A0191E0EA
:10258000C91AD108E108F10884E0AFEFCA16D104F6
:10259000E104F104A1F098F0750164019AE0F5946A
:1025A000E794D794C7949A95D1F721E0C21AD1083D
:1025B000E108F10885E003C081E0111132CF95B543
:1025C000987F892B85BD2BA13CA1220F331FADA184
:1025D000BEA10E94712228EE33E040E050E00E944C
:1025E00090201130C9F1123009F448C011110C9437
:1025F000DD1AC7BC2093CB023093CC024093CD02AE
:102600005093CE0280916E00826080936E000C9495
:10261000DD1A82E0D2CF91E0C114D104B1E0EB0623
:10262000F10484F068E478EE81E090E0A301920187
:102630000E94B22069017A01E1E0CE1AD108E108D6
:10264000F10893E0113009F0BECF80918100887FBE
:10265000892B80938100B7CFD0928900C0928800E7
:102660002093C7023093C8024093C9025093CA0214
:1026700080916F00826080936F009FC7C092B3000B
:102680002093C3023093C4024093C5025093C60204
:10269000809170008260809370008FC7802F0E94AD
:1026A00010028BC7C7010E943007C090F102F4EB03
:1026B000FC1508F482C7EFECF2E090E080E0219195
:1026C0003191E216F30651F0232B09F0A3C0FC016F
:1026D000EE0FFF1FE153FD4FF182E082FC01EE0F90
:1026E000FF1FE80FF91FEE58FA4FD08081819281C9
:1026F0002BE02D15F0F161E0802F0E943C028D2D22
:1027000090E0AC01440F551FFA01E80FF91FEC5996
:10271000FB4F202F2F730081007C022B008330E0C1
:1027200020E0F901EE0FFF1FE20FF31FEC59FB4F02
:10273000608166FD14C02F5F3F4F2C30310589F753
:102740001092800022E02093810010928500109268
:102750008400B19A20916F00226020936F00840F53
:10276000951FFC01EC59FB4F80818064808390E0D1
:1027700080E0B8E5EB2EB2E0FB2EE91AF10897FDF8
:10278000F394EE0CFF1CEE0CFF1C08E810E0081B95
:10279000110987FD1395000F111F000F111F48012C
:1027A000012E000CAA08BB0897010F2C000C440B4B
:1027B000550B281939094A095B09AC2DB0E00E9474
:1027C000D12024EB30E040E050E00E94B220820EA5
:1027D000931EA41EB51E3BE03D1508F4EEC6801600
:1027E00091062CF087018E149F040CF48401025092
:1027F0001109000F111F2FB7F8948D2D90E0FC01E7
:10280000EE0FFF1FE80FF91FEC59FB4F12830183F6
:102810002FBFD3C601968830910509F050CF90E0C4
:1028200080E05CCF8FB7F8944091670350916803C4
:102830006091690370916A038FBFBFC68091F102F6
:102840006091F3024091F5022091F7021091F90294
:102850009091FB029093DF029091FC029093E00232
:10286000E090DF02F090E002F701F85FE130F04124
:1028700008F0A3C61C861B861A8219821F8A188E2E
:10288000198E1A8EE0E0F8E0F887EF83E82FF0E089
:10289000FE87ED8770E0788B6F8750E05A8B498B0D
:1028A00030E03C8B2B8B61E00E943C0261E08F8525
:1028B0000E943C0261E089890E943C0261E08B89B0
:1028C0000E943C021E8A1D8A84E090E09A878987D4
:1028D0002F813885032E000C440B550B60E077E800
:1028E00083E993E00E94B220CA01B901212F30E0B0
:1028F00050E040E00E94B2202B833C834D835E83F6
:102900008701F7FE04C0002711270E191F091E14A6
:102910001F040CF048C081E090E09A83898374E042
:10292000E72EF12C0115110509F447C60E94780223
:102930008F88988CA98CBA8C2B013C0148185908B7
:102940006A087B088B809C80AD80BE804814590447
:102950006A047B0438F36F8B788F898F9A8F8B850D
:102960009C8529813A812130310519F501969C8792
:102970008B872F8138858217930711F41C861B865D
:10298000015011098B859C8529853A856AE070E0A4
:102990002530310509F0B7010E945722BC01C10161
:1029A0000E944106BFCFEF2809F4B9CF1A821982DD
:1029B000B6CF892B21F48F8198859C878B878B8557
:1029C0009C8501979C878B87DBCF80912203909118
:1029D0002303009751F02091680130916901E216BC
:1029E000F30609F445C00E94142383E190E00E949D
:1029F00078226C01DC0115960C9315978BE01696E6
:102A00008C931697F701E155FF4FE4911796EC93DD
:102A10001797F701E556FF4FE4911896EC93189736
:102A200020E83EE340E050E01D962D933D934D930A
:102A30005C935097D0922303C092220362E0802FD0
:102A40000E943C022FB7F89480916703909168032D
:102A5000A0916903B0916A032FBF805D9740A109DF
:102A6000B109F60181879287A387B48787E3828BB8
:102A7000F0926901E0926801F701EE0FFF1FE55B3C
:102A8000FC4F1182108299C58091390390913A03CD
:102A9000009749F020916A0130916B01E216F3062C
:102AA00061F10E94142384E290E00E9478226C017C
:102AB00089E894E0D60158969C938E935797802F7F
:102AC0000E948D0010928A05D0923A03C092390379
:102AD00082E08093B0008093B10084E68093B300DD
:102AE0008093B4001092B20080918904833011F475
:102AF0001092890484E080937000F0926B01E09260
:102B00006A01BACF8091E8029091E902009711F032
:102B10000E94142311E001E0009397031093B9037E
:102B2000109298031092BA030E943603811101C0DB
:102B30001FA31F5F1F3781F78BE190E00E9478226F
:102B40008C01FC01138212822FA1248390E19187D2
:102B500082E082871386128A118A138A148A158A60
:102B6000968B878B108E118EFF24F394F28E8EE756
:102B700091E09183808381E2868781E091E0908B70
:102B800087878AE0848786E085871093E90200932F
:102B9000E8028091E702811118C01092E6021092BB
:102BA000E502109298031092BA030E94F7028AEA93
:102BB00090E09093E4028093E3028BEA90E090939C
:102BC000E2028093E102F092E702D80115961C928E
:102BD00015971A968C911A97823018F098E01596EE
:102BE0009C93F801808762E370E080E090E00E94AF
:102BF0009D02D8011B966C91C8010E94E80468EE02
:102C000073E080E090E00E949D0260E3C8010E94B2
:102C10009D084BE4E42E46E4F42EC7010197F1F73A
:102C200060E3C8010E949D08C7010197F1F760E3C6
:102C3000C8010E949D0883E592E00197F1F760E2E8
:102C4000C8010E949D08F8016581606240E0C801EA
:102C50000E94B60884E0D80116968C9340E06CE0A0
:102C6000C8010E94B60840E061E0C8010E94B608B1
:102C70005BE3E52E5FE1F52EC7010197F1F782E0F6
:102C8000F801878340E066E0C8010E94B60840E092
:102C900062E0C8010E94B608C7010197F1F788E019
:102CA000D8011B968C9360E0C8010E94E804C8011B
:102CB0000E946E0982C49090F1028090F202E0902E
:102CC000F3020091E8021091E9020115110509F4DF
:102CD00074C4EE2061F31C8E1B8E1E8E1D8E18A2F6
:102CE0001F8E70E060E0CE014B960E940E092B8D86
:102CF0003C8D811137C02115310519F0C9010E94A1
:102D000014231C8E1B8E18A21F8E1E8E1D8E34EF58
:102D1000A32E32E0B32EF12CBAE0EB0EF11CC5016C
:102D20008A5E92408E159F052CF5F50181915F0119
:102D300089831A82CF8CD8A0FFEFCF1ADF0AB601A1
:102D4000CE014B960E940E09882349F32B8D3C8DB2
:102D50008F8D98A1B101820F931F0E946A24D8A27F
:102D6000CF8EDDCF18A21F8E60EB71E0C9010E94EB
:102D70006A24CDCFD80157966C91961620F0892DF4
:102D80000E943722992EF801808E918E8585858B41
:102D9000492D682DC8010E94CD084DB65EB6EF8C56
:102DA000F8A0C70101962DB73EB7281B390B0FB607
:102DB000F8943EBF0FBE2DBF4DB75EB74F5F5F4F5C
:102DC0006A01892B29F0E114F10431F5DA011C9232
:102DD000912C812C5601A80CB91CF5018081882307
:102DE00009F410C1E82EF12C91E087FF45C091E075
:102DF000F12CE12C823C08F43FC0D5011196FE0174
:102E0000339691E0880F87FF12C09F5F2D912F7737
:102E100030E021933193F6CF6B8D7C8DA701C601F5
:102E20000E947124F601EE0DFF1D1082D1CFE82E15
:102E3000F12CE92FF0E0092E02C0F594E7940A94F2
:102E4000E2F7FA82E982EE0FFF1FE20DF31D50E078
:102E500040E0F12CE12C32912291042E02C0220F8D
:102E6000331F0A94E2F731832083E20EF31E4A5F98
:102E70005F4F2E163F0679F7D8015A968C915A97D4
:102E8000692E712C882309F44EC055969C91559754
:102E900058968C915897981708F045C0ED91FC9181
:102EA0000284F385E02D9701A401B601C8010995BC
:102EB000F8012689882331F0281770F58FEF820FEB
:102EC000F801858BD80155968C915597821758F14A
:102ED00059962C91599757963C91822F90E00196E4
:102EE000632F70E00E945722892BD1F0F801108ED9
:102EF00081E0820F632F0E943722918F8585858B19
:102F0000492F60E0C8010E94CD08F0E2EF16F104FD
:102F100051F4860C971C5ECF908D9150890FD0CFC5
:102F2000C8010E946E09D80158969C9158975696F0
:102F30008C915697981768F7ED91FC910084F18574
:102F4000E02DB701C80109957C01D801ED91FC91F4
:102F50000190F081E02D682FC801BFEFEB16F1045E
:102F600009F0C0F50995D80158968C9158978F5F54
:102F700058968C93589756969C9156978913C9CF1B
:102F8000F501E60DF71D8081882319F25A968C9180
:102F90005A97882309F4BDCF59962C915997579683
:102FA0003C91822F90E00196632F70E00E9457229F
:102FB000892BF9F0F801108E81E0820F632F0E94B7
:102FC0003722918F8585858B492F60E0C8010E944B
:102FD000CD089FCF0995D801ED91FC910190F0812A
:102FE000E02D6F2DC8010995F801808D8F5F808FCE
:102FF000BACF60E070E0CB010E949D02C8010E9440
:103000006E0987CF0FB6F8945EBE0FBE4DBE8B8D96
:103010009C8D009709F4D1C20E941423CEC28091E6
:10302000E8029091E902009709F042CEC6C2EBE4B3
:10303000F3E081E090E029A13AA12E173F0791F536
:1030400081E090E09093400380933F03909342038C
:1030500080934103909344038093430390934603EA
:1030600080934503909348038093470390934A03CA
:103070008093490310923E0310923D0310923C034B
:1030800010923B030E94860760E070E0CB010E9433
:10309000440780E00E943F078FEF0E943F070E9495
:1030A0000C098BC281939193C6CF6FE070E080E0F2
:1030B00090E00E949D029BE4E92E93E0F92E10E03F
:1030C00000E0D7018D919D917D01019709F03AC0F3
:1030D000902E60E0802F0E943C020E948607F8013B
:1030E000E358FF4F8491F801E155FF4FA490F80198
:1030F000E556FF4FB49070E060E0BB2099F081117D
:103100000E94B901EB2DF0E0EE0FFF1FEF56FF4FCD
:10311000A591B491EC91AE2291E080E009F490E0A9
:10312000692F782F072E000C880B990B0E94871FA0
:103130000E946207892D0E943F0781E00E943F079D
:103140000E940C090F5F1F4F0E30110509F0B9CF17
:103150000FE313E0F12CF801819191918F01019718
:1031600029F50E9486078F2D806480937C008091D2
:103170007A00806480937A0080917A0086FDFCCF8B
:103180008091780060917900762F682F072E000CCF
:10319000880B990B0E94871F0E9462078F2D0E9447
:1031A0003F0782E00E943F070E940C09F394F6E07B
:1031B000FF12D1CF80913E03882309F460C01091A3
:1031C000660160E0812F0E94E20183E090E00197B8
:1031D000F1F761E0812F0E94E20183E290E0019724
:1031E000F1F760E0812F0E94E201809164019091EB
:1031F00065019927FC01E155FF4F6491FC01E556FB
:10320000FF4FE491F0E0EE0FFF1FEF56FF4F859167
:10321000949100E315E720E030E0462F0E94890EEC
:103220004B015C0181149104A104B10439F02FEF2A
:10323000821A920AA20AB20A3FE0B3220E948607CB
:10324000C501B4010E94851F20E030E048EE51E442
:103250000E948F2120E030E040E05FE30E94C21F27
:103260000E946207809166010E943F07809164017D
:103270000E943F0787E00E943F070E940C0980914F
:103280003D03882309F472C00091220310912303A7
:103290000115110509F4ADC0C8010E943505882348
:1032A00049F0D80116968C918C3009F481C038F41D
:1032B0008B30E9F060E070E080EC9FE741C0855121
:1032C0008230C0F7F801F2806F2D70E0762F66270C
:1032D00066277F778381682B90E080E00E94851FBE
:1032E0002DEC3CEC4CEC5DE30E94C21F7EC0F8016B
:1032F000628170E090E080E00E94851F4B015C01DC
:10330000D80113961C9117FF0AC0AC019B0160E025
:1033100070E080E89FEB0E9422214B015C011F704E
:10332000612F70E090E080E00E94871F2DEC3CEC64
:103330004CEC5DE30E94C21FA50194010E94232171
:103340000E9401228B010E948607B801110F880B91
:10335000990B0E94871F0E944407809168010E9478
:103360003F078BE00E943F070E940C0980913C03BD
:10337000882309F473C000912203109123030115DF
:10338000110509F42EC1C8010E943505882359F0A2
:10339000D80116968C918B3030F08D3068F18551C4
:1033A000823008F40DC160E070E080EC9FE740C01F
:1033B000F801F2806F2D70E090E080E00E94851FA0
:1033C0004B015C01D80113966C916F7070E090E036
:1033D00080E00E94871F2DEC3CEC4CEC5DE30E94EA
:1033E000C21FA50194010E942321F7FEA9CF905886
:1033F000A7CF10E000E0A7CFF801618170E090E076
:1034000080E00E94871F2DEC3CEC4CEC5DE30E94B9
:10341000C21F4B015C01D8016C9170E090E080E02C
:103420000E94871F9B01AC01C501B4010E942321AA
:103430000E9401228B010E948607B801110F880BA0
:10344000990B0E94871F0E944407809168010E9487
:103450003F078CE00E943F070E940C0980913B03CC
:103460008823F1F0E0903903F0903A03E114F1047D
:1034700009F0BAC0CC24CA94DC2C0E948607B6019D
:10348000DD0C880B990B0E94871F0E9444078091D6
:103490006A010E943F078EE00E943F070E940C09CC
:1034A0006AE070E080E090E00E949D0280E090E0A1
:1034B000892B29F00E94160181110E940000FE0153
:1034C00031961F018BEB93E00E940A016C01892B5E
:1034D00009F4EBCD8BEB93E00E940A011816190654
:1034E0008CF78BEB93E00E94E800909121038535E7
:1034F00011F00C94261091110C9426108091200349
:103500008F3F29F481E080931F03809321038091F2
:103510001F038F5F843310F00C94401080931F03BF
:1035200080912103882371F280911E038111CACFFB
:1035300080911F03843030F210922103E091EF025A
:103540000091F002E02EF12C1091EE02123011F4F5
:103550000C949B10133009F46ACD113071F5E730EB
:1035600011F00C944610F0926701E0926601D09041
:10357000F1028D2D90E09093650180936401F70135
:10358000EE0FFF1FE55BFC4F11821082880F991F21
:10359000FC01E55BFC4F1182108261E0802F0E94EC
:1035A0003C0260E08D2D0E943C0262E370E080E00E
:1035B00090E00E949D0210933E0310921F0382CF61
:1035C000F8016081718176276727762790E080E097
:1035D0000E94851F2DEC3CEC4CEC5DE30E94C21F69
:1035E00027CF10E000E027CF80918904833009F0D5
:1035F00041CF8091280381110DC04BE950E061EB70
:1036000071E08BEB93E00E94AC000E94040981E022
:103610008093280382E994E09093360380933503E6
:10362000809191048093370390919004992321F025
:10363000109290041092910490919004909338030A
:1036400010922D0310922E0310922F03109230032C
:1036500090E8D7011A969C93209194043091950498
:10366000265831092C35310588F48430A9F580912C
:103670009604909197048197489740F4809198041C
:10368000909199040897089708F45FC080913703D8
:103690008A3108F491C0E0913503F091360320811E
:1036A00031812A30310508F065C0109231038FEF67
:1036B0009FEFDC0180932D0390932E03A0932F03A3
:1036C000B093300381E0D7011A968C931A9782E168
:1036D00090E08D939C9326C18434C1F6809196042A
:1036E00090919704825491098F9780F600E312E03D
:1036F00020E936E040E352E060E2C7010E9416088C
:10370000882321F2E0913503F0913603EA57FF4F09
:10371000808191810897089708F0B8CFF7018385D9
:103720009485A585B68580932D0390932E03A09351
:103730002F03B093300380E28093310387E090E061
:1037400090932A038093290312C0109231038FEFC4
:103750009FEFDC0180932D0390932E03A0932F0302
:10376000B093300381E8F701828787E090E091838E
:103770008083D8C022813381245231092A31310516
:10378000D8F443E050E060E0812C912C540190E0AB
:103790004817590708F05AC024813581285031094B
:1037A0002830310548F42681378122313105C0F1B6
:1037B0002032310508F43FC081E08093270389E778
:1037C00093E0909326038093250310922403C7016E
:1037D0000E948C07813009F0CEC0812C912C5401BD
:1037E00010E0D7015796ED91FC9158979085809104
:1037F0002703891708F046C0C7010E948C07082FCD
:10380000C7010E948C07011133C0813009F0B3C099
:10381000880C991CAA1CBB1C689480F81F5FE1CF20
:103820002930310548F22131310530F6880C991CD8
:10383000AA1CBB1C06C0880C991CAA1CBB1C689443
:1038400080F86F5F4E5F5F4F3496A2CF6093310375
:1038500080922D0390922E03A0922F03B0923003FA
:1038600082E190E090932A0380932903F7017FCFB0
:10387000013009F080C081117EC0880C991CAA1CFF
:10388000BB1CCCCF812F90E019969C938E931897F8
:103890001B968D929D92AD92BC921E97882D8F7330
:1038A00090E015969C938E931497940146E036957C
:1038B00027954A95E1F72F71332713963C932E9362
:1038C0001297940122273071232B31F4805C9F4F93
:1038D00015969C938E93149780E8D7011A968C9333
:1038E0001A9793FE03C088E81A968C938185928577
:1038F0008F3C994020F4F7018285816082878EE0B9
:1039000090E0D7018D939C931093310380922D0307
:1039100090922E03A0922F03B092300390932A032B
:103920008093290380912D0390912E03A0912F0362
:10393000B09130038D3BE2E49E07EFEFAE07B10597
:1039400009F4DFC208F0A9C212E0C12ED12C873ED3
:1039500028E192072FEFA207B10509F496C208F0FB
:1039600081C28F3E9041AF4FB10509F4C2C24AE017
:10397000C42ED12C8AC2D7015796ED91FC91838534
:10398000948588974D9708F04DC0858596850C974E
:103990000B9708F047C083E0809327038CEB91E0FE
:1039A000909326038093250310922403C7010E945D
:1039B0008C078130B9F5C7010E948C07811132C094
:1039C000812C912C540110E0D7015796ED91FC9178
:1039D0005897908580912703891708F067C0C70121
:1039E0000E948C07782E1330C1F0C7010E948C070B
:1039F000082F133029F4C7010E948C07081312C046
:103A0000B1E07B124AC001110DC0880C991CAA1CA0
:103A1000BB1C689480F81F5FD7CFC7010E948C073A
:103A2000781619F3E0913503F09136038281938182
:103A300020913703223608F47EC0C397859708F09B
:103A40007AC0848195814A97439708F074C000EB4F
:103A500011E020E135E040EB51E06CE2C7010E944B
:103A60001608882309F467C080E380933103F701C7
:103A700083859485A585B68580932D0390932E0329
:103A8000A0932F03B093300382E090E290932C0335
:103A900080932B0388E090E053CE7110C3CF0130A8
:103AA00009F6880C991CAA1CBB1CB5CF812F90E08D
:103AB00019969C938E9318971B968D929D92AD921A
:103AC000BC921E97282D30E0892D1432F8F480E83E
:103AD0001A968C931A9715963C932E931497892DCA
:103AE00090E013969C938E931297A0FE03C088E8F3
:103AF0001A968C938185928583379A4020F4F7013A
:103B00008285816082878FE090E0FBCE90E81A96F4
:103B10009C931A9797FE03C098E81A969C93D70136
:103B200015963C932E9314978F7790E013969C9361
:103B30008E931297DFCFE0913503F09136038281A7
:103B40009381209137032C33A1F5865891098D3547
:103B5000910578F584819581CE978C9750F506E292
:103B600012E02CE236E044EF51E06CE1C7010E9424
:103B700016088823F1F0E0913503F0913603EA58F6
:103B8000FF4F808191810797089798F4F70183850B
:103B90009485A585B68580932D0390932E03A093DD
:103BA0002F03B09330038CE18093310385E090E0E4
:103BB000C7CD40913703E0913503F0913603828100
:103BC0009381423289F49C01285031092730310514
:103BD00058F4DF01AE5BBF4F2D913C912850310965
:103BE0002730310508F458C08D5791098735910564
:103BF00008F467C0E0913503F09136038281938128
:103C0000835491098F9780F480913703843009F0B1
:103C10008DC0848195818197489730F48681978102
:103C20000897089708F4ACC0D7015796ED91FC911E
:103C30008085823209F0B9C0E0913503F0913603F6
:103C4000828193810497059708F0AFC084819581A4
:103C50000B970A9708F0A9C00CE013E02CE137E0BD
:103C600044E051E06FE0C7010E941608882309F480
:103C70009CC0F70183859485A585B68580932D0327
:103C800090932E03A0932F03B09330038FE0809383
:103C9000310382E090E054CD109231038FEF9FEF1B
:103CA000DC0180932D0390932E03A0932F03B093F8
:103CB000300381E0D7011A968C931A9784E090E044
:103CC00008CD443208F496CF84819581CE978C97A5
:103CD00008F090CF0EE012E02AE236E04EE052E02B
:103CE00060E1C7010E941608882309F483CFE091A0
:103CF0003503F0913603EA5BFF4F8081918108978D
:103D0000079708F077CFF70183859485A585B68559
:103D100080932D0390932E03A0932F03B093300331
:103D200080E18093310384E090E00ACD843408F48C
:103D30007BCF84819581825491098F9708F074CF4D
:103D400000E312E020E936E040E352E060E2C70120
:103D50000E941608882309F467CFF70183859485AC
:103D6000A585B68580932D0390932E03A0932F03F2
:103D7000B093300380E28093310380E190E0E0CCA7
:103D8000109231038FEF9FEFDC0180932D0390930E
:103D90002E03A0932F03B093300381E0D7011A962E
:103DA0008C931A9780E190E094CC00913703063011
:103DB00008F450C0E0913503F0913603329625ECBB
:103DC0003DE94CE151E813E08AE0B82E8481958109
:103DD00061917191B89E4001B99E900C1124DB0154
:103DE000AA0FBB1FAA0FBB1FAA0FBB1FA12C8A16AD
:103DF0009B0688F0B69ED001B79EB00D112463E0FB
:103E0000880F991F6A95E1F7AA24A394A817B90708
:103E100010F482E0A82E63E971E080E091E00E9456
:103E200080209B01AC012A251F5F0113CFCF209377
:103E30002D0330932E0340932F035093300380E2E1
:103E40008093310310922A0310922903D7011D9207
:103E50001C9268CD80918904833009F00BCB1092BD
:103E6000890408CBCC24C394D12C8F3C50E3950714
:103E70005FEFA507B10549F0F5E0CF2ED12C873CC7
:103E80009843AF4FB10509F072CD8091890483301A
:103E900009F0F3CA10928904F0CA853AFAE59F073F
:103EA000FFEFAF07B10549F198F468E0C62ED12CB9
:103EB000853B3AE493073FEFA307B10531F359E09F
:103EC000C52ED12C8D3A9245AF4FB105F1F24FCDB1
:103ED000873958E695075FEFA507B105B1F2853838
:103EE0009A47AF4FB10509F042CDB3E0CB2ED12CAC
:103EF000CCCFA4E0CA2ED12CC8CFE6E0CE2ED12C58
:103F0000C4CF77E0C72ED12CC0CFE89409C097FB6F
:103F10003EF490958095709561957F4F8F4F9F4FA0
:103F20009923A9F0F92F96E9BB279395F6958795E4
:103F300077956795B795F111F8CFFAF4BB0F11F4A7
:103F400060FF1BC06F5F7F4F8F4F9F4F16C088234E
:103F500011F096E911C0772321F09EE8872F762F84
:103F600005C0662371F096E8862F70E060E02AF0C5
:103F70009A95660F771F881FDAF7880F96958795B1
:103F800097F908950E94D51F0C9446200E9438206E
:103F900038F00E943F2020F0952311F00C942F2040
:103FA0000C94352011240C947A200E94572070F331
:103FB000959FC1F3950F50E0551F629FF001729FCE
:103FC000BB27F00DB11D639FAA27F00DB11DAA1FDD
:103FD000649F6627B00DA11D661F829F2227B00D2A
:103FE000A11D621F739FB00DA11D621F839FA00DB5
:103FF000611D221F749F3327A00D611D231F849F05
:10400000600D211D822F762F6A2F11249F5750405B
:104010009AF0F1F088234AF0EE0FFF1FBB1F661FD6
:10402000771F881F91505040A9F79E3F510580F09F
:104030000C942F200C947A205F3FE4F3983ED4F345
:10404000869577956795B795F795E7959F5FC1F743
:10405000FE2B880F911D9695879597F9089597F9EE
:104060009F6780E870E060E008959FEF80EC08951E
:1040700000240A9416161706180609060895002447
:104080000A9412161306140605060895092E0394C1
:10409000000C11F4882352F0BB0F40F4BF2B11F435
:1040A00060FF04C06F5F7F4F8F4F9F4F089557FD94
:1040B0009058440F551F59F05F3F71F04795880F96
:1040C00097FB991F61F09F3F79F08795089512162D
:1040D00013061406551FF2CF4695F1DF08C01616D9
:1040E00017061806991FF1CF86957105610508948A
:1040F0000895E894BB2766277727CB0197F90895A1
:10410000DB018F939F930E94D120BF91AF91A29F1B
:10411000800D911DA39F900DB29F900D11240895C5
:10412000A1E21A2EAA1BBB1BFD010DC0AA1FBB1FBB
:10413000EE1FFF1FA217B307E407F50720F0A21B2D
:10414000B30BE40BF50B661F771F881F991F1A949A
:1041500069F760957095809590959B01AC01BD01C4
:10416000CF010895052E97FB1EF400940E94C920EC
:1041700057FD07D00E94902007FC03D04EF40C940A
:10418000C92050954095309521953F4F4F4F5F4F37
:10419000089590958095709561957F4F8F4F9F4FB3
:1041A00008950E941321A59F900DB49F900DA49F88
:1041B000800D911D112408952F923F924F925F928E
:1041C0006F927F928F929F92AF92BF92CF92DF9227
:1041D000EF92FF920F931F93CF93DF93CDB7DEB78C
:1041E000CA1BDB0B0FB6F894DEBF0FBECDBF099420
:1041F0002A88398848885F846E847D848C849B8477
:10420000AA84B984C884DF80EE80FD800C811B8184
:10421000AA81B981CE0FD11D0FB6F894DEBF0FBEB3
:10422000CDBFED010895A29FB001B39FC001A39F30
:10423000700D811D1124911DB29F700D811D1124DF
:10424000911D08955058BB27AA270E943A210C942B
:1042500046200E94382038F00E943F2020F039F498
:104260009F3F19F426F40C9435200EF4E095E7FBFB
:104270000C942F20E92F0E94572058F3BA17620799
:1042800073078407950720F079F4A6F50C9479203C
:104290000EF4E0950B2EBA2FA02D0B01B901900161
:1042A0000C01CA01A0011124FF27591B99F0593FA5
:1042B00050F4503E68F11A16F040A22F232F342FED
:1042C0004427585FF3CF469537952795A795F0403B
:1042D0005395C9F77EF41F16BA0B620B730B840B50
:1042E000BAF09150A1F0FF0FBB1F661F771F881F08
:1042F000C2F70EC0BA0F621F731F841F48F4879560
:1043000077956795B795F7959E3F08F0B0CF939551
:10431000880F08F09927EE0F9795879508950E94CA
:10432000A3210C9446200E943F2058F00E94382080
:1043300040F029F45F3F29F00C942F2051110C9488
:104340007A200C9435200E94572068F39923B1F30A
:10435000552391F3951B550BBB27AA2762177307AB
:10436000840738F09F5F5F4F220F331F441FAA1F3F
:10437000A9F335D00E2E3AF0E0E832D091505040FB
:10438000E695001CCAF72BD0FE2F29D0660F771FA9
:10439000881FBB1F261737074807AB07B0E809F08F
:1043A000BB0B802DBF01FF2793585F4F3AF09E3F14
:1043B000510578F00C942F200C947A205F3FE4F3A1
:1043C000983ED4F3869577956795B795F7959F5F57
:1043D000C9F7880F911D9695879597F90895E1E0A3
:1043E000660F771F881FBB1F621773078407BA0702
:1043F00020F0621B730B840BBA0BEE1F88F7E0955D
:1044000008950E9408226894B1110C947A200895AE
:104410000E945F2088F09F5798F0B92F9927B751D5
:10442000B0F0E1F0660F771F881F991F1AF0BA9558
:10443000C9F714C0B13091F00E947920B1E008951D
:104440000C947920672F782F8827B85F39F0B93F0F
:10445000CCF3869577956795B395D9F73EF490950B
:104460008095709561957F4F8F4F9F4F0895991B51
:1044700079E004C0991F961708F0961B881F7A955B
:10448000C9F780950895AA1BBB1B51E107C0AA1F5D
:10449000BB1FA617B70710F0A61BB70B881F991FE5
:1044A0005A95A9F780959095BC01CD01089597FB89
:1044B000072E16F4009407D077FD09D00E944322FE
:1044C00007FC05D03EF4909581959F4F0895709517
:1044D00061957F4F0895EE0FFF1F0590F491E02D39
:1044E00009940E941321B7FF0895821B930B08952E
:1044F0000F931F93CF93DF938230910510F482E0E6
:1045000090E0E091B205F091B30530E020E0B0E03A
:10451000A0E0309799F42115310509F44AC0281B11
:10452000390B24303105D8F58A819B8161157105DD
:1045300089F1FB0193838283FE0111C04081518187
:104540000281138148175907E0F04817590799F479
:10455000109761F012960C93129713961C93329653
:10456000CF01DF91CF911F910F9108950093B20574
:104570001093B305F4CF2115310551F042175307BD
:1045800038F0A901DB019A01BD01DF01F801C1CFBB
:10459000EF01F9CF9093B3058093B205CDCFFE0123
:1045A000E20FF31F819391932250310939832883BD
:1045B000D7CF2091B0053091B105232B41F4209144
:1045C0006E0130916F013093B1052093B0052091B9
:1045D0006C0130916D012115310541F42DB73EB7C5
:1045E0004091700150917101241B350BE091B00591
:1045F000F091B105E217F307A0F42E1B3F0B28172B
:10460000390778F0AC014E5F5F4F2417350748F04B
:104610004E0F5F1F5093B1054093B0058193919366
:104620009FCFF0E0E0E09CCFCF93DF930097E9F0DD
:10463000FC01329713821282A091B205B091B305AA
:10464000ED0130E020E01097A1F420813181820F4C
:10465000931F2091B0053091B1052817390709F053
:1046600061C0F093B105E093B005DF91CF9108955B
:10467000EA01CE17DF07E8F54A815B819E0141150B
:104680005105B1F7E901FB83EA8349915991C40FC0
:10469000D51FEC17FD0761F4808191810296840F8C
:1046A000951FE90199838883828193819B838A8303
:1046B000F0E0E0E012968D919C9113970097B9F588
:1046C0002D913C911197CD010296820F931F20915D
:1046D000B0053091B1052817390739F6309751F5F3
:1046E0001092B3051092B205B093B105A093B00536
:1046F000BCCFD383C28340815181840F951FC817DB
:10470000D90761F44E5F5F4F88819981480F591F27
:10471000518340838A819B81938382832115310554
:1047200009F0B0CFF093B305E093B2059ECFFD0141
:10473000DC01C0CF13821282D7CFB0E0A0E0E3EA61
:10474000F3E20C94DE208C01009751F4CB010E941F
:1047500078228C01C801CDB7DEB7E0E10C94FA20D5
:10476000FC01E60FF71F9C0122503109E217F30705
:1047700008F49DC0D901CD91DC911197C617D707D8
:1047800098F0C530D10530F3CE010497861797070E
:1047900008F3C61BD70B2297C193D1936D937C93DB
:1047A000CF010E941423D6CF5B01AC1ABD0A4C0185
:1047B0008C0E9D1EA091B205B091B305512C412CD9
:1047C000F12CE12C109731F58091B0059091B10555
:1047D0008815990509F05CC04616570608F058C0C0
:1047E00080916C0190916D01009741F48DB79EB757
:1047F0004091700150917101841B950BE817F907E6
:1048000008F055C0F093B105E093B005F90171834C
:104810006083A0CF8D919C91119712966C90129706
:1048200013967C901397A815B90559F56C0142E0D1
:10483000C40ED11CCA14DB0420F1AC014A195B0977
:10484000DA011296159780F0628273825183408359
:10485000D9016D937C93E114F10471F0D7011396A3
:10486000FC93EE93129776CF22968C0F9D1FF90141
:1048700091838083F301EFCFF093B305E093B2050A
:1048800069CF4816590608F42C017D01D3019ACF4F
:10489000CB010E9478227C01009749F0AE01B8015B
:1048A0000E945A24C8010E941423870153CF10E0AC
:1048B00000E050CFFB01DC0102C001900D9241509D
:1048C0005040D8F70895DC0101C06D93415050402D
:1048D000E0F70895FB01DC0101900D920020E1F763
:1048E0000895FB01DC014150504048F001900D92C9
:1048F0000020C9F701C01D9241505040E0F70895D3
:04490000F894FFCF59
:10490400FF0104CB100441110480120442130492E9
:1049140014048115044516048217048318048419A9
:1049240004851A044B1B04861C044D1D04481E04F4
:104934004F1F048720045021044322045423048875
:104944002404D825045826048927048A28048B299A
:10495400048C2A048D2B048E2C04622D048F2E04C7
:10496400AC2F04AD0C000D00FFFFFFFF0000B405E9
:104974008000000040001400540000000000FE0805
:10498400AC0013081208A80AA304000000004C019C
:10499400AC00D90099010A01E800FC000000000005
:1049A4007404470413081D0440042D041E040D0A56
:1049B400005468652066756E6374696F6E20646563
:1049C400636F64652826726573756C747329292076
:1049D4006973206465707265636174656420616ED7
:1049E40064206D6179206E6F7420776F726B206123
:1049F4007320657870656374656421204A757374E7
:104A040020757365206465636F6465282920776960
:104A140074686F7574206120706172616D6574656E
:104A24007220616E642049725265636569766572AD
:104A34002E6465636F6465644952446174612E3CFD
:0E4A44006669656C646E616D653E202E000033
:00000001FF
