:100000000C9463000C948B000C948B000C948B006C
:100010000C948B000C948B000C948B000C94750644
:100020000C942F080C948B000C948B000C94730789
:100030000C948B000C948B000C948B000C948B0014
:100040000C9429070C948B000C94F7060C94D106A1
:100050000C948B000C948B000C948B000C948B00F4
:100060000C948B000C948B000000000024002700EF
:100070002A0000000000250028002B0002000000DC
:100080000800020100000304070000000000000057
:1000900000000000002300260029000404040404DA
:1000A0000404040202020202020303030303030125
:1000B00002040810204080010204081020010204FC
:1000C00008102000270911241FBECFEFD8E0DEBFA3
:1000D000CDBF11E0A0E0B1E0E2E6F5E302C005909B
:1000E0000D92A03CB107D9F724E0A0ECB1E001C02B
:1000F0001D92AD35B207E1F710E0C3E6D0E004C0D1
:100100002197FE010E947D19C236D107C9F70E94CE
:1001100096090C94AF1A0C940000A2E3B3E0119678
:100120008C93119790E0FC01E155FF4FE4911496F8
:10013000EC931497FC01E556FF4FE491F0E0EE0FCD
:10014000FF1FEF56FF4F8591949113969C938E93CA
:1001500012970895AF92BF92CF92DF92EF92FF92E3
:100160000F931F93CF93DF936C017B018B01040FDF
:10017000151FEB015E01AE18BF08C017D10759F07B
:100180006991D601ED91FC910190F081E02DC601BD
:100190000995892B79F7C501DF91CF911F910F91B7
:1001A000FF90EF90DF90CF90BF90AF900895FC014B
:1001B000538D448D252F30E0842F90E0821B930BCC
:1001C000541710F0CF96089501970895FC01918D72
:1001D000828D981761F0A28DAE0FBF2FB11D5D9675
:1001E0008C91928D9F5F9F73928F90E008958FEF17
:1001F0009FEF0895FC01918D828D981731F0828DCB
:10020000E80FF11D858D90E008958FEF9FEF089521
:10021000FC01918D228D892F90E0805C9F4F821B85
:1002200091098F739927089580E792E00E94080151
:1002300021E0892B09F420E0822F089580E090E0EE
:10024000892B29F00E94140181110C94000008955B
:10025000FC01A48DA80FB92FB11DA35ABF4F2C913B
:10026000848D90E001968F739927848FA689B78932
:100270002C93A089B1898C91837080648C93938D29
:10028000848D981306C00288F389E02D80818F7DCC
:1002900080830895EF92FF920F931F93CF93DF9384
:1002A000EC0181E0888F9B8D8C8D98131AC0E889B2
:1002B000F989808185FF15C09FB7F894EE89FF8981
:1002C0006083E889F98980818370806480839FBF1F
:1002D00081E090E0DF91CF911F910F91FF90EF901F
:1002E0000895F62E0B8D10E00F5F1F4F0F7311272F
:1002F000E02E8C8D8E110CC00FB607FCFACFE8896A
:10030000F989808185FFF5CFCE010E942801F1CFC8
:10031000EB8DEC0FFD2FF11DE35AFF4FF0829FB7DD
:10032000F8940B8FEA89FB8980818062CFCFCF93CD
:10033000DF93EC01888D8823B9F0AA89BB89E8890D
:10034000F9898C9185FD03C0808186FD0DC00FB6B3
:1003500007FCF7CF8C9185FFF2CF808185FFEDCF31
:10036000CE010E942801E9CFDF91CF91089583301B
:1003700081F028F4813099F08230A9F00895873017
:10038000A9F08830C9F08430B1F4809180008F7D6D
:1003900003C0809180008F7780938000089584B59A
:1003A0008F7784BD089584B58F7DFBCF8091B00099
:1003B0008F778093B00008958091B0008F7DF9CF42
:1003C0001F93CF93DF93282F30E0F901E358FF4FBD
:1003D0008491F901E155FF4FD491F901E556FF4FA2
:1003E000C491CC23A9F0162F81110E94B701EC2FE4
:1003F000F0E0EE0FFF1FEE58FF4FA591B4918FB7BD
:10040000F894EC91111108C0D095DE23DC938FBFD6
:10041000DF91CF911F910895DE2BF8CF90910001CD
:1004200089130BC0ECE7F0E0E4919FEF909300019B
:10043000E13049F028F0E23061F060E00C94E00136
:1004400010926E00FACF90916F009D7F90936F0095
:10045000F4CF909170009D7F9093700091E0909305
:10046000B0009091B100987F94609093B100109289
:10047000B300E3CFCF93DF9390E0FC01E155FF4F52
:10048000249185569F4FFC0184918823C9F090E008
:10049000880F991FFC01E859FF4FA591B491FC0109
:1004A000EE58FF4FC591D49161110DC09FB7F894DC
:1004B0008C91209582238C938881282328839FBF49
:1004C000DF91CF910895623051F49FB7F8943C9139
:1004D000822F809583238C93E8812E2BEFCF8FB7CB
:1004E000F894EC912E2B2C938FBFEACF3FB7F89462
:1004F0008091C8019091C901A091CA01B091CB012E
:1005000026B5A89B05C02F3F19F00196A11DB11D6E
:100510003FBFBA2FA92F982F8827BC01CD01620FAA
:10052000711D811D911D42E0660F771F881F991F65
:100530004A95D1F708958F929F92AF92BF92CF9232
:10054000DF92EF92FF924B015C010E9476026B01F9
:100550007C010E9476026C197D098E099F09683E14
:10056000734081059105A8F321E0821A9108A10842
:10057000B10888EEC80E83E0D81EE11CF11C81147E
:100580009104A104B10429F7FF90EF90DF90CF9080
:10059000BF90AF909F908F900895CF92DF92EF928F
:1005A000FF92CF93DF93DC011796CC911797D0E0A1
:1005B0006111DC2F18962C91189730E0220F331F11
:1005C0002F563F4F50E040E0F90185919491FC0196
:1005D000F080BA0190E080E0EF2DEC23ED1310C025
:1005E0004F5F5F4F1D96CD90DD90ED90FC90509742
:1005F0006C157D058E059F0538F36FEF7FEFCB01FE
:10060000DF91CF91FF90EF90DF90CF9008958F9280
:100610009F92AF92BF92CF92DF92EF92FF920F9391
:100620001F93CF93DF93CDB7DEB7C054D1400FB641
:10063000F894DEBF0FBECDBF2FB7F89440916C0287
:1006400050916D0260916E0270916F022FBFFC019C
:1006500001851285238534856A017B01C01AD10A80
:10066000E20AF30A97018601003D17402105310592
:10067000B0F4FC018189C05CDE4F0FB6F894DEBF98
:100680000FBECDBFDF91CF911F910F91FF90EF90E3
:10069000DF90CF90BF90AF909F908F9008958C0186
:1006A000FC01418752876387748714821382128208
:1006B0001182108262E085810E943A0261E070E05E
:1006C00080E090E00E949B0261E0F80185810E9439
:1006D0003A0260E0F80185810E94E001F80186811C
:1006E0008551823028F58BE291E10197F1F762E0C4
:1006F000F80185810E943A02F801828990E08230F7
:10070000910538F0880F991F880F991F0597019759
:10071000F1F7F89460E0C8010E94CD026F3F7F4F6F
:100720008F4F9F4F61F4F801118A789480E0A3CF36
:1007300064E170E080E090E00E949B02D8CF61E02D
:10074000C8010E94CD026F3F7F4F8F4F9F4F59F3DB
:10075000CE0101967C015E019FEBA91A9EEFB90ABA
:10076000670160E0C8010E94CD02F60160837183D9
:100770008283938361E0C8010E94CD02F601648305
:10078000758386839783F8E0CF0ED11CCA14DB04EF
:1007900041F7789430E020E0F70180809180A280DA
:1007A000B3804481558166817781FFEF8F169F0664
:1007B000AF06BF0631F04F3F8FEF58076807780745
:1007C00019F4F801118AB2CFF90183E0F595E795A4
:1007D0008A95E1F7E00FF11F8081880F8416950656
:1007E000A606B706F0F080832F5F3F4FF8E0EF0ECC
:1007F000F11C2832310581F6F80144812081818184
:10080000280F3327331F8281280F311D8381820FE8
:10081000932F911D99274817190699F681E0818B2E
:100820002ACF8160E0CF0F931F93CF93DF93EC012A
:100830008B0188859985029749F46130710509F427
:1008400036C04CF560E00115110591F18885998558
:10085000049749F40130110509F451C09CF50115C4
:10086000110509F43BC088859985059709F0C5C035
:100870000A30110508F0C1C0F801EF5BFB4F0C9482
:100880007D1993049D04AB04BD04D504D704DD0495
:10089000E704F504FB046230710591F060E0033079
:1008A0001105A1F68C850E94E00160E005C061E0C1
:1008B0008C850E94E00161E08E850E94E001C6CF38
:1008C00061E0F0CF0230110501F10330110559F656
:1008D00061E08C850E94E00160E01CC061E08C85D5
:1008E0000E94E00160E08E850E94E00161E088895D
:1008F0000E94E00160E08A890E94E001B4CF60E0DC
:100900008C850E94E00161E0EECF60E08C850E9462
:10091000E00161E08E850E94E00160E088890E942C
:10092000E00161E0E8CF60E08C850E94E00161E0D9
:100930008E850E94E00161E009C060E08C850E9424
:10094000E00161E08E850E94E00160E088890E94FC
:10095000E00160E00DC060E08C850E94E00161E094
:100960008E850E94E00160E088890E94E00161E0DC
:100970008A890E94E00161E011C060E08C850E94DC
:10098000E00161E08E850E94E00160E088890E94BC
:10099000E00161E08A890E94E00160E08C89DF91DA
:1009A000CF911F910F910C94E00161E0E7CF61E0DE
:1009B0008C850E94E00160E0E5CF61E08C850E94BB
:1009C000E00160E08E850E94E00161E0DFCF61E040
:1009D0008C850E94E00160E08E850E94E00161E06C
:1009E00088890E94E00160E0D5CF61E08C850E949B
:1009F000E00160E09DCF60E0F9CFDF91CF911F91E2
:100A00000F910895FC01EE0FFF1FE05BFD4F208169
:100A100031812130310511F41182108261E00C9492
:100A20003A02682F80E792E00C944A01CF92DF925D
:100A3000EF92FF92CF936B017C0183E00E9411053E
:100A4000C701B6010E941F19862FC72F6093ED01C1
:100A50007093EE010E9411058C2FCF91FF90EF90C3
:100A6000DF90CF900C9411050F931F93CF93DF93DA
:100A70008B01D82FC92F82E00E941105C801AD2F2C
:100A8000BC2F8093C2019093C301A093C401B09383
:100A9000C5010E941105812F0E9411058D2F0E9412
:100AA00011058C2FDF91CF911F910F910C9411059F
:100AB0008FEF0E94110585E50C9411050F931F938C
:100AC000CF93DF93DC015796ED91FC9140912C027E
:100AD000808510E0481708F064C0142F1170009151
:100AE000290201114FC0842F90E0880F991FE80F51
:100AF000F91F0184F285E02D2CEE3FEF112311F058
:100B000024E130E0C0912A02D0912B022C0F3D1F2E
:100B1000C90163E470E00E945519E617F70760F019
:100B2000C90168E270E00E9455196F5F7F4F81E054
:100B300090E06E177F0710F52C0F3D1FC90163E48D
:100B400070E00E945519E617F70750F0C90168E2F6
:100B500070E00E9455196F5F7F4F6E177F0760F43A
:100B60002C0F3D1FC90163E470E00E945519E61780
:100B7000F707E8F41FEF15C082E090E09093C10101
:100B80008093C0010F5F009329028091C001909172
:100B9000C1010817190628F0109229024F5F4093EF
:100BA0002C02812FDF91CF911F910F910895C901E0
:100BB00068E270E00E9455196F5F7F4F6E177F07E4
:100BC000C8F283E090E0DACF5F926F927F928F92CB
:100BD0009F92AF92BF92CF92DF92EF92FF920F93CC
:100BE0001F93CF93DF937C01562EDC015796ED9136
:100BF000FC913F964A01B4E18B0E911CD3E4CD2EBB
:100C0000D12CC401B6010E9455195B01C8E2D0E0A5
:100C1000C401BE010E9455193B018FEF681A780A82
:100C200024513109C901B6010E9455194B01C9016E
:100C3000BE010E9455199B012F5F3F4F04511109BE
:100C4000C801B6010E9455196B01C801BE010E947E
:100C500055196F5F7F4F80E090E0DC0140E0C0817C
:100C6000D181CA15DB0568F16C167D0650F1C28191
:100C7000D381C815D90510F12C173D0720F1880F35
:100C8000991FAA1FBB1F816034964F5F5412E7CF94
:100C9000F70183879487A587B68781E0DF91CF919D
:100CA0001F910F91FF90EF90DF90CF90BF90AF908A
:100CB0009F908F907F906F905F900895CC15DD0589
:100CC00010F480E0EBCF6C177D07D8F3880F991FE5
:100CD000AA1FBB1FD9CF42E050E061E271E080E77C
:100CE00092E00C94AA000C946B061F920F920FB620
:100CF0000F9211242F933F934F935F936F937F93A2
:100D00008F939F93AF93BF93EF93FF938091D10104
:100D10009091D201A091D301B091D401892B8A2B5B
:100D20008B2BD1F19091CC01E091CD01F091CE01CE
:100D30008081892780838091D1019091D201A091F7
:100D4000D301B091D401181619061A061B069CF49B
:100D50008091D1019091D201A091D301B091D401A1
:100D60000197A109B1098093D1019093D201A09379
:100D7000D301B093D401FF91EF91BF91AF919F91B7
:100D80008F917F916F915F914F913F912F910F9034
:100D90000FBE0F901F901895809100010E940E02C7
:100DA000EACF1F920F920FB60F9211242F933F9309
:100DB0004F935F936F937F938F939F93AF93BF9363
:100DC000EF93FF9380E792E00E942801FF91EF915B
:100DD000BF91AF919F918F917F916F915F914F9153
:100DE0003F912F910F900FBE0F901F9018951F925B
:100DF0000F920FB60F9211242F938F939F93EF931F
:100E0000FF93E0918002F09181028081E09186025F
:100E1000F091870282FD1BC09081809189028F5FD3
:100E20008F7320918A02821741F0E0918902F0E0ED
:100E3000E059FD4F958F80938902FF91EF919F912B
:100E40008F912F910F900FBE0F901F90189580815A
:100E5000F4CF1F920F920FB60F9211242F933F934E
:100E60008F939F93AF93BF9380916C0290916D028B
:100E7000A0916E02B0916F023091C70123E0230F61
:100E80002D3758F50196A11DB11D2093C701809300
:100E90006C0290936D02A0936E02B0936F028091EA
:100EA000C8019091C901A091CA01B091CB010196EE
:100EB000A11DB11D8093C8019093C901A093CA01DF
:100EC000B093CB01BF91AF919F918F913F912F91A3
:100ED0000F900FBE0F901F90189526E8230F0296D3
:100EE000A11DB11DD2CF1F920F920FB60F921124E8
:100EF0002F933F934F935F936F937F938F939F9322
:100F0000AF93BF93CF93DF93EF93FF938091C6018D
:100F1000C0913103D0E087FF24C010928500109269
:100F200084008091C6018F5F8093C6018091C601C5
:100F3000082E000C990B8C179D0724F48091C60194
:100F40008C30C4F1809184009091850004968034A7
:100F50009C4908F47AC080918400909185000496A1
:100F600076C08091C601082E000C990B8C179D0746
:100F7000C4F6E091C6018E2FEE0F990BFC01EE0F27
:100F8000FF1FE80FF91FE35FFC4F808186FFC9CF89
:100F9000E091C6018E2FEE0F990BFC01EE0FFF1FA3
:100FA000E80FF91FE35FFC4F808160E08F730E94C0
:100FB000E001B7CF2091840030918500E091C60117
:100FC0008E2FEE0F990BFC01EE0FFF1FE80FF91F9C
:100FD000E35FFC4F81819281820F931F9093890080
:100FE00080938800E091C6018E2FEE0F990BFC01D3
:100FF000EE0FFF1FE80FF91FE35FFC4F808186FFB4
:1010000011C0E091C6018E2FEE0F990BFC01EE0F7F
:10101000FF1FE80FF91FE35FFC4F808161E08F73D2
:101020000E94E001FF91EF91DF91CF91BF91AF91CD
:101030009F918F917F916F915F914F913F912F91F0
:101040000F900FBE0F901F90189580E49CE990932D
:101050008900809388008FEF8093C601E3CF1F92B1
:101060000F920FB60F9211242F933F934F935F93DC
:101070006F937F938F939F93AF93BF93EF93FF9360
:10108000E0913403F09135039081809136039823E9
:1010900020913703309138032F3F320731F02F5F13
:1010A0003F4F3093380320933703809132038111EF
:1010B00035C0911116C02091370330913803253681
:1010C000310558F01092390330933C0320933B03D1
:1010D00081E080933A038093320310923803109298
:1010E000370380913404813041F4809133049111AD
:1010F00061C061E0811161C02D9AFF91EF91BF91B4
:10110000AF919F918F917F916F915F914F913F919F
:101110002F910F900FBE0F901F9018958091320362
:101120008130A1F49923E9F2E0913A038E0F809384
:101130003A03F0E0EE0FFF1FEE5CFC4F2091370307
:10114000309138033287218782E0C5CF8091320306
:10115000823039F5911119C0E0913A0381E0E0370E
:1011600020F08093390383E0B6CF8E0F80933A034B
:10117000F0E0EE0FFF1FEE5CFC4F20913703309143
:1011800038033287218781E0A6CF20913703309141
:1011900038032536310508F4A4CF83E08093320369
:1011A000A0CF80913203833009F09BCF992309F4BB
:1011B00094CF97CF882321F060E00E94E0019DCF7B
:1011C0002D989BCFCF92DF92EF92FF920F931F93B8
:1011D000E82FF92F05C0015011092109310961F1EA
:1011E000908196239417B9F305C001501109210984
:1011F000310911F1908196239413F7CFC12CD12C92
:10120000E12CF12C0AC08FEFC81AD80AE80AF80AB4
:101210000C151D052E053F0579F080818623841766
:1012200091F36C2D7D2D8E2D9F2D1F910F91FF9091
:10123000EF90DF90CF90089560E070E080E090E064
:101240001F910F91FF90EF90DF90CF900895109233
:1012500073021092720288EE93E0A0E0B0E08093F7
:10126000740290937502A0937602B093770283E1A3
:1012700091E0909371028093700285EC90E09093DE
:101280007D0280937C0284EC90E090937F028093B7
:101290007E0280EC90E0909381028093800281EC4A
:1012A00090E0909383028093820282EC90E090938E
:1012B00085028093840286EC90E09093870280936D
:1012C00086021092890210928A0210928B0210926A
:1012D0008C0282E393E090934D0480934C0480E071
:1012E0000E948D0010923304EBE1F4E02FEF48EB05
:1012F0005BE0809131038C30B8F491E0980F9093CB
:101300003103808390E0DC01AA0FBB1FA80FB91F37
:10131000A35FBC4F12965C934E931197339684E073
:10132000E333F80731F708952083F8CFCF93DF93A5
:10133000CDB7DEB76E970FB6F894DEBF0FBECDBF48
:10134000789484B5826084BD84B5816084BD85B5A0
:10135000826085BD85B5816085BD80916E008160AC
:1013600080936E0010928100809181008260809352
:101370008100809181008160809381008091800054
:101380008160809380008091B10084608093B1007F
:101390008091B00081608093B00080917A00846079
:1013A00080937A0080917A00826080937A008091A5
:1013B0007A00816080937A0080917A0080688093BF
:1013C0007A001092C100E0918002F091810282E0E7
:1013D0008083E0917C02F0917D021082E0917E0298
:1013E000F0917F0280E1808310928802E091840274
:1013F000F091850286E08083E0918202F091830281
:10140000808180618083E0918202F09183028081FB
:1014100088608083E0918202F091830280818068FD
:101420008083E0918202F091830280818F7D8083AE
:1014300080E792E00E94970168EC70E080E090E025
:101440000E949B0261E08DE00E943A0260E08DE024
:101450000E94E0011AE0212E312C80E792E00E94E8
:1014600008016C01892B09F4C7C580E792E00E944E
:101470000801181619068CF780E792E00E94E60032
:1014800090912602853509F061C091115FC080916D
:1014900025028F3F29F481E0809324028093260265
:1014A000809124028F5F843308F068C08093240207
:1014B00080912602882389F2809123028111CDCF69
:1014C00080912402843048F210922602E091F401C7
:1014D0000091F501E02EF12C1091F301123009F486
:1014E000B5C0133009F44FC0113069F5E73009F089
:1014F0005DC0F0920401E0920301D090F6018D2DC1
:1015000090E09093020180930101F701EE0FFF1F1D
:10151000E05BFD4F11821082880F991FFC01E05B98
:10152000FD4F1182108261E0802F0E943A0260E03C
:101530008D2D0E943A0262E370E080E090E00E940C
:101540009B02109343021092240287CF80932502BE
:10155000992309F4A5CFE0912402E23039F4809375
:101560002302F0E0E151FE4F80839ACFE330C8F3CD
:1015700090912302915090932302F3CF1092240272
:101580001092260295CFE0E5F2E088E892E08E170F
:101590009F0709F016C5E4E4F2E08CE592E08E17AF
:1015A0009F0709F411C511921192F9CFF0E0EB30C9
:1015B000F10519F410934202C6CFEC30F10519F48D
:1015C00010934102C0CFEE30F10521F481E0809309
:1015D0004002B9CFE130F10581F58091030190918E
:1015E0000401E816F90639F0809101019091020199
:1015F000E816F90661F410924302F701EE0FFF1F9F
:10160000E05BFD4F81E090E0918380839CCF8091EF
:10161000050190910601E816F90629F4109242029C
:1016200010924102EACF8091070190910801E816DB
:10163000F90619F710924002E0CF329709F083CFF4
:10164000F701EE0FFF1FEC5BFD4FDCCFE150ED30FB
:1016500008F079CF0E2E000CFF0BEF5CF44F0C94CA
:101660007D193E0BA30A470BB90DA00BA30AA30AD1
:10167000730E7F0E460FA30AA30AA30FC7010E9491
:1016800002056091F601802F0E94E0015CCFC70146
:101690000E9402051091F601C12ED12C61E0802F2D
:1016A0000E943A02111102C060E0EDCF2FEFC21686
:1016B000D10411F461E0E7CFF701E358FF4FE49163
:1016C000E33021F148F4E130B9F0E230D1F080E8C4
:1016D000C816D1047CF7E8CFE73011F1E83041F1CA
:1016E000E430A9F780918000806280938000D092DE
:1016F0008B00C0928A0027CF84B5806884BD17BD57
:1017000022CF84B5806284BD18BD1DCF809180003A
:10171000806880938000D0928900C092880013CFA7
:101720008091B00080688093B0001093B3000BCF1D
:101730008091B00080628093B0001093B40003CF1A
:10174000C7010E9402058091F6018093ED0180910E
:10175000F7018093EE01A091ED01B091EE01BC8FF5
:10176000AB8F8091F8018093ED018091F901809316
:10177000EE01E091ED01F091EE01FE8FED8F1E166E
:101780001F060CF0F2C18091000180138CC0ECE7C1
:10179000F0E0149117FDD7CE61E0802F0E943A024D
:1017A0001123B9F08B8D9C8D2C01712C612C60E084
:1017B00072E18AE790E0A30192010E940718690193
:1017C0007A0191E0C91AD108E108F108123009F054
:1017D00089C1AB8DBC8D2D01712C612C60E072E153
:1017E0008AE790E0A3019D010E94071849015A0170
:1017F0007A016901B1E0CB1AD108E108F108EFEFF5
:10180000CE16D104E104F10409F00CF43EC160E409
:1018100072E48FE090E0A30192010E940718690131
:101820007A01F1E0CF1AD108E108F108123009F08D
:10183000B1C082E02FEFC216D104E104F10409F037
:101840000CF4F5C060E970ED83E090E0A301920133
:101850000E94071869017A0181E0C81AD108E108DD
:10186000F10883E09FEFC916D104E104F10409F007
:101870000CF4DDC068E478EE81E090E0A301920111
:101880000E94071869017A01A1E0CA1AD108E1088B
:10189000F108BFEFCB16D104E104F10411F00CF014
:1018A000CDC084E0C4C08F3F09F04DCE009300014D
:1018B000ECE7F0E014911F3F09F445CE113031F10F
:1018C00050F0123009F442C017FD3DCE61E0802F88
:1018D0000E943A0267CF14BC15BC84B5826084BDF7
:1018E00085B5816085BDF701E556FF4FE491F0E0D5
:1018F000EE0FFF1FEE58FF4F85919491F701E155D0
:10190000FF4FE491E093D00110E046CF10928000A9
:101910001092810080918100886080938100809185
:101920008100816080938100F701E556FF4FE491CB
:10193000F0E0EE0FFF1FEE58FF4F85919491F701F5
:10194000E155FF4FE491E093CF0126CF1092B00014
:101950001092B1008091B00082608093B0008091BD
:10196000B10081608093B100F701E556FF4FE4912B
:10197000F0E0EE0FFF1FEE58FF4F8591949190938A
:10198000CE018093CD01F701E155FF4FE491E09343
:10199000CC0102CFAFEFCA16D104E104F10409F083
:1019A0000CF49EC068E478EE81E090E0A30192011F
:1019B0000E94071869017A01B1E0CB1AD108E10849
:1019C000F108112311F40C94CE16EFEFCE16D104CA
:1019D000E104F10409F00CF464CF62E17AE780E0FD
:1019E00090E0A30192010E94071869017A0181E049
:1019F000C81AD108E108F108112311F40C94B316A8
:101A000086E09FEFC916D104E104F10481F078F07B
:101A1000750164019AE0F594E794D794C7949A9578
:101A2000D1F781E0C81AD108E108F10887E0909168
:101A3000B100987F892B8093B1002EC064E274EFCF
:101A400080E090E0A30192010E94071869017A01E9
:101A5000E1E0CE1AD108E108F10885E0FFEFCF16EA
:101A6000D104E104F10419F310F362E17AE780E0B4
:101A700090E0A30192010E94071869017A01F1E048
:101A8000CF1AD108E108F108BBCF81E01111CFCF07
:101A900095B5987F892B85BD2B8D3C8D220F331FEB
:101AA000AD8DBE8D0E94831928EE33E040E050E0FA
:101AB0000E94E5171130B9F1123009F446C0111136
:101AC00042CDC7BC2093D9013093DA014093DB01AA
:101AD0005093DC0180916E00826080936E0033CD64
:101AE00082E0D4CFC114D10491E0E906F104CCF036
:101AF00068E478EE81E090E0A30192010E9407186B
:101B000069017A01A1E0CA1AD108E108F10893E05D
:101B1000113011F680918100887F892B809381009C
:101B2000BBCF91E0F5CFD0928900C092880020937E
:101B3000D5013093D6014093D7015093D8018091BD
:101B40006F00826080936F00FECCC092B300209340
:101B5000D1013093D2014093D3015093D4018091AD
:101B60007000826080937000EECC802F0E940E0285
:101B7000EACCC7010E940205B090F601B4EBBB1598
:101B800008F4E1CCEDEDF1E090E080E021913191BD
:101B9000E216F30651F0232B09F0A3C0FC01EE0F6F
:101BA000FF1FE352FE4FF182E082FC01EE0FFF1FA8
:101BB000E80FF91FE55EFB4FF08081819281EBE039
:101BC000EF15F0F161E0802F0E943A028F2D90E036
:101BD000AC01440F551FFA01E80FF91FE35FFC4FFA
:101BE000202F2F730081007C022B008330E020E047
:101BF000F901EE0FFF1FE20FF31FE35FFC4F60815F
:101C000066FD14C02F5F3F4F2C30310589F71092CD
:101C1000800022E0209381001092850010928400C1
:101C2000B19A20916F00226020936F00840F951F5E
:101C3000FC01E35FFC4F80818064808390E080E062
:101C400068E5C62E62E0D62EC91AD10897FDD39456
:101C5000CC0CDD1CCC0CDD1C08E810E0081B1109C5
:101C600087FD1395000F111F000F111F2801012E72
:101C7000000C6608770896010D2C000C440B550BE0
:101C80002419350946095709AB2DB0E00E942618E2
:101C900024EB30E040E050E00E940718420E531E53
:101CA000641E751EFBE0FF1508F44DCC401651066E
:101CB0002CF086014C145D040CF4820102501109D1
:101CC000000F111F2FB7F8948F2D90E0FC01EE0F3D
:101CD000FF1FE80FF91FE35FFC4F128301832FBF43
:101CE00032CC019653CF8FB7F89440916C0250914B
:101CF0006D0260916E0270916F028FBF24CC809153
:101D0000F6016091F8014091FA012091FC011091D7
:101D1000FE01909100029093ED0190910102909349
:101D2000EE01E090ED01F090EE01F701F85FE13097
:101D3000F04108F008CC1C861B861A8219821F8A83
:101D4000188E198E1A8EE0E0F8E0F887EF83E82FFE
:101D5000F0E0FE87ED8770E0788B6F8750E05A8B5C
:101D6000498B30E03C8B2B8B61E00E943A0261E0B2
:101D70008F850E943A0261E089890E943A0261E0FF
:101D80008B890E943A021E8A1D8A84E090E09A871D
:101D900089872F813885032E000C440B550B60E09A
:101DA00077E883E993E00E940718CA01B901212F5F
:101DB00030E050E040E00E9407182B833C834D83C5
:101DC0005E838701F7FE04C0002711270E191F0943
:101DD0001E141F040CF048C081E090E09A838983B0
:101DE00034E0E32EF12C0115110509F4ACCB0E946F
:101DF00076028F88988CA98CBA8C2B013C014818EC
:101E000059086A087B088B809C80AD80BE8048148E
:101E100059046A047B0438F36F8B788F898F9A8F0B
:101E20008B859C8529813A812130310519F50196F0
:101E30009C878B872F8138858217930711F41C8626
:101E40001B86015011098B859C8529853A85B10136
:101E50002530310509F0B7010E946919BC01CE0196
:101E600001960E941304BFCFEF2809F4B9CF1A825C
:101E70001982B6CF892B21F48F8198859C878B8717
:101E80008B859C8501979C878B87DBCF8091270270
:101E900090912802009751F02091050130910601A0
:101EA000E216F30609F443C00E94261A83E190E08B
:101EB0000E948A196C01DC0115960C9315978BE032
:101EC00016968C931697F701E155FF4FE4911796FC
:101ED000EC931797F701E556FF4FE4911896EC93B2
:101EE00080E89EE3A0E0B0E0F60185879687A787AB
:101EF000B08BD0922802C092270262E0802F0E940D
:101F00003A022FB7F89480916C0290916D02A091E3
:101F10006E02B0916F022FBF805D9740A109B10999
:101F2000F60181879287A387B48787E3828BF0923B
:101F30000601E0920501F701EE0FFF1FE05BFD4F88
:101F40001182108200CB80913E0290913F02009757
:101F500049F02091070130910801E216F30661F182
:101F60000E94261A84E290E00E948A196C0182E3A2
:101F700093E0D60158969C938E935797802F0E949A
:101F80008D0010923304D0923F02C0923E0282E054
:101F90008093B0008093B10084E68093B300809377
:101FA000B4001092B20080913203833011F4109289
:101FB000320384E080937000F0920801E092070100
:101FC000BACF11921192E3CA1092430210924202C8
:101FD00010924102109240020E94580560E070E0A9
:101FE000CB010E94160580E00E9411058FEF0E9430
:101FF00011050E947306A7CA6FE070E080E090E0D0
:102000000E949B0290E5E92E92E0F92E10E000E09C
:10201000F701819191917F01019709F03AC0902ECB
:1020200060E0802F0E943A020E945805F801E358B0
:10203000FF4F8491F801E155FF4FA490F801E55658
:10204000FF4FB49070E060E0BB2099F081110E94D6
:10205000B701EB2DF0E0EE0FFF1FEF56FF4FA591FC
:10206000B491EC91AE2291E080E009F490E0692F08
:10207000782F072E000C880B990B0E94DC160E940B
:102080003405892D0E94110581E00E9411050E94EE
:1020900073060F5F1F4F0C31110509F0B9CF04E42F
:1020A00012E0F12CD8018D919D918D01019731F5B0
:1020B0000E9458058F2D8770806480937C008091EA
:1020C0007A00806480937A0080917A0086FDFCCF4C
:1020D0008091780060917900762F682F072E000C90
:1020E000880B990B0E94DC160E9434058F2D0E94EC
:1020F000110582E00E9411050E947306F394BCE072
:10210000FB12D0CF80914302882309F460C0109164
:10211000030160E0812F0E94E00183E090E00197DD
:10212000F1F761E0812F0E94E00183E290E00197E6
:10213000F1F760E0812F0E94E00180910101909110
:1021400002019927FC01E155FF4F6491FC01E5561E
:10215000FF4FE491F0E0EE0FFF1FEF56FF4F859128
:10216000949100E315E720E030E0462F0E94E2085A
:102170004B015C0181149104A104B10439F0EFEF2B
:102180008E1A9E0AAE0ABE0AFFE0BF220E945805C0
:10219000C501B4010E94DA1620E030E048EE51E4B7
:1021A0000E94AD1820E030E040E05FE30E94171786
:1021B0000E943405809103010E9411058091010164
:1021C0000E94110587E00E9411050E94730680910C
:1021D0004202882309F472C000912702109128025C
:1021E0000115110509F4ADC0C8010E940703882339
:1021F00049F0D80116968C918C3009F481C038F4DE
:102200008B30E9F060E070E080EC9FE741C08551E1
:102210008230C0F7F801F2806F2D70E0762F6627CC
:1022200066277F778381682B90E080E00E94DA1632
:102230002DEC3CEC4CEC5DE30E9417177EC0F801DE
:10224000628170E090E080E00E94DA164B015C0150
:10225000D80113961C9117FF0AC0AC019B0160E0E6
:1022600070E080E89FEB0E9440184B015C011F70FA
:10227000612F70E090E080E00E94DC162DEC3CECD9
:102280004CEC5DE30E941717A50194010E944118D0
:102290000E941F198B010E945805B801110F880B6D
:1022A000990B0E94DC160E941605809105010E9480
:1022B00011058BE00E9411050E9473068091410276
:1022C000882309F473C00091270210912802011598
:1022D000110509F4B4C0C8010E940703882359F00E
:1022E000D80116968C918B3030F08D3068F1855185
:1022F000823008F493C060E070E080EC9FE740C05B
:10230000F801F2806F2D70E090E080E00E94DA1614
:102310004B015C01D80113966C916F7070E090E0F6
:1023200080E00E94DC162DEC3CEC4CEC5DE30E945E
:102330001717A50194010E944118F7FEA9CF9058E4
:10234000A7CF10E000E0A7CFF801618170E090E036
:1023500080E00E94DC162DEC3CEC4CEC5DE30E942E
:1023600017174B015C01D8016C9170E090E080E0A0
:102370000E94DC169B01AC01C501B4010E9441180A
:102380000E941F198B010E945805B801110F880B7C
:10239000990B0E94DC160E941605809105010E948F
:1023A00011058CE00E9411050E9473068091400285
:1023B0008823F1F0E0903E02F0903F02E114F10436
:1023C00009F040C0CC24CA94DC2C0E945805B60108
:1023D000DD0C880B990B0E94DC160E94160580917B
:1023E00007010E9411058EE00E9411050E947306EC
:1023F0006AE070E080E090E00E949B0280E090E064
:10240000892B11F40C942A0A0E941401882311F4D8
:102410000C942A0A0E9400000C942A0AF801608198
:10242000718176276727762790E080E00E94DA1690
:102430002DEC3CEC4CEC5DE30E941717A1CF10E0B3
:1024400000E0A1CF80913203833009F0BBCF8091AF
:102450002D0281110DC04BE950E064E271E080E78C
:1024600092E00E94AA000E946B0681E080932D02F8
:102470008BE393E090933B0280933A0280913A037E
:1024800080933C0290913903992321F010923903F3
:1024900010923A039091390390933D0210923202C8
:1024A00010923302109234021092350290E8D70154
:1024B0001A969C9320913D0330913E032658310992
:1024C0002C35310588F48430A9F580913F03909133
:1024D00040038197489740F48091410390914203D3
:1024E0000897089708F45FC080913C028A3108F48D
:1024F00091C0E0913A02F0913B02208131812A3073
:10250000310508F065C0109236028FEF9FEFDC01B5
:102510008093320290933302A0933402B093350239
:1025200081E0D7011A968C931A9782E190E08D93FF
:102530009C9326C18434C1F680913F03909140035F
:10254000825491098F9780F600E312E020E936E08B
:1025500040E352E060E2C7010E94E405882321F2D3
:10256000E0913A02F0913B02EA57FF4F808191815E
:102570000897089708F0B8CFF70183859485A5855B
:10258000B6858093320290933302A0933402B093C5
:10259000350280E28093360287E090E090932F022C
:1025A00080932E0212C0109236028FEF9FEFDC0153
:1025B0008093320290933302A0933402B093350299
:1025C00081E8F701828787E090E091838083D8C01B
:1025D00022813381245231092A313105D8F443E074
:1025E00050E060E0812C912C540190E0481759078D
:1025F00008F05AC02481358128503109283031052E
:1026000048F42681378122313105C0F1203231056D
:1026100008F43FC081E080932C0289E793E0909317
:102620002B0280932A0210922902C7010E945E05A4
:10263000813009F0CEC0812C912C540110E0D701DB
:102640005796ED91FC915897908580912C028917AF
:1026500008F046C0C7010E945E05082FC7010E940E
:102660005E05011133C0813009F0B3C0880C991C9C
:10267000AA1CBB1C689480F81F5FE1CF293031058C
:1026800048F22131310530F6880C991CAA1CBB1C7C
:1026900006C0880C991CAA1CBB1C689480F86F5F4C
:1026A0004E5F5F4F3496A2CF609336028092320223
:1026B00090923302A0923402B092350282E190E00F
:1026C00090932F0280932E02F7017FCF013009F003
:1026D00080C081117EC0880C991CAA1CBB1CCCCF69
:1026E000812F90E019969C938E9318971B968D924C
:1026F0009D92AD92BC921E97882D8F7390E0159697
:102700009C938E931497940146E0369527954A95AD
:10271000E1F72F71332713963C932E931297940170
:1027200022273071232B31F4805C9F4F15969C93A8
:102730008E93149780E8D7011A968C931A9793FE7C
:1027400003C088E81A968C93818592858F3C9940C6
:1027500020F4F7018285816082878EE090E0D701C6
:102760008D939C93109336028092320290923302A2
:10277000A0923402B092350290932F0280932E02E1
:102780008091320290913302A0913402B0913502CF
:102790008D3BE2E49E07EFEFAE07B10509F4DFC21F
:1027A00008F0A9C212E0C12ED12C873E28E1920781
:1027B0002FEFA207B10509F496C208F081C28F3E3F
:1027C0009041AF4FB10509F4C2C24AE0C42ED12CEA
:1027D0008AC2D7015796ED91FC918385948588979D
:1027E0004D9708F04DC0858596850C970B9708F09E
:1027F00047C083E080932C028CEB91E090932B02F6
:1028000080932A0210922902C7010E945E0581303E
:10281000B9F5C7010E945E05811132C0812C912C4F
:10282000540110E0D7015796ED91FC91589790858F
:1028300080912C02891708F067C0C7010E945E05CD
:10284000782E1330C1F0C7010E945E05082F1330A7
:1028500029F4C7010E945E05081312C0B1E07B1283
:102860004AC001110DC0880C991CAA1CBB1C68949D
:1028700080F81F5FD7CFC7010E945E05781619F355
:10288000E0913A02F0913B028281938120913C02D7
:10289000223608F47EC0C397859708F07AC08481F9
:1028A00095814A97439708F074C000EB11E020E14E
:1028B00035E040EB51E06CE2C7010E94E40588235B
:1028C00009F467C080E380933602F701838594851D
:1028D000A585B6858093320290933302A09334028B
:1028E000B093350282E090E29093310280933002FF
:1028F00088E090E053CE7110C3CF013009F6880C08
:10290000991CAA1CBB1CB5CF812F90E019969C93F3
:102910008E9318971B968D929D92AD92BC921E97A6
:10292000282D30E0892D1432F8F480E81A968C9323
:102930001A9715963C932E931497892D90E0139631
:102940009C938E931297A0FE03C088E81A968C93EE
:102950008185928583379A4020F4F70182858160D2
:1029600082878FE090E0FBCE90E81A969C931A97AE
:1029700097FE03C098E81A969C93D70115963C934E
:102980002E9314978F7790E013969C938E931297C3
:10299000DFCFE0913A02F0913B0282819381209156
:1029A0003C022C33A1F5865891098D35910578F5B7
:1029B00084819581CE978C9750F506E212E02CE247
:1029C00036E044EF51E06CE1C7010E94E405882342
:1029D000F1F0E0913A02F0913B02EA58FF4F80811A
:1029E00091810797089798F4F70183859485A585C9
:1029F000B6858093320290933302A0933402B09351
:102A000035028CE18093360285E090E0C7CD40919D
:102A10003C02E0913A02F0913B0282819381423282
:102A200089F49C01285031092730310558F4DF0121
:102A3000AE5BBF4F2D913C912850310927303105B5
:102A400008F458C08D5791098735910508F467C07F
:102A5000E0913A02F0913B02828193818354910983
:102A60008F9780F480913C02843009F08DC084817E
:102A700095818197489730F48681978108970897C8
:102A800008F4ACC0D7015796ED91FC918085823255
:102A900009F0B9C0E0913A02F0913B028281938142
:102AA0000497059708F0AFC0848195810B970A972A
:102AB00008F0A9C00CE013E02CE137E044E051E05D
:102AC0006FE0C7010E94E405882309F49CC0F70168
:102AD00083859485A585B6858093320290933302D1
:102AE000A0933402B09335028FE08093360282E0E7
:102AF00090E054CD109236028FEF9FEFDC0180936F
:102B0000320290933302A0933402B093350281E0F5
:102B1000D7011A968C931A9784E090E008CD44323E
:102B200008F496CF84819581CE978C9708F090CF4A
:102B30000EE012E02AE236E04EE052E060E1C7012A
:102B40000E94E405882309F483CFE0913A02F091D2
:102B50003B02EA5BFF4F808191810897079708F05D
:102B600077CFF70183859485A585B685809332025A
:102B700090933302A0933402B093350280E18093A6
:102B8000360284E090E00ACD843408F47BCF84815F
:102B90009581825491098F9708F074CF00E312E079
:102BA00020E936E040E352E060E2C7010E94E4051C
:102BB000882309F467CFF70183859485A585B685B9
:102BC0008093320290933302A0933402B093350283
:102BD00080E28093360280E190E0E0CC10923602F1
:102BE0008FEF9FEFDC018093320290933302A0932A
:102BF0003402B093350281E0D7011A968C931A976C
:102C000080E190E094CC00913C02063008F450C082
:102C1000E0913A02F0913B02329625EC3DE94CE11D
:102C200051E813E08AE0B82E848195816191719119
:102C3000B89E4001B99E900C1124DB01AA0FBB1F66
:102C4000AA0FBB1FAA0FBB1FA12C8A169B0688F0D8
:102C5000B69ED001B79EB00D112463E0880F991F76
:102C60006A95E1F7AA24A394A817B90710F482E0A3
:102C7000A82E63E971E080E091E00E94D5179B01E6
:102C8000AC012A251F5F0113CFCF2093320230936E
:102C90003302409334025093350280E2809336022F
:102CA00010922F0210922E02D7011D921C9268CD15
:102CB00080913203833009F085CB1092320382CBAE
:102CC000CC24C394D12C8F3C20E392072FEFA20792
:102CD000B10549F0F5E0CF2ED12C873C9843AF4F9A
:102CE000B10509F072CD80913203833009F06DCBCC
:102CF000109232036ACB853AFAE59F07FFEFAF07E0
:102D0000B10549F198F468E0C62ED12C853BEAE480
:102D10009E07EFEFAE07B10531F359E0C52ED12C78
:102D20008D3A9245AF4FB105F1F24FCD873928E684
:102D300092072FEFA207B105B1F285389A47AF4F3E
:102D4000B10509F042CDB3E0CB2ED12CCCCFA4E01D
:102D5000CA2ED12CC8CFE6E0CE2ED12CC4CF77E03E
:102D6000C72ED12CC0CF84E02FEFC216D104E104CE
:102D7000F10409F010F40C94480D750164012AE087
:102D8000F594E794D794C7942A95D1F7F1E0CF1A38
:102D9000D108E108F10885E00C94480D83E02FEF9D
:102DA000C216D104E104F10409F014F40C94480DA6
:102DB0000C94ED0CE89409C097FB3EF49095809537
:102DC000709561957F4F8F4F9F4F9923A9F0F92FF1
:102DD00096E9BB279395F695879577956795B7956F
:102DE000F111F8CFFAF4BB0F11F460FF1BC06F5F55
:102DF0007F4F8F4F9F4F16C0882311F096E911C067
:102E0000772321F09EE8872F762F05C0662371F087
:102E100096E8862F70E060E02AF09A95660F771F9B
:102E2000881FDAF7880F9695879597F908950E947D
:102E30002A170C949B170E948D1738F00E94941744
:102E400020F0952311F00C9484170C948A17112408
:102E50000C94CF170E94AC1770F3959FC1F3950F98
:102E600050E0551F629FF001729FBB27F00DB11D0E
:102E7000639FAA27F00DB11DAA1F649F6627B00D9E
:102E8000A11D661F829F2227B00DA11D621F739F87
:102E9000B00DA11D621F839FA00D611D221F749F95
:102EA0003327A00D611D231F849F600D211D822FDC
:102EB000762F6A2F11249F5750409AF0F1F0882303
:102EC0004AF0EE0FFF1FBB1F661F771F881F915030
:102ED0005040A9F79E3F510580F00C9484170C9444
:102EE000CF175F3FE4F3983ED4F3869577956795C7
:102EF000B795F795E7959F5FC1F7FE2B880F911D5A
:102F00009695879597F9089597F99F6780E870E0FF
:102F100060E008959FEF80EC089500240A9416164F
:102F2000170618060906089500240A9412161306B7
:102F3000140605060895092E0394000C11F4882345
:102F400052F0BB0F40F4BF2B11F460FF04C06F5F61
:102F50007F4F8F4F9F4F089557FD9058440F551F37
:102F600059F05F3F71F04795880F97FB991F61F00B
:102F70009F3F79F087950895121613061406551F82
:102F8000F2CF4695F1DF08C0161617061806991FEE
:102F9000F1CF86957105610508940895E894BB27E3
:102FA00066277727CB0197F90895DB018F939F93CD
:102FB0000E942618BF91AF91A29F800D911DA39FE3
:102FC000900DB29F900D11240895A1E21A2EAA1B14
:102FD000BB1BFD010DC0AA1FBB1FEE1FFF1FA217C9
:102FE000B307E407F50720F0A21BB30BE40BF50BC6
:102FF000661F771F881F991F1A9469F7609570954F
:10300000809590959B01AC01BD01CF010895052EDF
:1030100097FB1EF400940E941E1857FD07D00E94D3
:10302000E51707FC03D04EF40C941E1850954095FC
:10303000309521953F4F4F4F5F4F08959095809564
:10304000709561957F4F8F4F9F4F08950E94311863
:10305000A59F900DB49F900DA49F800D911D1124EC
:103060000895A29FB001B39FC001A39F700D811D61
:103070001124911DB29F700D811D1124911D089581
:103080005058BB27AA270E9458180C949B170E94DF
:103090008D1738F00E94941720F039F49F3F19F4EF
:1030A00026F40C948A170EF4E095E7FB0C94841731
:1030B000E92F0E94AC1758F3BA1762077307840709
:1030C000950720F079F4A6F50C94CE170EF4E09550
:1030D0000B2EBA2FA02D0B01B90190010C01CA01D2
:1030E000A0011124FF27591B99F0593F50F4503E7D
:1030F00068F11A16F040A22F232F342F4427585F6F
:10310000F3CF469537952795A795F0405395C9F786
:103110007EF41F16BA0B620B730B840BBAF091503E
:10312000A1F0FF0FBB1F661F771F881FC2F70EC0DD
:10313000BA0F621F731F841F48F4879577956795B0
:10314000B795F7959E3F08F0B0CF9395880F08F09C
:103150009927EE0F9795879508950E94C1180C94B2
:103160009B170E94941758F00E948D1740F029F485
:103170005F3F29F00C94841751110C94CF170C94D5
:103180008A170E94AC1768F39923B1F3552391F382
:10319000951B550BBB27AA2762177307840738F0C6
:1031A0009F5F5F4F220F331F441FAA1FA9F335D023
:1031B0000E2E3AF0E0E832D091505040E695001CD7
:1031C000CAF72BD0FE2F29D0660F771F881FBB1F91
:1031D000261737074807AB07B0E809F0BB0B802D6F
:1031E000BF01FF2793585F4F3AF09E3F510578F09B
:1031F0000C9484170C94CF175F3FE4F3983ED4F3FC
:10320000869577956795B795F7959F5FC9F7880F6E
:10321000911D9695879597F90895E1E0660F771FC0
:10322000881FBB1F621773078407BA0720F0621B51
:10323000730B840BBA0BEE1F88F7E09508950E947C
:1032400026196894B1110C94CF1708950E94B417F1
:1032500088F09F5798F0B92F9927B751B0F0E1F057
:10326000660F771F881F991F1AF0BA95C9F714C007
:10327000B13091F00E94CE17B1E008950C94CE17B2
:10328000672F782F8827B85F39F0B93FCCF3869540
:1032900077956795B395D9F73EF49095809570959D
:1032A00061957F4F8F4F9F4F0895AA1BBB1B51E124
:1032B00007C0AA1FBB1FA617B70710F0A61BB70BA6
:1032C000881F991F5A95A9F780959095BC01CD014B
:1032D000089597FB072E16F4009407D077FD09D0C8
:1032E0000E94551907FC05D03EF4909581959F4F9B
:1032F0000895709561957F4F0895EE0FFF1F05901B
:10330000F491E02D09940E943118B7FF0895821BB3
:10331000930B08950F931F93CF93DF938230910502
:1033200010F482E090E0E0915B04F0915C0430E006
:1033300020E0B0E0A0E0309799F42115310509F4C0
:103340004AC0281B390B24303105D8F58A819B816E
:103350006115710589F1FB0193838283FE0111C020
:10336000408151810281138148175907E0F04817C5
:10337000590799F4109761F012960C9312971396CF
:103380001C933296CF01DF91CF911F910F91089539
:1033900000935B0410935C04F4CF2115310551F0C8
:1033A0004217530738F0A901DB019A01BD01DF0183
:1033B000F801C1CFEF01F9CF90935C0480935B04D7
:1033C000CDCFFE01E20FF31F81939193225031097B
:1033D00039832883D7CF2091590430915A04232B65
:1033E00041F420910B0130910C0130935A04209349
:1033F00059042091090130910A012115310541F448
:103400002DB73EB740910D0150910E01241B350B95
:10341000E0915904F0915A04E217F307A0F42E1B2F
:103420003F0B2817390778F0AC014E5F5F4F241728
:10343000350748F04E0F5F1F50935A0440935904CC
:10344000819391939FCFF0E0E0E09CCFCF93DF9307
:103450000097E9F0FC01329713821282A0915B047D
:10346000B0915C04ED0130E020E01097A1F42081E0
:103470003181820F931F2091590430915A042817EB
:10348000390709F061C0F0935A04E0935904DF91C1
:10349000CF910895EA01CE17DF07E8F54A815B81F5
:1034A0009E0141155105B1F7E901FB83EA8349917A
:1034B0005991C40FD51FEC17FD0761F480819181EC
:1034C0000296840F951FE9019983888382819381F5
:1034D0009B838A83F0E0E0E012968D919C91139794
:1034E0000097B9F52D913C911197CD010296820F6D
:1034F000931F2091590430915A042817390739F63F
:10350000309751F510925C0410925B04B0935A040A
:10351000A0935904BCCFD383C28340815181840FCF
:10352000951FC817D90761F44E5F5F4F8881998155
:10353000480F591F518340838A819B8193838283E3
:103540002115310509F0B0CFF0935C04E0935B04E2
:103550009ECFFD01DC01C0CF13821282D7CFF89439
:02356000FFCF9B
:10356200FF0C000D00FFFFFFFF00005D0480000064
:103572000000004A01AA00D70097010801E600FAFC
:10358200000D0A005468652066756E6374696F6E7B
:10359200206465636F64652826726573756C747345
:1035A200292920697320646570726563617465649A
:1035B20020616E64206D6179206E6F7420776F7266
:1035C2006B20617320657870656374656421204A9D
:1035D20075737420757365206465636F646528294B
:1035E20020776974686F7574206120706172616DF3
:1035F2006574657220616E64204972526563656903
:103602007665722E6465636F6465644952446174C1
:10361200612E3C6669656C646E616D653E202E00AC
:00000001FF
