:100000000C9463000C948B000C948B000C948B006C
:100010000C948B000C948B000C948B000C94350585
:100020000C94EF060C948B000C948B000C9433060C
:100030000C948B000C948B000C948B000C948B0014
:100040000C94E9050C948B000C94B7050C94910565
:100050000C948B000C948B000C948B000C948B00F4
:100060000C948B000C948B000000000024002700EF
:100070002A0000000000250028002B0002000000DC
:100080000800020100000304070000000000000057
:1000900000000000002300260029000404040404DA
:1000A0000404040202020202020303030303030125
:1000B00002040810204080010204081020010204FC
:1000C00008102000E70711241FBECFEFD8E0DEBFE5
:1000D000CDBF11E0A0E0B1E0EAE5F7E202C0059093
:1000E0000D92A832B107D9F723E0A8E2B1E001C030
:1000F0001D92A939B207E1F710E0C3E6D0E004C0D1
:100100002197FE010E948A13C236D107C9F70E94C7
:100110006A080C94AB130C940000AF92BF92CF927C
:10012000DF92EF92FF920F931F93CF93DF936C01B7
:100130007B018B01040F151FEB015E01AE18BF0898
:10014000C017D10759F06991D601ED91FC9101904A
:10015000F081E02DC6010995892B79F7C501DF9162
:10016000CF911F910F91FF90EF90DF90CF90BF90B4
:10017000AF900895FC01538D448D252F30E0842FDE
:1001800090E0821B930B541710F0CF9608950197BF
:100190000895FC01918D828D981761F0A28DAE0FAC
:1001A000BF2FB11D5D968C91928D9F5F9F73928F33
:1001B00090E008958FEF9FEF0895FC01918D828D5F
:1001C000981731F0828DE80FF11D858D90E008952C
:1001D0008FEF9FEF0895FC01918D228D892F90E084
:1001E000805C9F4F821B91098F739927089588EB3C
:1001F00091E00E94EB0021E0892B09F420E0822F9E
:10020000089580E090E0892B29F00E94F700811189
:100210000C9400000895FC01A48DA80FB92FB11D06
:10022000A35ABF4F2C91848D90E001968F7399272C
:10023000848FA689B7892C93A089B1898C9183700A
:1002400080648C93938D848D981306C00288F38903
:10025000E02D80818F7D80830895EF92FF920F9330
:100260001F93CF93DF93EC0181E0888F9B8D8C8D62
:1002700098131AC0E889F989808185FF15C09FB756
:10028000F894EE89FF896083E889F9898081837019
:10029000806480839FBF81E090E0DF91CF911F91C8
:1002A0000F91FF90EF900895F62E0B8D10E00F5FE9
:1002B0001F4F0F731127E02E8C8D8E110CC00FB6BF
:1002C00007FCFACFE889F989808185FFF5CFCE0157
:1002D0000E940B01F1CFEB8DEC0FFD2FF11DE35AC6
:1002E000FF4FF0829FB7F8940B8FEA89FB898081DA
:1002F0008062CFCFCF93DF93EC01888D8823B9F054
:10030000AA89BB89E889F9898C9185FD03C0808120
:1003100086FD0DC00FB607FCF7CF8C9185FFF2CF9D
:10032000808185FFEDCFCE010E940B01E9CFDF91E7
:10033000CF910895833081F028F4813099F0823094
:10034000A9F008958730A9F08830C9F08430B1F45D
:10035000809180008F7D03C0809180008F77809393
:100360008000089584B58F7784BD089584B58F7D0E
:10037000FBCF8091B0008F778093B000089580917B
:10038000B0008F7DF9CF1F93CF93DF93282F30E0FC
:10039000F901E358FF4F8491F901E155FF4FD491E2
:1003A000F901E556FF4FC491CC23A9F0162F811116
:1003B0000E949A01EC2FF0E0EE0FFF1FEE58FF4F66
:1003C000A591B4918FB7F894EC91111108C0D09514
:1003D000DE23DC938FBFDF91CF911F910895DE2B39
:1003E000F8CF9091000189130BC0ECE7F0E0E491A5
:1003F0009FEF90930001E13049F028F0E23061F086
:1004000060E00C94C30110926E00FACF90916F00DF
:100410009D7F90936F00F4CF909170009D7F90939B
:10042000700091E09093B0009091B100987F94603B
:100430009093B1001092B300E3CFCF93DF9390E09D
:10044000FC01E155FF4F249185569F4FFC0184919B
:100450008823C9F090E0880F991FFC01E859FF4FED
:10046000A591B491FC01EE58FF4FC591D491611153
:100470000DC09FB7F8948C91209582238C9388812E
:10048000282328839FBFDF91CF910895623051F4D4
:100490009FB7F8943C91822F809583238C93E881B9
:1004A0002E2BEFCF8FB7F894EC912E2B2C938FBF80
:1004B000EACF3FB7F89480912E0190912F01A0913F
:1004C0003001B091310126B5A89B05C02F3F19F02E
:1004D0000196A11DB11D3FBFBA2FA92F982F8827C4
:1004E000BC01CD01620F711D811D911D42E0660F9F
:1004F000771F881F991F4A95D1F708958F929F9271
:10050000AF92BF92CF92DF92EF92FF924B015C01CC
:100510000E9459026B017C010E9459026C197D09ED
:100520008E099F09683E734081059105A8F321E07B
:10053000821A9108A108B10888EEC80E83E0D81E7F
:10054000E11CF11C81149104A104B10429F7FF906E
:10055000EF90DF90CF90BF90AF909F908F900895D5
:10056000CF92DF92EF92FF92CF93DF93DC01179649
:10057000CC911797D0E06111DC2F18962C91189729
:1005800030E0220F331F2F563F4F50E040E0F9017B
:1005900085919491FC01F080BA0190E080E0EF2D0C
:1005A000EC23ED1310C04F5F5F4F1D96CD90DD9093
:1005B000ED90FC9050976C157D058E059F0538F3E6
:1005C0006FEF7FEFCB01DF91CF91FF90EF90DF9046
:1005D000CF9008958F929F92AF92BF92CF92DF9269
:1005E000EF92FF920F931F93CF93DF93CDB7DEB7B8
:1005F000C054D1400FB6F894DEBF0FBECDBF2FB7A9
:10060000F8944091B4015091B5016091B601709198
:10061000B7012FBFFC0101851285238534856A014E
:100620007B01C01AD10AE20AF30A97018601003D54
:10063000174021053105B0F4FC018189C05CDE4F13
:100640000FB6F894DEBF0FBECDBFDF91CF911F91E3
:100650000F91FF90EF90DF90CF90BF90AF909F9061
:100660008F9008958C01FC014187528763877487BE
:100670001482138212821182108262E085810E94AC
:100680001D0261E070E080E090E00E947E0261E087
:10069000F80185810E941D0260E0F80185810E94B9
:1006A000C301F80186818551823028F58BE291E102
:1006B0000197F1F762E0F80185810E941D02F801BF
:1006C000828990E08230910538F0880F991F880F59
:1006D000991F05970197F1F7F89460E0C8010E940F
:1006E000B0026F3F7F4F8F4F9F4F61F4F801118A27
:1006F000789480E0A3CF64E170E080E090E00E9415
:100700007E02D8CF61E0C8010E94B0026F3F7F4FE8
:100710008F4F9F4F59F3CE0101967C015E019FEBF5
:10072000A91A9EEFB90A670160E0C8010E94B002F1
:10073000F601608371838283938361E0C8010E9424
:10074000B002F6016483758386839783F8E0CF0E49
:10075000D11CCA14DB0441F7789430E020E0F701A3
:1007600080809180A280B3804481558166817781A9
:10077000FFEF8F169F06AF06BF0631F04F3F8FEF9A
:1007800058076807780719F4F801118AB2CFF90100
:1007900083E0F595E7958A95E1F7E00FF11F8081F9
:1007A000880F84169506A606B706F0F080832F5FA3
:1007B0003F4FF8E0EF0EF11C2832310581F6F801C9
:1007C000448120818181280F3327331F8281280FA4
:1007D000311D8381820F932F911D99274817190688
:1007E00099F681E0818B2ACF8160E0CF0F931F9330
:1007F000CF93DF93EC018B0188859985029749F4AB
:100800006130710509F436C04CF560E00115110541
:1008100091F188859985049749F40130110509F40F
:1008200051C09CF50115110509F43BC088859985D7
:10083000059709F0C5C00A30110508F0C1C0F801DC
:10084000EC5DFB4F0C948A13760480048E04A004A4
:10085000B804BA04C004CA04D804DE0462307105C6
:1008600091F060E003301105A1F68C850E94C30170
:1008700060E005C061E08C850E94C30161E08E8567
:100880000E94C301C6CF61E0F0CF0230110501F133
:100890000330110559F661E08C850E94C30160E0C8
:1008A0001CC061E08C850E94C30160E08E850E94BF
:1008B000C30161E088890E94C30160E08A890E94C7
:1008C000C301B4CF60E08C850E94C30161E0EECF2C
:1008D00060E08C850E94C30161E08E850E94C301A7
:1008E00060E088890E94C30161E0E8CF60E08C8508
:1008F0000E94C30161E08E850E94C30161E009C0CE
:1009000060E08C850E94C30161E08E850E94C30176
:1009100060E088890E94C30160E00DC060E08C85C2
:100920000E94C30161E08E850E94C30160E0888956
:100930000E94C30161E08A890E94C30161E011C085
:1009400060E08C850E94C30161E08E850E94C30136
:1009500060E088890E94C30161E08A890E94C30126
:1009600060E08C89DF91CF911F910F910C94C301AE
:1009700061E0E7CF61E08C850E94C30160E0E5CFD4
:1009800061E08C850E94C30160E08E850E94C301F6
:1009900061E0DFCF61E08C850E94C30160E08E855D
:1009A0000E94C30161E088890E94C30160E0D5CF45
:1009B00061E08C850E94C30160E09DCF60E0F9CFCB
:1009C000DF91CF911F910F910895FC01EE0FFF1F52
:1009D000E856FE4F20813181232B39F421E030E0AD
:1009E0003183208361E00C941D020895682F88EB09
:1009F00091E00C942D010F931F93CF93DF938B0104
:100A0000D82FC92F82E00E94F604C801AD2FBC2F59
:100A10008093280190932901A0932A01B0932B0180
:100A20000E94F604812F0E94F6048D2F0E94F60486
:100A30008C2FDF91CF911F910F910C94F60442E01F
:100A400050E065E271E088EB91E00C948D008FEF4F
:100A50000E94F60485E50E94F6040C941F058FEFB2
:100A60000E94F60485E50C94F6041F920F920FB6CF
:100A70000F9211242F933F934F935F936F937F9324
:100A80008F939F93AF93BF93EF93FF938091370121
:100A900090913801A0913901B0913A01892B8A2BAC
:100AA0008B2BD1F190913201E0913301F09134011F
:100AB0008081892780838091370190913801A091AE
:100AC0003901B0913A01181619061A061B069CF452
:100AD0008091370190913801A0913901B0913A018C
:100AE0000197A109B1098093370190933801A09330
:100AF0003901B0933A01FF91EF91BF91AF919F916E
:100B00008F917F916F915F914F913F912F910F90B6
:100B10000FBE0F901F901895809100010E94F10167
:100B2000EACF1F920F920FB60F9211242F933F938B
:100B30004F935F936F937F938F939F93AF93BF93E5
:100B4000EF93FF9388EB91E00E940B01FF91EF91EF
:100B5000BF91AF919F918F917F916F915F914F91D5
:100B60003F912F910F900FBE0F901F9018951F92DD
:100B70000F920FB60F9211242F938F939F93EF93A1
:100B8000FF93E091C801F091C9018081E091CE010D
:100B9000F091CF0182FD1BC090818091D1018F5FC8
:100BA0008F732091D201821741F0E091D101F0E0E2
:100BB000E854FE4F958F8093D101FF91EF919F9163
:100BC0008F912F910F900FBE0F901F9018958081DD
:100BD000F4CF1F920F920FB60F9211242F933F93D1
:100BE0008F939F93AF93BF938091B4019091B50180
:100BF000A091B601B091B70130912D0123E0230FF0
:100C00002D3758F50196A11DB11D20932D0180931C
:100C1000B4019093B501A093B601B093B701809150
:100C20002E0190912F01A0913001B09131010196D8
:100C3000A11DB11D80932E0190932F01A09330012F
:100C4000B0933101BF91AF919F918F913F912F91BF
:100C50000F900FBE0F901F90189526E8230F029655
:100C6000A11DB11DD2CF1F920F920FB60F9211246A
:100C70002F933F934F935F936F937F938F939F93A4
:100C8000AF93BF93CF93DF93EF93FF9380912C01AA
:100C9000C0917902D0E087FF24C0109285001092A5
:100CA000840080912C018F5F80932C0180912C0116
:100CB000082E000C990B8C179D0724F480912C01B1
:100CC0008C30C4F18091840090918500049680342A
:100CD0009C4908F47AC08091840090918500049624
:100CE00076C080912C01082E000C990B8C179D0763
:100CF000C4F6E0912C018E2FEE0F990BFC01EE0F44
:100D0000FF1FE80FF91FEB5AFD4F808186FFC9CF07
:100D1000E0912C018E2FEE0F990BFC01EE0FFF1FBF
:100D2000E80FF91FEB5AFD4F808160E08F730E943E
:100D3000C301B7CF2091840030918500E0912C0150
:100D40008E2FEE0F990BFC01EE0FFF1FE80FF91F1E
:100D5000EB5AFD4F81819281820F931F90938900FE
:100D600080938800E0912C018E2FEE0F990BFC01EF
:100D7000EE0FFF1FE80FF91FEB5AFD4F808186FF32
:100D800011C0E0912C018E2FEE0F990BFC01EE0F9C
:100D9000FF1FE80FF91FEB5AFD4F808161E08F7351
:100DA0000E94C301FF91EF91DF91CF91BF91AF916D
:100DB0009F918F917F916F915F914F913F912F9173
:100DC0000F900FBE0F901F90189580E49CE99093B0
:100DD0008900809388008FEF80932C01E3CF1F92CE
:100DE0000F920FB60F9211242F933F934F935F935F
:100DF0006F937F938F939F93AF93BF93EF93FF93E3
:100E0000E0917C02F0917D02908180917E02982396
:100E100020917F02309180022F3F320731F02F5F07
:100E20003F4F3093800220937F0280917A0281119C
:100E300035C0911116C020917F0230918002253675
:100E4000310558F01092810230938402209383027E
:100E500081E08093820280937A0210928002109245
:100E60007F0280917C03882341F080917B03911164
:100E700061C061E0811161C02D9AFF91EF91BF9136
:100E8000AF919F918F917F916F915F914F913F9122
:100E90002F910F900FBE0F901F90189580917A029E
:100EA0008130A1F49923E9F2E09182028E0F8093C0
:100EB0008202F0E0EE0FFF1FE658FD4F20917F0207
:100EC000309180023287218782E0C5CF80917A02FB
:100ED000823039F5911119C0E091820281E0E0374A
:100EE00020F08093810283E0B6CF8E0F8093820240
:100EF000F0E0EE0FFF1FE658FD4F20917F0230918A
:100F000080023287218781E0A6CF20917F02309135
:100F100080022536310508F4A4CF83E080937A025D
:100F2000A0CF80917A02833009F09BCF992309F4F6
:100F300094CF97CF882321F060E00E94C3019DCF1A
:100F40002D989BCFCF92DF92EF92FF920F931F933A
:100F5000E82FF92F05C0015011092109310961F16C
:100F6000908196239417B9F305C001501109210906
:100F7000310911F1908196239413F7CFC12CD12C14
:100F8000E12CF12C0AC08FEFC81AD80AE80AF80A37
:100F90000C151D052E053F0579F0808186238417E9
:100FA00091F36C2D7D2D8E2D9F2D1F910F91FF9014
:100FB000EF90DF90CF90089560E070E080E090E0E7
:100FC0001F910F91FF90EF90DF90CF9008951092B6
:100FD000BB011092BA0188EE93E0A0E0B0E08093EC
:100FE000BC019093BD01A093BE01B093BF0187E106
:100FF00091E09093B9018093B80185EC90E09093D3
:10100000C5018093C40184EC90E09093C701809364
:10101000C60180EC90E09093C9018093C80181ECF7
:1010200090E09093CB018093CA0182EC90E0909382
:10103000CD018093CC0186EC90E09093CF0180931A
:10104000CE011092D1011092D2011092D3011092D0
:10105000D4018AE792E090938D0380938C031092E1
:101060007B02EFEAF0E0E491E0937E02EBE9F0E04E
:10107000E491F0E0EE0FFF1FEF56FF4F8591949142
:1010800090937D0280937C0210927B0310927C03EC
:10109000E3E6F3E02FEF48EB5BE0809179028C30E0
:1010A000B8F491E0980F90937902808390E0DC018E
:1010B000AA0FBB1FA80FB91FAB5ABD4F12965C9366
:1010C0004E931197339683E0EB37F80731F7089585
:1010D0002083F8CFCF93DF93CDB7DEB76E970FB6EF
:1010E000F894DEBF0FBECDBF789484B5826084BD16
:1010F00084B5816084BD85B5826085BD85B581601C
:1011000085BD80916E00816080936E001092810099
:101110008091810082608093810080918100816054
:101120008093810080918000816080938000809115
:10113000B10084608093B1008091B00081608093A1
:10114000B00080917A00846080937A0080917A0068
:10115000826080937A0080917A00816080937A0027
:1011600080917A00806880937A001092C100E091AB
:10117000C801F091C90182E08083E091C401F0913F
:10118000C5011082E091C601F091C70180E1808322
:101190001092D001E091CC01F091CD0186E08083E6
:1011A000E091CA01F091CB01808180618083E09160
:1011B000CA01F091CB01808188608083E091CA01EF
:1011C000F091CB01808180688083E091CA01F09129
:1011D000CB0180818F7D808310E061E0812F0E94B0
:1011E0001D0260E0812F0E94C3011F5F1E30A9F71E
:1011F00068EC70E080E090E00E947E02BAE02B2E66
:10120000312C88EB91E00E94EB008C01892B09F4D2
:1012100051C588EB91E00E94EB00181619068CF777
:1012200088EB91E00E94C90090918A01853509F010
:1012300067C0911165C0809189018F3F29F481E0D9
:101240008093880180938A01809188018F5F843325
:1012500008F06EC08093880180918A01882389F20A
:10126000809187018111CDCF80918801843048F22F
:1012700010928A018091580100915901E02EF12CC1
:1012800020915701223009F4C6C0233009F4E5C08B
:10129000213099F5873009F06DC010915A01812FE6
:1012A00090E030919701311148C020939701F0925E
:1012B0000401E09203019093020180930101F70180
:1012C000EE0FFF1FE856FE4F21E030E03183208310
:1012D000880F991FFC01E856FE4F3183208361E09F
:1012E000802F0E941D0260E0812F0E941D0262E398
:1012F00070E080E090E00E947E021092880181CF31
:1013000080938901992309F49FCFE0918801E2300D
:1013100039F480938701F0E0ED5AFE4F808394CF3B
:10132000E330C8F390918701915090938701F3CFF8
:101330001092880110928A018FCF40910301509141
:1013400004012091010130910201E416F50619F41F
:101350008217930791F2440F551FFA01E856FE4F8A
:1013600011821082220F331FF901E856FE4F1182BD
:1013700010829DCF40910301509104019701220FEB
:10138000331FE416F50639F0409101015091020136
:10139000E416F50681F41092970110928B011092D9
:1013A0008C0110928D0110928E0128563E4FF9014A
:1013B00011821082A2CF90E08A30910579F481E009
:1013C0008093960128563E4F81E090E0F901918389
:1013D0008083F0920601E09205018FCF0B9721F4F4
:1013E00081E080939501EECF1092970110928B01CE
:1013F00010928C0110928D0110928E011092960124
:101400001092900110928F01109295011092940108
:1014100010929301CACF2091030130910401E2168A
:10142000F30639F02091010130910201E216F30632
:1014300051F41092970110928B0110928C0110922E
:101440008D0110928E01843009F4A1C24CF48130D8
:1014500009F403C1833009F409C10E9427054DCF67
:10146000883009F454C3893009F45DC38530A9F785
:10147000C7010E94E50480915A01809391018091F7
:101480005B018093920180919101909192019C8FD8
:101490008B8F80915C018093910180915D0180939D
:1014A0009201E0919101F0919201FE8FED8F1E1655
:1014B0001F060CF068C280910001801330C1ECE778
:1014C000F0E0149117FDC9CF61E0802F0E941D024A
:1014D0001123B9F08B8D9C8D2C01712C612C60E057
:1014E00072E18AE790E0A30192010E94281269014B
:1014F0007A0191E0C91AD108E108F108123009F027
:10150000FFC1EB8DFC8D2F01712C612C60E072E12D
:101510008AE790E0A3019F010E94281249015A0125
:101520007A016901F1E0CF1AD108E108F1082FEF43
:10153000C216D104E104F10409F00CF4B4C160E472
:1015400072E48FE090E0A30192010E9428126901E9
:101550007A0181E0C81AD108E108F108123009F0D7
:1015600058C182E09FEFC916D104E104F10409F0EB
:101570000CF46CC060E970ED83E090E0A30192018F
:101580000E94281269017A01E1E0CE1AD108E1082F
:10159000F10883E0FFEFCF16D104E104F10409F074
:1015A0000CF454C068E478EE81E090E0A30192016D
:1015B0000E94281269017A0191E0C91AD108E10854
:1015C000F10884E0EFEFCE16D104E104F104F1F16B
:1015D000ECF164E274EF80E090E0A30192010E94DC
:1015E000281269017A0191E0C91AD108E108F108CD
:1015F00085E09FEFC916D104E104F10439F130F11F
:1016000062E17AE780E090E0A30192010E94281253
:1016100069017A01F1E0CF1AD108E108F10886E00A
:101620002FEFC216D104E104F10481F078F07501C6
:1016300064012AE0F594E794D794C7942A95D1F7EA
:1016400021E0C21AD108E108F10887E09091B100C9
:10165000987F892B8093B1002DC1C7010E94E504BA
:1016600060915A01802F0E94C301F7CEC7010E94EA
:10167000E50410915A01C12ED12C61E0802F0E9407
:101680001D02111102C060E0EDCFFFEFCF16D104B3
:1016900011F461E0E7CFF701E358FF4FE491E33045
:1016A00021F148F4E130B9F0E230D1F020E8C2167F
:1016B000D1047CF7E8CFE73011F1E83041F1E430B4
:1016C000A9F780918000806280938000D0928B0087
:1016D000C0928A00C2CE84B5806884BD17BDBDCEDD
:1016E00084B5806284BD18BDB8CE809180008068CA
:1016F00080938000D0928900C0928800AECE809105
:10170000B00080688093B0001093B300A6CE8091A3
:10171000B00080628093B0001093B4009ECE8F3FE3
:1017200009F09BCE00930001ECE7F0E0E4911E2F5E
:10173000EF3F09F492CEE13031F150F0E23009F49C
:1017400043C0E7FD8ACE61E0802F0E941D02C2CE19
:1017500014BC15BC84B5826084BD85B5816085BD2F
:10176000F701E556FF4FE491F0E0EE0FFF1FEE5852
:10177000FF4F85919491F701E155FF4FE491E0937C
:10178000360110E0A1CE109280001092810080916D
:1017900081008860809381008091810081608093C6
:1017A0008100F701E556FF4FE491F0E0EE0FFF1FD7
:1017B000EE58FF4F85919491F701E155FF4FE49169
:1017C000E093350111E080CE1092B0001092B1008C
:1017D0008091B00082608093B0008091B100816000
:1017E0008093B100F701E556FF4FE491F0E0EE0F72
:1017F000FF1FEE58FF4F8591949190933401809391
:101800003301F701E155FF4FE491E093320112E01B
:101810005BCE2FEFC216D104E104F10409F00CF401
:101820006DC068E478EE81E090E0A30192010E942F
:10183000281269017A0181E0C81AD108E108F1088B
:1018400084E01111D6CE8FEFC816D104E104F10463
:1018500009F014F483E02AC062E17AE780E090E0C6
:10186000A30192010E94281269017A01E1E0CE1AD7
:10187000D108E108F10884E0FFEFCF16D104E104BC
:10188000F104A1F098F0750164019AE0F594E794F1
:10189000D794C7949A95D1F781E0C81AD108E10886
:1018A000F10885E003C081E01111D0CE95B5987F95
:1018B000892B85BD2B8D3C8D220F331FAD8DBE8DA9
:1018C0000E94901328EE33E040E050E00E940612A0
:1018D0001130B9F1123009F446C01111BECDC7BCA8
:1018E00020933F01309340014093410150934201C6
:1018F00080916E00826080936E00AFCD82E0D4CF85
:1019000091E0C114D10421E0E206F10484F068E41E
:1019100078EE81E090E0A30192010E942812690113
:101920007A0181E0C81AD108E108F10893E011308A
:1019300009F0C0CF80918100887F892B809381003E
:10194000B9CFD0928900C092880020933B01309398
:101950003C0140933D0150933E0180916F008260B5
:1019600080936F007ACDC092B300209337013093FB
:1019700038014093390150933A01809170008260A0
:10198000809370006ACD802F0E94F10166CDC7015F
:101990000E94E504B0905A0194EB9B1508F45DCDCC
:1019A000E3E4F1E090E080E021913191E216F3066A
:1019B00051F0232B09F0A3C0FC01EE0FFF1FED5BDC
:1019C000FE4FF182E082FC01EE0FFF1FE80FF91FCE
:1019D000ED59FC4FF08081819281EBE0EF15F0F141
:1019E00061E0802F0E941D028F2D90E0AC01440F1A
:1019F000551FFA01E80FF91FEB5AFD4F202F2F73E7
:101A00000081007C022B008330E020E0F901EE0F22
:101A1000FF1FE20FF31FEB5AFD4F608166FD14C0FC
:101A20002F5F3F4F2C30310589F71092800022E064
:101A3000209381001092850010928400B19A209129
:101A40006F00226020936F00840F951FFC01EB5AFA
:101A5000FD4F80818064808390E080E0FBE0FF1593
:101A600008F4FBCCB8E5CB2EB2E0DB2EC91AD108C6
:101A700097FDD394CC0CDD1CCC0CDD1C08E810E0E9
:101A8000081B110987FD1395000F111F000F111F6F
:101A90002801012E000C6608770896010D2C000C19
:101AA000440B550B2419350946095709AB2DB0E0F5
:101AB0000E94471224EB30E040E050E00E942812E0
:101AC000420E531E641E751E401651062CF08601F0
:101AD0004C145D040CF4820102501109000F111F17
:101AE0002FB7F8948F2D90E0FC01EE0FFF1FE80F49
:101AF000F91FEB5AFD4F128301832FBFAECC019625
:101B00008830910509F050CF90E080E05CCF8FB72E
:101B1000F8944091B4015091B5016091B601709173
:101B2000B7018FBF9ACC80915A0160915C014091BE
:101B30005E01209160011091620190916401909387
:101B400091019091650190939201E0909101F09044
:101B50009201F701F85FE130F04108F07ECC1C867D
:101B60001B861A8219821F8A188E198E1A8EE0E03F
:101B7000F8E0F887EF83E82FF0E0FE87ED8770E06C
:101B8000788B6F8750E05A8B498B30E03C8B2B8BE6
:101B900061E00E941D0261E08F850E941D0261E0EC
:101BA00089890E941D0261E08B890E941D021E8AA4
:101BB0001D8A84E090E09A8789872F813885032EDB
:101BC000000C440B550B60E077E883E993E00E943A
:101BD0002812CA01B901212F30E050E040E00E94F4
:101BE00028122B833C834D835E838701F7FE04C05C
:101BF000002711270E191F091E141F040CF048C0DE
:101C000081E090E09A83898374E0E72EF12C01153E
:101C1000110509F422CC0E9459028F88988CA98C56
:101C2000BA8C2B013C01481859086A087B088B8044
:101C30009C80AD80BE80481459046A047B0438F34C
:101C40006F8B788F898F9A8F8B859C8529813A81BC
:101C50002130310519F501969C878B872F813885B6
:101C60008217930711F41C861B86015011098B857E
:101C70009C8529853A85B1012530310509F0B701E8
:101C80000E947613BC01CE0101960E94F603BFCFDD
:101C9000EF2809F4B9CF1A821982B6CF892B21F423
:101CA0008F8198859C878B878B859C8501979C87E6
:101CB0008B87DBCF6FE070E080E090E00E947E02D7
:101CC00068E9E62E61E0F62EF701C190D1907F0120
:101CD000C114D10409F03AC0902E60E0802F0E9418
:101CE0001D020E942F05F801E358FF4F8491F8016F
:101CF000E155FF4FA490F801E556FF4FB490BB208B
:101D000099F081110E949A01EB2DF0E0EE0FFF1F78
:101D1000EF56FF4FA591B491EC91AE2291E080E097
:101D200009F490E0C92ED82EB601DD0C880B990B72
:101D30000E94E9100E94FB04892D0E94F60481E0B4
:101D40000E94F6040E941F050E9427050F5F1F4F87
:101D50000E30110509F0B8CF07E011E0F12CF801C1
:101D6000819191918F01892B39F50E942F058F2D3B
:101D7000806480937C0080917A00806480937A00F4
:101D800080917A0086FDFCCF809178006091790087
:101D9000762F682F072E000C880B990B0E94E910F4
:101DA0000E94FB048F2D0E94F60482E00E94F6043C
:101DB0000E941F050E942705F394F6E0FF12CFCF83
:101DC00080919701882309F46FC01091030160E0AE
:101DD000812F0E94C30183E090E00197F1F761E059
:101DE000812F0E94C30183E290E00197F1F760E048
:101DF000812F0E94C30180910101909102019927D6
:101E0000FC01E155FF4F6491FC01E556FF4FE49161
:101E1000F0E0EE0FFF1FEF56FF4F8591949100E326
:101E200015E720E030E0462F0E94A20761157105FA
:101E30008105910529F06F5F7F4F8F4F9F4F9F70F6
:101E40000E94E71020E030E048EE51E40E94CE12FC
:101E500020E030E040E05FE30E9448116B017C012C
:101E600020E030E0A9010E94E210811167C0C0901B
:101E70008B01D0908C01E0908D01F0908E010E943A
:101E80002F05C701B6010E94FB04809103010E9447
:101E9000F604809101010E94F60487E00E94F60496
:101EA0000E941F050E94270580919601882309F44E
:101EB000B0C080910501909106018E832BE02F83A5
:101EC0009C013327F901E155FF4FE491E887F901BF
:101ED000E556FF4FE491E98740E85EE360E070E09B
:101EE0004E875F87688B798B62E00E941D022FB757
:101EF000F8948091B4019091B501A091B601B09190
:101F0000B7012FBF805D9740A109B1098A879B87E0
:101F1000AC87BD8787E38B8BCE0101960E94EA02D6
:101F2000882339F08F818C3009F4BFC080F48B3066
:101F300029F160E070E080EC9FE746C0C0928B0121
:101F4000D0928C01E0928D01F0928E0198CF855154
:101F5000823078F71B81612F70E0762F6627662725
:101F60007F778C81682B90E080E00E94E7102DEC59
:101F70003CEC4CEC5DE30E944811B1C06B8170E019
:101F800090E080E00E94E7106B017C011C8117FF4C
:101F90000AC0AC019B0160E070E080E89FEB0E940A
:101FA00061126B017C011F70612F70E090E080E096
:101FB0000E94E9102DEC3CEC4CEC5DE30E944811D2
:101FC000A70196010E9462120E9440138B016115C5
:101FD000710509F088C000918F01109190010E9455
:101FE0002F0583E00E94F604109392010093910163
:101FF000802F0E94F604812F0E94F6048091050133
:102000000E94F6048AE00E94F6040E941F050E94C6
:10201000270580919501882309F4A9C080910501C5
:10202000909106018E832BE02F839C013327F901C9
:10203000E155FF4FE491E887F901E556FF4FE49140
:10204000E98740E85EE360E070E04E875F87688B79
:10205000798B62E00E941D022FB7F8948091B40141
:102060009091B501A091B601B091B7012FBF805DED
:102070009740A109B1098A879B87AC87BD8787E311
:102080008B8BCE0101960E94EA02882349F08F8152
:102090008B3030F08D3060F18551823008F47DC096
:1020A00060E070E080EC9FE73DC01B81612F70E035
:1020B00090E080E00E94E7106B017C016C816F7002
:1020C00070E090E080E00E94E9102DEC3CEC4CECDC
:1020D0005DE30E944811A70196010E94621217FF5A
:1020E00073CF905871CF7093900160938F0177CF29
:1020F0006A8170E090E080E00E94E9102DEC3CECF9
:102100004CEC5DE30E9448116B017C01698170E039
:1021100090E080E00E94E9109B01AC01C701B6018C
:102120000E9462120E9440138B016115710509F033
:1021300044C000919301109194010E942F0583E007
:102140000E94F6041093920100939101802F0E9447
:10215000F604812F0E94F604809105010E94F60486
:102160008BE00E94F6040E941F050E9427056AE08A
:1021700070E080E090E00E947E0280E090E0892B99
:1021800011F40C94FE080E94F700882311F40C94BB
:10219000FE080E9400000C94FE0869817A8176276F
:1021A0006727762790E080E00E94E7102DEC3CEC5A
:1021B0004CEC5DE30E944811B5CF7093940160939D
:1021C0009301BBCF0E94241108F481E00895E894A4
:1021D00009C097FB3EF490958095709561957F4F6F
:1021E0008F4F9F4F9923A9F0F92F96E9BB2793951D
:1021F000F695879577956795B795F111F8CFFAF42D
:10220000BB0F11F460FF1BC06F5F7F4F8F4F9F4F5D
:1022100016C0882311F096E911C0772321F09EE8BB
:10222000872F762F05C0662371F096E8862F70E021
:1022300060E02AF09A95660F771F881FDAF7880FFB
:102240009695879597F90895990F0008550FAA0B51
:10225000E0E8FEEF16161706E807F907C0F01216B9
:102260001306E407F50798F0621B730B840B950BBC
:1022700039F40A2661F0232B242B252B21F4089511
:102280000A2609F4A140A6958FEF811D811D0895AE
:102290000E945B110C94CC110E94BE1138F00E9478
:1022A000C51120F0952311F00C94B5110C94BB11BD
:1022B00011240C9400120E94DD1170F3959FC1F35C
:1022C000950F50E0551F629FF001729FBB27F00DE4
:1022D000B11D639FAA27F00DB11DAA1F649F662739
:1022E000B00DA11D661F829F2227B00DA11D621F88
:1022F000739FB00DA11D621F839FA00D611D221F42
:10230000749F3327A00D611D231F849F600D211D25
:10231000822F762F6A2F11249F5750409AF0F1F0A8
:1023200088234AF0EE0FFF1FBB1F661F771F881F11
:1023300091505040A9F79E3F510580F00C94B51183
:102340000C9400125F3FE4F3983ED4F386957795A2
:102350006795B795F795E7959F5FC1F7FE2B880FB7
:10236000911D9695879597F9089597F99F6780E84D
:1023700070E060E008959FEF80EC089500240A94D7
:102380001616170618060906089500240A94121650
:102390001306140605060895092E0394000C11F483
:1023A000882352F0BB0F40F4BF2B11F460FF04C030
:1023B0006F5F7F4F8F4F9F4F089557FD9058440F89
:1023C000551F59F05F3F71F04795880F97FB991F94
:1023D00061F09F3F79F08795089512161306140651
:1023E000551FF2CF4695F1DF08C0161617061806DE
:1023F000991FF1CF86957105610508940895E894B9
:10240000BB2766277727CB0197F90895A1E21A2EFB
:10241000AA1BBB1BFD010DC0AA1FBB1FEE1FFF1F88
:10242000A217B307E407F50720F0A21BB30BE40BD8
:10243000F50B661F771F881F991F1A9469F760951F
:102440007095809590959B01AC01BD01CF010895D9
:10245000052E97FB1EF400940E943F1257FD07D0F3
:102460000E94061207FC03D04EF40C943F125095C4
:102470004095309521953F4F4F4F5F4F0895909570
:102480008095709561957F4F8F4F9F4F08950E9463
:102490005212A59F900DB49F900DA49F800D911D89
:1024A00011240895A29FB001B39FC001A39F700D96
:1024B000811D1124911DB29F700D811D1124911D4C
:1024C00008955058BB27AA270E9479120C94CC116A
:1024D0000E94BE1138F00E94C51120F039F49F3FD0
:1024E00019F426F40C94BB110EF4E095E7FB0C9460
:1024F000B511E92F0E94DD1158F3BA17620773076F
:102500008407950720F079F4A6F50C94FF110EF4DA
:10251000E0950B2EBA2FA02D0B01B90190010C01F3
:10252000CA01A0011124FF27591B99F0593F50F40B
:10253000503E68F11A16F040A22F232F342F442763
:10254000585FF3CF469537952795A795F04053955B
:10255000C9F77EF41F16BA0B620B730B840BBAF02B
:102560009150A1F0FF0FBB1F661F771F881FC2F796
:102570000EC0BA0F621F731F841F48F487957795AA
:102580006795B795F7959E3F08F0B0CF9395880F64
:1025900008F09927EE0F9795879508950E94E2120B
:1025A0000C94CC110E94C51158F00E94BE1140F04D
:1025B00029F45F3F29F00C94B51151110C940012CD
:1025C0000C94BB110E94DD1168F39923B1F35523DC
:1025D00091F3951B550BBB27AA2762177307840736
:1025E00038F09F5F5F4F220F331F441FAA1FA9F3CC
:1025F00035D00E2E3AF0E0E832D091505040E695BA
:10260000001CCAF72BD0FE2F29D0660F771F881F1A
:10261000BB1F261737074807AB07B0E809F0BB0B0D
:10262000802DBF01FF2793585F4F3AF09E3F510521
:1026300078F00C94B5110C9400125F3FE4F3983ECF
:10264000D4F3869577956795B795F7959F5FC9F70A
:10265000880F911D9695879597F90895E1E0660F8B
:10266000771F881FBB1F621773078407BA0720F004
:10267000621B730B840BBA0BEE1F88F7E09508956D
:102680000E9447136894B1110C94001208950E949F
:10269000E51188F09F5798F0B92F9927B751B0F0FE
:1026A000E1F0660F771F881F991F1AF0BA95C9F7D6
:1026B00014C0B13091F00E94FF11B1E008950C9464
:1026C000FF11672F782F8827B85F39F0B93FCCF317
:1026D000869577956795B395D9F73EF49095809553
:1026E000709561957F4F8F4F9F4F089597FB072EF1
:1026F00016F4009407D077FD09D00E94971307FCC9
:1027000005D03EF4909581959F4F08957095619501
:102710007F4F0895EE0FFF1F0590F491E02D09946F
:102720000E945212B7FF0895821B930B0895AA1BB3
:10273000BB1B51E107C0AA1FBB1FA617B70710F0AC
:10274000A61BB70B881F991F5A95A9F780959095DE
:0A275000BC01CD010895F894FFCFFD
:10275A00FF0C000D00FFFF00000000000000000059
:10276A00000000000000002D018D00BA007A01EB84
:08277A0000C900DD000D0A009A
:00000001FF
