:100000000C9463000C948B000C948B000C948B006C
:100010000C948B000C948B000C948B000C942B058F
:100020000C948B000C948B000C948B000C94290680
:100030000C948B000C948B000C948B000C948B0014
:100040000C94DF050C948B000C94AD050C94870583
:100050000C948B000C948B000C948B000C948B00F4
:100060000C948B000C948B000000000024002700EF
:100070002A0000000000250028002B0002000000DC
:100080000800020100000304070000000000000057
:1000900000000000002300260029000404040404DA
:1000A0000404040202020202020303030303030125
:1000B00002040810204080010204081020010204FC
:1000C000081020002A0711241FBECFEFD8E0DEBFA2
:1000D000CDBF11E0A0E0B1E0ECE0F5E202C0059098
:1000E0000D92AC31B107D9F722E0ACE1B1E001C02B
:1000F0001D92A039B207E1F710E0C3E6D0E004C0DA
:100100002197FE010E946312C236D107C9F70E94EF
:100110008F070C9484120C940000AF92BF92CF9280
:10012000DF92EF92FF920F931F93CF93DF936C01B7
:100130007B018B01040F151FEB015E01AE18BF0898
:10014000C017D10759F06991D601ED91FC9101904A
:10015000F081E02DC6010995892B79F7C501DF9162
:10016000CF911F910F91FF90EF90DF90CF90BF90B4
:10017000AF90089542E050E069E171E086EB91E0D4
:100180000C948D00FC01538D448D252F30E0842F7D
:1001900090E0821B930B541710F0CF9608950197AF
:1001A0000895FC01918D828D981761F0A28DAE0F9C
:1001B000BF2FB11D5D968C91928D9F5F9F73928F23
:1001C00090E008958FEF9FEF0895FC01918D828D4F
:1001D000981731F0828DE80FF11D858D90E008951C
:1001E0008FEF9FEF0895FC01918D228D892F90E074
:1001F000805C9F4F821B91098F739927089586EB2E
:1002000091E00E94F30021E0892B09F420E0822F85
:10021000089580E090E0892B29F00E94FF00811171
:100220000C9400000895FC01A48DA80FB92FB11DF6
:10023000A35ABF4F2C91848D90E001968F7399271C
:10024000848FA689B7892C93A089B1898C918370FA
:1002500080648C93938D848D981306C00288F389F3
:10026000E02D80818F7D80830895EF92FF920F9320
:100270001F93CF93DF93EC0181E0888F9B8D8C8D52
:1002800098131AC0E889F989808185FF15C09FB746
:10029000F894EE89FF896083E889F9898081837009
:1002A000806480839FBF81E090E0DF91CF911F91B8
:1002B0000F91FF90EF900895F62E0B8D10E00F5FD9
:1002C0001F4F0F731127E02E8C8D8E110CC00FB6AF
:1002D00007FCFACFE889F989808185FFF5CFCE0147
:1002E0000E941301F1CFEB8DEC0FFD2FF11DE35AAE
:1002F000FF4FF0829FB7F8940B8FEA89FB898081CA
:100300008062CFCFCF93DF93EC01888D8823B9F043
:10031000AA89BB89E889F9898C9185FD03C0808110
:1003200086FD0DC00FB607FCF7CF8C9185FFF2CF8D
:10033000808185FFEDCFCE010E941301E9CFDF91CF
:10034000CF910895833081F028F4813099F0823084
:10035000A9F008958730A9F08830C9F08430B1F44D
:10036000809180008F7D03C0809180008F77809383
:100370008000089584B58F7784BD089584B58F7DFE
:10038000FBCF8091B0008F778093B000089580916B
:10039000B0008F7DF9CF1F93CF93DF93282F30E0EC
:1003A000F901E358FF4F8491F901E155FF4FD491D2
:1003B000F901E556FF4FC491CC23A9F0162F811106
:1003C0000E94A201EC2FF0E0EE0FFF1FEE58FF4F4E
:1003D000A591B4918FB7F894EC91111108C0D09504
:1003E000DE23DC938FBFDF91CF911F910895DE2B29
:1003F000F8CF9091000189130BC0ECE7F0E0E49195
:100400009FEF90930001E13049F028F0E23061F075
:1004100060E00C94CB0110926E00FACF90916F00C7
:100420009D7F90936F00F4CF909170009D7F90938B
:10043000700091E09093B0009091B100987F94602B
:100440009093B1001092B300E3CFCF93DF9390E08D
:10045000FC01E155FF4F249185569F4FFC0184918B
:100460008823C9F090E0880F991FFC01E859FF4FDD
:10047000A591B491FC01EE58FF4FC591D491611143
:100480000DC09FB7F8948C91209582238C9388811E
:10049000282328839FBFDF91CF910895623051F4C4
:1004A0009FB7F8943C91822F809583238C93E881A9
:1004B0002E2BEFCF8FB7F894EC912E2B2C938FBF70
:1004C000EACF3FB7F8948091220190912301A09147
:1004D0002401B091250126B5A89B05C02F3F19F036
:1004E0000196A11DB11D3FBFBA2FA92F982F8827B4
:1004F000BC01CD01620F711D811D911D42E0660F8F
:10050000771F881F991F4A95D1F708958F929F9260
:10051000AF92BF92CF92DF92EF92FF924B015C01BC
:100520000E9461026B017C010E9461026C197D09CD
:100530008E099F09683E734081059105A8F321E06B
:10054000821A9108A108B10888EEC80E83E0D81E6F
:10055000E11CF11C81149104A104B10429F7FF905E
:10056000EF90DF90CF90BF90AF909F908F900895C5
:10057000CF92DF92EF92FF92CF93DF93DC01179639
:10058000CC911797D0E06111DC2F18962C91189719
:1005900030E0220F331F2F563F4F50E040E0F9016B
:1005A00085919491FC01F080BA0190E080E0EF2DFC
:1005B000EC23ED1310C04F5F5F4F1D96CD90DD9083
:1005C000ED90FC9050976C157D058E059F0538F3D6
:1005D0006FEF7FEFCB01DF91CF91FF90EF90DF9036
:1005E000CF9008958F929F92AF92BF92CF92DF9259
:1005F000EF92FF920F931F93CF93DF93CDB7DEB7A8
:10060000C054D1400FB6F894DEBF0FBECDBF2FB798
:10061000F8944091B2015091B3016091B40170918E
:10062000B5012FBFFC0101851285238534856A0140
:100630007B01C01AD10AE20AF30A97018601003D44
:10064000174021053105B0F4FC018189C05CDE4F03
:100650000FB6F894DEBF0FBECDBFDF91CF911F91D3
:100660000F91FF90EF90DF90CF90BF90AF909F9051
:100670008F9008958C01FC014187528763877487AE
:100680001482138212821182108262E085810E949C
:10069000250261E070E080E090E00E94860261E067
:1006A000F80185810E94250260E0F80185810E94A1
:1006B000CB01F80186818551823028F58BE291E1EA
:1006C0000197F1F762E0F80185810E942502F801A7
:1006D000828990E08230910538F0880F991F880F49
:1006E000991F05970197F1F7F89460E0C8010E94FF
:1006F000B8026F3F7F4F8F4F9F4F61F4F801118A0F
:10070000789480E0A3CF64E170E080E090E00E9404
:100710008602D8CF61E0C8010E94B8026F3F7F4FC8
:100720008F4F9F4F59F3CE0101967C015E019FEBE5
:10073000A91A9EEFB90A670160E0C8010E94B802D9
:10074000F601608371838283938361E0C8010E9414
:10075000B802F6016483758386839783F8E0CF0E31
:10076000D11CCA14DB0441F7789430E020E0F70193
:1007700080809180A280B380448155816681778199
:10078000FFEF8F169F06AF06BF0631F04F3F8FEF8A
:1007900058076807780719F4F801118AB2CFF901F0
:1007A00083E0F595E7958A95E1F7E00FF11F8081E9
:1007B000880F84169506A606B706F0F080832F5F93
:1007C0003F4FF8E0EF0EF11C2832310581F6F801B9
:1007D000448120818181280F3327331F8281280F94
:1007E000311D8381820F932F911D99274817190678
:1007F00099F681E0818B2ACF8160E0CF0F931F9320
:10080000CF93DF93EC018B0188859985029749F49A
:100810006130710509F436C04CF560E00115110531
:1008200091F188859985049749F40130110509F4FF
:1008300051C09CF50115110509F43BC088859985C7
:10084000059709F0C5C00A30110508F0C1C0F801CC
:10085000E45DFB4F0C9463127E0488049604A804A4
:10086000C004C204C804D204E004E6046230710586
:1008700091F060E003301105A1F68C850E94CB0158
:1008800060E005C061E08C850E94CB0161E08E854F
:100890000E94CB01C6CF61E0F0CF0230110501F11B
:1008A0000330110559F661E08C850E94CB0160E0B0
:1008B0001CC061E08C850E94CB0160E08E850E94A7
:1008C000CB0161E088890E94CB0160E08A890E94A7
:1008D000CB01B4CF60E08C850E94CB0161E0EECF0C
:1008E00060E08C850E94CB0161E08E850E94CB0187
:1008F00060E088890E94CB0161E0E8CF60E08C85F0
:100900000E94CB0161E08E850E94CB0161E009C0AD
:1009100060E08C850E94CB0161E08E850E94CB0156
:1009200060E088890E94CB0160E00DC060E08C85AA
:100930000E94CB0161E08E850E94CB0160E0888936
:100940000E94CB0161E08A890E94CB0161E011C065
:1009500060E08C850E94CB0161E08E850E94CB0116
:1009600060E088890E94CB0161E08A890E94CB0106
:1009700060E08C89DF91CF911F910F910C94CB0196
:1009800061E0E7CF61E08C850E94CB0160E0E5CFBC
:1009900061E08C850E94CB0160E08E850E94CB01D6
:1009A00061E0DFCF61E08C850E94CB0160E08E8545
:1009B0000E94CB0161E088890E94CB0160E0D5CF25
:1009C00061E08C850E94CB0160E09DCF60E0F9CFB3
:1009D000DF91CF911F910F910895FC01EE0FFF1F42
:1009E000EA56FE4F208131812130310511F4118208
:1009F000108261E00C942502682F86EB91E00C9444
:100A000035010F931F93CF93DF938B01D82FC92FFD
:100A100082E00E94FC04C801AD2FBC2F80931C0112
:100A200090931D01A0931E01B0931F010E94FC042E
:100A3000812F0E94FC048D2F0E94FC048C2FDF91DB
:100A4000CF911F910F910C94FC048FEF0E94FC0436
:100A500085E50C94FC041F920F920FB60F9211249F
:100A60002F933F934F935F936F937F938F939F93B6
:100A7000AF93BF93EF93FF9380912B0190912C0143
:100A8000A0912D01B0912E01892B8A2B8B2BD1F1B6
:100A900090912601E0912701F0912801808189271A
:100AA000808380912B0190912C01A0912D01B09118
:100AB0002E01181619061A061B069CF480912B01AC
:100AC00090912C01A0912D01B0912E010197A109C7
:100AD000B10980932B0190932C01A0932D01B09329
:100AE0002E01FF91EF91BF91AF919F918F917F91D7
:100AF0006F915F914F913F912F910F900FBE0F908B
:100B00001F901895809100010E94F901EACF1F9271
:100B10000F920FB60F9211242F933F934F935F9331
:100B20006F937F938F939F93AF93BF93EF93FF93B5
:100B300086EB91E00E941301FF91EF91BF91AF917D
:100B40009F918F917F916F915F914F913F912F91E5
:100B50000F900FBE0F901F9018951F920F920FB617
:100B60000F9211242F938F939F93EF93FF93E09114
:100B7000C601F091C7018081E091CC01F091CD01D7
:100B800082FD1BC090818091CF018F5F8F73209178
:100B9000D001821741F0E091CF01F0E0EA54FE4F1E
:100BA000958F8093CF01FF91EF919F918F912F911E
:100BB0000F900FBE0F901F9018958081F4CF1F9259
:100BC0000F920FB60F9211242F933F938F939F9301
:100BD000AF93BF938091B2019091B301A091B40102
:100BE000B091B5013091210123E0230F2D3758F545
:100BF0000196A11DB11D209321018093B201909314
:100C0000B301A093B401B093B501809122019091FA
:100C10002301A0912401B09125010196A11DB11DD0
:100C20008093220190932301A0932401B093250186
:100C3000BF91AF919F918F913F912F910F900FBED8
:100C40000F901F90189526E8230F0296A11DB11D45
:100C5000D2CF1F920F920FB60F9211242F933F9372
:100C60004F935F936F937F938F939F93AF93BF93B4
:100C7000CF93DF93EF93FF9380912001C091770290
:100C8000D0E087FF24C010928500109284008091EC
:100C900020018F5F8093200180912001082E000C9D
:100CA000990B8C179D0724F4809120018C30C4F19E
:100CB0008091840090918500049680349C4908F4CA
:100CC0007AC08091840090918500049676C08091CE
:100CD0002001082E000C990B8C179D07C4F6E0919B
:100CE00020018E2FEE0F990BFC01EE0FFF1FE80F76
:100CF000F91FED5AFD4F808186FFC9CFE091200199
:100D00008E2FEE0F990BFC01EE0FFF1FE80FF91F5E
:100D1000ED5AFD4F808160E08F730E94CB01B7CF09
:100D20002091840030918500E09120018E2FEE0FFC
:100D3000990BFC01EE0FFF1FE80FF91FED5AFD4F55
:100D400081819281820F931F909389008093880004
:100D5000E09120018E2FEE0F990BFC01EE0FFF1F8B
:100D6000E80FF91FED5AFD4F808186FF11C0E09119
:100D700020018E2FEE0F990BFC01EE0FFF1FE80FE5
:100D8000F91FED5AFD4F808161E08F730E94CB0106
:100D9000FF91EF91DF91CF91BF91AF919F918F9193
:100DA0007F916F915F914F913F912F910F900FBE67
:100DB0000F901F90189580E49CE990938900809390
:100DC00088008FEF80932001E3CFCF92DF92EF92E4
:100DD000FF920F931F93E82FF92F05C001501109BF
:100DE0002109310961F1908196239417B9F305C067
:100DF000015011092109310911F1908196239413B1
:100E0000F7CFC12CD12CE12CF12C0AC08FEFC81ADE
:100E1000D80AE80AF80A0C151D052E053F0579F0D9
:100E200080818623841791F36C2D7D2D8E2D9F2D2F
:100E30001F910F91FF90EF90DF90CF90089560E0A9
:100E400070E080E090E01F910F91FF90EF90DF90B5
:100E5000CF9008951092B9011092B80188EE93E0F6
:100E6000A0E0B0E08093BA019093BB01A093BC01D5
:100E7000B093BD018BE091E09093B7018093B601F0
:100E800085EC90E09093C3018093C20184EC90E0E4
:100E90009093C5018093C40180EC90E09093C701CA
:100EA0008093C60181EC90E09093C9018093C801C2
:100EB00082EC90E09093CB018093CA0186EC90E0A5
:100EC0009093CD018093CC011092CF011092D0016C
:100ED0001092D1011092D201E8E7F2E020E932E06D
:100EE0004FEF68EB7BE0809177028C30B0F491E0BB
:100EF000980F90937702808390E0DC01AA0FBB1FCC
:100F0000A80FB91FAD5ABD4F12967C936E931197DF
:100F100033962E173F0739F708954083F9CFCF93C3
:100F2000DF93CDB7DEB76E970FB6F894DEBF0FBE76
:100F3000CDBF789484B5826084BD84B5816084BD62
:100F400085B5826085BD85B5816085BD80916E0067
:100F5000816080936E001092810080918100826098
:100F600080938100809181008160809381008091D5
:100F700080008160809380008091B10084608093C4
:100F8000B1008091B00081608093B00080917A00C0
:100F9000846080937A0080917A00826080937A00E6
:100FA00080917A00816080937A0080917A008068D5
:100FB00080937A001092C100E091C601F091C701C0
:100FC00082E08083E091C201F091C3011082E09140
:100FD000C401F091C50180E180831092CE01E091BF
:100FE000CA01F091CB0186E08083E091C801F091C5
:100FF000C901808180618083E091C801F091C901BD
:10100000808188608083E091C801F091C90180816E
:1010100080688083E091C801F091C90180818F7D53
:10102000808386EB91E00E94820168EC70E080E0B2
:1010300090E00E94860261E08DE00E94250260E05F
:101040008DE00E94CB0181E090E090938B01809332
:101050008A0190938D0180938C0190938F018093EE
:101060008E019093910180939001909393018093CE
:10107000920190939501809394016AE0262E312C81
:1010800086EB91E00E94F300892B09F461C686EBA0
:1010900091E00E94F3001816190694F786EB91E090
:1010A0000E94D10090918401853581F591112EC067
:1010B000809183018F3F29F481E0809382018093A6
:1010C0008401809182018F5F8433B8F5809382011F
:1010D000809184018823A1F2809181018111D0CF78
:1010E00080918201843060F21092840180915201DB
:1010F00000915301E02EF12C90915101913011F1AA
:10110000923009F4DAC110928201BACF8093830140
:101110009923B9F2E0918201E23039F480938101A0
:10112000F0E0E35BFE4F8083CCCFE330C8F39091D7
:101130008101915090938101F3CF1092820110921E
:101140008401C6CF873059F590938901F09206014A
:10115000E092050110915401812F90E090930401D9
:1011600080930301F701EE0FFF1FEA56FE4F118235
:101170001082880F991FFC01EA56FE4F11821082DF
:1011800061E0802F0E94250260E0812F0E942502ED
:1011900062E370E080E090E00E948602B4CF90E0CD
:1011A0008A30910509F0C6C00E838BE08F83F7016A
:1011B000E155FF4FE491E887F701E556FF4FE491D1
:1011C000E98780E89EE3A0E0B0E08E879F87A88B48
:1011D000B98B62E0802F0E9425022FB7F89480918E
:1011E000B2019091B301A091B401B091B5012FBFAC
:1011F000805D9740A109B1098A879B87AC87BD872D
:1012000087E38B8BCE0101960E94F202882339F08E
:101210008F818C3009F46BC038F48B30E1F060E0E2
:1012200070E080EC9FE73DC085518230C0F71B81A4
:10123000612F70E0762F662766277F778C81682B79
:1012400090E080E00E94C00F2DEC3CEC4CEC5DE3A4
:101250000E94211066C06B8170E090E080E00E94E7
:10126000C00F4B015C011C8117FF0AC0AC019B0140
:1012700060E070E080E89FEB0E943A114B015C0156
:101280001F70612F70E090E080E00E94C20F2DEC93
:101290003CEC4CEC5DE30E942110A50194010E94FE
:1012A0003B110E9419126B0161157105F1F5C09097
:1012B0004B01D0904C010E94250583E00E94FC0464
:1012C000D0924801C09247018C2D0E94FC048D2DC4
:1012D0000E94FC04802F0E94FC048AE00E94FC040F
:1012E0000E94BA00F0920201E09201010CCF1B8132
:1012F000612F70E090E080E00E94C00F4B015C0124
:101300006C816F7070E090E080E00E94C20F2DEC65
:101310003CEC4CEC5DE30E942110A50194010E947D
:101320003B1117FFBECF9058BCCF70934C01609318
:101330004B01C1CF0B9709F08EC00E838BE08F83DA
:10134000F701E155FF4FE491E887F701E556FF4FBC
:10135000E491E98780E89EE3A0E0B0E08E879F8774
:10136000A88BB98B62E0802F0E9425022FB7F894DA
:101370008091B2019091B301A091B401B091B501F7
:101380002FBF805D9740A109B1098A879B87AC87F1
:10139000BD8787E38B8BCE0101960E94F2028823E2
:1013A00041F08F818B3028F08D3040F085518230B4
:1013B000E8F160E070E080EC9FE71AC06A8170E0BD
:1013C00090E080E00E94C20F2DEC3CEC4CEC5DE321
:1013D0000E9421104B015C01698170E090E080E087
:1013E0000E94C20F9B01AC01C501B4010E943B11D8
:1013F0000E9419126B016115710541F5C0904901F8
:10140000D0904A010E94250583E00E94FC04D092FE
:101410004801C09247018C2D0E94FC048D2D0E9432
:10142000FC04802F0E94FC048BE058CF69817A81F4
:1014300076276727762790E080E00E94C00F2DEC8A
:101440003CEC4CEC5DE30E942110D2CF70934A013A
:1014500060934901D7CF8091050190910601E8166C
:10146000F90639F08091030190910401E816F9061C
:10147000A1F41092890110928501109286011092B8
:10148000870110928801F701EE0FFF1FEA56FE4F09
:1014900081E090E09183808336CE8091010190912C
:1014A0000201E816F90679F710924C0110924B01EF
:1014B00010924A0110924901E6CF20910501309126
:1014C0000601E216F30639F0209103013091040180
:1014D000E216F30651F410928901109285011092E0
:1014E00086011092870110928801843009F49DC210
:1014F0009CF4813009F4FAC0833009F004CEC701AE
:101500000E94ED041091540161E0802F0E94250299
:101510001111F5C060E0EFC0883009F446C389308E
:1015200009F44FC3853009F0EECDC7010E94ED04E8
:101530008091540180934701809155018093480127
:10154000A0914701B0914801BC8FAB8F80915601AB
:10155000809347018091570180934801E0914701B2
:10156000F0914801FE8FED8F1E161F060CF059C238
:101570008091000180130DC1ECE7F0E0149117FD9C
:10158000C2CD61E0802F0E942502112319F0123094
:1015900009F0F0C18B8D9C8D2C01712C612C60E0C9
:1015A00072E18AE790E0A30192010E94DF104901F5
:1015B0005A017A01690191E0C91AD108E108F108DC
:1015C000AFEFCA16D104E104F10409F00CF4A4C190
:1015D00060E472E48FE090E0A30192010E94DF10CA
:1015E00069017A01B1E0CB1AD108E108F1081230A3
:1015F00009F049C182E0EFEFCE16D104E104F10415
:1016000009F00CF46CC060E970ED83E090E0A30198
:1016100092010E94DF1069017A01F1E0CF1AD1082E
:10162000E108F10883E02FEFC216D104E104F104D0
:1016300009F00CF454C068E478EE81E090E0A30176
:1016400092010E94DF1069017A0191E0C91AD10864
:10165000E108F10884E0AFEFCA16D104E104F10417
:10166000F1F1ECF164E274EF80E090E0A30192010B
:101670000E94DF1069017A01A1E0CA1AD108E108CD
:10168000F10885E02FEFC216D104E104F10439F12D
:1016900030F162E17AE780E090E0A30192010E94DC
:1016A000DF1069017A01E1E0CE1AD108E108F10802
:1016B00086E0FFEFCF16D104E104F10481F078F069
:1016C000750164012AE0F594E794D794C7942A95AC
:1016D000D1F721E0C21AD108E108F10887E0909122
:1016E000B100987F892B8093B1001DC1C7010E9472
:1016F000ED0460915401802F0E94CB0104CD1F3F67
:1017000011F461E0F8CFF701E358FF4FE491E330C3
:1017100021F138F4E130B9F0E230D1F017FDF1CF2A
:10172000F9CEE73031F1E83061F1E430B9F780917A
:101730008000806280938000812F90E090938B00E6
:1017400080938A00E0CC84B5806884BD17BDDBCC73
:1017500084B5806284BD18BDD6CC8091800080683D
:1017600080938000812F90E090938900809388007F
:10177000CACC8091B00080688093B0001093B30011
:10178000C2CC8091B00080628093B0001093B4000E
:10179000BACC8F3F09F0B7CC00930001ECE7F0E042
:1017A000E4911E2FEF3F09F4AECCE13031F150F05F
:1017B000E23009F443C0E7FDA6CC61E0802F0E942F
:1017C0002502E5CE14BC15BC84B5826084BD85B508
:1017D000816085BDF701E556FF4FE491F0E0EE0F23
:1017E000FF1FEE58FF4F85919491F701E155FF4F90
:1017F000E491E0932A0110E0C4CE10928000109290
:1018000081008091810088608093810080918100B7
:10181000816080938100F701E556FF4FE491F0E08D
:10182000EE0FFF1FEE58FF4F85919491F701E155A0
:10183000FF4FE491E093290111E0A3CE1092B00094
:101840001092B1008091B00082608093B0008091CE
:10185000B10081608093B100F701E556FF4FE4913C
:10186000F0E0EE0FFF1FEE58FF4F8591949190939B
:10187000280180932701F701E155FF4FE491E093A0
:10188000260112E07ECE8FEFC816D104E104F104E8
:1018900009F00CF46DC068E478EE81E090E0A301FB
:1018A00092010E94DF1069017A0191E0C91AD10802
:1018B000E108F10884E01111E5CE83E0BFEFCB161B
:1018C000D104E104F10459F154F162E17AE780E0D6
:1018D00090E0A30192010E94DF1069017A01B1E05A
:1018E000CB1AD108E108F10884E0EFEFCE16D1045D
:1018F000E104F104A1F098F0750164019AE0F59417
:10190000E794D794C7949A95D1F781E0C81AD10883
:10191000E108F10885E003C081E01111E0CE95B542
:10192000987F892B85BD2B8D3C8D220F331FAD8D6C
:10193000BE8D0E94691228EE33E040E050E00E9424
:101940000911113009F44BC0123009F45AC01111B9
:10195000DACBC7BC20933301309334014093350177
:101960005093360180916E00826080936E00CBCBE5
:1019700082E0D3CF8B8D9C8D2C01712C612C60E08B
:1019800072E18AE790E0A30192010E94DF106901F1
:101990007A0191E0C91AD108E108F10891E0C11477
:1019A000D104A1E0EA06F10484F068E478EE81E075
:1019B00090E0A30192010E94DF1069017A01B1E079
:1019C000CB1AD108E108F10893E0113009F0ABCF50
:1019D00080918100887F892B80938100A4CFD09251
:1019E0008900C092880020932F01309330014093EA
:1019F00031015093320180916F00826080936F00BB
:101A000082CBC092B30020932B0130932C014093E2
:101A10002D0150932E0180917000826080937000A0
:101A200072CB802F0E94F9016ECBC7010E94ED049A
:101A3000B0905401E4EBEB1508F465CBE7E3F1E07B
:101A400090E080E021913191E216F30651F0232BD2
:101A500009F0A3C0FC01EE0FFF1FE95CFE4FF1820D
:101A6000E082FC01EE0FFF1FE80FF91FE858FD4F61
:101A7000F08081819281FBE0FF15F0F161E0802F21
:101A80000E9425028F2D90E0AC01440F551FFA01F2
:101A9000E80FF91FED5AFD4F202F2F730081007CB6
:101AA000022B008330E020E0F901EE0FFF1FE20F70
:101AB000F31FED5AFD4F608166FD14C02F5F3F4F4D
:101AC0002C30310589F71092800022E020938100AC
:101AD0001092850010928400B19A20916F002260CC
:101AE00020936F00840F951FFC01ED5AFD4F8081FC
:101AF0008064808390E080E0B8E5CB2EB2E0DB2EFE
:101B0000C91AD10897FDD394CC0CDD1CCC0CDD1C7C
:101B100008E810E0081B110987FD1395000F111F3D
:101B2000000F111F2801012E000C6608770896018E
:101B30000D2C000C440B550B241935094609570987
:101B4000AB2DB0E00E94FE1024EB30E040E050E00E
:101B50000E94DF10420E531E641E751E2BE02F15CF
:101B600008F4D1CA401651062CF086014C145D04CD
:101B70000CF4820102501109000F111F2FB7F894C5
:101B80008F2D90E0FC01EE0FFF1FE80FF91FED5ABB
:101B9000FD4F128301832FBFB6CA0196883091058D
:101BA00009F050CF90E080E05CCF8FB7F89440917F
:101BB000B2015091B3016091B4017091B5018FBF32
:101BC000A2CA809154016091560140915801209120
:101BD0005A0110915C0190915E01909347019091A0
:101BE0005F0190934801E0904701F0904801F701B0
:101BF000F85FE130F04108F086CA1C861B861A8225
:101C000019821F8A188E198E1A8EE0E0F8E0F88784
:101C1000EF83E82FF0E0FE87ED8770E0788B6F8729
:101C200050E05A8B498B30E03C8B2B8B61E00E945B
:101C3000250261E08F850E94250261E089890E946A
:101C4000250261E08B890E9425021E8A1D8A84E09C
:101C500090E09A8789872F813885032E000C440BEA
:101C6000550B60E077E883E993E00E94DF10CA013A
:101C7000B901212F30E050E040E00E94DF102B83BB
:101C80003C834D835E838701F7FE04C00027112744
:101C90000E191F091E141F040CF048C081E090E0CB
:101CA0009A83898364E0E62EF12C0115110509F46D
:101CB0002ACA0E9461028F88988CA98CBA8C2B0149
:101CC0003C01481859086A087B088B809C80AD80CD
:101CD000BE80481459046A047B0438F36F8B788FF4
:101CE000898F9A8F8B859C8529813A812130310596
:101CF00019F501969C878B872F813885821793076A
:101D000011F41C861B86015011098B859C85298541
:101D10003A85B1012530310509F0B7010E944F1213
:101D2000BC01CE0101960E94FE03BFCFEF2809F44B
:101D3000B9CF1A821982B6CF892B21F48F81988569
:101D40009C878B878B859C8501979C878B87DBCFB6
:101D50006FE070E080E090E00E94860256E9E52E98
:101D600051E0F52E10E000E0D7018D919D917D01AD
:101D7000019709F03AC0B02E60E0802F0E94250242
:101D80000E942505F801E358FF4F8491F801E155C1
:101D9000FF4FC490F801E556FF4FD49070E060E02B
:101DA000DD2099F081110E94A201ED2DF0E0EE0FEF
:101DB000FF1FEF56FF4FA591B491EC91CE2291E019
:101DC00080E009F490E0692F782F072E000C880B33
:101DD000990B0E94C20F0E9401058B2D0E94FC04EA
:101DE00081E00E94FC040E94BA000F5F1F4F0E307A
:101DF000110509F0B9CF0AE811E0F12CF801819141
:101E000091918F01019729F50E9425058F2D8064FE
:101E100080937C0080917A00806480937A00809126
:101E20007A0086FDFCCF8091780060917900762F52
:101E3000682F072E000C880B990B0E94C20F0E947E
:101E400001058F2D0E94FC0482E00E94FC040E9488
:101E5000BA00F394F6E0FF12D1CF80918901882374
:101E600009F46DC01091050160E0812F0E94CB0143
:101E700083E090E00197F1F761E0812F0E94CB01B0
:101E800083E290E00197F1F760E0812F0E94CB019F
:101E900080910301909104019927FC01E155FF4FC6
:101EA0006491FC01E556FF4FE491F0E0EE0FFF1F57
:101EB000EF56FF4F8591949100E412E42FE030E05B
:101EC000462F0E94E506611571058105910529F0EF
:101ED0006F5F7F4F8F4F9F4F9F700E94C00F20E01A
:101EE00030E048EE51E40E94A71120E030E040E0ED
:101EF0005FE30E9421106B017C0120E030E0A9012A
:101F00000E94BB0F81112EC0C0908501D090860128
:101F1000E0908701F09088010E942505C701B60175
:101F20000E940105809105010E94FC04809103013B
:101F30000E94FC0487E00E94FC040E94BA006AE050
:101F400070E080E090E00E94860280E090E0892BC3
:101F500009F493C80E94FF00882309F48EC80E94E8
:101F600000008BC8C0928501D0928601E092870163
:101F7000F0928801D1CF0E94FD0F08F481E008950E
:101F8000E89409C097FB3EF4909580957095619513
:101F90007F4F8F4F9F4F9923A9F0F92F96E9BB27C9
:101FA0009395F695879577956795B795F111F8CF45
:101FB000FAF4BB0F11F460FF1BC06F5F7F4F8F4FB0
:101FC0009F4F16C0882311F096E911C0772321F0A6
:101FD0009EE8872F762F05C0662371F096E8862F3E
:101FE00070E060E02AF09A95660F771F881FDAF795
:101FF000880F9695879597F90895990F0008550FC2
:10200000AA0BE0E8FEEF16161706E807F907C0F07E
:1020100012161306E407F50798F0621B730B840B86
:10202000950B39F40A2661F0232B242B252B21F460
:1020300008950A2609F4A140A6958FEF811D811D00
:1020400008950E9434100C94A5100E94971038F047
:102050000E949E1020F0952311F00C948E100C9489
:10206000941011240C94D9100E94B61070F3959F0F
:10207000C1F3950F50E0551F629FF001729FBB277F
:10208000F00DB11D639FAA27F00DB11DAA1F649F1B
:102090006627B00DA11D661F829F2227B00DA11DCE
:1020A000621F739FB00DA11D621F839FA00D611D54
:1020B000221F749F3327A00D611D231F849F600D75
:1020C000211D822F762F6A2F11249F5750409AF09E
:1020D000F1F088234AF0EE0FFF1FBB1F661F771F2A
:1020E000881F91505040A9F79E3F510580F00C94F5
:1020F0008E100C94D9105F3FE4F3983ED4F386958C
:1021000077956795B795F795E7959F5FC1F7FE2B94
:10211000880F911D9695879597F9089597F99F6770
:1021200080E870E060E008959FEF80EC089500245F
:102130000A941616170618060906089500240A942C
:1021400012161306140605060895092E0394000CB2
:1021500011F4882352F0BB0F40F4BF2B11F460FF41
:1021600004C06F5F7F4F8F4F9F4F089557FD90586A
:10217000440F551F59F05F3F71F04795880F97FB4B
:10218000991F61F09F3F79F0879508951216130605
:102190001406551FF2CF4695F1DF08C01616170634
:1021A0001806991FF1CF8695710561050894089569
:1021B000E894BB2766277727CB0197F90895052E6A
:1021C00097FB1EF400940E94F61057FD07D00E9462
:1021D000091107FC03D04EF40C94F610509540956D
:1021E000309521953F4F4F4F5F4F089590958095C3
:1021F000709561957F4F8F4F9F4F08950E942B11CF
:10220000A59F900DB49F900DA49F800D911D11244A
:102210000895A1E21A2EAA1BBB1BFD010DC0AA1F27
:10222000BB1FEE1FFF1FA217B307E407F50720F03F
:10223000A21BB30BE40BF50B661F771F881F991FBA
:102240001A9469F760957095809590959B01AC0103
:10225000BD01CF010895A29FB001B39FC001A39F0C
:10226000700D811D1124911DB29F700D811D1124CF
:10227000911D08955058BB27AA270E9452110C9413
:10228000A5100E94971038F00E949E1020F039F49B
:102290009F3F19F426F40C9494100EF4E095E7FB9C
:1022A0000C948E10E92F0E94B61058F3BA176207EB
:1022B00073078407950720F079F4A6F50C94D810DD
:1022C0000EF4E0950B2EBA2FA02D0B01B901900151
:1022D0000C01CA01A0011124FF27591B99F0593F95
:1022E00050F4503E68F11A16F040A22F232F342FDD
:1022F0004427585FF3CF469537952795A795F0402B
:102300005395C9F77EF41F16BA0B620B730B840B3F
:10231000BAF09150A1F0FF0FBB1F661F771F881FF7
:10232000C2F70EC0BA0F621F731F841F48F487954F
:1023300077956795B795F7959E3F08F0B0CF939541
:10234000880F08F09927EE0F9795879508950E94BA
:10235000BB110C94A5100E949E1058F00E9497107B
:1023600040F029F45F3F29F00C948E1051110C9429
:10237000D9100C9494100E94B61068F39923B1F30D
:10238000552391F3951B550BBB27AA27621773079B
:10239000840738F09F5F5F4F220F331F441FAA1F2F
:1023A000A9F335D00E2E3AF0E0E832D091505040EB
:1023B000E695001CCAF72BD0FE2F29D0660F771F99
:1023C000881FBB1F261737074807AB07B0E809F07F
:1023D000BB0B802DBF01FF2793585F4F3AF09E3F04
:1023E000510578F00C948E100C94D9105F3FE4F3F3
:1023F000983ED4F3869577956795B795F7959F5F47
:10240000C9F7880F911D9695879597F90895E1E092
:10241000660F771F881FBB1F621773078407BA07F1
:1024200020F0621B730B840BBA0BEE1F88F7E0954C
:1024300008950E9420126894B1110C94D910089547
:102440000E94BE1088F09F5798F0B92F9927B75176
:10245000B0F0E1F0660F771F881F991F1AF0BA9548
:10246000C9F714C0B13091F00E94D810B1E00895BE
:102470000C94D810672F782F8827B85F39F0B93FB0
:10248000CCF3869577956795B395D9F73EF49095FB
:102490008095709561957F4F8F4F9F4F089597FB63
:1024A000072E16F4009407D077FD09D00E94701211
:1024B00007FC05D03EF4909581959F4F0895709547
:1024C00061957F4F0895EE0FFF1F0590F491E02D69
:1024D00009940E942B11B7FF0895821B930B089556
:1024E000AA1BBB1B51E107C0AA1FBB1FA617B7073A
:1024F00010F0A61BB70B881F991F5A95A9F7809556
:0C2500009095BC01CD010895F894FFCF28
:10250C00FFFFFF0C000D000000000035018D00C224
:0C251C00008201F300D100E5000D0A0070
:00000001FF
