:020000040000FA
:100000000C9431020C9459020C9459020C9459022C
:100010000C9459020C9459020C9459020C94330D0F
:100020000C940C100C9459020C9459020C94310E3F
:100030000C9459020C9459020C9459020C945902D4
:100040000C94E70D0C9459020C94B50D0C948F0D83
:100050000C9459020C9459020C9459020C945902B4
:100060000C94ED0E0C945902084AD73B3BCE016E1E
:1000700084BCBFFDC12F3D6C74319ABD56833DDAFF
:100080003D00C77F11BED9E4BB4C3E916BAAAABE0E
:10009000000000803F0000000000240027002A002C
:1000A00000000000250028002B00020000000800CE
:1000B0000201000003040700000000000000002A05
:1000C0002A2A2A2A2A2A2A2A2A2A2A2A2A2A2A2A90
:1000D0002A2A2A2A2A2A2A2A2A2A2A2A2A2A2A2A80
:1000E0002A2A2A2A2A2A2A2A2A2A2A2A2A2A2A2A70
:1000F0002A2A2A2A2A2A2A2A2A2A2A2A2A2A2A2A60
:100100002A2A2A2A2A2A2A2A2A2A2A2A2A2A2A2A4F
:100110002A2A2A2A2A2A2A2A2A2A2A2A2A2A2A2A3F
:100120002A005468616E6B73004F72206A75737495
:1001300020646F776E677261646520796F757220D5
:100140006C69627261727920746F2076657273696E
:100150006F6E20322E362E302E002068747470732D
:100160003A2F2F6769746875622E636F6D2F417225
:100170006475696E6F2D495272656D6F74652F419C
:10018000726475696E6F2D495272656D6F74653F4B
:100190007461623D726561646D652D6F762D66696F
:1001A0006C65236578616D706C65732D666F722D5B
:1001B000746869732D6C6962726172790054686544
:1001C000206578616D706C65732061726520646F65
:1001D00063756D656E74656420686572653A005379
:1001E000746172742077697468207468652053693B
:1001F0006D706C655265636569766572206F7220FB
:1002000053696D706C6553656E64657220657861C5
:100210006D706C652E0020617661696C61626C6541
:10022000206174202246696C65203E204578616D0E
:10023000706C6573203E204578616D706C6573202D
:1002400066726F6D20437573746F6D204C696272B6
:100250006172696573202F20495272656D6F7465F4
:10026000222E00506C6561736520757365206F6E7A
:1002700065206F6620746865206E657720636F6403
:1002800065206578616D706C65732066726F6D2096
:10029000746865206C6962726172792C00206874E0
:1002A0007470733A2F2F6769746875622E636F6D6F
:1002B0002F41726475696E6F2D495272656D6F744E
:1002C000652F41726475696E6F2D495272656D6F4D
:1002D00074653F7461623D726561646D652D6F7612
:1002E0002D66696C6523636F6E76657274696E67DF
:1002F0002D796F75722D32782D70726F6772616D06
:100300002D746F2D7468652D34782D766572736940
:100310006F6E005570677261646520696E737472E8
:10032000756374696F6E732063616E206265206609
:100330006F756E6420686572653A00546869732051
:1003400076657273696F6E206973206E6F206C6FB3
:100350006E67657220737570706F727465642100CA
:100360004974207365656D732C20746861742079FD
:100370006F7520617265207573696E6720616E20EC
:100380006F6C642076657273696F6E20322E302038
:10039000636F6465202F206578616D706C652E0039
:1003A0005468616E6B20796F7520666F722075736B
:1003B000696E672074686520495272656D6F746557
:1003C000206C69627261727921002A2A2A2A2A2AFB
:1003D0002A2A2A2A2A2A2A2A2A2A2A2A2A2A2A2A7D
:1003E0002A2A2A2A2A2A2A2A2A2A2A2A2A2A2A2A6D
:1003F0002A2A2A2A2A2A2A2A2A2A2A2A2A2A2A2A5D
:100400002A2A2A2A2A2A2A2A2A2A2A2A2A2A2A2A4C
:100410002A2A2A2A2A2A2A2A2A2A2A2A2A2A2A2A3C
:100420002A2A2A2A2A2A2A2A2A2A2A2A00000000D4
:100430000023002600290004040404040404040228
:100440000202020202030303030303010204081071
:10045000204080010204081020010204081020003E
:10046000031111241FBECFEFD8E0DEBFCDBF11E0D6
:10047000A0E0B1E0EEECF7E502C005900D92A23BE2
:10048000B107D9F725E0A2EBB1E001C01D92A63378
:10049000B207E1F712E0C1E3D2E004C02197FE0108
:1004A0000E94D029C033D107C9F70E9488110C944B
:1004B000E52B0C94000091E0909312038093340399
:1004C00010921303109235030895089508959091A2
:1004D000E5028091E4022FEF3FEF981748F4E92FEF
:1004E000F0E0E054FD4F208130E09F5F9093E50203
:1004F000C90108959091E5028091E4022FEF3FEF4A
:10050000981748F4E92FF0E0E054FD4F208130E0E7
:100510009F5F9093E502C90108958091E402909154
:10052000E502891B990B0895AF92BF92CF92DF929B
:10053000EF92FF920F931F93CF93DF936C017B0198
:100540008B01040F151FEB015E01AE18BF08C01729
:10055000D10759F06991D601ED91FC910190F0819C
:10056000E02DC6010995892B79F7C501DF91CF915F
:100570001F910F91FF90EF90DF90CF90BF90AF90C1
:10058000089542E050E06EEA71E086E393E00C9457
:100590009402FC01538D448D252F30E0842F90E090
:1005A000821B930B541710F0CF960895019708956E
:1005B000FC01918D828D981761F0A28DAE0FBF2F37
:1005C000B11D5D968C91928D9F5F9F73928F90E08D
:1005D00008958FEF9FEF0895FC01918D828D9817FC
:1005E00031F0828DE80FF11D858D90E008958FEF39
:1005F0009FEF0895FC01918D228D892F90E0805C02
:100600009F4F821B91098F739927089586E393E08A
:100610000E94FA0221E0892B09F420E0822F08953C
:1006200080E090E0892B29F00E94060381110C9450
:1006300000000895FC01A48DA80FB92FB11DA35A85
:10064000BF4F2C91848D90E001968F739927848FF2
:10065000A689B7892C93A089B1898C918370806415
:100660008C93938D848D981306C00288F389E02DB6
:1006700080818F7D80830895EF92FF920F931F9367
:10068000CF93DF93EC0181E0888F9B8D8C8D981345
:100690001AC0E889F989808185FF15C09FB7F89451
:1006A000EE89FF896083E889F9898081837080649D
:1006B00080839FBF81E090E0DF91CF911F910F91E8
:1006C000FF90EF900895F62E0B8D10E00F5F1F4FF7
:1006D0000F731127E02E8C8D8E110CC00FB607FC06
:1006E000FACFE889F989808185FFF5CFCE010E9494
:1006F0001A03F1CFEB8DEC0FFD2FF11DE35AFF4FE5
:10070000F0829FB7F8940B8FEA89FB898081806221
:10071000CFCF0F931F93CF93DF938C01D0E0C0E036
:10072000F801EC0FFD1F6491662341F086E393E02E
:100730000E943C03892B11F02196F2CF0E94C10246
:100740008C0F9D1FDF91CF911F910F910895CF9333
:10075000DF93EC01888D8823B9F0AA89BB89E889E9
:10076000F9898C9185FD03C0808186FD0DC00FB68F
:1007700007FCF7CF8C9185FFF2CF808185FFEDCF0D
:10078000CE010E941A03E9CFDF91CF910895833003
:1007900081F028F4813099F08230A9F008958730F3
:1007A000A9F08830C9F08430B1F4809180008F7D49
:1007B00003C0809180008F7780938000089584B576
:1007C0008F7784BD089584B58F7DFBCF8091B00075
:1007D0008F778093B00008958091B0008F7DF9CF1E
:1007E0001F93CF93DF93282F30E0F901E555FF4F9A
:1007F0008491F901E55BFB4FD491F901E95CFB4F72
:10080000C491CC23A9F0162F81110E94C703EC2FAD
:10081000F0E0EE0FFF1FE056FF4FA591B4918FB7A8
:10082000F894EC91111108C0D095DE23DC938FBFB2
:10083000DF91CF911F910895DE2BF8CF90910001A9
:1008400089130BC0EAEAF0E0E4919FEF9093000176
:10085000E13049F028F0E23061F060E00C94F00300
:1008600010926E00FACF90916F009D7F90936F0071
:10087000F4CF909170009D7F9093700091E09093E1
:10088000B0009091B100987F94609093B100109265
:10089000B300E3CFCF93DF9390E0FC01E55BFB4F28
:1008A0002491895C9B4FFC0184918823C9F090E0DE
:1008B000880F991FFC01EA56FF4FA591B491FC01E6
:1008C000E056FF4FC591D49161110DC09FB7F894C8
:1008D0008C91209582238C938881282328839FBF25
:1008E000DF91CF910895623051F49FB7F8943C9115
:1008F000822F809583238C93E8812E2BEFCF8FB7A7
:10090000F894EC912E2B2C938FBFEACF1F93CF93AB
:10091000DF93182FEB0161E00E944A04209739F41D
:1009200060E0812FDF91CF911F910C94F003CF3FB6
:10093000D10511F461E0F5CFE12FF0E0E555FF4F6F
:10094000E491E33031F140F4E130B1F0E230E1F034
:10095000C038D1057CF7E4CFE73029F1E83059F110
:10096000E430B1F780918000806280938000D09362
:100970008B00C0938A0004C084B5806884BDC7BD65
:10098000DF91CF911F91089584B5806284BDC8BD69
:10099000F7CF80918000806880938000D093890099
:1009A000C0938800EDCF8091B00080688093B00044
:1009B000C093B300E5CF8091B00080628093B00017
:1009C000C093B400DDCF8E3008F08E508770806405
:1009D00080937C0080917A00806480937A0080917B
:1009E0007A0086FDFCCF809178009091790008957F
:1009F0003FB7F8948091000290910102A091020209
:100A0000B091030226B5A89B05C02F3F19F00196AF
:100A1000A11DB11D3FBFBA2FA92F982F8827BC0158
:100A2000CD01620F711D811D911D42E0660F771F80
:100A3000881F991F4A95D1F708958F929F92AF9280
:100A4000BF92CF92DF92EF92FF926B017C010E94E6
:100A5000F8044B015C01C114D104E104F104B9F0C4
:100A60000E94F804681979098A099B09683E734055
:100A70008105910580F321E0C21AD108E108F1084F
:100A800088EE880E83E0981EA11CB11CE4CFFF9075
:100A9000EF90DF90CF90BF90AF909F908F90089590
:100AA0002FB7F8946091FC017091FD018091FE01D7
:100AB0009091FF012FBF08950F931F93CF93DF9362
:100AC000EC018B0188859985029749F461307105A5
:100AD00009F436C04CF560E00115110591F18885E7
:100AE0009985049749F40130110509F451C09CF52A
:100AF0000115110509F43BC088859985059709F012
:100B0000C5C00A30110508F0C1C0F801E657FA4F18
:100B10000C94D029DC05E605F40506061E06200621
:100B2000260630063E0644066230710591F060E00C
:100B300003301105A1F68C850E94F00360E005C02A
:100B400061E08C850E94F00361E08E850E94F003D5
:100B5000C6CF61E0F0CF0230110501F1033011057D
:100B600059F661E08C850E94F00360E01CC061E0F2
:100B70008C850E94F00360E08E850E94F00361E0A6
:100B800088890E94F00360E08A890E94F003B4CF54
:100B900060E08C850E94F00361E0EECF60E08C8520
:100BA0000E94F00361E08E850E94F00360E0888976
:100BB0000E94F00361E0E8CF60E08C850E94F003C2
:100BC00061E08E850E94F00361E009C060E08C85E1
:100BD0000E94F00361E08E850E94F00360E0888946
:100BE0000E94F00360E00DC060E08C850E94F0037D
:100BF00061E08E850E94F00360E088890E94F00326
:100C000061E08A890E94F00361E011C060E08C8598
:100C10000E94F00361E08E850E94F00360E0888905
:100C20000E94F00361E08A890E94F00360E08C89F1
:100C3000DF91CF911F910F910C94F00361E0E7CF0A
:100C400061E08C850E94F00360E0E5CF61E08C8577
:100C50000E94F00360E08E850E94F00361E0DFCF28
:100C600061E08C850E94F00360E08E850E94F003B5
:100C700061E088890E94F00360E0D5CF61E08C8557
:100C80000E94F00360E09DCF60E0F9CFDF91CF914B
:100C90001F910F9108952091D701260F3327331FFD
:100CA00021323105ECF420910C03FC0190E080E04E
:100CB000243069F082E00895A091D7012191AC0120
:100CC00049545E4FA40FB52FB11D2C930196861782
:100CD00098F38091D701680F6093D70180E0089561
:100CE00081E0089510920C0381E080930B03109231
:100CF000E60261E082E10E94F00361E083E10E948C
:100D0000F003E9EBF0E080818E7F808380818D7F2E
:100D1000808388E48093B80085E48093BC000895C4
:100D20001092E5021092E402109213031092350320
:100D30000E94720685E692E09093E3028093E202BD
:100D400086E692E09093E1028093E0020895CF93CB
:100D5000DF9391E09093B6018823B9F0C091B80079
:100D6000D091BA008091BC008A7B8093BC0060E087
:100D700082E10E94F00360E083E10E94F0030E94A0
:100D80007206D093BA00C093B800DF91CF91089556
:100D90008F929F92AF92BF92CF92DF92EF92FF928B
:100DA0000F931F93CF93DF93D0913503D13208F087
:100DB000D7C0182FC09134030E94F8046B017C0146
:100DC00080910C0381116BC082E080930C0310931F
:100DD0000B038FEF80930A0310920903D09308034B
:100DE000A4E1B3E0E8EEF2E080E0D81391C0109205
:100DF000E7028091E702CC0FC82BC093E7028091F5
:100E0000E602813009F088C01092E6020E94F804E0
:100E10006B017C018091E7028093BB0080910E03FF
:100E200090910F03A0911003B0911103892B8A2B8D
:100E30008B2BA1F00E94F80400910E0310910F0378
:100E400020911003309111036C197D098E099F09BF
:100E5000061717072807390708F442C08091BC001D
:100E600083FDD8CF85EC8093BC000E94F8046B0111
:100E70007C0180910C03823009F450C080910A03F8
:100E80008F3F09F46FC080910A03803209F46CC06F
:100E900080910A03803309F469C084E026C0809100
:100EA0000E0390910F03A0911003B0911103892BB1
:100EB0008A2B8B2B09F484CF0E94F80480900E03B8
:100EC00090900F03A0901003B09011036C197D094E
:100ED0008E099F0986169706A806B90608F070CFF6
:100EE00080910D030E94A70685E0109213031092D3
:100EF000350310921203DF91CF911F910F91FF9054
:100F0000EF90DF90CF90BF90AF909F908F9008951B
:100F10009D9191938F5F69CF85EEA5CF80910E0350
:100F200090910F03A0911003B0911103892B8A2B8C
:100F30008B2B09F49ECF0E94F80400910E031091B0
:100F40000F0320911003309111036C197D098E0954
:100F50009F09061717072807390708F08ACFC0CF5F
:100F600081E0C3CF80E0C1CF82E0BFCF83E0BDCFBF
:100F70000895E091E5028091E402E81730F4F0E092
:100F8000E054FD4F808190E008958FEF9FEF08952A
:100F9000CF92DF92EF92FF920F931F93CF93DF9345
:100FA0007C01CB018A0120911203222389F0EB01FD
:100FB0006B01C40ED51ECC15DD0569F06991D70112
:100FC000ED91FC910190F081E02DC7010995F3CFDF
:100FD000642F0E944B06C801DF91CF911F910F91A2
:100FE000FF90EF90DF90CF900895CF93DF931F9203
:100FF000CDB7DEB76983209112032223F9F0209147
:101000003503203258F021E030E0FC0133832283A5
:1010100090E080E00F90DF91CF91089580911303CD
:10102000E82FF0E0EC5EFC4F998190838F5F809316
:1010300013038093350381E090E0ECCF61E0CE01B3
:1010400001960E944B06F7CF682F83ED93E00C9436
:10105000F507CF93DF93F0E0E0E0EB01C40FD51F7D
:101060009881992311F0903320F48E2FDF91CF9146
:10107000089586EC890F8730C0F385EA890F8630A2
:10108000A0F385E8890F853080F321E030E097FFF9
:1010900021C0923CE0F022E095FF06C023E094FFDF
:1010A00003C024E093FD25E0DE01119630E0CD0180
:1010B0008C1B9D0B821793076CF48D9190E06894C4
:1010C00015F8959587951694E1F7029781F34F5F90
:1010D0005F4FC3CF3196420F531FBFCF0F931F9364
:1010E000CF938C01C62FFC0184810E945B02F80122
:1010F00083858C2B90E00E94240881E0CF911F9182
:101100000F910C94C806CF92DF92EF92FF92CF938B
:10111000DF93DC011796CC911797D0E06111DC2F9B
:1011200018962C91189730E0220F331F235D3B4F08
:1011300050E040E0F90185919491FC01F080BA0102
:1011400090E080E0EF2DEC23ED1310C04F5F5F4F78
:101150001D96CD90DD90ED90FC9050976C157D051F
:101160008E059F0538F36FEF7FEFCB01DF91CF91B5
:10117000FF90EF90DF90CF9008958F929F92AF9263
:10118000BF92CF92DF92EF92FF920F931F93CF9374
:10119000DF93CDB7DEB7C054D1400FB6F894DEBFB1
:1011A0000FBECDBF8C010E945005F801C184D284CE
:1011B000E384F4849B01AC012C193D094E095F09BD
:1011C00069017A0130EDC31637E0D306E104F1047A
:1011D000A8F48189C05CDE4F0FB6F894DEBF0FBE65
:1011E000CDBFDF91CF911F910F91FF90EF90DF90D6
:1011F000CF90BF90AF909F908F9008956187728736
:10120000838794871482138212821182108262E093
:1012100085810E944A0461E070E080E090E00E94D5
:101220001D0561E0F80185810E944A0460E0F80133
:1012300085810E94F003F80186818551823028F56E
:101240008BE291E10197F1F762E0F80185810E945C
:101250004A04F801828990E08230910538F0880FC5
:10126000991F880F991F05970197F1F7F89460E08F
:10127000C8010E9483086F3F7F4F8F4F9F4F61F4DB
:10128000F801118A789480E0A5CF64E170E080E0F5
:1012900090E00E941D05D8CF61E0C8010E9483083C
:1012A0006F3F7F4F8F4F9F4F59F39E012F5F3F4FEF
:1012B00079015E013FEBA31A3EEFB30A670160E0DC
:1012C000C8010E948308F60160837183828393833F
:1012D00061E0C8010E948308F601648375838683F8
:1012E0009783F8E0CF0ED11CCA14DB0441F7789441
:1012F00030E020E0F70180809180A280B3804481BB
:10130000558166817781FFEF8F169F06AF06BF0676
:1013100031F04F3F8FEF58076807780719F4F8014D
:10132000118AB1CFF90183E0F595E7958A95E1F748
:10133000E00FF11F8081880F84169506A606B70678
:10134000F0F080832F5F3F4FF8E0EF0EF11C283262
:10135000310581F6F801448120818181280F3327EE
:10136000331F8281280F311D8381820F932F911D9E
:1013700099274817190699F681E0818B2BCF816058
:10138000E0CFFC01EE0FFF1FEC55FD4F20813181B6
:101390002130310511F41182108261E00C944A046D
:1013A000682F86E393E00C943C03CF92DF92EF9298
:1013B000FF92CF936B017C0183E00E94D009C701AB
:1013C000B6010E947F28862FC72F60932602709354
:1013D00027020E94D0098C2FCF91FF90EF90DF90D1
:1013E000CF900C94D0090F931F93CF93DF938B0171
:1013F000D82FC92F82E00E94D009C801AD2FBC2F81
:101400008093B2019093B301A093B401B093B5015E
:101410000E94D009812F0E94D0098D2F0E94D009EF
:101420008C2FDF91CF911F910F910C94D0090C94C8
:10143000C1028FEF0E94D00985E50C94D009CF93AB
:10144000DF93FC012185DC01AA5FBE4F8C9140E057
:10145000281758F5422F4170348531111DC0DF0126
:10146000A20FB11D53968C9192E3899FD001112454
:10147000CCEEDFEF442311F0C4E1D0E06585768542
:10148000CB01969587958A0F9B1F8C0F9D1F0E94FD
:10149000A82977277387628782859385009769F0EB
:1014A0003F5F3817190628F43487842FDF91CF91D6
:1014B000089514862F5F2187F8CF42E0F6CF42E3EC
:1014C000489F9001499F300D11242C5E3F4F769527
:1014D000679576956795CB01880F991F860F971FA3
:1014E0008217930750F485E0869FA001879F500DD7
:1014F000112481E04217530708F480E0089542E385
:10150000489F9001499F300D11242451310976954F
:10151000679576956795CB01880F991F860F971F62
:101520008217930750F485E0869FA001879F500D96
:10153000112481E04217530708F480E008958F9248
:101540009F92AF92BF92CF92DF92EF92FF921F9342
:10155000CF93DF93EC01162F5A014C0186E1880EE0
:10156000911CC12CD12C7601F4018081B50190E051
:101570000E947F0AF2E08F0E911CCC0CDD1CEE1C49
:10158000FF1C882311F06894C0F8115069F7CD5101
:10159000DF4FC882D982EA82FB82DF91CF911F910F
:1015A000FF90EF90DF90CF90BF90AF909F908F9083
:1015B0000895089590E080E008950F931F93CF93CE
:1015C0008C01C62F0E946E086C2F6460C8010E94B7
:1015D0006E086C2F6B7FC8010E946E0883EC90E050
:1015E0000197F1F7CF911F910F9108950F931F93DA
:1015F000CF93DF938C01D62FC42F607F642B0E9482
:10160000DD0A80E1D89FB00111246C2BC801DF9165
:10161000CF911F910F910C94DD0ACF93DF93CDB73B
:10162000DEB728970FB6F894DEBF0FBECDBF28E017
:10163000E2E7F1E0DE01119601900D922A95E1F7C3
:10164000FC012085241710F44FEF420F50E0440FA7
:10165000551F21E030E02C0F3D1F420F531FFA01B0
:101660002081620F606840E028960FB6F894DEBFD4
:101670000FBECDBFDF91CF910C94F60A41E00E94DE
:10168000F60A81E090E008950F931F93CF93DF93C4
:10169000EC0188819981009759F02A813B812617B6
:1016A000370730F081E0DF91CF911F910F910895BE
:1016B0008B016F5F7F4F0E94022B009759F0998337
:1016C00088831B830A832C813D81232B59F7FC01DE
:1016D0001082E8CF80E0E7CF85ED8093BC00809159
:1016E0000E0390910F03A0911003B0911103079680
:1016F000A11DB11D23E0B695A795979587952A95CD
:10170000D1F72091BC0024FD03C010920C03089572
:1017100040910E0350910F036091100370911103DB
:10172000452B462B472B69F30097A105B10541F0E6
:1017300025E32A95F1F700000197A109B109E1CF4E
:1017400080910D030C94A706CF93DF93EC01898958
:101750009A89009749F0FC01108E48E050E06FEF45
:1017600070E007960E94C82B188E198E8D858D8B80
:1017700040E061E0CE010E94F60A8BE39FE1019711
:10178000F1F7DF91CF9108956F927F928F929F92A0
:10179000AF92BF92CF92DF92EF92FF920F931F937F
:1017A000CF93DF93EC01742E022F2A8130E050E0BA
:1017B00040E090E080E0821793070CF0AEC0EB8130
:1017C000FC81E40FF51F495F5F4FA081B1816A176B
:1017D0007B0769F4682E188DDE01179680E01817D4
:1017E00041F09D91691609F474C08F5FF8CF01969E
:1017F000E2CF183008F07CC081E0810F888F6E0145
:101800008FE0C80ED11CBF016E5F7F4F88E0D6010C
:101810001D928A95E9F75601F60130E020E090E844
:10182000F92EDB0143E050E08D918F2190E0022EF4
:1018300002C0880F991F0A94E2F7042E02C0959502
:1018400087950A94E2F79081892B80834F5F5F4FE1
:101850004830510549F7F6942F5F3F4F31962830B5
:101860003105F9F68D809E80E12EF12CB70183E0E1
:10187000660F771F8A95E1F7606440E0C4010E941B
:10188000F60AB8E0CB0ED11CF50161915F01D401DD
:10189000ED91FC910190F081E02DC4010995CA14ED
:1018A000DB0491F7FE01EE0DFF1D6782ED81FE81E5
:1018B0006789061720F0802F0E949C29092F708EBF
:1018C000018F8585858B402F672DCF010E940D0BE1
:1018D000812FDF91CF911F910F91FF90EF90DF90BB
:1018E000CF90BF90AF909F908F907F906F90089512
:1018F000E881F9810190F081E02DCE01DF91CF9157
:101900001F910F91FF90EF90DF90CF90BF90AF901D
:101910009F908F907F906F9009948FEFDACF0F9305
:101920001F93CF93DF938C01EB016E377105E0F0CD
:10193000DC0154968C9154978617170630F0539615
:101940008C9186171706A9F0A0F0F8018189928979
:101950000097A9F0218D408DBE010E94C40B8F3FDE
:1019600071F0C82FD0E005C06032710510F4CAE2F2
:10197000D0E0CE01DF91CF911F910F910895D80152
:101980001E962C9130E090E080E0821793077CF760
:10199000AC01440F551F480F591FD8011F96ED91F8
:1019A000FC91E40FF51F40815181C417D50721F444
:1019B000C281CF3FB9F6DBCF0196E7CF0F931F93DC
:1019C000CF93DF938C01EB016E377105E0F0DC0102
:1019D00054968C9154978617170630F053968C9135
:1019E00086171706A9F0A0F0F8018189928900975F
:1019F000A9F0218D408DBE010E94C40B8F3F71F074
:101A0000C82FD0E005C06032710510F4CAE2D0E002
:101A1000CE01DF91CF911F910F910895CE01815A90
:101A200091098F359105A0F3D8011E962C9130E0D5
:101A300090E080E0821793074CF7AC01440F551FEC
:101A4000480F591FD8011F96ED91FC91E40FF51F27
:101A500040815181C417D50721F4C281CF3F89F657
:101A6000D5CF0196E7CF1F920F920FB60F92112498
:101A70002F933F934F935F936F937F938F939F9396
:101A8000AF93BF93EF93FF938091090290910A0265
:101A9000A0910B02B0910C02892B8A2B8B2BD1F1D8
:101AA00090910402E0910502F0910602808189275D
:101AB00080838091090290910A02A0910B02B0915B
:101AC0000C02181619061A061B069CF480910902CE
:101AD00090910A02A0910B02B0910C020197A1090A
:101AE000B1098093090290930A02A0930B02B0936C
:101AF0000C02FF91EF91BF91AF919F918F917F91D8
:101B00006F915F914F913F912F910F900FBE0F906A
:101B10001F901895809100010E941E04EACF1F9229
:101B20000F920FB60F9211242F933F934F935F9311
:101B30006F937F938F939F93AF93BF93EF93FF9395
:101B400086E393E00E941A03FF91EF91BF91AF915A
:101B50009F918F917F916F915F914F913F912F91C5
:101B60000F900FBE0F901F9018951F920F920FB6F7
:101B70000F9211242F938F939F93EF93FF93E091F4
:101B80004603F09147038081E0914C03F0914D03AF
:101B900082FD1BC0908180914F038F5F8F732091D6
:101BA0005003821741F0E0914F03F0E0EA5CFC4FF4
:101BB000958F80934F03FF91EF919F918F912F917C
:101BC0000F900FBE0F901F9018958081F4CF1F9239
:101BD0000F920FB60F9211242F933F938F939F93E1
:101BE000AF93BF938091FC019091FD01A091FE0104
:101BF000B091FF013091FB0123E0230F2D3758F501
:101C00000196A11DB11D2093FB018093FC019093CF
:101C1000FD01A093FE01B093FF018091000290911D
:101C20000102A0910202B09103020196A11DB11D13
:101C30008093000290930102A0930202B0930302EA
:101C4000BF91AF919F918F913F912F910F900FBEB8
:101C50000F901F90189526E8230F0296A11DB11D25
:101C6000D2CF1F920F920FB60F9211242F933F9352
:101C70004F935F936F937F938F939F93AF93BF9394
:101C8000CF93DF93EF93FF938091FA01C091030408
:101C9000D0E087FF24C010928500109284008091CC
:101CA000FA018F5F8093FA018091FA01082E000CEF
:101CB000990B8C179D0724F48091FA018C30C4F1A4
:101CC0008091840090918500049680349C4908F4AA
:101CD0007AC08091840090918500049676C08091AE
:101CE000FA01082E000C990B8C179D07C4F6E091A1
:101CF000FA018E2FEE0F990BFC01EE0FFF1FE80F7C
:101D0000F91FE152FC4F808186FFC9CFE091FA01B3
:101D10008E2FEE0F990BFC01EE0FFF1FE80FF91F3E
:101D2000E152FC4F808160E08F730E94F003B7CFD7
:101D30002091840030918500E091FA018E2FEE0F02
:101D4000990BFC01EE0FFF1FE80FF91FE152FC4F4A
:101D500081819281820F931F9093890080938800E4
:101D6000E091FA018E2FEE0F990BFC01EE0FFF1F91
:101D7000E80FF91FE152FC4F808186FF11C0E0910E
:101D8000FA018E2FEE0F990BFC01EE0FFF1FE80FEB
:101D9000F91FE152FC4F808161E08F730E94F003D4
:101DA000FF91EF91DF91CF91BF91AF919F918F9173
:101DB0007F916F915F914F913F912F910F900FBE47
:101DC0000F901F90189580E49CE990938900809370
:101DD00088008FEF8093FA01E3CF1F920F920FB626
:101DE0000F9211242F933F934F935F936F937F93A1
:101DF0008F939F93AF93BF93EF93FF938091B9001D
:101E0000887F803609F44AC0F0F5883209F4A7C00B
:101E100018F5803109F49BC0B8F4882309F4F9C09F
:101E2000883009F494C0FF91EF91BF91AF919F91D9
:101E30008F917F916F915F914F913F912F910F9073
:101E40000FBE0F901F901895883109F488C080321A
:101E500051F780930A0314C0803409F49DC040F404
:101E60008033B9F38833F9F680930A0385ECB0C068
:101E7000803509F485C0883509F496C0883499F610
:101E80000E946C0BD0CF883909F48CC038F58837A4
:101E900029F050F4883611F0803729F683E08093DA
:101EA0000C031092F90157C0883809F47BC08039BF
:101EB00019F0803809F0B7CF8091F901803208F02D
:101EC00071C0E091F90181E08E0F8093F90180915A
:101ED000BB00F0E0E752FE4F80833DC0803B39F00D
:101EE000E0F4803A09F479C0883A09F09CCF84E0A4
:101EF00080930C031092D8011092D701E091E20276
:101F0000F091E30209958091D70181110FC081E022
:101F10008093D7011092B70109C0803C09F4A6CF85
:101F2000883C09F4A3CF883B09F07DCFE091D8012C
:101F300081E08E0F8093D801F0E0E954FE4F80815C
:101F40008093BB009091D8018091D70129C08091E6
:101F5000E7028093BB0085EC8093BC0064CF909136
:101F6000090380910803981758F5E091090381E06F
:101F70008E0F80930903F0E0E851FD4F8081E9CF97
:101F8000E091090381E08E0F809309038091BB00EB
:101F9000F0E0E851FD4F80839091090380910803A0
:101FA0009817C8F285E8D8CFE091090381E08E0F39
:101FB000809309038091BB00F0E0E851FD4F8083DE
:101FC00080910B0381115CCF81E08093E60284EA6B
:101FD0008093BC0010920C0326CF85EC8093BC004C
:101FE00010920C038091F901803230F4E091F901F4
:101FF000F0E0E752FE4F10826091F90170E0E0914D
:10200000E002F091E10289ED91E009951092F90169
:102010000ACF10920A0334CF1F920F920FB60F927D
:1020200011242F933F934F935F936F937F938F93DD
:102030009F93AF93BF93CF93EF93FF93E0911E04D1
:10204000F0911F04C08180912004C8238091210455
:102050009091220420912104309122042F3F3F4F80
:1020600029F00196909322048093210420911C046E
:10207000211115C0C1114BC0813A910558F0109241
:102080002B0490932E0480932D0481E080932C04E4
:1020900080931C04109222041092210438C0213035
:1020A00099F4CC23A1F1E0912C042E0F20932C0461
:1020B000F0E0E45EFB4F8F3F910519F010F08FEFD9
:1020C00090E0838B82E0E4CF223009F04AC0E091B7
:1020D0002C04813A910510F4E73CB8F1E83C18F083
:1020E00081E080932B0480912D0490912E04909395
:1020F000240580932305E093220583E080931C044C
:10210000E0912304F0912404309709F0099580911F
:102110003105882341F080913005C11127C061E06D
:102120008F3F49F52D9AFF91EF91CF91BF91AF91DC
:102130009F918F917F916F915F914F913F912F91DF
:102140000F900FBE0F901F901895C111E0CF91E036
:102150009E0F90932C04F0E0E45EFB4F838B81E0B4
:1021600097CF2330A1F6C111D2CF94CF60E08F3F3B
:1021700011F42D98D8CF0E94F003D5CFCF92DF92E3
:10218000EF92FF920F931F93E82FF92F05C0015094
:1021900011092109310961F1908196239417B9F34E
:1021A00005C0015011092109310911F190819623CF
:1021B0009413F7CFC12CD12CE12CF12C0AC08FEF56
:1021C000C81AD80AE80AF80A0C151D052E053F059D
:1021D00079F080818623841791F36C2D7D2D8E2DCF
:1021E0009F2D1F910F91FF90EF90DF90CF9008955A
:1021F00060E070E080E090E01F910F91FF90EF9021
:10220000DF90CF900895109239031092380388EE32
:1022100093E0A0E0B0E080933A0390933B03A09357
:102220003C03B0933D032EE831E030933703209315
:10223000360325EC30E0309343032093420324EC33
:1022400030E0309345032093440320EC30E030939A
:1022500047032093460321EC30E030934903209359
:10226000480322EC30E030934B0320934A0326ECE2
:1022700030E030934D0320934C0310924F031092A3
:10228000500310925103109252031092D6031092F1
:10229000D5038093D7039093D803A093D903B09329
:1022A000DA0380EA91E09093D4038093D3038FEF15
:1022B0008093300510921D0481E08093200489E210
:1022C00090E090931F0480931E045098E4E0F4E0A3
:1022D0002FEF48EB5BE0809103048C30B8F491E081
:1022E000980F90930304808390E0DC01AA0FBB1F3A
:1022F000A80FB91FA152BC4F12965C934E93119731
:10230000339684E0EC31F80731F708952083F8CF55
:10231000CF93DF93CDB7DEB7E9970FB6F894DEBF62
:102320000FBECDBF789484B5826084BD84B58160D2
:1023300084BD85B5826085BD85B5816085BD809190
:102340006E00816080936E00109281008091810008
:102350008260809381008091810081608093810000
:10236000809180008160809380008091B1008460C2
:102370008093B1008091B00081608093B000809123
:102380007A00846080937A0080917A0082608093E2
:102390007A0080917A00816080937A0080917A003F
:1023A000806880937A001092C1000E949006E091AC
:1023B0004603F091470382E08083E0914203F0916D
:1023C00043031082E0914403F091450380E1808350
:1023D00010924E03E0914A03F0914B0386E0808314
:1023E000E0914803F0914903808180618083E0910E
:1023F0004803F0914903808188608083E09148031D
:10240000F0914903808180688083E0914803F091D6
:10241000490380818F7D808386E393E00E94A70338
:1024200068EC70E080E090E00E941D0561E08DE0C6
:102430000E944A0460E08DE00E94F00381E090E099
:1024400090939502809394029093970280939602C2
:10245000909399028093980290939B0280939A02A2
:1024600090939D0280939C0290939F0280939E0282
:102470009093A1028093A0029093A3028093A20262
:102480009093B5028093B4020E94900688E60E9461
:102490005B028BE690E00E94240890E080E00E94BE
:1024A000240881E00E94C806811111C088E60E94BC
:1024B0005B028AE190E00E94240883E090E00E94A1
:1024C000240881E00E94C80681E080937F029E017B
:1024D0002F5F3F4F190186E393E00E94FA029AA30F
:1024E00089A3892B11F40C94BF1A86E393E00E9410
:1024F000FA02181619067CF786E393E00E94D802C8
:1025000090916102853509F061C091115FC08091A1
:1025100060028F3F29F481E080935F028093610223
:1025200080915F028F5F843308F068C080935F0200
:1025300080916102882379F280915E028111CBCF74
:1025400080915F02843038F210926102E0912F0294
:1025500000913002E02EF12C10912E02123009F47D
:10256000E1C0133009F44FC0113069F5E73009F0CC
:1025700055C0F0926701E0926601D09031028D2D36
:1025800090E09093650180936401F701EE0FFF1FC7
:10259000EC55FD4F11821082880F991FFC01EC55FC
:1025A000FD4F1182108261E0802F0E944A0460E09A
:1025B0008D2D0E944A0462E370E080E090E00E946A
:1025C0001D051093830210925F0285CF80936002F5
:1025D000992309F4A5CFE0915F02E23039F48093AA
:1025E0005E02F0E0E65DFD4F80839ACFE330C8F3F2
:1025F00090915E02915090935E02F3CF10925F0231
:102600001092610295CFE4EAF2E080EC92E08E173E
:102610009F0709F486C711921192F9CFF0E0EB30D1
:10262000F10519F410938202CECFEC30F10519F4C4
:1026300010938102C8CFEE30F10521F481E0809340
:102640008002C1CFE231F10541F580917F02811115
:10265000BACF0E94900688E60E945B028BE690E06B
:102660000E94240890E080E00E94240881E00E94FB
:10267000C8068111A8CF88E60E945B028AE190E03B
:102680000E94240883E090E00E94240881E00E94D8
:10269000C80681E080937F0296CFE130F10581F595
:1026A0008091660190916701E816F90639F08091F2
:1026B000640190916501E816F90661F410928302B5
:1026C000F701EE0FFF1FEC55FD4F81E090E0918385
:1026D000808379CF8091680190916901E816F906AD
:1026E00029F41092820210928102EACF80916A014D
:1026F00090916B01E816F90619F710928002E0CF6D
:10270000E230F10531F4F701EE0FFF1FEC56FD4FFB
:10271000DCCF749709F057CFF701EE0FFF1FEC578E
:10272000FD4FD3CFE150E33108F04DCF0E2E000C1A
:10273000FF0BE356FC4E0C94D029B013E312B913EF
:10274000B415C313E312E312741677163E17E3129F
:10275000E3129417E312E217D318881AE312A218AF
:10276000C7010E94C10960913102802F0E94F003CD
:102770002ACFC7010E94C1096091310270E0802F09
:102780000E94860420CFC7010E94C10980913102B6
:102790008093260280913202809327024091260284
:1027A000509127025AA349A38091330280932602B5
:1027B0008091340280932702609126027091270253
:1027C0007CA36BA3161617060CF0CAC180910001FA
:1027D00008138FC0EAEAF0E0149117FDF4CE61E02F
:1027E000802F0E944A041123B9F089A19AA12C01DB
:1027F000712C612C60E072E18AE790E0A301920104
:102800000E94BE2669017A0191E0C91AD108E10847
:10281000F108123009F061C1A9A1BAA12D01712CF2
:10282000612C60E072E18AE790E0A3019D010E94C3
:10283000BE2649015A017A016901B1E0CB1AD108DB
:10284000E108F108EFEFCE16D104E104F10409F03C
:102850000CF415C160E472E48FE090E0A3019201F2
:102860000E94BE2669017A01F1E0CF1AD108E10881
:10287000F108123009F0B4C082E02FEFC216D10483
:10288000E104F10409F014F40C94602560E970EDA2
:1028900083E090E0A30192010E94BE2669017A01C3
:1028A00061E0C61AD108E108F10883E07FEFC7169E
:1028B000D104E104F10409F014F40C94602568E4F7
:1028C00078EE81E090E0A30192010E94BE266901AA
:1028D0007A0161E0C61AD108E108F1087FEFC71656
:1028E000D104E104F10411F00CF09FC084E00C94D9
:1028F00060258F3F09F067CE00930001EAEAF0E01F
:1029000014911F3F09F45FCE113031F150F01230B5
:1029100009F442C017FD57CE61E0802F0E944A049F
:1029200064CF14BC15BC84B5826084BD85B581605C
:1029300085BDF701E95CFB4FE491F0E0EE0FFF1F6E
:10294000E056FF4F85919491F701E55BFB4FE491D1
:10295000E093080210E043CF1092800010928100B3
:1029600080918100886080938100809181008160E6
:1029700080938100F701E95CFB4FE491F0E0EE0FFA
:10298000FF1FE056FF4F85919491F701E55BFB4FE8
:10299000E491E093070223CF1092B0001092B100AF
:1029A0008091B00082608093B0008091B10081601E
:1029B0008093B100F701E95CFB4FE491F0E0EE0F8A
:1029C000FF1FE056FF4F85919491909306028093EC
:1029D0000502F701E55BFB4FE491E0930402FFCEB3
:1029E0008FEFC816D104E104F10409F00CF473C0B0
:1029F00068E478EE81E090E0A30192010E94BE2697
:102A000069017A0191E0C91AD108E108F10811239E
:102A100011F40C942E25AFEFCA16D104E104F10491
:102A200019F014F00C94382561CF64E274EF80E063
:102A300090E0A30192010E94BE2669017A01A1E003
:102A4000CA1AD108E108F10885E0BFEFCB16D1041E
:102A5000E104F10409F010F40C94602562E17AE7D6
:102A600080E090E0A30192010E94BE2669017A01F4
:102A700081E0C81AD108E108F1080C94492581E0E9
:102A800011110C94602595B5987F892B85BD29A1DE
:102A90003AA1220F331FABA1BCA10E94D62928EE78
:102AA00033E040E050E00E949C261130B9F1123032
:102AB00009F446C0111187CDC7BC20931102309391
:102AC0001202409313025093140280916E008260B0
:102AD00080936E0078CD82E0D3CF91E0C114D10411
:102AE000F1E0EF06F10484F068E478EE81E090E034
:102AF000A30192010E94BE2669017A0161E0C61A13
:102B0000D108E108F10893E0113009F0C0CF8091BD
:102B10008100887F892B80938100B9CFD092890072
:102B2000C092880020930D0230930E0240930F0252
:102B30005093100280916F00826080936F0043CDAC
:102B4000C092B3002093090230930A0240930B0213
:102B500050930C028091700082608093700033CD9E
:102B6000802F0E941E042FCDC7010E94C109C09072
:102B7000310274EB7C1508F426CDE5E1F2E090E03B
:102B800080E021913191E216F30651F0232B09F0F8
:102B9000A3C0FC01EE0FFF1FEB5EFD4FF182E08250
:102BA000FC01EE0FFF1FE80FF91FEC5FFB4FD08019
:102BB00081819281ABE0AD15F0F161E0802F0E9440
:102BC0004A048D2D90E0AC01440F551FFA01E80F27
:102BD000F91FE152FC4F202F2F730081007C022B44
:102BE000008330E020E0F901EE0FFF1FE20FF31F3A
:102BF000E152FC4F608166FD14C02F5F3F4F2C30C7
:102C0000310589F71092800022E020938100109214
:102C1000850010928400B19A20916F002260209369
:102C20006F00840F951FFC01E152FC4F808180648E
:102C3000808397EE8BE0B8E5EB2EB2E0FB2EE91A2D
:102C4000F10897FDF394EE0CFF1CEE0CFF1C08E856
:102C500010E0081B110987FD1395000F111F000FCD
:102C6000111F4801012E000CAA08BB0897010F2C68
:102C7000000C440B550B281939094A095B09AC2D86
:102C8000B0E00E94DD2624EB30E040E050E00E94FE
:102C9000BE26820E931EA41EB51EBBE0BD1508F411
:102CA00092CC801691062CF087018E149F040CF4B0
:102CB000840102501109000F111F2FB7F8948D2DB8
:102CC00090E0FC01EE0FFF1FE80FF91FE152FC4FEF
:102CD000128301832FBF77CC01968830910509F0CC
:102CE00050CF90E080E05CCF0E9450056CCC80918A
:102CF00031026091330240913502209137021091E8
:102D0000390290913B029093260290913C0290935D
:102D10002702E0902602F0902702F701F85FE130E9
:102D2000F04108F050CC1C861B861A8219821F8A3B
:102D3000188E198E1A8EE0E0F8E0F887EF83E82FFE
:102D4000F0E0FE87ED8770E0788B6F8750E05A8B5C
:102D5000498B30E03C8B2B8B61E00E944A0461E0A0
:102D60008F850E944A0461E089890E944A0461E0DB
:102D70008B890E944A041E8A1D8A84E090E09A870B
:102D800089872F813885032E000C440B550B60E09A
:102D900077E883E993E00E94BE26CA01B901212F9A
:102DA00030E050E040E00E94BE262B833C834D8300
:102DB0005E838701F7FE04C0002711270E191F0943
:102DC0001E141F040CF048C081E090E09A838983B0
:102DD000E4E0EE2EF12C0115110509F4F4CB0E946C
:102DE000F8048F88988CA98CBA8C2B013C01481868
:102DF00059086A087B088B809C80AD80BE8048148F
:102E000059046A047B0438F36F8B788F898F9A8F0B
:102E10008B859C8529813A812130310519F50196F0
:102E20009C878B872F8138858217930711F41C8626
:102E30001B86015011098B859C8529853A856AE09E
:102E400070E02530310509F0B7010E94BC29BC01B2
:102E5000C1010E945C05BFCFEF2809F4B9CF1A82E7
:102E60001982B6CF892B21F48F8198859C878B8717
:102E70008B859C8501979C878B87DBCF8091620235
:102E800090916302009751F020916801309169019F
:102E9000E216F30609F43CC00E94792A83E190E02F
:102EA0000E94DD296C01DC0115960C9315978BE0CF
:102EB00016968C931697F701E55BFB4FE4911796F6
:102EC000EC931797F701E95CFB4FE4911896EC93AC
:102ED000189720E83EE340E050E01D962D933D9387
:102EE0004D935C935097D0926302C092620262E06D
:102EF000802F0E944A040E945005605D774081093E
:102F00009109F601618772878387948787E3828BB3
:102F1000F0926901E0926801F701EE0FFF1FEC5596
:102F2000FD4F118210824FCB8091750290917602F5
:102F3000009751F020916A0130916B01E216F3067F
:102F400009F43BC00E94792A84E191E00E94DD29C6
:102F50006C01DC0111960C931197F701E55BFB4FB7
:102F6000E4911496EC93F701E95CFB4FE491F0E0F7
:102F7000EE0FFF1FE35DFB4F85919491F601938364
:102F8000828360E0802F0E944A04D0927602C09231
:102F9000750282E08093B0008093B10084E6809354
:102FA000B3008093B4001092B200D6018C918330AC
:102FB00009F41C9284E080937000F0926B01E0921F
:102FC0006A01AACF8091280290912902009711F0FE
:102FD0000E94792A11E0812F0E945B0281E00E9409
:102FE000C806811101C01DAB1F5F1F37A1F78BE120
:102FF00090E00E94DD298C01FC01138212822DA930
:10300000248390E1918782E082871386128A118A55
:10301000138A148A158A968B878B108E118EFF2443
:10302000F394F28E8EE791E09183808381E286872C
:1030300081E091E0908B87878AE0848786E08587AE
:10304000109329020093280280912502811104C067
:103050000E949006F0922502D80115961C921597B1
:103060001A968C911A97823018F098E015969C93D6
:10307000F801808762E370E080E090E00E941D0527
:10308000D8011B966C91C8010E946E0868EE73E02F
:1030900080E090E00E941D0560E3C8010E94DD0A07
:1030A0004BE4E42E46E4F42EC7010197F1F760E308
:1030B000C8010E94DD0AC7010197F1F760E3C8016A
:1030C0000E94DD0A83E592E00197F1F760E2C80112
:1030D0000E94DD0AF8016581606240E0C8010E943B
:1030E000F60A84E0D80116968C9340E06CE0C801A3
:1030F0000E94F60A40E061E0C8010E94F60A5BE324
:10310000E52E5FE1F52EC7010197F1F782E0F801A6
:10311000878340E066E0C8010E94F60A40E062E072
:10312000C8010E94F60AC7010197F1F788E0D801AB
:103130001B968C9360E0C8010E946E08C8010E9433
:10314000A40B41CA80913102809326028091320201
:1031500080932702E0902602F09027026701DD2489
:10316000EE24B1E0FB220130A1F419E005E061E0BA
:10317000802F0E944A0461E0812F0E944A04EF28B8
:1031800059F4B601802F0E94860470E060E0812F20
:10319000F7CA1AE006E0EBCF70E060E0802F0E94F3
:1031A0008604B601F4CFE09033020091280210911A
:1031B00029020115110509F406CAEE2009F4BECF53
:1031C00090903102809032021C8E1B8E1E8E1D8EBE
:1031D00018A21F8E70E060E0CE014B960E94440B57
:1031E0002B8D3C8D811137C02115310519F0C90196
:1031F0000E94792A1C8E1B8E18A21F8E1E8E1D8E79
:1032000034E3A32E32E0B32EF12CEAE0EE0EF11CF3
:10321000C5018A5292408E159F052CF5D5018D91DE
:103220005D0189831A82CF8CD8A0BFEFCB1ADB0A4D
:10323000B601CE014B960E94440B882349F32B8D97
:103240003C8D8F8D98A1B101820F931F0E94CF2BCF
:10325000D8A2CF8EDDCF18A21F8E60EB71E0C9011E
:103260000E94CF2BCDCF892DF8016789961618F0D3
:103270000E949C29892FD80158968C92589759966C
:103280008C9359971D969C911D9755969C93482F0A
:10329000682DC8010E940D0B8DB69EB6EF8CF8A06C
:1032A000C7010196EDB7FEB7E81BF90B0FB6F8940E
:1032B000FEBF0FBEEDBF2DB73EB72F5F3F4F690179
:1032C000892B29F0E114F10439F5D9011C92B12CB4
:1032D000A12CF601EA0DFB1D8081882309F40BC1A6
:1032E000E82EF12C7724739487FF46C077247394DB
:1032F000F12CE12C823C08F43FC03196DE0113969C
:1033000077247394880F87FF12C0739421912F77CD
:1033100030E02D933D93F6CF6B8D7C8DA701C901D5
:103320000E94D62BF601EE0DFF1D1082D0CFE82EA5
:10333000F12CE72DF0E0072C02C0F594E7940A94F5
:10334000E2F7FA82E982EE0FFF1FE20DF31D30E093
:1033500020E0F12CE12C92918291022E02C0880F84
:10336000991F0A94E2F791838083E80EF91E2A5F81
:103370003F4F2E163F0679F7F801828D882309F416
:1033800048C09589808D981708F043C00190F0815E
:10339000E02D0284F385E02D9701A501B601C80157
:1033A0000995D80156962C91882339F0281748F5AD
:1033B0008FEF820FD80155968C93F801858982177B
:1033C00040F1218D3789822F90E00196632F70E0C4
:1033D0000E94BC29892BD1F0108E81E0820F632FCF
:1033E0000E949C29918F8585858B492F60E0C801BB
:1033F0000E940D0BF0E2EF16F10459F4A70CB11C7A
:1034000068CFF801908D9150890FD4CFC8010E94E8
:10341000A40BD80158969C91589756968C91569724
:10342000981760F7ED91FC910084F185E02DB701CC
:10343000C80109957C01D801ED91FC910190F081C2
:10344000E02D682FC801BFEFEB16F10409F0D8F5A5
:103450000995D80158968C9158978F5F58968C9300
:10346000589756969C9156978913C8CFF601EA0D46
:10347000FB1DE70DF11D8081882309F4BFCF5A960B
:103480008C915A97882309F4B9CF59962C91599762
:1034900057963C91822F90E00196632F70E00E9436
:1034A000BC29892BF9F0F801108E81E0820F632F7F
:1034B0000E949C29918F8585858B492F60E0C801EA
:1034C0000E940D0B9BCF0995D801ED91FC910190C5
:1034D000F081E02D6F2DC8010995F801808D8F5F77
:1034E000808FB7CF60E070E0CB010E941D05C8015E
:1034F0000E94A40B83CF0FB6F8949EBE0FBE8DBE64
:103500008B8D9C8D009709F45EC80E94792A5BC858
:103510008091280290912902009709F010CE0C9416
:10352000E31281E090E09093B5028093B402E4E965
:10353000F2E0A4E8B2E0819391931D921D9222E003
:10354000E43AF207C1F710928302109282021092BD
:1035500081021092800281E080937F020E94190A0A
:1035600060E070E0CB010E94D50980E00E94D009A4
:103570008FEF0E94D0090E94170A0C94E3126FE0AB
:1035800070E080E090E00E941D0594EAE92E92E050
:10359000F92E10E000E0D7018D919D917D010197FA
:1035A00009F03AC0B02E60E0802F0E944A040E94C9
:1035B000190AF801E555FF4F8491F801E55BFB4FCF
:1035C000C490F801E95CFB4FD49070E060E0DD202E
:1035D00099F081110E94C703ED2DF0E0EE0FFF1F5F
:1035E000E35DFB4FA591B491EC91CE2291E080E098
:1035F00009F490E0692F782F072E000C880B990BA7
:103600000E946F250E94F3098B2D0E94D00981E052
:103610000E94D0090E94170A0F5F1F4F0E3011053C
:1036200009F0B9CF04E912E0F12CF80181919191F0
:103630008F010197A9F40E94190A8F2D0E94E304BB
:10364000BC01990F880B990B0E946F250E94F3090A
:103650008F2D0E94D00982E00E94D0090E94170A93
:10366000F394F8E0FF12E1CF04E8A02E02E0B02EC0
:10367000F12CD5018D919D915D010197D1F50E94AD
:1036800050052B013C01C12C14E0D12E10E000E0CC
:103690000E945005641975098609970962337105FE
:1036A0008105910588F48F2D0E94E3048115B4E013
:1036B0009B0774F70817190728F08C159D0540F72C
:1036C0006C01E6CF8C01E4CF0E94190AB8016C1995
:1036D0007D09072E000C880B990B0E946F250E9414
:1036E000D5098F2D0E94D00984E10E94D0090E9443
:1036F000170AF394E8E0FE12BCCF8091830288237E
:1037000009F470C0E0906601F090670100916401D7
:1037100010916501E016F10621F461E08E2D0E9402
:103720004A0460E08E2D0E94F00383E090E0019750
:10373000F1F761E08E2D0E94F00383E290E00197A3
:10374000F1F760E08E2D0E94F003E016F10621F4FF
:1037500060E0802F0E944A041127F801E55BFB4FCF
:103760006491F801E95CFB4FE491F0E0EE0FFF1F7C
:10377000E35DFB4F8591949100E315E720E030E095
:10378000462F0E94BE106B017C01C114D104E104DC
:10379000F10439F0FFEFCF1ADF0AEF0AFF0A2FE03A
:1037A000F2220E94190AC701B6010E946D2520E08D
:1037B00030E048EE51E40E940D2820E030E040E087
:1037C0005FE30E94CE250E94F309809166010E946A
:1037D000D009809164010E94D00987E00E94D0093D
:1037E0000E94170A80918202882309F472C0009116
:1037F0006202109163020115110509F4ADC0C80100
:103800000E94BD08882349F0D80116968C918C300F
:1038100009F481C038F48B30E9F060E070E080ECAE
:103820009FE741C085518230C0F7F801F2806F2DCB
:1038300070E0762F662766277F778381682B90E07C
:1038400080E00E946D252DEC3CEC4CEC5DE30E9489
:10385000CE257EC0F801628170E090E080E00E9499
:103860006D256B017C01D80113961C9117FF0AC0CE
:10387000AC019B0160E070E080E89FEB0E942E2786
:103880006B017C011F70612F70E090E080E00E946E
:103890006F252DEC3CEC4CEC5DE30E94CE25A7019E
:1038A00096010E942F270E947F288B010E94190AEF
:1038B000B801110F880B990B0E946F250E94D50942
:1038C000809168010E94D0098BE00E94D0090E947B
:1038D000170A80918102882309F473C00091620263
:1038E000109163020115110509F4D3C0C8010E94AB
:1038F000BD08882359F0D80116968C918B3030F092
:103900008D3068F18551823008F4B2C060E070E01B
:1039100080EC9FE740C0F801F2806F2D70E090E0EE
:1039200080E00E946D254B015C01D80113966C91DB
:103930006F7070E090E080E00E946F252DEC3CEC11
:103940004CEC5DE30E94CE25A50194010E942F2737
:10395000F7FEA9CF9058A7CF10E000E0A7CFF8015D
:10396000618170E090E080E00E946F252DEC3CECDE
:103970004CEC5DE30E94CE256B017C01D8016C917B
:1039800070E090E080E00E946F259B01AC01C701D0
:10399000B6010E942F270E947F288B010E94190ADE
:1039A000B801110F880B990B0E946F250E94D50951
:1039B000809168010E94D0098CE00E94D0090E9489
:1039C000170A30908002332009F10091750210919E
:1039D00076020115110509F05FC02FEF3FEF3AA302
:1039E00029A30E94190A29A13AA1B901330F880B12
:1039F000990B0E946F250E94D50980916A010E944F
:103A0000D0098EE00E94D0090E94170A80917F029F
:103A10008823C1F088E60E945B0281E00E94C8060C
:103A2000182F88E6112309F4A8C50E945B028BE6D3
:103A300090E00E94240890E080E00E94240881E049
:103A40000E94C8066AE070E080E090E00E941D05D8
:103A500080E090E0892B11F40C9467120E94060319
:103A6000882311F40C9467120E9400000C946712D2
:103A7000F8016081718176276727762790E080E0E2
:103A80000E946D252DEC3CEC4CEC5DE30E94CE25B4
:103A900082CF10E000E082CF80916402811147C0A4
:103AA0008AEC93E00E94890380EA93E00E948903F4
:103AB00080E693E00E9489038BE393E00E948903F0
:103AC0000E94C10283E193E00E9489038DE992E0A4
:103AD0000E9489030E94C10283E692E00E9489034A
:103AE00086E192E00E9489038FED91E00E948903B4
:103AF0008DEB91E00E9489038AE591E00E948903A1
:103B00000E94C10289E291E00E9489030E94C102E1
:103B100082E291E00E9489038FEB90E00E9489038A
:103B20000E94C1020E94C10281E080936402D80118
:103B30008C91833009F051CFE0907102F0907202C5
:103B400051968D919C915297F70181939193549640
:103B500068012BEDC20ED11C8D9190E08193919361
:103B6000AC15BD05C9F7D80150969C90509790921E
:103B700073021F968C911F97882329F01F961C9221
:103B80001F9750961C92F8018785809374021092BB
:103B9000690210926A0210926B0210926C02580134
:103BA000FBEFAF1AFEEFBF0A80E8D5018C9360E00F
:103BB00073E2F701828193810E947F0A882309F4CE
:103BC0006AC0F4E09F122BC060EC78E0D701149635
:103BD0008D919C910E945F0A882309F45CC060E388
:103BE00072E0F701868197810E947F0A882309F499
:103BF00052C010926D028FEF9FEFDC01809369023B
:103C000090936A02A0936B02B0936C0281E8D50195
:103C10008C9388E090E0F6019183808360C0F4E4A7
:103C20009F1239C060E871E1D70114968D919C9183
:103C30000E945F0A882379F120E936E040E352E0F0
:103C400060E2C8010E949F0AE0917102F091720245
:103C5000EA57FF4F60E372E0808191810E947F0A02
:103C60008823C9F0F801ED51FF4F80819181A28135
:103C7000B3818093690290936A02A0936B02B09320
:103C80006C0280E280936D0288E090E0909366027F
:103C900080936502C0CF80907302F9E1F81508F0B7
:103CA0009AC0E0907102F0907202D7018D919C91C0
:103CB0000A97D0F510926D028FEF9FEFDC01809391
:103CC000690290936A02A0936B02B0936C0281E048
:103CD000F501808388E190E0D6018D939C938091DB
:103CE000690290916A02A0916B02B0916C028D3BC7
:103CF000F2E49F07FFEFAF07B10509F433C408F002
:103D0000EFC3873E38E193073FEFA307B10509F4FE
:103D100011C408F0D2C38F3E9041AF4FB10509F4F2
:103D20000EC4AAE0B0E00DC460E679E0F70182813C
:103D300093810E947F0A882309F44DC063E0C62E58
:103D4000D12C212C412C512C3201912CC814D90496
:103D500070F568E572E0D70114968D919C910E94F0
:103D60005F0A8823C1F1F701A680B78060EB74E099
:103D7000C5010E947F0A882371F0440C551C661C03
:103D8000771C689440F82394F2E0CF0ED11C24E015
:103D9000E20EF11CDBCF68E572E0C5010E947F0AEC
:103DA0008823C9F0440C551C661C771CECCF20926C
:103DB0006D024092690250926A0260926B027092A8
:103DC0006C0288E190E09093660280936502F801AE
:103DD000E552FF4F21CF81E0D80119968C931997B6
:103DE00089E793E01E969C938E931D971C961C92D8
:103DF0001C9754968C918D3208F0DBC0C8010E944C
:103E00001F0A813009F0D5C0C12C812C912C54019E
:103E1000D12C7801BAEFEB1ABEEFFB0AF8019185BD
:103E2000D7018C919817B0F5C8010E941F0A782E0F
:103E3000C8010E941F0A71100AC0813091F4880CD9
:103E4000991CAA1CBB1C689480F8D394E7CFB1E0FE
:103E50007B1207C0811105C0880C991CAA1CBB1CD1
:103E6000F4CFE7E0DE12A5C0D80119968C91F801D5
:103E7000E80FF11D9389963340F3F80194859E5F16
:103E80009487228533859217130610F08F5F818700
:103E9000C32CDBCFED51FF4F80829182A282B3828F
:103EA000940196E0369527959A95E1F7B0968D2D79
:103EB00090E0CC2009F457C0019791838083B2979A
:103EC000C4018F739927918380832F73332732978F
:103ED00031832083D801A352BF4FB501A4018CE0E8
:103EE00076956795579547958A95D1F74F715527E0
:103EF0004D935C93A2FC04C0205C3F4F3183208330
:103F0000F801EB5FFE4F80E98083A1FE02C088E9E3
:103F100080838EE190E0F801E552FF4F918380832A
:103F2000F801E95FFE4F808191818A3D984030F42D
:103F3000F801EB5FFE4F808181608083F801ED5FC7
:103F4000FE4F808180936D028092690290926A0296
:103F5000A0926B02B0926C0281E190E090936602B5
:103F600080936502BCCE91838083882D8F7390E00F
:103F7000F801E152FF4F91838083D801A352BF4FD4
:103F80002F7133272D933C93940122273071232BDB
:103F900021F4805C9F4F91838083F801EB5FFE4F9B
:103FA00080E8808393FE02C088E8808381E190E00E
:103FB000B2CFD80154968C9168E67AE090E00E94E6
:103FC0007F0A882309F4BFC0F801858968E773E098
:103FD00090E00E945F0A882309F4B5C083E0D8010D
:103FE00019968C9319978CEB91E01E969C938E9367
:103FF0001D971C961C92C8010E941F0A813009F06F
:10400000A2C0C8010E941F0A81119DC0C12CD12CE1
:104010007601B12C4801BAEF8B1ABEEF9B0AF8016A
:104020009185D4018C91981760F5C8010E941F0AF0
:10403000A82EC8010E941F0AB3E0BB120BC0A81231
:1040400082C0C8010E941F0A782EC8010E941F0A60
:10405000781279C0E1E0AE120AC0811174C0CC0CB4
:10406000DD1CEE1CFF1C6894C0F8B394D8CFA110DF
:104070006AC0813009F067C0CC0CDD1CEE1CFF1C4F
:10408000F4CFED5FFE4F8B2D90E091838083B0974E
:10409000C082D182E282F3824C2D50E08D2D90E0DF
:1040A000B296980121523F4FB80163527F4F4B01A6
:1040B00072E27B1590F160E86083D9014D935C93C7
:1040C000D4018D939C93E0FE02C088E88083B4E124
:1040D000BB1518F480818061808382E190E0F80153
:1040E000E552FF4F91838083F801E95FFE4F8081A5
:1040F000918183379A4020F4329780818160808358
:10410000B0926D02C0926902D0926A02E0926B0294
:10411000F0926C0282E190E021CF60E96083D901E6
:104120004D935C93D4018D939C93D801AF51BF4FB5
:10413000C7019F738D939C93F7FE02C088E980832B
:1041400083E190E0CCCF809173028C3309F047C0BB
:10415000E0907102F090720268E273E2F7018281EE
:1041600093810E947F0A8823D1F168E670E1D7012C
:1041700014968D919C910E945F0A882381F12CE214
:1041800036E044EF51E06CE1C8010E949F0AE091E3
:104190007102F0917202EA58FF4F64EF71E0808182
:1041A00091810E947F0A8823D1F0F801ED51FF4FE1
:1041B00080819181A281B3818093690290936A0288
:1041C000A0936B02B0936C028CE180936D0286E049
:1041D00090E0909366028093650238971DCDB09071
:1041E0007302E0907102F0907202F701C280D380F6
:1041F000F2E2BF1228C06EE072E0C6010E947F0AA0
:10420000882309F16EE072E0F701EE5BFF4F8081D9
:1042100091810E947F0A8823B1F010926D028FEF86
:104220009FEFDC018093690290936A02A0936B0276
:10423000B0936C02F801EB5FFE4F81E08083BA9788
:1042400085E090E0E9CC60EE70E2C6010E947F0A52
:104250008823C1F123E22B15A8F560E770E1D701AF
:1042600014968D919C910E945F0A882359F12AE24D
:1042700036E04EE052E060E1C8010E949F0AE09102
:104280007102F0917202EA5BFF4F6EE072E0808192
:1042900091810E947F0A8823A9F0F801ED51FF4F18
:1042A00080819181A281B3818093690290936A0297
:1042B000A0936B02B0936C0280E180936D0285E065
:1042C00090E087CFE0907102F0907202F701C28017
:1042D000D38060E871E1C6010E947F0A882309F457
:1042E00058C080917302843059F56AEC78E0D701A8
:1042F00014968D919C910E945F0A882309F449C00D
:1043000060E372E0F701868197810E947F0A88232B
:1043100009F43FC010926D028FEF9FEFDC01809394
:10432000690290936A02A0936B02B0936C02F80149
:10433000EB5FFE4F81E08083BA9784E190E06CCC24
:10434000843438F160E871E1D70114968D919C9125
:104350000E945F0A8823E9F020E936E040E352E05A
:1043600060E2C8010E949F0AF801ED51FF4F808171
:104370009181A281B3818093690290936A02A09394
:104380006B02B0936C0280E280936D0284E190E056
:1043900020CFF801EA5FFE4F8081823269F564E048
:1043A00071E0C6010E947F0A882331F16CE073E05E
:1043B000F701848195810E945F0A8823E9F02CE14E
:1043C00037E044E051E06FE0C8010E949F0AF80125
:1043D000ED51FF4F80819181A281B3818093690269
:1043E00090936A02A0936B02B0936C028FE080936B
:1043F0006D0284E090E0EDCED0907302F5E0FD1503
:1044000008F050C0F701329625EC3DE94CE151E847
:1044100083E0F82E9AE0E92E848195816191719173
:10442000E89E5001E99EB00C1124DB01AA0FBB1FCE
:10443000AA0FBB1FAA0FBB1FC12CAA16BB0688F070
:10444000E69ED001E79EB00D112473E0880F991FFE
:104450007A95E1F762E0C62EA817B90710F0CC24D0
:10446000C39463E971E080E091E00E948C269B0197
:10447000AC012C25F394DF10CFCF20936902309349
:104480006A0240936B0250936C0280E280936D024B
:104490001092660210926502F801E552FF4F1182F8
:1044A00010821DCCD8018C91833009F096CA1C92E1
:1044B000EFEFFFEFFAA3E9A394CA8F3C60E39607FE
:1044C0006FEFA607B10509F455C0E5E0F0E0873CC1
:1044D0009843AF4FB10509F024CCFAA3E9A338C043
:1044E000853AEAE59E07EFEFAE07B10569F180F482
:1044F000853B2AE492072FEFA207B105C1F18D3A5F
:104500009245AF4FB10509F00CCC89E090E00FC0A7
:10451000873948E694074FEFA407B105C9F08538FD
:104520009A47AF4FB10509F0FCCB83E090E09AA326
:1045300089A30EC062E070E07AA369A309C0A4E079
:10454000B0E0BAA3A9A304C026E030E03AA329A3AF
:10455000E0917502F09176028081833009F041CAC2
:1045600010823FCA47E050E05AA349A3F1CF68E068
:1045700070E0E2CFE1E0F0E0B0CF0E945B028BE3BD
:1045800090E00E94240881E00E94C8060E94F8047E
:104590006B017C0180910C03811164C081E08093E8
:1045A0000C0380930B039FEF90930A03109209036F
:1045B0009DE0909308038093E7028091E702806D6D
:1045C0008093E7028091E602813009F006C21092E2
:1045D000E6020E94F8046B017C018091E70280935F
:1045E000BB0080910E0390910F03A0911003B09136
:1045F0001103892B8A2B8B2BA1F00E94F804809049
:104600000E0390900F03A0901003B09011036C194B
:104610007D098E099F0986169706A806B90608F433
:1046200042C08091BC0083FDD8CF85EC8093BC0054
:104630000E94F8046B017C0180910C03813009F425
:10464000CEC1809109038E3008F0EBC1809109033F
:10465000E8EEF2E0A0ECB2E0181749F191919D93D9
:104660001F5FFACF80910E0390910F03A09110036A
:10467000B0911103892B8A2B8B2B09F48BCF0E94CD
:10468000F80480900E0390900F03A0901003B09058
:1046900011036C197D098E099F0986169706A806D5
:1046A000B90608F077CF80910D030E94A7061092FB
:1046B000E5021093E4021E3008F4C4C90E947A0295
:1046C000182F0E947A021AA719A649A55AA5482BA5
:1046D000592B5AA349A30E947A02182F0E947A02EA
:1046E0001CA71BA66BA57CA5682B792B7CA36BA3B1
:1046F0000E947A02182F0E947A021EA71DA62DA4DE
:104700003EA4282A392A0E947A020E947A020E9434
:104710007A02182F0E947A0218AB1FA6AFA5B8A97B
:10472000A82BB92BBFABAEAB0E947A02182F0E9408
:104730007A021AAB19AAE9A9FAA9E82BF92BF9AF61
:10474000E8AF0E947A02182F0E947A021CAB1BAAC3
:104750000BA91CA9082B192BB101032C000C880BE9
:10476000990B0E946F256B017C012BA13CA1B90123
:10477000330F880B990B0E946F252B013C01A70179
:1047800096010E94AE2721EE3EE245E652E40E94E9
:10479000CE254B015C01A3019201C301B2010E942D
:1047A000CE252B013C01A7019601C701B6010E944D
:1047B000CE259B01AC01C301B2010E942F270E94AC
:1047C00051296B017C0149A15AA1BA01550F880BEF
:1047D000990B0E946F259058A70196010E94AE2761
:1047E00021EE3EE245E652E40E94CE256B017C01BB
:1047F0000E9450056DA37EA38FA398A780917B0292
:1048000090917C02A0917D02B0917E020097A1055B
:10481000B10509F44AC02DA13EA14FA158A5281BFE
:10482000390B4A0B5B0BCA01B9010E946D2520E0D0
:1048300030E04AE754E40E940D282B013C0120E0BF
:1048400030E0A9010E943E2918167CF52DEC3CECC5
:104850004CE45EE3C301B2010E94682587FF25C0D6
:10486000B801012E000C880B990B0E946F2520E0E7
:1048700030E043E053E40E940D28A30192010E941E
:10488000CE259B01AC0160917702709178028091F6
:10489000790290917A020E942F2760937702709399
:1048A00078028093790290937A024DA15EA16FA164
:1048B00078A540937B0250937C0260937D027093B5
:1048C0007E0220E030E0A901C501B4010E94682504
:1048D00087FF0AC020E030E044EB53E4C501B40197
:1048E0000E942F274B015C0120E030E0A901C701A5
:1048F000B6010E94682587FF0AC020E030E044EB43
:1049000053E4C701B6010E942F276B017C0160911F
:104910007702709178028091790290917A0220E07A
:1049200030E044EB53E40E94C0282B013C0120E01E
:1049300030E0A9010E94682587FF0AC020E030E02E
:1049400044EB53E4C301B2010E942F272B013C0129
:1049500069A17AA17A8369838BA19CA19C838B83B3
:104960003E822D82AEA9BFA9B887AF83E8ADF9AD6D
:10497000FA87E9871C870B87C501B4010E947F284D
:104980007E876D87C701B6010E947F28788B6F876D
:10499000C301B2010E947F287A8B698B8E010F5F61
:1049A0001F4FF12C0E94190AD8016D917D918D0144
:1049B000072E000C880B990B0E946F250E94D509C9
:1049C0008F2D0E94D00982E10E94D0090E94170A0F
:1049D000F394B9E0FB12E6CF35C885EE27CE80917F
:1049E0000E0390910F03A0911003B0911103892B36
:1049F0008A2B8B2B09F420CE0E94F80480900E03A2
:104A000090900F03A0901003B09011036C197D09D2
:104A10008E099F0986169706A806B90608F00CCEDF
:104A200042CE8EE015CE84E0FFEFCF16D104E10434
:104A3000F10409F010F40C944315750164012AE0A7
:104A4000F594E794D794C7942A95D1F7E1E0CE1A6C
:104A5000D108E108F10885E00C94431583E09FEF4D
:104A6000C916D104E104F10409F014F40C944315BF
:104A700062E17AE780E090E0A30192010E94BE2605
:104A800069017A01E1E0CE1AD108E108F1081123A9
:104A900051F286E03FEFC316D104E104F10481F046
:104AA00078F0750164019AE0F594E794D794C7947F
:104AB0009A95D1F721E0C21AD108E108F10887E000
:104AC0009091B100987F892B8093B1000C94471589
:104AD0000E94AA2508F481E00895E89409C097FB94
:104AE0003EF490958095709561957F4F8F4F9F4FC5
:104AF0009923A9F0F92F96E9BB279395F695879509
:104B000077956795B795F111F8CFFAF4BB0F11F4CB
:104B100060FF1BC06F5F7F4F8F4F9F4F16C0882372
:104B200011F096E911C0772321F09EE8872F762FA8
:104B300005C0662371F096E8862F70E060E02AF0E9
:104B40009A95660F771F881FDAF7880F96958795D5
:104B500097F90895990F0008550FAA0BE0E8FEEFAA
:104B600016161706E807F907C0F012161306E40731
:104B7000F50798F0621B730B840B950B39F40A262A
:104B800061F0232B242B252B21F408950A2609F408
:104B9000A140A6958FEF811D811D08950E94E125FA
:104BA0000C9452260E94442638F00E944B2620F096
:104BB000952311F00C943B260C94412611240C945F
:104BC00086260E94632670F3959FC1F3950F50E0EF
:104BD000551F629FF001729FBB27F00DB11D639FAF
:104BE000AA27F00DB11DAA1F649F6627B00DA11D55
:104BF000661F829F2227B00DA11D621F739FB00DFB
:104C0000A11D621F839FA00D611D221F749F33276A
:104C1000A00D611D231F849F600D211D822F762F03
:104C20006A2F11249F5750409AF0F1F088234AF0E0
:104C3000EE0FFF1FBB1F661F771F881F915050404C
:104C4000A9F79E3F510580F00C943B260C948626D4
:104C50005F3FE4F3983ED4F3869577956795B795D3
:104C6000F795E7959F5FC1F7FE2B880F911D9695ED
:104C7000879597F9089597F99F6780E870E060E05D
:104C800008959FEF80EC089500240A9416161706E5
:104C900018060906089500240A941216130614062D
:104CA00005060895092E0394000C11F4882352F090
:104CB000BB0F40F4BF2B11F460FF04C06F5F7F4F48
:104CC0008F4F9F4F089557FD9058440F551F59F02F
:104CD0005F3F71F04795880F97FB991F61F09F3FE9
:104CE00079F087950895121613061406551FF2CF12
:104CF0004695F1DF08C0161617061806991FF1CF62
:104D000086957105610508940895E894BB27662788
:104D10007727CB0197F90895DB018F939F930E942A
:104D2000DD26BF91AF91A29F800D911DA39F900D95
:104D3000B29F900D11240895A1E21A2EAA1BBB1B4D
:104D4000FD010DC0AA1FBB1FEE1FFF1FA217B30757
:104D5000E407F50720F0A21BB30BE40BF50B661F6D
:104D6000771F881F991F1A9469F760957095809531
:104D700090959B01AC01BD01CF010895052E97FBD5
:104D80001EF400940E94D52657FD07D00E949C2651
:104D900007FC03D04EF40C94D526509540953095E1
:104DA00021953F4F4F4F5F4F089590958095709597
:104DB00061957F4F8F4F9F4F08950E941F27A59F9A
:104DC000900DB49F900DA49F800D911D1124089506
:104DD0002F923F924F925F926F927F928F929F920B
:104DE000AF92BF92CF92DF92EF92FF920F931F93F9
:104DF000CF93DF93CDB7DEB7CA1BDB0B0FB6F894AA
:104E0000DEBF0FBECDBF09942A88398848885F84E9
:104E10006E847D848C849B84AA84B984C884DF805A
:104E2000EE80FD800C811B81AA81B981CE0FD11D3E
:104E30000FB6F894DEBF0FBECDBFED010895A29F5F
:104E4000B001B39FC001A39F700D811D1124911D5E
:104E5000B29F700D811D1124911D08955058BB27DC
:104E6000AA270E9446270C9452260E94442638F016
:104E70000E944B2620F039F49F3F19F426F40C943D
:104E800041260EF4E095E7FB0C943B26E92F0E94A7
:104E9000632658F3BA17620773078407950720F053
:104EA00079F4A6F50C9485260EF4E0950B2EBA2F16
:104EB000A02D0B01B90190010C01CA01A001112420
:104EC000FF27591B99F0593F50F4503E68F11A16CC
:104ED000F040A22F232F342F4427585FF3CF46955D
:104EE00037952795A795F0405395C9F77EF41F167F
:104EF000BA0B620B730B840BBAF09150A1F0FF0F49
:104F0000BB1F661F771F881FC2F70EC0BA0F621F34
:104F1000731F841F48F4879577956795B795F79524
:104F20009E3F08F0B0CF9395880F08F09927EE0FB9
:104F30009795879508950E94442660F080E891E057
:104F400009F49EEF0E944B2628F040E851E071F4EE
:104F50005EEF0CC00C9441260C948526E92FE07876
:104F60000E94632640F3092E052AB1F3261737075E
:104F70004807590738F00E2E07F8E02569F0E025BC
:104F8000E0640AC0EF6307F8009407FADB01B90197
:104F90009D01DC01CA01AD01EF930E9424280E940B
:104FA00052260E94DE275F91552339F02BED3FE01A
:104FB00049E450FD49EC0C942F270895DF93DD2739
:104FC000B92FBF7740E85FE31616170648075B075F
:104FD00018F4D92F0E9443299F938F937F936F9347
:104FE0000E949129E8E6F0E00E9417290E945226CB
:104FF0002F913F914F915F910E94E125DD2351F068
:105000009058A2EA2AED3FE049EC5FE3D0785D27B3
:105010000E944627DF910C9452260E9421280C946E
:1050200052260E944B2658F00E94442640F029F454
:105030005F3F29F00C943B2651110C9486260C946A
:1050400041260E94632668F39923B1F3552391F317
:10505000951B550BBB27AA2762177307840738F0E7
:105060009F5F5F4F220F331F441FAA1FA9F335D044
:105070000E2E3AF0E0E832D091505040E695001CF8
:10508000CAF72BD0FE2F29D0660F771F881FBB1FB2
:10509000261737074807AB07B0E809F0BB0B802D90
:1050A000BF01FF2793585F4F3AF09E3F510578F0BC
:1050B0000C943B260C9486265F3FE4F3983ED4F391
:1050C000869577956795B795F7959F5FC9F7880F90
:1050D000911D9695879597F90895E1E0660F771FE2
:1050E000881FBB1F621773078407BA0720F0621B73
:1050F000730B840BBA0BEE1F88F7E09508950E949E
:1051000086286894B1110C94862608950E946B2617
:1051100088F09F5798F0B92F9927B751B0F0E1F078
:10512000660F771F881F991F1AF0BA95C9F714C028
:10513000B13091F00E948526B1E008950C94852647
:10514000672F782F8827B85F39F0B93FCCF3869561
:1051500077956795B395D9F73EF4909580957095BE
:1051600061957F4F8F4F9F4F08950E94442620F0F6
:1051700019F00E944B2650F40C9441260C9486267C
:10518000E92F0E94632688F35523B1F3E7FB6217EA
:10519000730784079507A8F189F3E92FFF27882370
:1051A0002AF03197660F771F881FDAF7952F55275A
:1051B000442332F091505040220F331F441FD2F746
:1051C000BB27E91BF50B621B730B840BB109B1F212
:1051D00022F4620F731F841FB11D31972AF0660FEE
:1051E000771F881FBB1FEFCF9150504062F041F0F6
:1051F000882332F0660F771F881F91505040C1F707
:1052000093950C9409298695779567959F5FD9F7B3
:10521000F7CF9F3F31F0915020F4879577956795B0
:10522000B795880F911D9695879597F90895DF9307
:10523000CF931F930F93FF92EF92DF927B018C012C
:10524000689406C0DA2EEF010E94E125FE01E89481
:10525000A5912591359145915591A6F3EF010E94B5
:105260004627FE019701A801DA9469F7DF90EF90D5
:10527000FF900F911F91CF91DF9108950E94AA2571
:1052800008F48FEF08959B01AC0160E070E080E8C6
:105290009FE30C940D2819F416F40C9441260C94F9
:1052A00009290E946B26B8F39923C9F3B6F39F57D7
:1052B000550B87FF0E9495290024A0E640EA900143
:1052C00080585695979528F4805C660F771F881F45
:1052D00020F026173707480730F4621B730B840B46
:1052E000202931294A2BA69517940794202531258A
:1052F0004A2758F7660F771F881F20F026173707B1
:10530000480730F4620B730B840B200D311D411DD7
:10531000A09581F7B901842F9158880F96958795AC
:1053200008959B01AC010C94CE2591505040660F1E
:10533000771F881FD2F70895991B79E004C0991F41
:10534000961708F0961B881F7A95C9F780950895DF
:10535000AA1BBB1B51E107C0AA1FBB1FA617B7079B
:1053600010F0A61BB70B881F991F5A95A9F78095B7
:105370009095BC01CD01089597FB072E16F400947B
:1053800007D077FD09D00E94A82907FC05D03EF47C
:10539000909581959F4F0895709561957F4F0895E1
:1053A000EE0FFF1F0590F491E02D09940E941F2736
:1053B000B7FF0895821B930B08950F931F93CF930C
:1053C000DF938230910510F482E090E0E0913405A3
:1053D000F091350530E020E0B0E0A0E0309799F49E
:1053E0002115310509F44AC0281B390B2430310539
:1053F000D8F58A819B816115710589F1FB01938341
:105400008283FE0111C040815181028113814817BE
:105410005907E0F04817590799F4109761F0129670
:105420000C93129713961C933296CF01DF91CF9174
:105430001F910F9108950093340510933505F4CF13
:105440002115310551F04217530738F0A901DB014E
:105450009A01BD01DF01F801C1CFEF01F9CF9093AF
:10546000350580933405CDCFFE01E20FF31F819304
:1054700091932250310939832883D7CF2091320567
:1054800030913305232B41F420916E0130916F014F
:10549000309333052093320520916C0130916D01DA
:1054A0002115310541F42DB73EB74091700150915F
:1054B0007101241B350BE0913205F0913305E217A1
:1054C000F307A0F42E1B3F0B2817390778F0AC0127
:1054D0004E5F5F4F2417350748F04E0F5F1F509304
:1054E000330540933205819391939FCFF0E0E0E044
:1054F0009CCFCF93DF930097E9F0FC0132971382A2
:105500001282A0913405B0913505ED0130E020E024
:105510001097A1F420813181820F931F20913205D1
:10552000309133052817390709F061C0F09333052E
:10553000E0933205DF91CF910895EA01CE17DF079E
:10554000E8F54A815B819E0141155105B1F7E901FA
:10555000FB83EA8349915991C40FD51FEC17FD07CE
:1055600061F4808191810296840F951FE9019983EE
:105570008883828193819B838A83F0E0E0E01296A6
:105580008D919C9113970097B9F52D913C911197AE
:10559000CD010296820F931F209132053091330581
:1055A0002817390739F6309751F5109235051092C2
:1055B0003405B0933305A0933205BCCFD383C283A7
:1055C00040815181840F951FC817D90761F44E5F40
:1055D0005F4F88819981480F591F518340838A8189
:1055E0009B81938382832115310509F0B0CFF0931D
:1055F0003505E09334059ECFFD01DC01C0CF138259
:105600001282D7CFB0E0A0E0E8E0FBE20C94EA26FB
:105610008C01009751F4CB010E94DD298C01C80157
:10562000CDB7DEB7E0E10C940627FC01E60FF71FCB
:105630009C0122503109E217F30708F49DC0D901FB
:10564000CD91DC911197C617D70798F0C530D105D9
:1056500030F3CE0104978617970708F3C61BD70BC4
:105660002297C193D1936D937C93CF010E94792AA5
:10567000D6CF5B01AC1ABD0A4C018C0E9D1EA091C9
:105680003405B0913505512C412CF12CE12C1097AB
:1056900031F580913205909133058815990509F00F
:1056A0005CC04616570608F058C080916C01909176
:1056B0006D01009741F48DB79EB7409170015091F4
:1056C0007101841B950BE817F90708F055C0F0939A
:1056D0003305E0933205F90171836083A0CF8D918A
:1056E0009C91119712966C90129713967C90139739
:1056F000A815B90559F56C0142E0C40ED11CCA14B5
:10570000DB0420F1AC014A195B09DA011296159706
:1057100080F06282738251834083D9016D937C93C0
:10572000E114F10471F0D7011396FC93EE931297F4
:1057300076CF22968C0F9D1FF90191838083F30110
:10574000EFCFF0933505E093340569CF481659063D
:1057500008F42C017D01D3019ACFCB010E94DD29F1
:105760007C01009749F0AE01B8010E94BF2BC8012F
:105770000E94792A870153CF10E000E050CFFB014F
:10578000DC0102C001900D9241505040D8F70895BD
:10579000DC0101C06D9341505040E0F70895FB01DA
:1057A000DC0101900D920020E1F70895FB01DC017E
:1057B0004150504048F001900D920020C9F701C0BF
:1057C0001D9241505040E0F70895F894FFCFFF013B
:1057D00004CB1004411104801204421304921404F7
:1057E000811504451604821704831804841904855E
:1057F0001A044B1B04861C044D1D04481E044F1F35
:1058000004872004502104432204542304882404E0
:10581000D825045826048927048A28048B29048C57
:105820002A048D2B048E2C04622D048F2E04AC2FA1
:1058300004AD0C000D00FFFFFFFF000036058000E7
:105840000000400014005400000000003E0B9402D1
:10585000DA0AD90ADE0C2908000000003C03940291
:10586000C902A703FA02D802EC0200000000F50703
:10587000C807DA0AB8078D026702B9070D0A0000E7
:107800000C94343C0C94513C0C94513C0C94513CE1
:107810000C94513C0C94513C0C94513C0C94513CB4
:107820000C94513C0C94513C0C94513C0C94513CA4
:107830000C94513C0C94513C0C94513C0C94513C94
:107840000C94513C0C94513C0C94513C0C94513C84
:107850000C94513C0C94513C0C94513C0C94513C74
:107860000C94513C0C94513C11241FBECFEFD8E036
:10787000DEBFCDBF11E0A0E0B1E0ECE9FFE702C060
:1078800005900D92A230B107D9F712E0A2E0B1E065
:1078900001C01D92AD30B107E1F70E942D3D0C945F
:1078A000CC3F0C94003C982F959595959595959582
:1078B000905D8F708A307CF0282F295A8091C0000B
:1078C00085FFFCCF9093C6008091C00085FFFCCF60
:1078D0002093C6000895282F205DF0CF982F809127
:1078E000C00085FFFCCF9093C6000895EF92FF92F1
:1078F0000F931F93EE24FF2487018091C00087FD22
:1079000017C00894E11CF11C011D111D81E4E8164B
:1079100082E4F8068FE0080780E0180770F3E09132
:107920000401F091050109958091C00087FFE9CF1E
:107930008091C6001F910F91FF90EF9008950E94D3
:10794000763C982F8091C00085FFFCCF9093C600B5
:1079500091362CF490330CF09053892F089597555D
:10796000892F08951F930E949F3C182F0E949F3CCF
:107970001295107F810F1F9108951F93182F882350
:1079800021F00E94763C1150E1F71F9108951F935A
:10799000182F0E94763C803249F0809103018F5F5E
:1079A000809303018530C1F01F9108958091C0003C
:1079B00085FFFCCF84E18093C6008091C00085FFE5
:1079C000FCCF1093C6008091C00085FFFCCF80E102
:1079D0008093C6001F910895E0910401F091050184
:1079E00009951F9108950E94763C803241F0809164
:1079F00003018F5F80930301853081F008958091AA
:107A0000C00085FFFCCF84E18093C6008091C00058
:107A100085FFFCCF80E18093C6000895E0910401CA
:107A2000F09105010995089540E951E08823A1F0FE
:107A30002D9A28EE33E0FA013197F1F721503040CA
:107A4000D1F72D9828EE33E0FA013197F1F7215064
:107A50003040D1F7815061F708953F924F925F9285
