:100000000C9463000C948B000C948B000C948B006C
:100010000C948B000C948B000C948B000C94E403D8
:100020000C948B000C948B000C948B000C94E204C9
:100030000C948B000C948B000C948B000C948B0014
:100040000C9498040C948B000C9466040C9440045B
:100050000C948B000C948B000C948B000C948B00F4
:100060000C948B000C948B000000000024002700EF
:100070002A0000000000250028002B0002000000DC
:100080000800020100000304070000000000000057
:1000900000000000002300260029000404040404DA
:1000A0000404040202020202020303030303030125
:1000B00002040810204080010204081020010204FC
:1000C00008102000E30511241FBECFEFD8E0DEBFEB
:1000D000CDBF11E0A0E0B1E0EEE6FEE102C0059088
:1000E0000D92A632B107D9F722E0A6E2B1E001C035
:1000F0001D92AA38B207E1F710E0C3E6D0E004C0D1
:100100002197FE010E94140FC236D107C9F70E9441
:1001100048060C94350F0C940000AF92BF92CF921A
:10012000DF92EF92FF920F931F93CF93DF936C01B7
:100130007B018B01040F151FEB015E01AE18BF0898
:10014000C017D10759F06991D601ED91FC9101904A
:10015000F081E02DC6010995892B79F7C501DF9162
:10016000CF911F910F91FF90EF90DF90CF90BF90B4
:10017000AF90089542E050E063E271E080EB91E0DF
:100180000C948D00FC01538D448D252F30E0842F7D
:1001900090E0821B930B541710F0CF9608950197AF
:1001A0000895FC01918D828D981761F0A28DAE0F9C
:1001B000BF2FB11D5D968C91928D9F5F9F73928F23
:1001C00090E008958FEF9FEF0895FC01918D828D4F
:1001D000981731F0828DE80FF11D858D90E008951C
:1001E0008FEF9FEF0895FC01918D228D892F90E074
:1001F000805C9F4F821B91098F739927089580EB34
:1002000091E00E94F30021E0892B09F420E0822F85
:10021000089580E090E0892B29F00E94FF00811171
:100220000C9400000895FC01A48DA80FB92FB11DF6
:10023000A35ABF4F2C91848D90E001968F7399271C
:10024000848FA689B7892C93A089B1898C918370FA
:1002500080648C93938D848D981306C00288F389F3
:10026000E02D80818F7D80830895EF92FF920F9320
:100270001F93CF93DF93EC0181E0888F9B8D8C8D52
:1002800098131AC0E889F989808185FF15C09FB746
:10029000F894EE89FF896083E889F9898081837009
:1002A000806480839FBF81E090E0DF91CF911F91B8
:1002B0000F91FF90EF900895F62E0B8D10E00F5FD9
:1002C0001F4F0F731127E02E8C8D8E110CC00FB6AF
:1002D00007FCFACFE889F989808185FFF5CFCE0147
:1002E0000E941301F1CFEB8DEC0FFD2FF11DE35AAE
:1002F000FF4FF0829FB7F8940B8FEA89FB898081CA
:100300008062CFCFCF93DF93EC01888D8823B9F043
:10031000AA89BB89E889F9898C9185FD03C0808110
:1003200086FD0DC00FB607FCF7CF8C9185FFF2CF8D
:10033000808185FFEDCFCE010E941301E9CFDF91CF
:10034000CF910895833081F028F4813099F0823084
:10035000A9F008958730A9F08830C9F08430B1F44D
:10036000809180008F7D03C0809180008F77809383
:100370008000089584B58F7784BD089584B58F7DFE
:10038000FBCF8091B0008F778093B000089580916B
:10039000B0008F7DF9CF1F93CF93DF93282F30E0EC
:1003A000F901E358FF4F8491F901E155FF4FD491D2
:1003B000F901E556FF4FC491CC23A9F0162F811106
:1003C0000E94A201EC2FF0E0EE0FFF1FEE58FF4F4E
:1003D000A591B4918FB7F894EC91111108C0D09504
:1003E000DE23DC938FBFDF91CF911F910895DE2B29
:1003F000F8CF9091000189130BC0ECE7F0E0E49195
:100400009FEF90930001E13049F028F0E23061F075
:1004100060E00C94CB0110926E00FACF90916F00C7
:100420009D7F90936F00F4CF909170009D7F90938B
:10043000700091E09093B0009091B100987F94602B
:100440009093B1001092B300E3CFCF93DF9390E08D
:10045000FC01E155FF4F249185569F4FFC0184918B
:100460008823D1F090E0880F991FFC01E859FF4FD5
:10047000A591B491FC01EE58FF4FC591D491611143
:100480000EC09FB7F8948C91E22FE0958E238C9349
:100490002881E223E8839FBFDF91CF9108958FB732
:1004A000F894EC91E22BEC938FBFF6CF3FB7F89422
:1004B00080912C0190912D01A0912E01B0912F01DE
:1004C00026B5A89B05C02F3F19F00196A11DB11DAF
:1004D0003FBFBA2FA92F982F8827BC01CD01620FEB
:1004E000711D811D911D42E0660F771F881F991FA6
:1004F0004A95D1F708958F929F92AF92BF92CF9273
:10050000DF92EF92FF924B015C010E9456026B0159
:100510007C010E9456026C197D098E099F09683E74
:10052000734081059105A8F321E0821A9108A10882
:10053000B10888EEC80E83E0D81EE11CF11C8114BE
:100540009104A104B10429F7FF90EF90DF90CF90C0
:10055000BF90AF909F908F9008950F931F93CF936C
:10056000DF93EC018B0188859985029749F461300E
:10057000710509F436C04CF560E00115110591F1E3
:1005800088859985049749F40130110509F451C013
:100590009CF50115110509F43BC0888599850597DF
:1005A00009F0C5C00A30110508F0C1C0F801E552D4
:1005B000FD4F0C94140F2D033703450357036F03AE
:1005C0007103770381038F0395036230710591F006
:1005D00060E003301105A1F68C850E94CB0160E03C
:1005E00005C061E08C850E94CB0161E08E850E9490
:1005F000CB01C6CF61E0F0CF0230110501F103302D
:10060000110559F661E08C850E94CB0160E01CC0A9
:1006100061E08C850E94CB0160E08E850E94CB0159
:1006200061E088890E94CB0160E08A890E94CB0149
:10063000B4CF60E08C850E94CB0161E0EECF60E03A
:100640008C850E94CB0161E08E850E94CB0160E029
:1006500088890E94CB0161E0E8CF60E08C850E9430
:10066000CB0161E08E850E94CB0161E009C060E0B2
:100670008C850E94CB0161E08E850E94CB0160E0F9
:1006800088890E94CB0160E00DC060E08C850E94EB
:10069000CB0161E08E850E94CB0160E088890E94D9
:1006A000CB0161E08A890E94CB0161E011C060E06A
:1006B0008C850E94CB0161E08E850E94CB0160E0B9
:1006C00088890E94CB0161E08A890E94CB0160E0A9
:1006D0008C89DF91CF911F910F910C94CB0161E038
:1006E000E7CF61E08C850E94CB0160E0E5CF61E05F
:1006F0008C850E94CB0160E08E850E94CB0161E079
:10070000DFCF61E08C850E94CB0160E08E850E9486
:10071000CB0161E088890E94CB0160E0D5CF61E028
:100720008C850E94CB0160E09DCF60E0F9CFDF9126
:10073000CF911F910F910895FC01EE0FFF1FEC5612
:10074000FE4F20813181232B39F421E030E03183C9
:10075000208361E00C9425020895682F80EB91E0DE
:100760000C9435018FEF0E94AD0385E50E94AD0327
:100770000C94BA000F931F93CF93DF938B01D82F64
:10078000C92F82E00E94AD03C801AD2FBC2F80931A
:10079000260190932701A0932801B09329010E947C
:1007A000AD03812F0E94AD038D2F0E94AD038C2FCE
:1007B000DF91CF911F910F910C94AD038FEF0E94A9
:1007C000AD0385E50C94AD031F920F920FB60F9207
:1007D00011242F933F934F935F936F937F938F9346
:1007E0009F93AF93BF93EF93FF93809135019091C7
:1007F0003601A0913701B0913801892B8A2B8B2BC0
:10080000D1F190913001E0913101F091320180817C
:10081000892780838091350190913601A09137011D
:10082000B0913801181619061A061B069CF480911F
:10083000350190913601A0913701B09138010197AF
:10084000A109B1098093350190933601A093370136
:10085000B0933801FF91EF91BF91AF919F918F912C
:100860007F916F915F914F913F912F910F900FBEAC
:100870000F901F901895809100010E94F901EACF16
:100880001F920F920FB60F9211242F933F934F9305
:100890005F936F937F938F939F93AF93BF93EF93E8
:1008A000FF9380EB91E00E941301FF91EF91BF91C4
:1008B000AF919F918F917F916F915F914F913F91F8
:1008C0002F910F900FBE0F901F9018951F920F92AF
:1008D0000FB60F9211242F938F939F93EF93FF9353
:1008E000E091C001F091C1018081E091C601F091D9
:1008F000C70182FD1BC090818091C9018F5F8F73FA
:100900002091CA01821741F0E091C901F0E0E05561
:10091000FE4F958F8093C901FF91EF919F918F9129
:100920002F910F900FBE0F901F9018958081F4CFDC
:100930001F920F920FB60F9211242F933F938F9314
:100940009F93AF93BF938091510190915201A091D9
:100950005301B091540130912B0123E0230F2D3727
:1009600058F50196A11DB11D20932B0180935101D3
:1009700090935201A0935301B093540180912C01A4
:1009800090912D01A0912E01B0912F010196A11DF2
:10099000B11D80932C0190932D01A0932E01B09353
:1009A0002F01BF91AF919F918F913F912F910F9008
:1009B0000FBE0F901F90189526E8230F0296A11DD9
:1009C000B11DD2CF1F920F920FB60F9211242F9309
:1009D0003F934F935F936F937F938F939F93AF93C7
:1009E000BF93CF93DF93EF93FF9380912A01C09140
:1009F0007102D0E087FF24C010928500109284001D
:100A000080912A018F5F80932A0180912A01082E0C
:100A1000000C990B8C179D0724F480912A018C30CF
:100A2000C4F18091840090918500049680349C49A3
:100A300008F47AC08091840090918500049676C075
:100A400080912A01082E000C990B8C179D07C4F683
:100A5000E0912A018E2FEE0F990BFC01EE0FFF1F84
:100A6000E80FF91FE35BFD4F808186FFC9CFE0915E
:100A70002A018E2FEE0F990BFC01EE0FFF1FE80FDE
:100A8000F91FE35BFD4F808160E08F730E94CB0113
:100A9000B7CF2091840030918500E0912A018E2FFC
:100AA000EE0F990BFC01EE0FFF1FE80FF91FE35B40
:100AB000FD4F81819281820F931F909389008093D3
:100AC0008800E0912A018E2FEE0F990BFC01EE0FAA
:100AD000FF1FE80FF91FE35BFD4F808186FF11C008
:100AE000E0912A018E2FEE0F990BFC01EE0FFF1FF4
:100AF000E80FF91FE35BFD4F808161E08F730E9477
:100B0000CB01FF91EF91DF91CF91BF91AF919F9179
:100B10008F917F916F915F914F913F912F910F90A6
:100B20000FBE0F901F90189580E49CE99093890068
:100B3000809388008FEF80932A01E3CFCF92DF92DA
:100B4000EF92FF920F931F93E82FF92F05C00150EA
:100B500011092109310961F1908196239417B9F3A4
:100B600005C0015011092109310911F19081962325
:100B70009413F7CFC12CD12CE12CF12C0AC08FEFAC
:100B8000C81AD80AE80AF80A0C151D052E053F05F3
:100B900079F080818623841791F36C2D7D2D8E2D25
:100BA0009F2D1F910F91FF90EF90DF90CF900895B0
:100BB00060E070E080E090E01F910F91FF90EF9077
:100BC000DF90CF9008951092B3011092B20188EE99
:100BD00093E0A0E0B0E08093B4019093B501A093BE
:100BE000B601B093B70185E191E09093B101809394
:100BF000B00185EC90E09093BD018093BC0184EC42
:100C000090E09093BF018093BE0180EC90E09093C0
:100C1000C1018093C00181EC90E09093C301809367
:100C2000C20182EC90E09093C5018093C40186ECF0
:100C300090E09093C7018093C6011092C901109271
:100C4000CA011092CB011092CC01E2E7F2E02AE84F
:100C500032E04FEF68EB7BE0809171028C30B0F4B2
:100C600091E0980F90937102808390E0DC01AA0FCD
:100C7000BB1FA80FB91FA35BBD4F12967C936E9349
:100C8000119733962E173F0739F708954083F9CF10
:100C9000CF93DF93CDB7DEB76E970FB6F894DEBF74
:100CA0000FBECDBF789484B5826084BD84B5816069
:100CB00084BD85B5826085BD85B5816085BD809127
:100CC0006E00816080936E0010928100809181009F
:100CD0008260809381008091810081608093810097
:100CE000809180008160809380008091B100846059
:100CF0008093B1008091B00081608093B0008091BA
:100D00007A00846080937A0080917A008260809378
:100D10007A0080917A00816080937A0080917A00D5
:100D2000806880937A001092C100E091C001F09138
:100D3000C10182E08083E091BC01F091BD0110828D
:100D4000E091BE01F091BF0180E180831092C80163
:100D5000E091C401F091C50186E08083E091C20179
:100D6000F091C301808180618083E091C201F091A4
:100D7000C301808188608083E091C201F091C3014A
:100D8000808180688083E091C201F091C3018081FD
:100D90008F7D808310E061E0812F0E94250260E05A
:100DA000812F0E94CB011F5F1E30A9F768EC70E015
:100DB00080E090E00E947B02EAE02E2E312C80EB56
:100DC00091E00E94F3008C01892B09F412C580EB9D
:100DD00091E00E94F300181619068CF780EB91E061
:100DE0000E94D10090918E01853509F067C0911164
:100DF00065C080918D018F3F29F481E080938C0143
:100E000080938E0180918C018F5F843308F06EC0D7
:100E100080938C0180918E01882389F280918B01CF
:100E20008111CDCF80918C01843048F210928E01D7
:100E300080915C0100915D01E02EF12C20915B011D
:100E4000223009F488C0233009F4A7C0213099F575
:100E5000873009F06DC010915E01812F90E03091D4
:100E60009301311148C020939301F0920401E09264
:100E700003019093020180930101F701EE0FFF1F20
:100E8000EC56FE4F21E030E031832083880F991F1C
:100E9000FC01EC56FE4F3183208361E0802F0E94DD
:100EA000250260E0812F0E94250262E370E080E06D
:100EB00090E00E947B0210928C0181CF80938D0183
:100EC000992309F49FCFE0918C01E23039F48093AB
:100ED0008B01F0E0E95AFE4F808394CFE330C8F3F2
:100EE00090918B01915090938B01F3CF10928C01D4
:100EF00010928E018FCF40910301509104012091F7
:100F0000010130910201E416F50619F4281739079A
:100F100091F2440F551FFA01EC56FE4F11821082D8
:100F2000220F331FF901EC56FE4F118210829DCF24
:100F3000C701880F991F1092930110928F01109290
:100F4000900110929101109292018C569E4FFC01DB
:100F500011821082B0CF2091030130910401E2167A
:100F6000F30639F02091010130910201E216F306F7
:100F700051F41092930110928F01109290011092EF
:100F8000910110929201843009F4A0C24CF4813096
:100F900009F403C1833009F409C10E94B2038BCF65
:100FA000883009F453C3893009F45CC38530A9F74C
:100FB000C7010E949C0380915E018093550180913E
:100FC0005F018093560180915501909156019C8F4D
:100FD0008B8F809160018093550180916101809396
:100FE0005601E0915501F0915601FE8FED8F1E16CE
:100FF0001F060CF067C280910001801330C1ECE73E
:10100000F0E0149117FDC9CF61E0802F0E94250206
:101010001123B9F08B8D9C8D2C01712C612C60E01B
:1010200072E18AE790E0A30192010E94330E690108
:101030007A0191E0C91AD108E108F108123009F0EB
:10104000FEC1EB8DFC8D2F01712C612C60E072E1F3
:101050008AE790E0A3019F010E94330E49015A01E3
:101060007A016901F1E0CF1AD108E108F1082FEF08
:10107000C216D104E104F10409F00CF4B3C160E438
:1010800072E48FE090E0A30192010E94330E6901A7
:101090007A0181E0C81AD108E108F108123009F09C
:1010A00058C182E09FEFC916D104E104F10409F0B0
:1010B0000CF46CC060E970ED83E090E0A301920154
:1010C0000E94330E69017A01E1E0CE1AD108E108ED
:1010D000F10883E0FFEFCF16D104E104F10409F039
:1010E0000CF454C068E478EE81E090E0A301920132
:1010F0000E94330E69017A0191E0C91AD108E10812
:10110000F10884E0EFEFCE16D104E104F104F1F12F
:10111000ECF164E274EF80E090E0A30192010E94A0
:10112000330E69017A0191E0C91AD108E108F1088A
:1011300085E0EFEFCE16D104E104F10439F130F18E
:1011400062E17AE780E090E0A30192010E94330E11
:1011500069017A0181E0C81AD108E108F10886E046
:101160009FEFC916D104E104F10481F078F0750114
:1011700064012AE0F594E794D794C7942A95D1F7AF
:1011800021E0C21AD108E108F10887E09091B1008E
:10119000987F892B8093B1002CC1C7010E949C03CA
:1011A00060915E01802F0E94CB01F7CEC7010E94A3
:1011B0009C0310915E01C12ED12C61E0802F0E9412
:1011C0002502111102C060E0EDCFFFEFCF16D10470
:1011D00011F461E0E7CFF701E358FF4FE491E3300A
:1011E00021F148F4E130B9F0E230D1F020E8C21644
:1011F000D1047CF7E8CFE73011F1E83041F1E43079
:10120000A9F780918000806280938000D0928B004B
:10121000C0928A00C2CE84B5806884BD17BDBDCEA1
:1012200084B5806284BD18BDB8CE8091800080688E
:1012300080938000D0928900C0928800AECE8091C9
:10124000B00080688093B0001093B300A6CE809168
:10125000B00080628093B0001093B4009ECE8F3FA8
:1012600009F09BCE00930001ECE7F0E0E4911E2F23
:10127000EF3F09F492CEE13031F150F0E23009F461
:1012800043C0E7FD8ACE61E0802F0E942502C2CED6
:1012900014BC15BC84B5826084BD85B5816085BDF4
:1012A000F701E556FF4FE491F0E0EE0FFF1FEE5817
:1012B000FF4F85919491F701E155FF4FE491E09341
:1012C000340110E0A1CE1092800010928100809134
:1012D000810088608093810080918100816080938B
:1012E0008100F701E556FF4FE491F0E0EE0FFF1F9C
:1012F000EE58FF4F85919491F701E155FF4FE4912E
:10130000E093330111E080CE1092B0001092B10052
:101310008091B00082608093B0008091B1008160C4
:101320008093B100F701E556FF4FE491F0E0EE0F36
:10133000FF1FEE58FF4F8591949190933201809357
:101340003101F701E155FF4FE491E093300112E0E4
:101350005BCE2FEFC216D104E104F10409F00CF4C6
:101360006CC068E478EE81E090E0A30192010E94F5
:10137000330E69017A0181E0C81AD108E108F10849
:1013800084E01111D6CE83E0FFEFCF16D104E10443
:10139000F10459F154F162E17AE780E090E0A301B1
:1013A00092010E94330E69017A01E1E0CE1AD10860
:1013B000E108F10884E0FFEFCF16D104E104F10465
:1013C000A1F098F0750164019AE0F594E794D79440
:1013D000C7949A95D1F781E0C81AD108E108F108BD
:1013E00085E003C081E01111D1CE95B5987F892B9E
:1013F00085BD2B8D3C8D220F331FAD8DBE8D0E9480
:101400001A0F28EE33E040E050E00E945D0E1130EC
:10141000B9F1123009F446C01111BFCDC7BC2093F9
:101420003D0130933E0140933F0150934001809134
:101430006E00826080936E00B0CD82E0D4CF91E0E8
:10144000C114D10421E0E206F10484F068E478EEEE
:1014500081E090E0A30192010E94330E69017A01BC
:1014600081E0C81AD108E108F10893E0113009F0D1
:10147000C0CF80918100887F892B80938100B9CF74
:10148000D0928900C09288002093390130933A01AC
:1014900040933B0150933C0180916F0082608093A8
:1014A0006F007BCDC092B30020933501309336019D
:1014B000409337015093380180917000826080938F
:1014C00070006BCD802F0E94F90167CDC7010E948B
:1014D0009C03B0905E0194EB9B1508F45ECDE1E4B3
:1014E000F1E090E080E021913191E216F30651F0B5
:1014F000232B09F0A3C0FC01EE0FFF1FEF5BFE4F93
:10150000F182E082FC01EE0FFF1FE80FF91FEE5899
:10151000FD4FF08081819281EBE0EF15F0F161E009
:10152000802F0E9425028F2D90E0AC01440F551FA3
:10153000FA01E80FF91FE35BFD4F202F2F730081A5
:10154000007C022B008330E020E0F901EE0FFF1F4A
:10155000E20FF31FE35BFD4F608166FD14C02F5F58
:101560003F4F2C30310589F71092800022E0209304
:1015700081001092850010928400B19A20916F0032
:10158000226020936F00840F951FFC01E35BFD4FE9
:1015900080818064808390E080E0FBE0FF1508F4A8
:1015A000FCCCB8E5CB2EB2E0DB2EC91AD10897FDF2
:1015B000D394CC0CDD1CCC0CDD1C08E810E0081B1F
:1015C000110987FD1395000F111F000F111F28012E
:1015D000012E000C6608770896010D2C000C440BB8
:1015E000550B2419350946095709AB2DB0E00E9467
:1015F000520E24EB30E040E050E00E94330E420EE9
:10160000531E641E751E401651062CF086014C14A4
:101610005D040CF4820102501109000F111F2FB755
:10162000F8948F2D90E0FC01EE0FFF1FE80FF91FDB
:10163000E35BFD4F128301832FBFAFCC019688304F
:10164000910509F050CF90E080E05CCF8FB7F8941F
:101650004091510150915201609153017091540198
:101660008FBF9BCC80915E016091600140916201CF
:101670002091640110916601909168019093550149
:101680009091690190935601E0905501F0905601B8
:10169000F701F85FE130F04108F07FCC1C861B8633
:1016A0001A8219821F8A188E198E1A8EE0E0F8E0CD
:1016B000F887EF83E82FF0E0FE87ED8770E0788B06
:1016C0006F8750E05A8B498B30E03C8B2B8B61E06D
:1016D0000E94250261E08F850E94250261E08989D0
:1016E0000E94250261E08B890E9425021E8A1D8AC4
:1016F00084E090E09A8789872F813885032E000C3B
:10170000440B550B60E077E883E993E00E94330EC9
:10171000CA01B901212F30E050E040E00E94330EB1
:101720002B833C834D835E838701F7FE04C0002733
:1017300011270E191F091E141F040CF048C081E068
:1017400090E09A83898364E0E62EF12C011511055F
:1017500009F423CC0E9456028F88988CA98CBA8CED
:101760002B013C01481859086A087B088B809C8033
:10177000AD80BE80481459046A047B0438F36F8B33
:10178000788F898F9A8F8B859C8529813A8121302A
:10179000310519F501969C878B872F813885821733
:1017A000930711F41C861B86015011098B859C85BB
:1017B00029853A85B1012530310509F0B7010E942C
:1017C000000FBC01CE0101960E94AD02BFCFEF28F1
:1017D00009F4B9CF1A821982B6CF892B21F48F81EF
:1017E00098859C878B878B859C8501979C878B87A9
:1017F000DBCF6FE070E080E090E00E947B0254E974
:10180000E52E51E0F52EF701C190D1907F01C11472
:10181000D10409F03AC0902E60E0802F0E9425028A
:101820000E94DE03F801E358FF4F8491F801E1556F
:10183000FF4FA490F801E556FF4FB490BB2099F0FC
:1018400081110E94A201EB2DF0E0EE0FFF1FEF5679
:10185000FF4FA591B491EC91AE2291E080E009F4A4
:1018600090E0C92ED82EB601DD0C880B990B0E9492
:10187000160D0E94BA03892D0E94AD0381E00E94DB
:10188000AD030E94BA000E94B2030F5F1F4F0E30DB
:10189000110509F0B8CF05E011E0F12CF8018191B4
:1018A00091918F01892B39F50E94DE038F2D806481
:1018B00080937C0080917A00806480937A0080918C
:1018C0007A0086FDFCCF8091780060917900762FB8
:1018D000682F072E000C880B990B0E94160D0E9492
:1018E000BA038F2D0E94AD0382E00E94AD030E94D7
:1018F000BA000E94B203F394F6E0FF12CFCF8091BA
:101900009301882309F46FC01091030160E0812FD7
:101910000E94CB0183E090E00197F1F761E0812F15
:101920000E94CB0183E290E00197F1F760E0812F04
:101930000E94CB0180910101909102019927FC0145
:10194000E155FF4F6491FC01E556FF4FE491F0E053
:10195000EE0FFF1FEF56FF4F8591949100E315E7BF
:1019600020E030E0462F0E949E056115710581053B
:10197000910529F06F5F7F4F8F4F9F4F9F700E949F
:10198000140D20E030E048EE51E40E948E0E20E07D
:1019900030E040E05FE30E94750D6B017C0120E0C8
:1019A00030E0A9010E940F0D811130C0C0908F015D
:1019B000D0909001E0909101F09092010E94DE039E
:1019C000C701B6010E94BA03809103010E94AD03D2
:1019D000809101010E94AD0387E00E94AD030E9447
:1019E000BA000E94B2036AE070E080E090E00E94DA
:1019F0007B0280E090E0892B09F4DEC90E94FF00A1
:101A0000882309F4D9C90E940000D6C9C0928F0169
:101A1000D0929001E0929101F0929201CFCF0E947A
:101A2000510D08F481E00895E89409C097FB3EF455
:101A300090958095709561957F4F8F4F9F4F99231B
:101A4000A9F0F92F96E9BB279395F6958795779599
:101A50006795B795F111F8CFFAF4BB0F11F460FF59
:101A60001BC06F5F7F4F8F4F9F4F16C0882311F0B1
:101A700096E911C0772321F09EE8872F762F05C0C5
:101A8000662371F096E8862F70E060E02AF09A9560
:101A9000660F771F881FDAF7880F9695879597F955
:101AA0000895990F0008550FAA0BE0E8FEEF1616EF
:101AB0001706E807F907C0F012161306E407F50742
:101AC00098F0621B730B840B950B39F40A2661F0B6
:101AD000232B242B252B21F408950A2609F4A14059
:101AE000A6958FEF811D811D08950E94880D0C948D
:101AF000F90D0E94EB0D38F00E94F20D20F09523B5
:101B000011F00C94E20D0C94E80D11240C942D0EA0
:101B10000E940A0E70F3959FC1F3950F50E0551F78
:101B2000629FF001729FBB27F00DB11D639FAA2732
:101B3000F00DB11DAA1F649F6627B00DA11D661F81
:101B4000829F2227B00DA11D621F739FB00DA11DA2
:101B5000621F839FA00D611D221F749F3327A00D5C
:101B6000611D231F849F600D211D822F762F6A2FF8
:101B700011249F5750409AF0F1F088234AF0EE0F5D
:101B8000FF1FBB1F661F771F881F91505040A9F78A
:101B90009E3F510580F00C94E20D0C942D0E5F3F9A
:101BA000E4F3983ED4F3869577956795B795F795C6
:101BB000E7959F5FC1F7FE2B880F911D969587953E
:101BC00097F9089597F99F6780E870E060E00895BD
:101BD0009FEF80EC089500240A9416161706180645
:101BE0000906089500240A94121613061406050621
:101BF0000895092E0394000C11F4882352F0BB0FB2
:101C000040F4BF2B11F460FF04C06F5F7F4F8F4F14
:101C10009F4F089557FD9058440F551F59F05F3F4F
:101C200071F04795880F97FB991F61F09F3F79F0FE
:101C300087950895121613061406551FF2CF469580
:101C4000F1DF08C0161617061806991FF1CF869502
:101C50007105610508940895E894BB2766277727E6
:101C6000CB0197F90895052E97FB1EF400940E946E
:101C70004A0E57FD07D00E945D0E07FC03D04EF4BC
:101C80000C944A0E50954095309521953F4F4F4FFB
:101C90005F4F089590958095709561957F4F8F4F18
:101CA0009F4F08950E947F0EA59F900DB49F900DA9
:101CB000A49F800D911D11240895A1E21A2EAA1B44
:101CC000BB1BFD010DC0AA1FBB1FEE1FFF1FA217EC
:101CD000B307E407F50720F0A21BB30BE40BF50BE9
:101CE000661F771F881F991F1A9469F76095709572
:101CF000809590959B01AC01BD01CF010895A29FF5
:101D0000B001B39FC001A39F700D811D1124911DCF
:101D1000B29F700D811D1124911D08950E94A20E85
:101D20000C94F90D0E94F20D58F00E94EB0D40F05A
:101D300029F45F3F29F00C94E20D51110C942D0E03
:101D40000C94E80D0E940A0E68F39923B1F3552311
:101D500091F3951B550BBB27AA27621773078407BE
:101D600038F09F5F5F4F220F331F441FAA1FA9F354
:101D700035D00E2E3AF0E0E832D091505040E69542
:101D8000001CCAF72BD0FE2F29D0660F771F881FA3
:101D9000BB1F261737074807AB07B0E809F0BB0B96
:101DA000802DBF01FF2793585F4F3AF09E3F5105AA
:101DB00078F00C94E20D0C942D0E5F3FE4F3983E06
:101DC000D4F3869577956795B795F7959F5FC9F793
:101DD000880F911D9695879597F90895E1E0660F14
:101DE000771F881FBB1F621773078407BA0720F08D
:101DF000621B730B840BBA0BEE1F88F7E0950895F6
:101E000097FB072E16F4009407D077FD09D00E94A7
:101E1000210F07FC05D03EF4909581959F4F0895C2
:101E2000709561957F4F0895EE0FFF1F0590F49117
:101E3000E02D09940E947F0EB7FF0895821B930B3B
:101E40000895AA1BBB1B51E107C0AA1FBB1FA61701
:101E5000B70710F0A61BB70B881F991F5A95A9F753
:0E1E600080959095BC01CD010895F894FFCFB8
:101E6E00FF0C000D0000000000000000000000004C
:101E7E00000000000035018D00C2008201F300D188
:061E8E0000E5000D0A0052
:00000001FF
