:020000040000FA
:100000000C9431020C9459020C9459020C9459022C
:100010000C9459020C9459020C9459020C94330D0F
:100020000C940C100C9459020C9459020C94310E3F
:100030000C9459020C9459020C9459020C945902D4
:100040000C94E70D0C9459020C94B50D0C948F0D83
:100050000C9459020C9459020C9459020C945902B4
:100060000C94ED0E0C945902084AD73B3BCE016E1E
:1000700084BCBFFDC12F3D6C74319ABD56833DDAFF
:100080003D00C77F11BED9E4BB4C3E916BAAAABE0E
:10009000000000803F0000000000240027002A002C
:1000A00000000000250028002B00022A2A2A2A2A04
:1000B0002A2A2A2A2A2A2A2A2A2A2A2A2A2A2A2AA0
:1000C0002A2A2A2A2A2A2A2A2A2A2A2A2A2A2A2A90
:1000D0002A2A2A2A2A2A2A2A2A2A2A2A2A2A2A2A80
:1000E0002A2A2A2A2A2A2A2A2A2A2A2A2A2A2A2A70
:1000F0002A2A2A2A2A2A2A2A2A2A2A2A2A2A2A2A60
:100100002A2A2A2A2A2A2A2A2A2A2A2A2A00546811
:10011000616E6B73004F72206A75737420646F7721
:100120006E677261646520796F7572206C696272A6
:1001300061727920746F2076657273696F6E2032F8
:100140002E362E302E002068747470733A2F2F676D
:1001500069746875622E636F6D2F41726475696E84
:100160006F2D495272656D6F74652F4172647569A8
:100170006E6F2D495272656D6F74653F7461623D9B
:10018000726561646D652D6F762D66696C6523659A
:1001900078616D706C65732D666F722D746869730C
:1001A0002D6C6962726172790054686520657861AE
:1001B0006D706C65732061726520646F63756D6529
:1001C0006E74656420686572653A00537461727478
:1001D0002077697468207468652053696D706C6558
:1001E0005265636569766572206F722053696D7020
:1001F0006C6553656E646572206578616D706C65C1
:100200002E0020617661696C61626C6520617420EA
:100210002246696C65203E204578616D706C65737F
:10022000203E204578616D706C65732066726F6D3D
:1002300020437573746F6D204C69627261726965D9
:1002400073202F20495272656D6F7465222E005005
:100250006C6561736520757365206F6E65206F66D0
:1002600020746865206E657720636F64652065780B
:10027000616D706C65732066726F6D2074686520A7
:100280006C6962726172792C002068747470733AC0
:100290002F2F6769746875622E636F6D2F417264CA
:1002A00075696E6F2D495272656D6F74652F41725D
:1002B0006475696E6F2D495272656D6F74653F7418
:1002C00061623D726561646D652D6F762D66696C46
:1002D0006523636F6E76657274696E672D796F75CD
:1002E000722D32782D70726F6772616D2D746F2D63
:1002F0007468652D34782D76657273696F6E00555C
:1003000070677261646520696E7374727563746975
:100310006F6E732063616E20626520666F756E6418
:1003200020686572653A0054686973207665727357
:10033000696F6E206973206E6F206C6F6E676572D7
:1003400020737570706F7274656421004974207336
:1003500065656D732C207468617420796F752061F8
:100360007265207573696E6720616E206F6C642002
:1003700076657273696F6E20322E3020636F64650C
:10038000202F206578616D706C652E005468616E59
:100390006B20796F7520666F72207573696E6720A8
:1003A00074686520495272656D6F7465206C69626E
:1003B0007261727921002A2A2A2A2A2A2A2A2A2ABA
:1003C0002A2A2A2A2A2A2A2A2A2A2A2A2A2A2A2A8D
:1003D0002A2A2A2A2A2A2A2A2A2A2A2A2A2A2A2A7D
:1003E0002A2A2A2A2A2A2A2A2A2A2A2A2A2A2A2A6D
:1003F0002A2A2A2A2A2A2A2A2A2A2A2A2A2A2A2A5D
:100400002A2A2A2A2A2A2A2A2A2A2A2A2A2A2A2A4C
:100410002A2A2A2A2A2A2A2A000000000800020181
:1004200000000304070000000000000000000000BE
:100430000023002600290004040404040404040228
:100440000202020202030303030303010204081071
:10045000204080010204081020010204081020003E
:10046000031111241FBECFEFD8E0DEBFCDBF11E0D6
:10047000A0E0B1E0E6EBF6E502C005900D92A23BEC
:10048000B107D9F725E0A2EBB1E001C01D92A93177
:10049000B207E1F712E0C1E3D2E004C02197FE0108
:1004A0000E944429C033D107C9F70E9488110C94D7
:1004B000592B0C94000091E090931803809317033C
:1004C00010921603109215030895089508959091BF
:1004D000C8028091C7022FEF3FEF981748F4E92F29
:1004E000F0E0ED55FD4F208130E09F5F9093C80212
:1004F000C90108959091C8028091C7022FEF3FEF84
:10050000981748F4E92FF0E0ED55FD4F208130E0D9
:100510009F5F9093C802C90108958091C70290918E
:10052000C802891B990B0895AF92BF92CF92DF92B8
:10053000EF92FF920F931F93CF93DF936C017B0198
:100540008B01040F151FEB015E01AE18BF08C01729
:10055000D10759F06991D601ED91FC910190F0819C
:10056000E02DC6010995892B79F7C501DF91CF915F
:100570001F910F91FF90EF90DF90CF90BF90AF90C1
:10058000089542E050E06EEA71E089E193E00C9456
:100590009402FC01538D448D252F30E0842F90E090
:1005A000821B930B541710F0CF960895019708956E
:1005B000FC01918D828D981761F0A28DAE0FBF2F37
:1005C000B11D5D968C91928D9F5F9F73928F90E08D
:1005D00008958FEF9FEF0895FC01918D828D9817FC
:1005E00031F0828DE80FF11D858D90E008958FEF39
:1005F0009FEF0895FC01918D228D892F90E0805C02
:100600009F4F821B91098F739927089589E193E089
:100610000E94FA0221E0892B09F420E0822F08953C
:1006200080E090E0892B29F00E94060381110C9450
:1006300000000895FC01A48DA80FB92FB11DA35A85
:10064000BF4F2C91848D90E001968F739927848FF2
:10065000A689B7892C93A089B1898C918370806415
:100660008C93938D848D981306C00288F389E02DB6
:1006700080818F7D80830895EF92FF920F931F9367
:10068000CF93DF93EC0181E0888F9B8D8C8D981345
:100690001AC0E889F989808185FF15C09FB7F89451
:1006A000EE89FF896083E889F9898081837080649D
:1006B00080839FBF81E090E0DF91CF911F910F91E8
:1006C000FF90EF900895F62E0B8D10E00F5F1F4FF7
:1006D0000F731127E02E8C8D8E110CC00FB607FC06
:1006E000FACFE889F989808185FFF5CFCE010E9494
:1006F0001A03F1CFEB8DEC0FFD2FF11DE35AFF4FE5
:10070000F0829FB7F8940B8FEA89FB898081806221
:10071000CFCF0F931F93CF93DF938C01D0E0C0E036
:10072000F801EC0FFD1F6491662341F089E193E02D
:100730000E943C03892B11F02196F2CF0E94C10246
:100740008C0F9D1FDF91CF911F910F910895CF9333
:10075000DF93EC01888D8823B9F0AA89BB89E889E9
:10076000F9898C9185FD03C0808186FD0DC00FB68F
:1007700007FCF7CF8C9185FFF2CF808185FFEDCF0D
:10078000CE010E941A03E9CFDF91CF910895833003
:1007900081F028F4813099F08230A9F008958730F3
:1007A000A9F08830C9F08430B1F4809180008F7D49
:1007B00003C0809180008F7780938000089584B576
:1007C0008F7784BD089584B58F7DFBCF8091B00075
:1007D0008F778093B00008958091B0008F7DF9CF1E
:1007E0001F93CF93DF93282F30E0F901E75EFB4F93
:1007F0008491F901E55BFB4FD491F901E95CFB4F72
:10080000C491CC23A9F0162F81110E94C703EC2FAD
:10081000F0E0EE0FFF1FE056FF4FA591B4918FB7A8
:10082000F894EC91111108C0D095DE23DC938FBFB2
:10083000DF91CF911F910895DE2BF8CF90910001A9
:1008400089130BC0EAEAF0E0E4919FEF9093000176
:10085000E13049F028F0E23061F060E00C94F00300
:1008600010926E00FACF90916F009D7F90936F0071
:10087000F4CF909170009D7F9093700091E09093E1
:10088000B0009091B100987F94609093B100109265
:10089000B300E3CFCF93DF9390E0FC01E55BFB4F28
:1008A0002491895C9B4FFC0184918823C9F090E0DE
:1008B000880F991FFC01EA56FF4FA591B491FC01E6
:1008C000E056FF4FC591D49161110DC09FB7F894C8
:1008D0008C91209582238C938881282328839FBF25
:1008E000DF91CF910895623051F49FB7F8943C9115
:1008F000822F809583238C93E8812E2BEFCF8FB7A7
:10090000F894EC912E2B2C938FBFEACF1F93CF93AB
:10091000DF93182FEB0161E00E944A04209739F41D
:1009200060E0812FDF91CF911F910C94F003CF3FB6
:10093000D10511F461E0F5CFE12FF0E0E75EFB4F68
:10094000E491E33031F140F4E130B1F0E230E1F034
:10095000C038D1057CF7E4CFE73029F1E83059F110
:10096000E430B1F780918000806280938000D09362
:100970008B00C0938A0004C084B5806884BDC7BD65
:10098000DF91CF911F91089584B5806284BDC8BD69
:10099000F7CF80918000806880938000D093890099
:1009A000C0938800EDCF8091B00080688093B00044
:1009B000C093B300E5CF8091B00080628093B00017
:1009C000C093B400DDCF8E3008F08E508770806405
:1009D00080937C0080917A00806480937A0080917B
:1009E0007A0086FDFCCF809178009091790008957F
:1009F0003FB7F8948091000290910102A091020209
:100A0000B091030226B5A89B05C02F3F19F00196AF
:100A1000A11DB11D3FBFBA2FA92F982F8827BC0158
:100A2000CD01620F711D811D911D42E0660F771F80
:100A3000881F991F4A95D1F708958F929F92AF9280
:100A4000BF92CF92DF92EF92FF926B017C010E94E6
:100A5000F8044B015C01C114D104E104F104B9F0C4
:100A60000E94F804681979098A099B09683E734055
:100A70008105910580F321E0C21AD108E108F1084F
:100A800088EE880E83E0981EA11CB11CE4CFFF9075
:100A9000EF90DF90CF90BF90AF909F908F90089590
:100AA0002FB7F8946091FC017091FD018091FE01D7
:100AB0009091FF012FBF08950F931F93CF93DF9362
:100AC000EC018B0188859985029749F461307105A5
:100AD00009F436C04CF560E00115110591F18885E7
:100AE0009985049749F40130110509F451C09CF52A
:100AF0000115110509F43BC088859985059709F012
:100B0000C5C00A30110508F0C1C0F801E657FA4F18
:100B10000C944429DC05E605F40506061E062006AD
:100B2000260630063E0644066230710591F060E00C
:100B300003301105A1F68C850E94F00360E005C02A
:100B400061E08C850E94F00361E08E850E94F003D5
:100B5000C6CF61E0F0CF0230110501F1033011057D
:100B600059F661E08C850E94F00360E01CC061E0F2
:100B70008C850E94F00360E08E850E94F00361E0A6
:100B800088890E94F00360E08A890E94F003B4CF54
:100B900060E08C850E94F00361E0EECF60E08C8520
:100BA0000E94F00361E08E850E94F00360E0888976
:100BB0000E94F00361E0E8CF60E08C850E94F003C2
:100BC00061E08E850E94F00361E009C060E08C85E1
:100BD0000E94F00361E08E850E94F00360E0888946
:100BE0000E94F00360E00DC060E08C850E94F0037D
:100BF00061E08E850E94F00360E088890E94F00326
:100C000061E08A890E94F00361E011C060E08C8598
:100C10000E94F00361E08E850E94F00360E0888905
:100C20000E94F00361E08A890E94F00360E08C89F1
:100C3000DF91CF911F910F910C94F00361E0E7CF0A
:100C400061E08C850E94F00360E0E5CF61E08C8577
:100C50000E94F00360E08E850E94F00361E0DFCF28
:100C600061E08C850E94F00360E08E850E94F003B5
:100C700061E088890E94F00360E0D5CF61E08C8557
:100C80000E94F00360E09DCF60E0F9CFDF91CF914B
:100C90001F910F9108952091D701260F3327331FFD
:100CA00021323105ECF42091EF02FC0190E080E06C
:100CB000243069F082E00895A091D7012191AC0120
:100CC00049545E4FA40FB52FB11D2C930196861782
:100CD00098F38091D701680F6093D70180E0089561
:100CE00081E008951092EF0281E08093EE0210926D
:100CF000C90261E082E10E94F00361E083E10E94A9
:100D0000F003E9EBF0E080818E7F808380818D7F2E
:100D1000808388E48093B80085E48093BC000895C4
:100D20001092C8021092C702109216031092150377
:100D30000E94720685E692E09093C6028093C502F7
:100D400086E692E09093C4028093C3020895CF9305
:100D5000DF9391E09093B6018823B9F0C091B80079
:100D6000D091BA008091BC008A7B8093BC0060E087
:100D700082E10E94F00360E083E10E94F0030E94A0
:100D80007206D093BA00C093B800DF91CF91089556
:100D90008F929F92AF92BF92CF92DF92EF92FF928B
:100DA0000F931F93CF93DF93D0911503D13208F0A7
:100DB000D7C0182FC09117030E94F8046B017C0163
:100DC0008091EF0281116BC082E08093EF0210935B
:100DD000EE028FEF8093ED021092EC02D093EB02C3
:100DE000A5EFB2E0EBECF2E080E0D81391C01092F6
:100DF000CA028091CA02CC0FC82BC093CA0280914C
:100E0000C902813009F088C01092C9020E94F8041A
:100E10006B017C018091CA028093BB008091F1023A
:100E20009091F202A091F302B091F402892B8A2BE7
:100E30008B2BA1F00E94F8040091F1021091F202B4
:100E40002091F3023091F4026C197D098E099F09FB
:100E5000061717072807390708F442C08091BC001D
:100E600083FDD8CF85EC8093BC000E94F8046B0111
:100E70007C018091EF02823009F450C08091ED0234
:100E80008F3F09F46FC08091ED02803209F46CC08D
:100E90008091ED02803309F469C084E026C080911E
:100EA000F1029091F202A091F302B091F402892B29
:100EB0008A2B8B2B09F484CF0E94F8048090F102D6
:100EC0009090F202A090F302B090F4026C197D09A8
:100ED0008E099F0986169706A806B90608F070CFF6
:100EE0008091F0020E94A70685E0109216031092EE
:100EF000150310921803DF91CF911F910F91FF906E
:100F0000EF90DF90CF90BF90AF909F908F9008951B
:100F10009D9191938F5F69CF85EEA5CF8091F1026E
:100F20009091F202A091F302B091F402892B8A2BE6
:100F30008B2B09F49ECF0E94F8040091F1021091CE
:100F4000F2022091F3023091F4026C197D098E09AE
:100F50009F09061717072807390708F08ACFC0CF5F
:100F600081E0C3CF80E0C1CF82E0BFCF83E0BDCFBF
:100F70000895E091C8028091C702E81730F4F0E0CC
:100F8000ED55FD4F808190E008958FEF9FEF08951C
:100F9000CF92DF92EF92FF920F931F93CF93DF9345
:100FA0007C01CB018A0120911803222389F0EB01F7
:100FB0006B01C40ED51ECC15DD0569F06991D70112
:100FC000ED91FC910190F081E02DC7010995F3CFDF
:100FD000642F0E944B06C801DF91CF911F910F91A2
:100FE000FF90EF90DF90CF900895CF93DF931F9203
:100FF000CDB7DEB76983209118032223F9F0209141
:101000001503203258F021E030E0FC0133832283C5
:1010100090E080E00F90DF91CF91089580911603CA
:10102000E82FF0E0EB50FD4F998190838F5F809324
:1010300016038093150381E090E0ECCF61E0CE01D0
:1010400001960E944B06F7CF682F86EB93E00C9435
:10105000F507CF93DF93F0E0E0E0EB01C40FD51F7D
:101060009881992311F0903320F48E2FDF91CF9146
:10107000089586EC890F8730C0F385EA890F8630A2
:10108000A0F385E8890F853080F321E030E097FFF9
:1010900021C0923CE0F022E095FF06C023E094FFDF
:1010A00003C024E093FD25E0DE01119630E0CD0180
:1010B0008C1B9D0B821793076CF48D9190E06894C4
:1010C00015F8959587951694E1F7029781F34F5F90
:1010D0005F4FC3CF3196420F531FBFCF0F931F9364
:1010E000CF938C01C62FFC0184810E945B02F80122
:1010F00083858C2B90E00E94240881E0CF911F9182
:101100000F910C94C806CF92DF92EF92FF92CF938B
:10111000DF93DC011796CC911797D0E06111DC2F9B
:1011200018962C91189730E0220F331F235D3B4F08
:1011300050E040E0F90185919491FC01F080BA0102
:1011400090E080E0EF2DEC23ED1310C04F5F5F4F78
:101150001D96CD90DD90ED90FC9050976C157D051F
:101160008E059F0538F36FEF7FEFCB01DF91CF91B5
:10117000FF90EF90DF90CF9008958F929F92AF9263
:10118000BF92CF92DF92EF92FF920F931F93CF9374
:10119000DF93CDB7DEB7C054D1400FB6F894DEBFB1
:1011A0000FBECDBF8C010E945005F801C184D284CE
:1011B000E384F4849B01AC012C193D094E095F09BD
:1011C00069017A0130EDC31637E0D306E104F1047A
:1011D000A8F48189C05CDE4F0FB6F894DEBF0FBE65
:1011E000CDBFDF91CF911F910F91FF90EF90DF90D6
:1011F000CF90BF90AF909F908F9008956187728736
:10120000838794871482138212821182108262E093
:1012100085810E944A0461E070E080E090E00E94D5
:101220001D0561E0F80185810E944A0460E0F80133
:1012300085810E94F003F80186818551823028F56E
:101240008BE291E10197F1F762E0F80185810E945C
:101250004A04F801828990E08230910538F0880FC5
:10126000991F880F991F05970197F1F7F89460E08F
:10127000C8010E9483086F3F7F4F8F4F9F4F61F4DB
:10128000F801118A789480E0A5CF64E170E080E0F5
:1012900090E00E941D05D8CF61E0C8010E9483083C
:1012A0006F3F7F4F8F4F9F4F59F39E012F5F3F4FEF
:1012B00079015E013FEBA31A3EEFB30A670160E0DC
:1012C000C8010E948308F60160837183828393833F
:1012D00061E0C8010E948308F601648375838683F8
:1012E0009783F8E0CF0ED11CCA14DB0441F7789441
:1012F00030E020E0F70180809180A280B3804481BB
:10130000558166817781FFEF8F169F06AF06BF0676
:1013100031F04F3F8FEF58076807780719F4F8014D
:10132000118AB1CFF90183E0F595E7958A95E1F748
:10133000E00FF11F8081880F84169506A606B70678
:10134000F0F080832F5F3F4FF8E0EF0EF11C283262
:10135000310581F6F801448120818181280F3327EE
:10136000331F8281280F311D8381820F932F911D9E
:1013700099274817190699F681E0818B2BCF816058
:10138000E0CFFC01EE0FFF1FED57FD4F20813181B3
:101390002130310511F41182108261E00C944A046D
:1013A000682F89E193E00C943C03CF92DF92EF9297
:1013B000FF92CF936B017C0183E00E94D009C701AB
:1013C000B6010E94F327862FC72F609326027093E1
:1013D00027020E94D0098C2FCF91FF90EF90DF90D1
:1013E000CF900C94D0090F931F93CF93DF938B0171
:1013F000D82FC92F82E00E94D009C801AD2FBC2F81
:101400008093B2019093B301A093B401B093B5015E
:101410000E94D009812F0E94D0098D2F0E94D009EF
:101420008C2FDF91CF911F910F910C94D0090C94C8
:10143000C1028FEF0E94D00985E50C94D009CF93AB
:10144000DF93FC012185DC01AA5FBE4F8C9140E057
:10145000281758F5422F4170348531111DC0DF0126
:10146000A20FB11D53968C9192E3899FD001112454
:10147000CCEEDFEF442311F0C4E1D0E06585768542
:10148000CB01969587958A0F9B1F8C0F9D1F0E94FD
:101490001C2977277387628782859385009769F077
:1014A0003F5F3817190628F43487842FDF91CF91D6
:1014B000089514862F5F2187F8CF42E0F6CF42E3EC
:1014C000489F9001499F300D11242C5E3F4F769527
:1014D000679576956795CB01880F991F860F971FA3
:1014E0008217930750F485E0869FA001879F500DD7
:1014F000112481E04217530708F480E0089542E385
:10150000489F9001499F300D11242451310976954F
:10151000679576956795CB01880F991F860F971F62
:101520008217930750F485E0869FA001879F500D96
:10153000112481E04217530708F480E008958F9248
:101540009F92AF92BF92CF92DF92EF92FF921F9342
:10155000CF93DF93EC01162F5A014C0186E1880EE0
:10156000911CC12CD12C7601F4018081B50190E051
:101570000E947F0AF2E08F0E911CCC0CDD1CEE1C49
:10158000FF1C882311F06894C0F8115069F7CD5101
:10159000DF4FC882D982EA82FB82DF91CF911F910F
:1015A000FF90EF90DF90CF90BF90AF909F908F9083
:1015B0000895089590E080E008950F931F93CF93CE
:1015C0008C01C62F0E946E086C2F6460C8010E94B7
:1015D0006E086C2F6B7FC8010E946E0883EC90E050
:1015E0000197F1F7CF911F910F9108950F931F93DA
:1015F000CF93DF938C01D62FC42F607F642B0E9482
:10160000DD0A80E1D89FB00111246C2BC801DF9165
:10161000CF911F910F910C94DD0ACF93DF93CDB73B
:10162000DEB728970FB6F894DEBF0FBECDBF28E017
:10163000E2E7F1E0DE01119601900D922A95E1F7C3
:10164000FC012085241710F44FEF420F50E0440FA7
:10165000551F21E030E02C0F3D1F420F531FFA01B0
:101660002081620F606840E028960FB6F894DEBFD4
:101670000FBECDBFDF91CF910C94F60A41E00E94DE
:10168000F60A81E090E008950F931F93CF93DF93C4
:10169000EC0188819981009759F02A813B812617B6
:1016A000370730F081E0DF91CF911F910F910895BE
:1016B0008B016F5F7F4F0E94762A009759F09983C4
:1016C00088831B830A832C813D81232B59F7FC01DE
:1016D0001082E8CF80E0E7CF85ED8093BC00809159
:1016E000F1029091F202A091F302B091F4020796F8
:1016F000A11DB11D23E0B695A795979587952A95CD
:10170000D1F72091BC0024FD03C01092EF02089590
:101710004091F1025091F2026091F3027091F40253
:10172000452B462B472B69F30097A105B10541F0E6
:1017300025E32A95F1F700000197A109B109E1CF4E
:101740008091F0020C94A706CF93DF93EC01898976
:101750009A89009749F0FC01108E48E050E06FEF45
:1017600070E007960E943C2B188E198E8D858D8B0C
:1017700040E061E0CE010E94F60A8BE39FE1019711
:10178000F1F7DF91CF9108956F927F928F929F92A0
:10179000AF92BF92CF92DF92EF92FF920F931F937F
:1017A000CF93DF93EC01742E022F2A8130E050E0BA
:1017B00040E090E080E0821793070CF0AEC0EB8130
:1017C000FC81E40FF51F495F5F4FA081B1816A176B
:1017D0007B0769F4682E188DDE01179680E01817D4
:1017E00041F09D91691609F474C08F5FF8CF01969E
:1017F000E2CF183008F07CC081E0810F888F6E0145
:101800008FE0C80ED11CBF016E5F7F4F88E0D6010C
:101810001D928A95E9F75601F60130E020E090E844
:10182000F92EDB0143E050E08D918F2190E0022EF4
:1018300002C0880F991F0A94E2F7042E02C0959502
:1018400087950A94E2F79081892B80834F5F5F4FE1
:101850004830510549F7F6942F5F3F4F31962830B5
:101860003105F9F68D809E80E12EF12CB70183E0E1
:10187000660F771F8A95E1F7606440E0C4010E941B
:10188000F60AB8E0CB0ED11CF50161915F01D401DD
:10189000ED91FC910190F081E02DC4010995CA14ED
:1018A000DB0491F7FE01EE0DFF1D6782ED81FE81E5
:1018B0006789061720F0802F0E941029092F708E4B
:1018C000018F8585858B402F672DCF010E940D0BE1
:1018D000812FDF91CF911F910F91FF90EF90DF90BB
:1018E000CF90BF90AF909F908F907F906F90089512
:1018F000E881F9810190F081E02DCE01DF91CF9157
:101900001F910F91FF90EF90DF90CF90BF90AF901D
:101910009F908F907F906F9009948FEFDACF0F9305
:101920001F93CF93DF938C01EB016E377105E0F0CD
:10193000DC0154968C9154978617170630F0539615
:101940008C9186171706A9F0A0F0F8018189928979
:101950000097A9F0218D408DBE010E94C40B8F3FDE
:1019600071F0C82FD0E005C06032710510F4CAE2F2
:10197000D0E0CE01DF91CF911F910F910895D80152
:101980001E962C9130E090E080E0821793077CF760
:10199000AC01440F551F480F591FD8011F96ED91F8
:1019A000FC91E40FF51F40815181C417D50721F444
:1019B000C281CF3FB9F6DBCF0196E7CF0F931F93DC
:1019C000CF93DF938C01EB016E377105E0F0DC0102
:1019D00054968C9154978617170630F053968C9135
:1019E00086171706A9F0A0F0F8018189928900975F
:1019F000A9F0218D408DBE010E94C40B8F3F71F074
:101A0000C82FD0E005C06032710510F4CAE2D0E002
:101A1000CE01DF91CF911F910F910895CE01815A90
:101A200091098F359105A0F3D8011E962C9130E0D5
:101A300090E080E0821793074CF7AC01440F551FEC
:101A4000480F591FD8011F96ED91FC91E40FF51F27
:101A500040815181C417D50721F4C281CF3F89F657
:101A6000D5CF0196E7CF1F920F920FB60F92112498
:101A70002F933F934F935F936F937F938F939F9396
:101A8000AF93BF93EF93FF938091090290910A0265
:101A9000A0910B02B0910C02892B8A2B8B2BD1F1D8
:101AA00090910402E0910502F0910602808189275D
:101AB00080838091090290910A02A0910B02B0915B
:101AC0000C02181619061A061B069CF480910902CE
:101AD00090910A02A0910B02B0910C020197A1090A
:101AE000B1098093090290930A02A0930B02B0936C
:101AF0000C02FF91EF91BF91AF919F918F917F91D8
:101B00006F915F914F913F912F910F900FBE0F906A
:101B10001F901895809100010E941E04EACF1F9229
:101B20000F920FB60F9211242F933F934F935F9311
:101B30006F937F938F939F93AF93BF93EF93FF9395
:101B400089E193E00E941A03FF91EF91BF91AF9159
:101B50009F918F917F916F915F914F913F912F91C5
:101B60000F900FBE0F901F9018951F920F920FB6F7
:101B70000F9211242F938F939F93EF93FF93E091F4
:101B80002903F0912A038081E0912F03F091300323
:101B900082FD1BC09081809132038F5F8F732091F3
:101BA0003303821741F0E0913203F0E0E75EFC4F2F
:101BB000958F80933203FF91EF919F918F912F9199
:101BC0000F900FBE0F901F9018958081F4CF1F9239
:101BD0000F920FB60F9211242F933F938F939F93E1
:101BE000AF93BF938091FC019091FD01A091FE0104
:101BF000B091FF013091FB0123E0230F2D3758F501
:101C00000196A11DB11D2093FB018093FC019093CF
:101C1000FD01A093FE01B093FF018091000290911D
:101C20000102A0910202B09103020196A11DB11D13
:101C30008093000290930102A0930202B0930302EA
:101C4000BF91AF919F918F913F912F910F900FBEB8
:101C50000F901F90189526E8230F0296A11DB11D25
:101C6000D2CF1F920F920FB60F9211242F933F9352
:101C70004F935F936F937F938F939F93AF93BF9394
:101C8000CF93DF93EF93FF938091FA01C091E60326
:101C9000D0E087FF24C010928500109284008091CC
:101CA000FA018F5F8093FA018091FA01082E000CEF
:101CB000990B8C179D0724F48091FA018C30C4F1A4
:101CC0008091840090918500049680349C4908F4AA
:101CD0007AC08091840090918500049676C08091AE
:101CE000FA01082E000C990B8C179D07C4F6E091A1
:101CF000FA018E2FEE0F990BFC01EE0FFF1FE80F7C
:101D0000F91FEE53FC4F808186FFC9CFE091FA01A5
:101D10008E2FEE0F990BFC01EE0FFF1FE80FF91F3E
:101D2000EE53FC4F808160E08F730E94F003B7CFC9
:101D30002091840030918500E091FA018E2FEE0F02
:101D4000990BFC01EE0FFF1FE80FF91FEE53FC4F3C
:101D500081819281820F931F9093890080938800E4
:101D6000E091FA018E2FEE0F990BFC01EE0FFF1F91
:101D7000E80FF91FEE53FC4F808186FF11C0E09100
:101D8000FA018E2FEE0F990BFC01EE0FFF1FE80FEB
:101D9000F91FEE53FC4F808161E08F730E94F003C6
:101DA000FF91EF91DF91CF91BF91AF919F918F9173
:101DB0007F916F915F914F913F912F910F900FBE47
:101DC0000F901F90189580E49CE990938900809370
:101DD00088008FEF8093FA01E3CF1F920F920FB626
:101DE0000F9211242F933F934F935F936F937F93A1
:101DF0008F939F93AF93BF93EF93FF938091B9001D
:101E0000887F803609F44AC0F0F5883209F4A7C00B
:101E100018F5803109F49BC0B8F4882309F4F9C09F
:101E2000883009F494C0FF91EF91BF91AF919F91D9
:101E30008F917F916F915F914F913F912F910F9073
:101E40000FBE0F901F901895883109F488C080321A
:101E500051F78093ED0214C0803409F49DC040F422
:101E60008033B9F38833F9F68093ED0285ECB0C086
:101E7000803509F485C0883509F496C0883499F610
:101E80000E946C0BD0CF883909F48CC038F58837A4
:101E900029F050F4883611F0803729F683E08093DA
:101EA000EF021092F90157C0883809F47BC08039DD
:101EB00019F0803809F0B7CF8091F901803208F02D
:101EC00071C0E091F90181E08E0F8093F90180915A
:101ED000BB00F0E0E752FE4F80833DC0803B39F00D
:101EE000E0F4803A09F479C0883A09F09CCF84E0A4
:101EF0008093EF021092D8011092D701E091C502B1
:101F0000F091C60209958091D70181110FC081E03F
:101F10008093D7011092B70109C0803C09F4A6CF85
:101F2000883C09F4A3CF883B09F07DCFE091D8012C
:101F300081E08E0F8093D801F0E0E954FE4F80815C
:101F40008093BB009091D8018091D70129C08091E6
:101F5000CA028093BB0085EC8093BC0064CF909153
:101F6000EC028091EB02981758F5E091EC0281E0C9
:101F70008E0F8093EC02F0E0E553FD4F8081E9CFB6
:101F8000E091EC0281E08E0F8093EC028091BB0027
:101F9000F0E0E553FD4F80839091EC028091EB02DD
:101FA0009817C8F285E8D8CFE091EC0281E08E0F57
:101FB0008093EC028091BB00F0E0E553FD4F8083FD
:101FC0008091EE0281115CCF81E08093C90284EAA6
:101FD0008093BC001092EF0226CF85EC8093BC006A
:101FE0001092EF028091F901803230F4E091F90112
:101FF000F0E0E752FE4F10826091F90170E0E0914D
:10200000C302F091C40289ED91E009951092F901A3
:102010000ACF1092ED0234CF1F920F920FB60F929B
:1020200011242F933F934F935F936F937F938F93DD
:102030009F93AF93BF93CF93EF93FF93E0910104EE
:10204000F0910204C08180910304C82380910404AC
:102050009091050420910404309105042F3F3F4FD7
:1020600029F0019690930504809304042091FF03C6
:10207000211115C0C1114BC0813A910558F0109241
:102080000E04909311048093100481E080930F0458
:102090008093FF03109205041092040438C021308D
:1020A00099F4CC23A1F1E0910F042E0F20930F049B
:1020B000F0E0E150FC4F8F3F910519F010F08FEFE9
:1020C00090E0838B82E0E4CF223009F04AC0E091B7
:1020D0000F04813A910510F4E73CB8F1E83C18F0A0
:1020E00081E080930E0480911004909111049093EC
:1020F000070580930605E093050583E08093FF03C1
:10210000E0910604F0910704309709F00995809159
:102110001405882341F080911305C11127C061E0A7
:102120008F3F49F52D9AFF91EF91CF91BF91AF91DC
:102130009F918F917F916F915F914F913F912F91DF
:102140000F900FBE0F901F901895C111E0CF91E036
:102150009E0F90930F04F0E0E150FC4F838B81E0E1
:1021600097CF2330A1F6C111D2CF94CF60E08F3F3B
:1021700011F42D98D8CF0E94F003D5CFCF92DF92E3
:10218000EF92FF920F931F93E82FF92F05C0015094
:1021900011092109310961F1908196239417B9F34E
:1021A00005C0015011092109310911F190819623CF
:1021B0009413F7CFC12CD12CE12CF12C0AC08FEF56
:1021C000C81AD80AE80AF80A0C151D052E053F059D
:1021D00079F080818623841791F36C2D7D2D8E2DCF
:1021E0009F2D1F910F91FF90EF90DF90CF9008955A
:1021F00060E070E080E090E01F910F91FF90EF9021
:10220000DF90CF90089510921C0310921B0388EE6C
:1022100093E0A0E0B0E080931D0390931E03A09391
:102220001F03B09320032EE831E030931A0320936C
:10223000190325EC30E0309326032093250324EC8A
:1022400030E0309328032093270320EC30E03093D4
:102250002A032093290321EC30E030932C032093B0
:102260002B0322EC30E030932E0320932D0326EC39
:1022700030E03093300320932F03109232031092FA
:10228000330310923403109235031092B903109265
:10229000B8038093BA039093BB03A093BC03B0939D
:1022A000BD0380EA91E09093B7038093B6038FEF6C
:1022B000809313051092000481E08093030489E267
:1022C00090E090930204809301045098E7EEF3E0CD
:1022D0002FEF48EB5BE08091E6038C30B8F491E09F
:1022E000980F9093E603808390E0DC01AA0FBB1F58
:1022F000A80FB91FAE53BC4F12965C934E93119723
:10230000339683E0EF3FF80731F708952083F8CF45
:10231000CF93DF93CDB7DEB7E9970FB6F894DEBF62
:102320000FBECDBF789484B5826084BD84B58160D2
:1023300084BD85B5826085BD85B5816085BD809190
:102340006E00816080936E00109281008091810008
:102350008260809381008091810081608093810000
:10236000809180008160809380008091B1008460C2
:102370008093B1008091B00081608093B000809123
:102380007A00846080937A0080917A0082608093E2
:102390007A0080917A00816080937A0080917A003F
:1023A000806880937A001092C1000E949006E091AC
:1023B0002903F0912A0382E08083E0912503F091C4
:1023C00026031082E0912703F091280380E18083A7
:1023D00010923103E0912D03F0912E0386E080836B
:1023E000E0912B03F0912C03808180618083E09148
:1023F0002B03F0912C03808188608083E0912B0374
:10240000F0912C03808180688083E0912B03F09110
:102410002C0380818F7D808389E193E00E94A70354
:1024200068EC70E080E090E00E941D0561E08DE0C6
:102430000E944A0460E08DE00E94F00381E090E099
:1024400090939402809393020E94900688E60E94E3
:102450005B028BE690E00E94240890E080E00E94FE
:10246000240881E00E94C806811111C088E60E94FC
:102470005B028AE190E00E94240883E090E00E94E1
:10248000240881E00E94C80681E080937F029E01BB
:102490002F5F3F4F190189E193E00E94FA029AA34E
:1024A00089A3892B11F40C943A1B89E193E00E94D3
:1024B000FA02181619067CF789E193E00E94D80207
:1024C00090916102853509F0B7C09111B5C0809136
:1024D00060028F3F29F481E080935F028093610264
:1024E00080915F028F5F843308F0BEC080935F02EB
:1024F00080916102882379F280915E028111CBCFB5
:1025000080915F02843038F210926102E0912F02D4
:1025100000913002E02EF12C20912E02223009F49D
:1025200065C1233009F4A5C0213009F0B3C0E730FC
:1025300009F0AAC0F0926701E092660110913102A1
:10254000C12ED12CD0926501C0926401F701EE0F2B
:10255000FF1FED57FD4F11821082F601EE0FFF1F96
:10256000ED57FD4F11821082EC14FD0421F461E05F
:10257000802F0E944A0460E0802F0E94F00383E0D5
:1025800090E00197F1F761E0802F0E94F00383E271
:1025900090E00197F1F760E0802F0E94F003EC14C7
:1025A000FD0421F460E0812F0E944A04F601E55BFE
:1025B000FB4F6491F601E95CFB4FE491F0E0EE0F14
:1025C000FF1FE35DFB4F8591949100E315E720E049
:1025D00030E0462F0E94BE106B017C01C114D10473
:1025E000E104F10439F03FEFC31AD30AE30AF30A16
:1025F0004FE0F4220E94190AC701B6010E94E124AB
:1026000020E030E048EE51E40E94812720E030E0F5
:1026100040E05FE30E9442250E94F3098091660139
:102620000E94D009809164010E94D00987E00E9435
:10263000D0090E94170A2EC080936002992309F4E2
:102640004FCFE0915F02E23039F480935E02F0E018
:10265000E65DFD4F808344CFE330C8F390915E0286
:10266000915090935E02F3CF10925F02109261023C
:102670003FCFE3E8F2E022E0EF39F20711F40C94E7
:102680001F1B11921192F7CFF0E0EB30F10529F406
:102690002093820210925F02FECEEC30F10519F415
:1026A00020938102F7CFEE30F10521F481E0809391
:1026B0008002F0CFE231F10541F580917F02811176
:1026C000E9CF0E94900688E60E945B028BE690E0CC
:1026D0000E94240890E080E00E94240881E00E948B
:1026E000C8068111D7CF88E60E945B028AE190E09C
:1026F0000E94240883E090E00E94240881E00E9468
:10270000C80681E080937F02C5CFE130F105F9F47E
:1027100080916A0190916B01E816F90671F41092AC
:10272000820210928102F701EE0FFF1FED57FD4F5D
:1027300081E090E091838083ADCF8091680190919A
:102740006901E816F90679F710928002ECCFE230C1
:10275000F10591F40E94190A802F0E94E304BC0144
:10276000990F880B990B0E94E3240E94F309802F94
:102770000E94D00982E05BCF749709F08BCF0E9452
:1027800050054B015C01C12C34E0D32EF12CE12C1F
:102790000E945005681979098A099B0962337105FD
:1027A0008105910588F4802F0E94E304811554E08F
:1027B000950774F7E816F90628F08C159D0540F783
:1027C0006C01E6CF7C01E4CF0E94190AB7016C19B5
:1027D0007D09072E000C880B990B0E94E3240E94B0
:1027E000D509802F0E94D00984E121CFE150E33147
:1027F00008F050CF0E2E000CFF0BEF5FFB4E0C9439
:10280000442914144A131D14401627144A134A135A
:1028100000170317CA174A134A1320184A136E18D1
:102820005F19161B4A132E19C7010E94C109609136
:102830003102802F0E94F0032DCFC7010E94C109F1
:102840006091310270E0802F0E94860423CFC7017F
:102850000E94C10980913102809326028091320248
:102860008093270260912602709127027AA369A3C0
:102870008091330280932602809134028093270254
:1028800080912602909127029CA38BA3181619060B
:102890000CF0F2C18091000108138CC0EAEAF0E06C
:1028A000149117FDF7CE61E0802F0E944A04112396
:1028B000B9F0A9A1BAA12D01712C612C60E072E1DF
:1028C0008AE790E0A3019D010E94322669017A0106
:1028D000B1E0CB1AD108E108F108123009F089C142
:1028E000E9A1FAA12F01712C612C60E072E18AE765
:1028F00090E0A3019F010E94322649015A017A010A
:102900006901F1E0CF1AD108E108F1082FEFC216F2
:10291000D104E104F10409F00CF43EC160E472E476
:102920008FE090E0A30192010E94322669017A01B2
:1029300061E0C61AD108E108F108123009F0B1C00F
:1029400082E07FEFC716D104E104F10409F00CF432
:10295000F5C060E970ED83E090E0A30192010E9470
:10296000322669017A0181E0C81AD108E108F1082C
:1029700083E09FEFC916D104E104F10409F00CF4DF
:10298000DDC068E478EE81E090E0A30192010E944E
:10299000322669017A0161E0C61AD108E108F1081E
:1029A0007FEFC716D104E104F10411F00CF0CDC0A3
:1029B00084E0C4C08F3F09F06DCE00930001EAEAC5
:1029C000F0E014911F3F09F465CE113031F150F061
:1029D000123009F442C017FD5DCE61E0802F0E94E5
:1029E0004A0467CF14BC15BC84B5826084BD85B52C
:1029F000816085BDF701E95CFB4FE491F0E0EE0FEB
:102A0000FF1FE056FF4F85919491F701E55BFB4F67
:102A1000E491E093080210E046CF109280001092FB
:102A20008100809181008860809381008091810085
:102A3000816080938100F701E95CFB4FE491F0E055
:102A4000EE0FFF1FE056FF4F85919491F701E55B74
:102A5000FB4FE491E093070226CF1092B000109252
:102A6000B1008091B00082608093B0008091B1008D
:102A700081608093B100F701E95CFB4FE491F0E0E5
:102A8000EE0FFF1FE056FF4F859194919093060241
:102A900080930502F701E55BFB4FE491E0930402AC
:102AA00002CFAFEFCA16D104E104F10409F00CF42F
:102AB0009EC068E478EE81E090E0A30192010E945C
:102AC000322669017A01B1E0CB1AD108E108F10898
:102AD000112311F40C94D0249FEFC916D104E10402
:102AE000F10409F00CF464CF62E17AE780E090E051
:102AF000A30192010E94322669017A0161E0C61A9F
:102B0000D108E108F108112311F40C94B52486E0F2
:102B10003FEFC316D104E104F10481F078F07501B0
:102B200064019AE0F594E794D794C7949A95D1F705
:102B300021E0C21AD108E108F10887E09091B100C4
:102B4000987F892B8093B1002EC064E274EF80E0FF
:102B500090E0A30192010E94322669017A01E1E02E
:102B6000CE1AD108E108F10885E0FFEFCF16D104B5
:102B7000E104F10419F310F362E17AE780E090E0F8
:102B8000A30192010E94322669017A01A1E0CA1ACA
:102B9000D108E108F108BBCF81E01111CFCF95B585
:102BA000987F892B85BD29A13AA1220F331FABA1A4
:102BB000BCA10E944A2928EE33E040E050E00E9488
:102BC00010261130B9F1123009F446C0111162CD4E
:102BD000C7BC20931102309312024093130250930A
:102BE000140280916E00826080936E0053CD82E06B
:102BF000D4CF91E0C114D10471E0E706F10484F070
:102C000068E478EE81E090E0A30192010E94322610
:102C100069017A0181E0C81AD108E108F10893E05E
:102C2000113009F0C0CF80918100887F892B80937B
:102C30008100B9CFD0928900C092880020930D0204
:102C400030930E0240930F025093100280916F0058
:102C5000826080936F001ECDC092B3002093090262
:102C600030930A0240930B0250930C028091700043
:102C70008260809370000ECD802F0E941E040ACDCA
:102C8000C7010E94C109B090310294EB9B1508F472
:102C900001CDE5E1F2E090E080E021913191E21692
:102CA000F30651F0232B09F0A3C0FC01EE0FFF1F28
:102CB000EB5EFD4FF182E082FC01EE0FFF1FE80F9B
:102CC000F91FE951FC4FF08081819281ABE0AF1593
:102CD000F0F161E0802F0E944A048F2D90E0AC015A
:102CE000440F551FFA01E80FF91FEE53FC4F202F38
:102CF0002F730081007C022B008330E020E0F9017B
:102D0000EE0FFF1FE20FF31FEE53FC4F608166FDD5
:102D100014C02F5F3F4F2C30310589F7109280008F
:102D200022E0209381001092850010928400B19AD5
:102D300020916F00226020936F00840F951FFC018B
:102D4000EE53FC4F80818064808397EE8BE0B8E582
:102D5000CB2EB2E0DB2EC91AD10897FDD394CC0C50
:102D6000DD1CCC0CDD1C08E810E0081B110987FDF8
:102D70001395000F111F000F111F2801012E000CC9
:102D80006608770896010D2C000C440B550B24198E
:102D9000350946095709AB2DB0E00E94512624EBB6
:102DA00030E040E050E00E943226420E531E641E86
:102DB000751EBBE0BF1508F46DCC401651062CF013
:102DC00086014C145D040CF4820102501109000FBD
:102DD000111F2FB7F8948F2D90E0FC01EE0FFF1F0D
:102DE000E80FF91FEE53FC4F128301832FBF52CC23
:102DF00001968830910509F050CF90E080E05CCFDB
:102E00000E94500547CC809131026091330240917D
:102E10003502209137021091390290913B02909334
:102E2000260290913C0290932702E0902602F090B7
:102E30002702F701F85FE130F04108F02BCC1C8647
:102E40001B861A8219821F8A188E198E1A8EE0E04C
:102E5000F8E0F887EF83E82FF0E0FE87ED8770E079
:102E6000788B6F8750E05A8B498B30E03C8B2B8BF3
:102E700061E00E944A0461E08F850E944A0461E09B
:102E800089890E944A0461E08B890E944A041E8A53
:102E90001D8A84E090E09A8789872F813885032EE8
:102EA000000C440B550B60E077E883E993E00E9447
:102EB0003226CA01B901212F30E050E040E00E94E3
:102EC00032262B833C834D835E838701F7FE04C04B
:102ED000002711270E191F091E141F040CF048C0EB
:102EE00081E090E09A83898364E0E62EF12C01155D
:102EF000110509F4CFCB0E94F8048F88988CA98C17
:102F0000BA8C2B013C01481859086A087B088B8051
:102F10009C80AD80BE80481459046A047B0438F359
:102F20006F8B788F898F9A8F8B859C8529813A81C9
:102F30002130310519F501969C878B872F813885C3
:102F40008217930711F41C861B86015011098B858B
:102F50009C8529853A856AE070E02530310509F0C5
:102F6000B7010E943029BC01C1010E945C05BFCF9E
:102F7000EF2809F4B9CF1A821982B6CF892B21F430
:102F80008F8198859C878B878B859C8501979C87F3
:102F90008B87DBCF80917D0290917E02009751F06C
:102FA00020916A0130916B01E216F30609F43CC0EE
:102FB0000E94ED2983E190E00E9451296C01DC011F
:102FC00015960C9315978BE016968C931697F70130
:102FD000E55BFB4FE4911796EC931797F701E95CDB
:102FE000FB4FE4911896EC93189720E83EE340E0FD
:102FF00050E01D962D933D934D935C935097D09246
:103000007E02C0927D0262E0802F0E944A040E94EC
:103010005005605D774081099109F60161877287EB
:103020008387948787E3828BF0926B01E0926A0139
:10303000F701EE0FFF1FED57FD4F118210822ACBD3
:1030400080917B0290917C02009751F02091680161
:1030500030916901E216F30609F43BC00E94ED29A4
:1030600084E191E00E9451296C01DC0111960C93DE
:103070001197F701E55BFB4FE4911496EC93F70190
:10308000E95CFB4FE491F0E0EE0FFF1FE35DFB4FC7
:1030900085919491F6019383828360E0802F0E9452
:1030A0004A04D0927C02C0927B0282E08093B000FE
:1030B0008093B10084E68093B3008093B4001092B3
:1030C000B200D6018C91833009F41C9284E0809385
:1030D0007000F0926901E0926801AACF8091280205
:1030E00090912902009711F00E94ED2911E0812FA3
:1030F0000E945B0281E00E94C806811101C01DABE5
:103100001F5F1F37A1F78BE190E00E9451298C01CE
:10311000FC01138212822DA9248390E1918782E021
:1031200082871386128A118A138A148A158A968BCB
:10313000878B108E118EFF24F394F28E8EE791E030
:103140009183808381E2868781E091E0908B8787FD
:103150008AE0848786E085871093290200932802FD
:1031600080912502811104C00E949006F0922502F0
:10317000D80115961C9215971A968C911A97823041
:1031800018F098E015969C93F801808762E370E050
:1031900080E090E00E941D05D8011B966C91C8014B
:1031A0000E946E0868EE73E080E090E00E941D05CA
:1031B00060E3C8010E94DD0A2BE4E22E26E4F22E31
:1031C000C7010197F1F760E3C8010E94DD0AC7015A
:1031D0000197F1F760E3C8010E94DD0A83E592E000
:1031E0000197F1F760E2C8010E94DD0AF8016581EC
:1031F000606240E0C8010E94F60A84E0D801169699
:103200008C9340E06CE0C8010E94F60A40E061E067
:10321000C8010E94F60A3BE3E32E3FE1F32EC7010B
:103220000197F1F782E0F801878340E066E0C8018A
:103230000E94F60A40E062E0C8010E94F60AC70157
:103240000197F1F788E0D8011B968C9360E0C801E4
:103250000E946E08C8010E94A40B1CCA8091310212
:10326000809326028091320280932702E09026020A
:10327000F09027026701DD24EE24B1E0FB2201304B
:10328000A1F419E005E061E0802F0E944A0461E0AA
:10329000812F0E944A04EF2859F4B601802F0E9422
:1032A000860470E060E0812FCFCA1AE006E0EBCF21
:1032B00070E060E0802F0E948604B601F4CF909009
:1032C000310280903202E090330200912802109186
:1032D00029020115110509F4DDC9EE2009F4BACF60
:1032E0001C8E1B8E1E8E1D8E18A21F8E70E060E03D
:1032F000CE014B960E94440B2B8D3C8D811137C023
:103300002115310519F0C9010E94ED291C8E1B8E73
:1033100018A21F8E1E8E1D8E94E3A92E92E0B92E48
:10332000F12CEAE0EE0EF11CC5018A5292408E1596
:103330009F052CF5D5018D915D0189831A82CF8C73
:10334000D8A0BFEFCB1ADB0AB601CE014B960E9484
:10335000440B882349F32B8D3C8D8F8D98A1B101AF
:10336000820F931F0E94432BD8A2CF8EDDCF18A2CD
:103370001F8E60EB71E0C9010E94432BCDCFF80195
:103380006789961620F0892D0E941029992ED80160
:1033900058968C92589759969C9259971D968C9155
:1033A0001D9755968C93492D682DC8010E940D0BD1
:1033B0008DB69EB6EF8CF8A0C7010196EDB7FEB7AB
:1033C000E81BF90B0FB6F894FEBF0FBEEDBF2DB78B
:1033D0003EB72F5F3F4F5901892B29F0E114F104CB
:1033E00039F5D9011C92712C612CF501E60DF71D00
:1033F0008081882309F40BC1E82EF12CDD24D394BD
:1034000087FF46C0DD24D394F12CE12C823C08F4E4
:103410003FC03196DE011396DD24D394880F87FFD9
:1034200012C0D39421912F7730E02D933D93F6CFA6
:103430006B8D7C8DA701C9010E944A2BF501EE0D11
:10344000FF1D1082D0CFE82EF12CED2DF0E00D2CD9
:1034500002C0F594E7940A94E2F7FA82E982EE0F4B
:10346000FF1FE20DF31D30E020E0F12CE12C9291E2
:103470008291022E02C0880F991F0A94E2F791836D
:103480008083E80EF91E2A5F3F4F2E163F0679F71C
:10349000F801828D882309F448C09589808D98179A
:1034A00008F043C00190F081E02D0284F385E02D07
:1034B0009701A301B501C8010995D80156962C9131
:1034C000882339F0281748F58FEF820FD8015596D9
:1034D0008C93F8018589821740F1218D3789822FDD
:1034E00090E00196632F70E00E943029892BD1F083
:1034F000108E81E0820F632F0E941029918F8585A5
:10350000858B492F60E0C8010E940D0BF0E2EF1699
:10351000F10459F46D0C711C68CFF801908D915035
:10352000890FD4CFC8010E94A40BD80158969C9152
:10353000589756968C915697981760F7ED91FC9195
:103540000084F185E02DB701C80109957C01D801FF
:10355000ED91FC910190F081E02D682FC801BFEF43
:10356000EB16F10409F0D8F50995D80158968C911D
:1035700058978F5F58968C93589756969C9156976C
:103580008913C8CFF501E60DF71DED0DF11D808102
:10359000882309F4BFCF5A968C915A97882309F44F
:1035A000B9CF59962C91599757963C91822F90E01C
:1035B0000196632F70E00E943029892BF9F0F80101
:1035C000108E81E0820F632F0E941029918F8585D4
:1035D000858B492F60E0C8010E940D0B9BCF099598
:1035E000D801ED91FC910190F081E02D6F2DC80183
:1035F0000995F801808D8F5F808FB7CF60E070E014
:10360000CB010E941D05C8010E94A40B83CF0FB6F9
:10361000F8949EBE0FBE8DBE8B8D9C8D009711F4CD
:103620000C944A130E94ED290C944A1380912802AD
:1036300090912902009709F00ECE0C944A1381E074
:1036400090E09093940280939302109282021092E1
:1036500081021092800280937F020E94190A60E02A
:1036600070E0CB010E94D50980E00E94D0098FEF65
:103670000C9417130E94500500919F021091A00214
:103680002091A1023091A202601B710B820B930B5F
:10369000643171058105910508F481C10E945005CE
:1036A00060939F027093A0028093A1029093A20264
:1036B000B3E8EB2EB2E0FB2E10E000E0D7018D91D5
:1036C0009D917D01019709F03AC0B02E60E0802FF6
:1036D0000E944A040E94190AF801E75EFB4F849198
:1036E000F801E55BFB4FC490F801E95CFB4FD49017
:1036F00070E060E0DD2099F081110E94C703ED2D9C
:10370000F0E0EE0FFF1FE35DFB4FA591B491EC914C
:10371000CE2291E080E009F490E0692F782F072E07
:10372000000C880B990B0E94E3240E94F3098B2D57
:103730000E94D00981E00E94D0090E94170A0F5F01
:103740001F4F0E30110509F0B9CF809182028823F6
:1037500009F470C000917D0210917E0201151105DF
:1037600009F4A8C0C8010E94BD08882341F0F801EF
:1037700086818C3009F47FC038F48B30F1F060E042
:1037800070E080EC9FE740C085518230C0F7D801DF
:10379000F2806F2D70E0762F662766277F7713966D
:1037A0008C91682B90E080E00E94E1242DEC3CECB1
:1037B0004CEC5DE30E94422579C0628170E090E0AC
:1037C00080E00E94E1246B017C01F801138117FF66
:1037D0000AC0AC019B0160E070E080E89FEB0E94B2
:1037E000A2266B017C011F70612F70E090E080E0E9
:1037F0000E94E3242DEC3CEC4CEC5DE30E9442255E
:10380000A70196010E94A3260E94F3278B010E9424
:10381000190AB801110F880B990B0E94E3240E942A
:10382000D50980916A010E94D0098BE00E94D009DD
:103830000E94170A80918102882309F46FC00091C9
:103840007D0210917E020115110509F4C8C0C8015E
:103850000E94BD08882351F0F80186818B3030F03A
:103860008D3058F18551823008F4A9C060E070E0D5
:1038700080EC9FE73DC0F2806F2D70E090E080E02B
:103880000E94E1244B015C01F80163816F7070E0DC
:1038900090E080E00E94E3242DEC3CEC4CEC5DE3F6
:1038A0000E944225A50194010E94A326F7FEACCFF9
:1038B0009058AACF10E000E0AACF618170E090E0BC
:1038C00080E00E94E3242DEC3CEC4CEC5DE30E9494
:1038D00042256B017C01F801608170E090E080E09E
:1038E0000E94E3249B01AC01C701B6010E94A326FC
:1038F0000E94F3278B010E94190AB801110F880B4F
:10390000990B0E94E3240E94D50980916A010E94CC
:10391000D0098CE00E94D0090E94170A30908002E2
:10392000332009F100917B0210917C0201151105F1
:1039300009F058C0EFEFFFEFFAA3E9A30E94190ABC
:1039400029A13AA1B901330F880B990B0E94E324F6
:103950000E94D509809168010E94D0098EE00E94E2
:10396000D0090E94170A80917F028823C1F088E65F
:103970000E945B0281E00E94C806182F88E611238E
:1039800009F49DC50E945B028BE690E00E9424082A
:1039900090E080E00E94240881E00E94C80680E058
:1039A00090E0892B11F40C9447120E94060388239F
:1039B00011F40C9447120E9400000C94471260818D
:1039C000718176276727762790E080E00E94E124C6
:1039D0002DEC3CEC4CEC5DE30E94422589CF10E0DD
:1039E00000E089CF80916A02811147C086EB93E0A5
:1039F0000E9489038CE893E00E9489038CE493E0A1
:103A00000E94890387E293E00E9489030E94C10219
:103A10008FEF92E00E94890389E892E00E94890377
:103A20000E94C1028FE492E00E94890382E092E04A
:103A30000E9489038BEC91E00E94890389EA91E05E
:103A40000E94890386E491E00E9489030E94C102DA
:103A500085E191E00E9489030E94C1028EE091E01D
:103A60000E9489038BEA90E00E9489030E94C102B0
:103A70000E94C10281E080936A02D8018C91833058
:103A800009F058CFE0907702F090780251968D912E
:103A90009C915297F70181939193549668012BED75
:103AA000C20ED11C8D9190E081939193CA16DB06D2
:103AB000C9F7D80150969C905097909279021F9622
:103AC0008C911F97882329F01F961C921F97509660
:103AD0001C92F801878580937A0210926F021092EF
:103AE000700210927102109272025801FBEFAF1A2D
:103AF000FEEFBF0A80E8D5018C9360E073E2F70126
:103B0000828193810E947F0A882309F46AC0F4E0CD
:103B10009F122BC060EC78E0D70114968D919C9198
:103B20000E945F0A882309F45CC060E372E0F70139
:103B3000868197810E947F0A882309F452C01092DF
:103B400073028FEF9FEFDC0180936F0290937002FE
:103B5000A0937102B093720281E8D5018C9388E042
:103B600090E0F6019183808360C0F4E49F1239C035
:103B700060E871E1D70114968D919C910E945F0AD3
:103B8000882379F120E936E040E352E060E2C801A1
:103B90000E949F0AE0917702F0917802EA57FF4F66
:103BA00060E372E0808191810E947F0A8823C9F0DE
:103BB000F801ED51FF4F80819181A281B381809303
:103BC0006F0290937002A0937102B093720280E230
:103BD0008093730288E090E090936C0280936B0274
:103BE000C0CF80907902F9E1F81508F09AC0E09012
:103BF0007702F0907802D7018D919C910A97D0F5C9
:103C0000109273028FEF9FEFDC0180936F0290930D
:103C10007002A0937102B093720281E0F50180837B
:103C200088E190E0D6018D939C9380916F029091F2
:103C30007002A0917102B09172028D3BF2E49F0775
:103C4000FFEFAF07B10509F42FC408F0EBC3873EBF
:103C500038E193073FEFA307B10509F40DC408F05D
:103C6000CEC38F3E9041AF4FB10509F40AC4AAE01C
:103C7000B0E009C460E679E0F701828193810E9497
:103C80007F0A882309F44DC063E0C62ED12C212C75
:103C9000412C512C3201912CC814D90470F568E5DF
:103CA00072E0D70114968D919C910E945F0A88233F
:103CB000C1F1F701A680B78060EB74E0C5010E94F6
:103CC0007F0A882371F0440C551C661C771C68948D
:103CD00040F82394F2E0CF0ED11C24E0E20EF11C58
:103CE000DBCF68E572E0C5010E947F0A8823C9F036
:103CF000440C551C661C771CECCF2092730240923A
:103D00006F0250927002609271027092720288E1AA
:103D100090E090936C0280936B02F801E552FF4FA4
:103D200021CF81E0D80119968C93199789E793E008
:103D30001E969C938E931D971C961C921C975496CE
:103D40008C918D3208F0DBC0C8010E941F0A8130BF
:103D500009F0D5C0C12C812C912C5401D12C7801B3
:103D6000BAEFEB1ABEEFFB0AF8019185D7018C91EF
:103D70009817B0F5C8010E941F0A782EC8010E944A
:103D80001F0A71100AC0813091F4880C991CAA1C7A
:103D9000BB1C689480F8D394E7CFB1E07B1207C0D6
:103DA000811105C0880C991CAA1CBB1CF4CFE7E04C
:103DB000DE12A5C0D80119968C91F801E80FF11D0B
:103DC0009389963340F3F80194859E5F948722850A
:103DD00033859217130610F08F5F8187C32CDBCFDA
:103DE000ED51FF4F80829182A282B382940196E0CE
:103DF000369527959A95E1F7B0968D2D90E0CC20D9
:103E000009F457C0019791838083B297C4018F73DF
:103E10009927918380832F733327329731832083AF
:103E2000D801A352BF4FB501A4018CE076956795E8
:103E3000579547958A95D1F74F7155274D935C93C8
:103E4000A2FC04C0205C3F4F31832083F801EB5F6C
:103E5000FE4F80E98083A1FE02C088E980838EE165
:103E600090E0F801E552FF4F91838083F801E95F0C
:103E7000FE4F808191818A3D984030F4F801EB5FDC
:103E8000FE4F808181608083F801ED5FFE4F80816D
:103E90008093730280926F0290927002A0927102DE
:103EA000B092720281E190E090936C0280936B0279
:103EB000BCCE91838083882D8F7390E0F801E1520E
:103EC000FF4F91838083D801A352BF4F2F713327B7
:103ED0002D933C93940122273071232B21F4805C95
:103EE0009F4F91838083F801EB5FFE4F80E88083D2
:103EF00093FE02C088E8808381E190E0B2CFD801D0
:103F000054968C9168E67AE090E00E947F0A8823BC
:103F100009F4BFC0F801858968E773E090E00E946A
:103F20005F0A882309F4B5C083E0D80119968C9301
:103F300019978CEB91E01E969C938E931D971C967F
:103F40001C92C8010E941F0A813009F0A2C0C8015A
:103F50000E941F0A81119DC0C12CD12C7601B12C69
:103F60004801BAEF8B1ABEEF9B0AF8019185D40184
:103F70008C91981760F5C8010E941F0AA82EC801ED
:103F80000E941F0AB3E0BB120BC0A81282C0C80176
:103F90000E941F0A782EC8010E941F0A781279C059
:103FA000E1E0AE120AC0811174C0CC0CDD1CEE1C25
:103FB000FF1C6894C0F8B394D8CFA1106AC08130B8
:103FC00009F067C0CC0CDD1CEE1CFF1CF4CFED5FCC
:103FD000FE4F8B2D90E091838083B097C082D18279
:103FE000E282F3824C2D50E08D2D90E0B296980144
:103FF00021523F4FB80163527F4F4B0172E27B1554
:1040000090F160E86083D9014D935C93D4018D9366
:104010009C93E0FE02C088E88083B4E1BB1518F4ED
:1040200080818061808382E190E0F801E552FF4F5A
:1040300091838083F801E95FFE4F8081918183370E
:104040009A4020F43297808181608083B09273021D
:10405000C0926F02D0927002E0927102F0927202EE
:1040600082E190E021CF60E96083D9014D935C93B8
:10407000D4018D939C93D801AF51BF4FC7019F735B
:104080008D939C93F7FE02C088E9808383E190E0E2
:10409000CCCF809179028C3309F047C0E090770251
:1040A000F090780268E273E2F701828193810E94C6
:1040B0007F0A8823D1F168E670E1D70114968D91CB
:1040C0009C910E945F0A882381F12CE236E044EF44
:1040D00051E06CE1C8010E949F0AE0917702F091E3
:1040E0007802EA58FF4F64EF71E0808191810E946D
:1040F0007F0A8823D1F0F801ED51FF4F8081918133
:10410000A281B38180936F0290937002A093710299
:10411000B09372028CE18093730286E090E09093FA
:104120006C0280936B0238971DCDB0907902E090BD
:104130007702F0907802F701C280D380F2E2BF12DA
:1041400028C06EE072E0C6010E947F0A882309F150
:104150006EE072E0F701EE5BFF4F808191810E947B
:104160007F0A8823B1F0109273028FEF9FEFDC017A
:1041700080936F0290937002A0937102B0937202C9
:10418000F801EB5FFE4F81E08083BA9785E090E015
:10419000E9CC60EE70E2C6010E947F0A8823C1F17B
:1041A00023E22B15A8F560E770E1D70114968D91F5
:1041B0009C910E945F0A882359F12AE236E04EE082
:1041C00052E060E1C8010E949F0AE0917702F091FD
:1041D0007802EA5BFF4F6EE072E0808191810E947D
:1041E0007F0A8823A9F0F801ED51FF4F808191816A
:1041F000A281B38180936F0290937002A0937102A9
:10420000B093720280E18093730285E090E087CFE3
:10421000E0907702F0907802F701C280D38060E8E6
:1042200071E1C6010E947F0A882309F458C0809179
:104230007902843059F56AEC78E0D70114968D91B3
:104240009C910E945F0A882309F449C060E372E0F0
:10425000F701868197810E947F0A882309F43FC075
:10426000109273028FEF9FEFDC0180936F029093A7
:104270007002A0937102B0937202F801EB5FFE4FDF
:1042800081E08083BA9784E190E06CCC843438F18B
:1042900060E871E1D70114968D919C910E945F0AAC
:1042A0008823E9F020E936E040E352E060E2C8010B
:1042B0000E949F0AF801ED51FF4F80819181A281F8
:1042C000B38180936F0290937002A0937102B093B8
:1042D000720280E28093730284E190E020CFF801C3
:1042E000EA5FFE4F8081823269F564E071E0C601C9
:1042F0000E947F0A882331F16CE073E0F70184812A
:1043000095810E945F0A8823E9F02CE137E044E0C0
:1043100051E06FE0C8010E949F0AF801ED51FF4F84
:1043200080819181A281B38180936F02909370020A
:10433000A0937102B09372028FE08093730284E0C5
:1043400090E0EDCED0907902F5E0FD1508F050C078
:10435000F701329625EC3DE94CE151E883E0F82E77
:104360009AE0E92E8481958161917191E89E5001D6
:10437000E99EB00C1124DB01AA0FBB1FAA0FBB1FC3
:10438000AA0FBB1FC12CAA16BB0688F0E69ED0015F
:10439000E79EB00D112473E0880F991F7A95E1F71D
:1043A00062E0C62EA817B90710F0CC24C39463E9C5
:1043B00071E080E091E00E9400269B01AC012C2579
:1043C000F394DF10CFCF20936F02309370024093AD
:1043D00071025093720280E28093730210926C0219
:1043E00010926B02F801E552FF4F118210821DCC32
:1043F000D8018C91833009F09DCA1C929BCA8F3CD6
:1044000060E396076FEFA607B10509F455C0E5E034
:10441000F0E0873C9843AF4FB10509F028CCFAA3F0
:10442000E9A338C0853AEAE59E07EFEFAE07B1058C
:1044300069F180F4853B2AE492072FEFA207B105CA
:10444000C1F18D3A9245AF4FB10509F010CC89E02A
:1044500090E00FC0873948E694074FEFA407B105F5
:10446000C9F085389A47AF4FB10509F000CC83E019
:1044700090E09AA389A30EC062E070E07AA369A3DA
:1044800009C0A4E0B0E0BAA3A9A304C026E030E0CC
:104490003AA329A3E0917B02F0917C0280818330D2
:1044A00009F04CCA10824ACA47E050E05AA349A317
:1044B000F1CF68E070E0E2CFE1E0F0E0B0CF0E9441
:1044C0005B028BE390E00E94240881E00E94C80612
:1044D0000E94F8046B017C018091EF02811164C09D
:1044E00081E08093EF028093EE029FEF9093ED02C4
:1044F0001092EC029DE09093EB028093CA028091AF
:10450000CA02806D8093CA028091C902813009F08D
:1045100006C21092C9020E94F8046B017C018091CE
:10452000CA028093BB008091F1029091F202A091A7
:10453000F302B091F402892B8A2B8B2BA1F00E94FD
:10454000F8048090F1029090F202A090F302B090F3
:10455000F4026C197D098E099F0986169706A80634
:10456000B90608F442C08091BC0083FDD8CF85EC29
:104570008093BC000E94F8046B017C018091EF02E3
:10458000813009F4CEC18091EC028E3008F0EBC18D
:104590008091EC02ABECB2E0E3EAF2E0181749F1EB
:1045A0009D9191931F5FFACF8091F1029091F20259
:1045B000A091F302B091F402892B8A2B8B2B09F482
:1045C0008BCF0E94F8048090F1029090F202A090AC
:1045D000F302B090F4026C197D098E099F098616CA
:1045E0009706A806B90608F077CF8091F0020E94DE
:1045F000A7061092C8021093C7021E3008F4CFC954
:104600000E947A02182F0E947A021AA719A649A5B9
:104610005AA5482B592B5AA349A30E947A02182F56
:104620000E947A021CA71BA66BA57CA5682B792B80
:104630007CA36BA30E947A02182F0E947A021EA705
:104640001DA62DA43EA4282A392A0E947A020E947F
:104650007A020E947A02182F0E947A0218AB1FA6D3
:10466000AFA5B8A9A82BB92BBFABAEAB0E947A02FD
:10467000182F0E947A021AAB19AAE9A9FAA9E82B05
:10468000F92BF9AFE8AF0E947A02182F0E947A0244
:104690001CAB1BAA0BA91CA9082B192BB101032CBD
:1046A000000C880B990B0E94E3246B017C012BA169
:1046B0003CA1B901330F880B990B0E94E3242B0115
:1046C0003C01A70196010E94222721EE3EE245E629
:1046D00052E40E9442254B015C01A3019201C301F7
:1046E000B2010E9442252B013C01A7019601C7019E
:1046F000B6010E9442259B01AC01C301B2010E9498
:10470000A3260E94C5286B017C0149A15AA1BA01C8
:10471000550F880B990B0E94E3249058A70196012E
:104720000E94222721EE3EE245E652E40E94422505
:104730006B017C010E9450056DA37EA38FA398A7F7
:104740008091660290916702A0916802B09169021F
:104750000097A105B10509F44AC02DA13EA14FA1C2
:1047600058A5281B390B4A0B5B0BCA01B9010E94E3
:10477000E12420E030E04AE754E40E9481272B0145
:104780003C0120E030E0A9010E94B22818167CF517
:104790002DEC3CEC4CE45EE3C301B2010E94DC244E
:1047A00087FF25C0B801012E000C880B990B0E94D1
:1047B000E32420E030E043E053E40E948127A3019A
:1047C00092010E9442259B01AC01609162027091AE
:1047D000630280916402909165020E94A326609317
:1047E00062027093630280936402909365024DA10C
:1047F0005EA16FA178A54093660250936702609313
:1048000068027093690220E030E0A901C501B4019B
:104810000E94DC2487FF0AC020E030E044EB53E430
:10482000C501B4010E94A3264B015C0120E030E0E9
:10483000A901C701B6010E94DC2487FF0AC020E05D
:1048400030E044EB53E4C701B6010E94A3266B019C
:104850007C01609162027091630280916402909188
:10486000650220E030E044EB53E40E9434282B0141
:104870003C0120E030E0A9010E94DC2487FF0AC04F
:1048800020E030E044EB53E4C301B2010E94A326D0
:104890002B013C0169A17AA17A8369838BA19CA138
:1048A0009C838B833E822D82AEA9BFA9B887AF833C
:1048B000E8ADF9ADFA87E9871C870B87C501B4011C
:1048C0000E94F3277E876D87C701B6010E94F327F8
:1048D000788B6F87C301B2010E94F3277A8B698BB3
:1048E0008E010F5F1F4FF12C0E94190AD8016D91A4
:1048F0007D918D01072E000C880B990B0E94E324FB
:104900000E94D5098F2D0E94D00982E10E94D00912
:104910000E94170AF394B9E0FB12E6CF40C885EE77
:1049200027CE8091F1029091F202A091F302B09112
:10493000F402892B8A2B8B2B09F420CE0E94F804D9
:104940008090F1029090F202A090F302B090F402F5
:104950006C197D098E099F0986169706A806B90667
:1049600008F00CCE42CE8EE015CE84E0FFEFCF16DD
:10497000D104E104F10409F010F40C94CF15750191
:1049800064012AE0F594E794D794C7942A95D1F767
:10499000E1E0CE1AD108E108F10885E00C94CF15CA
:1049A0008FEFC816D104E104F10419F014F00C944F
:1049B000741583E00C94CF150E941E2508F481E045
:1049C0000895E89409C097FB3EF490958095709502
:1049D00061957F4F8F4F9F4F9923A9F0F92F96E94B
:1049E000BB279395F695879577956795B795F111C0
:1049F000F8CFFAF4BB0F11F460FF1BC06F5F7F4F5D
:104A00008F4F9F4F16C0882311F096E911C077236E
:104A100021F09EE8872F762F05C0662371F096E877
:104A2000862F70E060E02AF09A95660F771F881F46
:104A3000DAF7880F9695879597F90895990F0008EA
:104A4000550FAA0BE0E8FEEF16161706E807F90760
:104A5000C0F012161306E407F50798F0621B730BFB
:104A6000840B950B39F40A2661F0232B242B252B7C
:104A700021F408950A2609F4A140A6958FEF811D1F
:104A8000811D08950E9455250C94C6250E94B825C5
:104A900038F00E94BF2520F0952311F00C94AF252B
:104AA0000C94B52511240C94FA250E94D72570F397
:104AB000959FC1F3950F50E0551F629FF001729FC3
:104AC000BB27F00DB11D639FAA27F00DB11DAA1FD2
:104AD000649F6627B00DA11D661F829F2227B00D1F
:104AE000A11D621F739FB00DA11D621F839FA00DAA
:104AF000611D221F749F3327A00D611D231F849FFA
:104B0000600D211D822F762F6A2F11249F57504050
:104B10009AF0F1F088234AF0EE0FFF1FBB1F661FCB
:104B2000771F881F91505040A9F79E3F510580F094
:104B30000C94AF250C94FA255F3FE4F3983ED4F330
:104B4000869577956795B795F795E7959F5FC1F738
:104B5000FE2B880F911D9695879597F9089597F9E3
:104B60009F6780E870E060E008959FEF80EC089513
:104B700000240A941616170618060906089500243C
:104B80000A9412161306140605060895092E0394B6
:104B9000000C11F4882352F0BB0F40F4BF2B11F42A
:104BA00060FF04C06F5F7F4F8F4F9F4F089557FD89
:104BB0009058440F551F59F05F3F71F04795880F8B
:104BC00097FB991F61F09F3F79F087950895121622
:104BD00013061406551FF2CF4695F1DF08C01616CE
:104BE00017061806991FF1CF86957105610508947F
:104BF0000895E894BB2766277727CB0197F9089596
:104C0000DB018F939F930E945126BF91AF91A29F8A
:104C1000800D911DA39F900DB29F900D11240895BA
:104C2000A1E21A2EAA1BBB1BFD010DC0AA1FBB1FB0
:104C3000EE1FFF1FA217B307E407F50720F0A21B22
:104C4000B30BE40BF50B661F771F881F991F1A948F
:104C500069F760957095809590959B01AC01BD01B9
:104C6000CF010895052E97FB1EF400940E9449265B
:104C700057FD07D00E94102607FC03D04EF40C9479
:104C8000492650954095309521953F4F4F4F5F4FA6
:104C9000089590958095709561957F4F8F4F9F4FA8
:104CA00008950E949326A59F900DB49F900DA49FF8
:104CB000800D911D112408952F923F924F925F9283
:104CC0006F927F928F929F92AF92BF92CF92DF921C
:104CD000EF92FF920F931F93CF93DF93CDB7DEB781
:104CE000CA1BDB0B0FB6F894DEBF0FBECDBF099415
:104CF0002A88398848885F846E847D848C849B846C
:104D0000AA84B984C884DF80EE80FD800C811B8179
:104D1000AA81B981CE0FD11D0FB6F894DEBF0FBEA8
:104D2000CDBFED010895A29FB001B39FC001A39F25
:104D3000700D811D1124911DB29F700D811D1124D4
:104D4000911D08955058BB27AA270E94BA260C949B
:104D5000C6250E94B82538F00E94BF2520F039F4FE
:104D60009F3F19F426F40C94B5250EF4E095E7FB6B
:104D70000C94AF25E92F0E94D72558F3BA17620784
:104D800073078407950720F079F4A6F50C94F925AC
:104D90000EF4E0950B2EBA2FA02D0B01B901900156
:104DA0000C01CA01A0011124FF27591B99F0593F9A
:104DB00050F4503E68F11A16F040A22F232F342FE2
:104DC0004427585FF3CF469537952795A795F04030
:104DD0005395C9F77EF41F16BA0B620B730B840B45
:104DE000BAF09150A1F0FF0FBB1F661F771F881FFD
:104DF000C2F70EC0BA0F621F731F841F48F4879555
:104E000077956795B795F7959E3F08F0B0CF939546
:104E1000880F08F09927EE0F9795879508950E94BF
:104E2000B82560F080E891E009F49EEF0E94BF256C
:104E300028F040E851E071F45EEF0CC00C94B52509
:104E40000C94F925E92FE0780E94D72540F3092E2C
:104E5000052AB1F3261737074807590738F00E2EF1
:104E600007F8E02569F0E025E0640AC0EF6307F881
:104E7000009407FADB01B9019D01DC01CA01AD0113
:104E8000EF930E9498270E94C6250E9452275F91A7
:104E9000552339F02BED3FE049E450FD49EC0C94EB
:104EA000A3260895DF93DD27B92FBF7740E85FE39E
:104EB0001616170648075B0718F4D92F0E94B72863
:104EC0009F938F937F936F930E940529E8E6F0E00C
:104ED0000E948B280E94C6252F913F914F915F9190
:104EE0000E945525DD2351F09058A2EA2AED3FE0BB
:104EF00049EC5FE3D0785D270E94BA26DF910C94DD
:104F0000C6250E9495270C94C6250E94BF2558F0FF
:104F10000E94B82540F029F45F3F29F00C94AF259A
:104F200051110C94FA250C94B5250E94D72568F3ED
:104F30009923B1F3552391F3951B550BBB27AA2752
:104F400062177307840738F09F5F5F4F220F331F8C
:104F5000441FAA1FA9F335D00E2E3AF0E0E832D054
:104F600091505040E695001CCAF72BD0FE2F29D057
:104F7000660F771F881FBB1F261737074807AB0729
:104F8000B0E809F0BB0B802DBF01FF2793585F4F9E
:104F90003AF09E3F510578F00C94AF250C94FA2519
:104FA0005F3FE4F3983ED4F3869577956795B79580
:104FB000F7959F5FC9F7880F911D9695879597F98B
:104FC0000895E1E0660F771F881FBB1F6217730704
:104FD0008407BA0720F0621B730B840BBA0BEE1F19
:104FE00088F7E09508950E94FA276894B1110C940F
:104FF000FA2508950E94DF2588F09F5798F0B92F71
:105000009927B751B0F0E1F0660F771F881F991FFD
:105010001AF0BA95C9F714C0B13091F00E94F92581
:10502000B1E008950C94F925672F782F8827B85F91
:1050300039F0B93FCCF3869577956795B395D9F755
:105040003EF490958095709561957F4F8F4F9F4F5F
:1050500008950E94B82520F019F00E94BF2550F451
:105060000C94B5250C94FA25E92F0E94D72588F3D6
:105070005523B1F3E7FB6217730784079507A8F17F
:1050800089F3E92FFF2788232AF03197660F771FCE
:10509000881FDAF7952F5527442332F0915050405E
:1050A000220F331F441FD2F7BB27E91BF50B621BEE
:1050B000730B840BB109B1F222F4620F731F841FCA
:1050C000B11D31972AF0660F771F881FBB1FEFCFE6
:1050D0009150504062F041F0882332F0660F771F04
:1050E000881F91505040C1F793950C947D28869568
:1050F000779567959F5FD9F7F7CF9F3F31F0915034
:1051000020F4879577956795B795880F911D9695AB
:10511000879597F90895DF93CF931F930F93FF928D
:10512000EF92DF927B018C01689406C0DA2EEF01CA
:105130000E945525FE01E894A59125913591459150
:105140005591A6F3EF010E94BA26FE019701A8012E
:10515000DA9469F7DF90EF90FF900F911F91CF9154
:10516000DF9108950E941E2508F48FEF08959B019A
:10517000AC0160E070E080E89FE30C94812719F4B3
:1051800016F40C94B5250C947D280E94DF25B8F305
:105190009923C9F3B6F39F57550B87FF0E9409293E
:1051A0000024A0E640EA900180585695979528F48F
:1051B000805C660F771F881F20F026173707480787
:1051C00030F4621B730B840B202931294A2BA695DE
:1051D00017940794202531254A2758F7660F771F23
:1051E000881F20F026173707480730F4620B730B2F
:1051F000840B200D311D411DA09581F7B901842F2D
:105200009158880F9695879508959B01AC010C9451
:10521000422591505040660F771F881FD2F708959E
:10522000991B79E004C0991F961708F0961B881FF8
:105230007A95C9F780950895AA1BBB1B51E107C059
:10524000AA1FBB1FA617B70710F0A61BB70B881F16
:10525000991F5A95A9F780959095BC01CD010895A5
:1052600097FB072E16F4009407D077FD09D00E9413
:105270001C2907FC05D03EF4909581959F4F089519
:10528000709561957F4F0895EE0FFF1F0590F49183
:10529000E02D09940E949326B7FF0895821B930B7B
:1052A00008950F931F93CF93DF938230910510F4ED
:1052B00082E090E0E0911705F091180530E020E0E1
:1052C000B0E0A0E0309799F42115310509F44AC007
:1052D000281B390B24303105D8F58A819B81611553
:1052E000710589F1FB0193838283FE0111C0408126
:1052F00051810281138148175907E0F04817590777
:1053000099F4109761F012960C93129713961C93D0
:105310003296CF01DF91CF911F910F9108950093A5
:10532000170510931805F4CF2115310551F04217D8
:10533000530738F0A901DB019A01BD01DF01F80133
:10534000C1CFEF01F9CF9093180580931705CDCF0A
:10535000FE01E20FF31F81939193225031093983AB
:105360002883D7CF2091150530911605232B41F4C2
:1053700020916E0130916F01309316052093150531
:1053800020916C0130916D012115310541F42DB74B
:105390003EB74091700150917101241B350BE09193
:1053A0001505F0911605E217F307A0F42E1B3F0B2D
:1053B0002817390778F0AC014E5F5F4F2417350787
:1053C00048F04E0F5F1F50931605409315058193CB
:1053D00091939FCFF0E0E0E09CCFCF93DF930097D5
:1053E000E9F0FC01329713821282A0911705B09167
:1053F0001805ED0130E020E01097A1F42081318103
:10540000820F931F20911505309116052817390733
:1054100009F061C0F0931605E0931505DF91CF9177
:105420000895EA01CE17DF07E8F54A815B819E0106
:1054300041155105B1F7E901FB83EA83499159917F
:10544000C40FD51FEC17FD0761F48081918102968E
:10545000840F951FE90199838883828193819B83BF
:105460008A83F0E0E0E012968D919C91139700976B
:10547000B9F52D913C911197CD010296820F931FA2
:1054800020911505309116052817390739F6309700
:1054900051F51092180510921705B0931605A093B8
:1054A0001505BCCFD383C28340815181840F951FE2
:1054B000C817D90761F44E5F5F4F88819981480F03
:1054C000591F518340838A819B8193838283211555
:1054D000310509F0B0CFF0931805E09317059ECF82
:1054E000FD01DC01C0CF13821282D7CFB0E0A0E073
:1054F000ECE7FAE20C945E268C01009751F4CB01A4
:105500000E9451298C01C801CDB7DEB7E0E10C94AF
:105510007A26FC01E60FF71F9C0122503109E217A1
:10552000F30708F49DC0D901CD91DC911197C617FE
:10553000D70798F0C530D10530F3CE010497861710
:10554000970708F3C61BD70B2297C193D1936D938E
:105550007C93CF010E94ED29D6CF5B01AC1ABD0A26
:105560004C018C0E9D1EA0911705B0911805512C71
:10557000412CF12CE12C109731F58091150590917B
:1055800016058815990509F05CC04616570608F0FF
:1055900058C080916C0190916D01009741F48DB7D6
:1055A0009EB74091700150917101841B950BE817D3
:1055B000F90708F055C0F0931605E0931505F901B9
:1055C00071836083A0CF8D919C91119712966C90FE
:1055D000129713967C901397A815B90559F56C018D
:1055E00042E0C40ED11CCA14DB0420F1AC014A19FC
:1055F0005B09DA011296159780F0628273825183FB
:105600004083D9016D937C93E114F10471F0D701CB
:105610001396FC93EE93129776CF22968C0F9D1FD4
:10562000F90191838083F301EFCFF0931805E093A4
:10563000170569CF4816590608F42C017D01D301DE
:105640009ACFCB010E9451297C01009749F0AE010D
:10565000B8010E94332BC8010E94ED29870153CF66
:1056600010E000E050CFFB01DC0102C001900D9280
:1056700041505040D8F70895DC0101C06D9341506E
:105680005040E0F70895FB01DC0101900D920020ED
:10569000E1F70895FB01DC014150504048F00190D2
:1056A0000D920020C9F701C01D9241505040E0F713
:1056B0000895F894FFCFFF0104CB1004411104803A
:1056C000120442130492140481150445160482172F
:1056D00004831804841904851A044B1B04861C04D3
:1056E0004D1D04481E044F1F04872004502104430D
:1056F0002204542304882404D82504582604892726
:10570000048A28048B29048C2A048D2B048E2C04F3
:10571000622D048F2E04AC2F04ADFFFFFFFFFFFFAF
:10572000FFFF000019058000000040001400540035
:10573000000000003E0B9402DA0AD90ADE0C2908A8
:10574000000000003C039402C902A703FA02D80239
:10575000EC0200000000F507C807DA0AB8078D025E
:085760006702B9070D0A000001
:107800000C94343C0C94513C0C94513C0C94513CE1
:107810000C94513C0C94513C0C94513C0C94513CB4
:107820000C94513C0C94513C0C94513C0C94513CA4
:107830000C94513C0C94513C0C94513C0C94513C94
:107840000C94513C0C94513C0C94513C0C94513C84
:107850000C94513C0C94513C0C94513C0C94513C74
:107860000C94513C0C94513C11241FBECFEFD8E036
:10787000DEBFCDBF11E0A0E0B1E0ECE9FFE702C060
:1078800005900D92A230B107D9F712E0A2E0B1E065
:1078900001C01D92AD30B107E1F70E942D3D0C945F
:1078A000CC3F0C94003C982F959595959595959582
:1078B000905D8F708A307CF0282F295A8091C0000B
:1078C00085FFFCCF9093C6008091C00085FFFCCF60
:1078D0002093C6000895282F205DF0CF982F809127
:1078E000C00085FFFCCF9093C6000895EF92FF92F1
:1078F0000F931F93EE24FF2487018091C00087FD22
:1079000017C00894E11CF11C011D111D81E4E8164B
:1079100082E4F8068FE0080780E0180770F3E09132
:107920000401F091050109958091C00087FFE9CF1E
:107930008091C6001F910F91FF90EF9008950E94D3
:10794000763C982F8091C00085FFFCCF9093C600B5
:1079500091362CF490330CF09053892F089597555D
:10796000892F08951F930E949F3C182F0E949F3CCF
:107970001295107F810F1F9108951F93182F882350
:1079800021F00E94763C1150E1F71F9108951F935A
:10799000182F0E94763C803249F0809103018F5F5E
:1079A000809303018530C1F01F9108958091C0003C
:1079B00085FFFCCF84E18093C6008091C00085FFE5
:1079C000FCCF1093C6008091C00085FFFCCF80E102
:1079D0008093C6001F910895E0910401F091050184
:1079E00009951F9108950E94763C803241F0809164
:1079F00003018F5F80930301853081F008958091AA
:107A0000C00085FFFCCF84E18093C6008091C00058
:107A100085FFFCCF80E18093C6000895E0910401CA
:107A2000F09105010995089540E951E08823A1F0FE
:107A30002D9A28EE33E0FA013197F1F721503040CA
:107A4000D1F72D9828EE33E0FA013197F1F7215064
:107A50003040D1F7815061F708953F924F925F9285
:107A60006F927F928F929F92AF92BF92CF92DF924E
:107A7000EF92FF920F931F93CF93DF93000080E16B
:107A80008093C4001092C50088E18093C10086E015
:107A90008093C2005098589A259A81E00E94143D24
:107AA00024E1F22E9EE1E92E85E9D82E0FE0C02ECA
:107AB00010E1B12EAA24A394B1E49B2EA6E58A2E50
:107AC000F2E57F2EE0E26E2E79E4572E63E5462E36
:107AD00050E5352E0E94763C8033B1F18133B9F107
:107AE000803409F46FC0813409F476C0823409F41B
:107AF00085C0853409F488C0803531F1823521F1A3
:107B0000813511F1853509F485C0863509F48DC0BC
:107B1000843609F496C0843709F403C1853709F423
:107B200072C1863709F466C0809103018F5F80932C
:107B30000301853079F6E0910401F0910501099582
:107B40000E94763C803351F60E94F33CC3CF0E94E2
:107B5000763C803249F78091C00085FFFCCFF092DF
:107B6000C6008091C00085FFFCCF9092C600809136
