:100000000C9463000C948B000C948B000C948B006C
:100010000C948B000C948B000C948B000C94FD0AB8
:100020000C94D60D0C948B000C948B000C94FB0B51
:100030000C948B000C948B000C948B000C948B0014
:100040000C94B10B0C948B000C947F0B0C94590BFB
:100050000C948B000C948B000C948B000C948B00F4
:100060000C94B70C0C948B000000000024002700B7
:100070002A0000000000250028002B0002000000DC
:100080000800020100000304070000000000000057
:1000900000000000002300260029000404040404DA
:1000A0000404040202020202020303030303030125
:1000B00002040810204080010204081020010204FC
:1000C00008102000CE0E11241FBECFEFD8E0DEBFF7
:1000D000CDBF12E0A0E0B1E0EEE8F8E402C0059088
:1000E0000D92AE34B107D9F725E0AEE4B2E001C01D
:1000F0001D92A83BB207E1F710E0C3E6D0E004C0D0
:100100002197FE010E943022C236D107C9F70E9412
:100110004F0F0C9445240C940000ADE8B4E0119608
:100120008C93119790E0FC01E155FF4FE4911496F8
:10013000EC931497FC01E556FF4FE491F0E0EE0FCD
:10014000FF1FEF56FF4F8591949113969C938E93CA
:100150001297089508950895AF92BF92CF92DF92BB
:10016000EF92FF920F931F93CF93DF936C017B016C
:100170008B01040F151FEB015E01AE18BF08C017FD
:10018000D10759F06991D601ED91FC910190F08170
:10019000E02DC6010995892B79F7C501DF91CF9133
:1001A0001F910F91FF90EF90DF90CF90BF90AF9095
:1001B0000895FC01538D448D252F30E0842F90E06D
:1001C000821B930B541710F0CF9608950197089552
:1001D000FC01918D828D981761F0A28DAE0FBF2F1B
:1001E000B11D5D968C91928D9F5F9F73928F90E071
:1001F00008958FEF9FEF0895FC01918D828D9817E0
:1002000031F0828DE80FF11D858D90E008958FEF1C
:100210009FEF0895FC01918D228D892F90E0805CE5
:100220009F4F821B91098F73992708958FEB93E05D
:100230000E940A0121E0892B09F420E0822F089511
:1002400080E090E0892B29F00E94160181110C9426
:1002500000000895FC01A48DA80FB92FB11DA35A69
:10026000BF4F2C91848D90E001968F739927848FD6
:10027000A689B7892C93A089B1898C9183708064F9
:100280008C93938D848D981306C00288F389E02D9A
:1002900080818F7D80830895EF92FF920F931F934B
:1002A000CF93DF93EC0181E0888F9B8D8C8D981329
:1002B0001AC0E889F989808185FF15C09FB7F89435
:1002C000EE89FF896083E889F98980818370806481
:1002D00080839FBF81E090E0DF91CF911F910F91CC
:1002E000FF90EF900895F62E0B8D10E00F5F1F4FDB
:1002F0000F731127E02E8C8D8E110CC00FB607FCEA
:10030000FACFE889F989808185FFF5CFCE010E9477
:100310002A01F1CFEB8DEC0FFD2FF11DE35AFF4FBA
:10032000F0829FB7F8940B8FEA89FB898081806205
:10033000CFCFCF93DF93EC01888D8823B9F0AA89C2
:10034000BB89E889F9898C9185FD03C0808186FD90
:100350000DC00FB607FCF7CF8C9185FFF2CF8081DF
:1003600085FFEDCFCE010E942A01E9CFDF91CF9129
:100370000895833081F028F4813099F08230A9F01B
:1003800008958730A9F08830C9F08430B1F48091A5
:1003900080008F7D03C0809180008F7780938000E4
:1003A000089584B58F7784BD089584B58F7DFBCF84
:1003B0008091B0008F778093B00008958091B00055
:1003C0008F7DF9CF1F93CF93DF93282F30E0F90172
:1003D000E358FF4F8491F901E155FF4FD491F901A2
:1003E000E556FF4FC491CC23A9F0162F81110E942E
:1003F000B901EC2FF0E0EE0FFF1FEE58FF4FA59173
:10040000B4918FB7F894EC91111108C0D095DE2308
:10041000DC938FBFDF91CF911F910895DE2BF8CF32
:100420009091000189130BC0ECE7F0E0E4919FEF9D
:1004300090930001E13049F028F0E23061F060E093
:100440000C94E20110926E00FACF90916F009D7FA4
:1004500090936F00F4CF909170009D7F9093700007
:1004600091E09093B0009091B100987F9460909348
:10047000B1001092B300E3CFCF93DF9390E0FC0183
:10048000E155FF4F249185569F4FFC0184918823AD
:10049000C9F090E0880F991FFC01E859FF4FA59122
:1004A000B491FC01EE58FF4FC591D49161110DC07C
:1004B0009FB7F8948C91209582238C938881282370
:1004C00028839FBFDF91CF910895623051F49FB789
:1004D000F8943C91822F809583238C93E8812E2B76
:1004E000EFCF8FB7F894EC912E2B2C938FBFEACFE0
:1004F0003FB7F8948091BA029091BB02A091BC02E0
:10050000B091BD0226B5A89B05C02F3F19F00196FA
:10051000A11DB11D3FBFBA2FA92F982F8827BC015D
:10052000CD01620F711D811D911D42E0660F771F85
:10053000881F991F4A95D1F708958F929F92AF9285
:10054000BF92CF92DF92EF92FF926B017C010E94EB
:1005500078024B015C01C114D104E104F104B9F04B
:100560000E947802681979098A099B09683E7340DC
:100570008105910580F321E0C21AD108E108F10854
:1005800088EE880E83E0981EA11CB11CE4CFFF907A
:10059000EF90DF90CF90BF90AF909F908F90089595
:1005A0000F931F93CF93DF93EC018B01888599857F
:1005B000029749F46130710509F436C04CF560E0EA
:1005C0000115110591F188859985049749F4013049
:1005D000110509F451C09CF50115110509F43BC042
:1005E00088859985059709F0C5C00A30110508F07E
:1005F000C1C0F801E250FD4F0C94302250035A0361
:1006000068037A03920394039A03A403B203B80322
:100610006230710591F060E003301105A1F68C8520
:100620000E94E20160E005C061E08C850E94E20169
:1006300061E08E850E94E201C6CF61E0F0CF02301A
:10064000110501F10330110559F661E08C850E9416
:10065000E20160E01CC061E08C850E94E20160E084
:100660008E850E94E20161E088890E94E20160E0DB
:100670008A890E94E201B4CF60E08C850E94E20189
:1006800061E0EECF60E08C850E94E20161E08E8542
:100690000E94E20160E088890E94E20161E0E8CF07
:1006A00060E08C850E94E20161E08E850E94E2019B
:1006B00061E009C060E08C850E94E20161E08E8506
:1006C0000E94E20160E088890E94E20160E00DC0C2
:1006D00060E08C850E94E20161E08E850E94E2016B
:1006E00060E088890E94E20161E08A890E94E2015B
:1006F00061E011C060E08C850E94E20161E08E85BE
:100700000E94E20160E088890E94E20161E08A893A
:100710000E94E20160E08C89DF91CF911F910F91DF
:100720000C94E20161E0E7CF61E08C850E94E20178
:1007300060E0E5CF61E08C850E94E20160E08E859B
:100740000E94E20161E0DFCF61E08C850E94E2015E
:1007500060E08E850E94E20161E088890E94E201EA
:1007600060E0D5CF61E08C850E94E20160E09DCF22
:1007700060E0F9CFDF91CF911F910F910895209103
:100780009502260F3327331F21323105ECF42091D7
:100790009503FC0190E080E0243069F082E0089548
:1007A000A09195022191AC014B585D4FA40FB52F3C
:1007B000B11D2C930196861798F380919502680FCE
:1007C0006093950280E0089581E00895109295036A
:1007D00081E08093940310926F0361E082E10E94B4
:1007E000E20161E083E10E94E201E9EBF0E0808157
:1007F0008E7F808380818D7F808388E48093B800A2
:1008000085E48093BC000895CF93DF9391E09093AB
:1008100074028823B9F0C091B800D091BA008091D9
:10082000BC008A7B8093BC0060E082E10E94E20110
:1008300060E083E10E94E2010E94E603D093BA00E7
:10084000C093B800DF91CF910895CF92DF92EF92DD
:10085000FF920F931F93CF93DF93D091BE0381E05C
:10086000D13208F09CC0C091BD030E9478026B0198
:100870007C018091950381116CC082E08093950387
:1008800081E0809394038FEF8093930310929203FF
:10089000D0939103ADE9B3E0E1E7F3E080E0D81352
:1008A0008DC01092700380917003CC0FC82BC09341
:1008B000700380916F03813009F084C010926F0340
:1008C0000E9478026B017C01809170038093BB00D1
:1008D0008091970390919803A0919903B0919A0306
:1008E000892B8A2B8B2BA1F00E9478020091970311
:1008F000109198032091990330919A036C197D0906
:100900008E099F09061717072807390708F442C000
:100910008091BC0083FDD8CF85EC8093BC000E9401
:1009200078026B017C0180919503823009F44CC000
:10093000809193038F3F09F469C0809193038032C3
:1009400009F466C080919303803309F463C084E0A6
:1009500026C08091970390919803A0919903B0913C
:100960009A03892B8A2B8B2B09F483CF0E94780260
:1009700000919703109198032091990330919A0365
:100980006C197D098E099F09061717072807390773
:1009900008F06FCF809196030E94040485E01092C6
:1009A0009C031092BE0310929B03DF91CF911F9185
:1009B0000F91FF90EF90DF90CF9008959D919193CC
:1009C0008F5F6DCF85EEA9CF8091970390919803AB
:1009D000A0919903B0919A03892B8A2B8B2B09F450
:1009E000A2CF0E9478020091970310919803209162
:1009F000990330919A036C197D098E099F09061796
:100A000017072807390708F08ECFC4CF80E0C7CF7B
:100A100082E0C5CF83E0C3CF0895E091E6028091E4
:100A2000E502E81730F4F0E0EC5AFD4F808190E0E9
:100A300008958FEF9FEF08959091E6028091E5026F
:100A40002FEF3FEF981748F4E92FF0E0EC5AFD4FF5
:100A5000208130E09F5F9093E602C9010895809164
:100A6000E5029091E602891B990B0895CF92DF92DF
:100A7000EF92FF920F931F93CF93DF937C01CB01F3
:100A80008A0120919B03222389F0EB016B01C40EA4
:100A9000D51ECC15DD0569F06991D701ED91FC916A
:100AA0000190F081E02DC7010995F3CF642F0E94DA
:100AB000BF03C801DF91CF911F910F91FF90EF907D
:100AC000DF90CF900895CF93DF931F92CDB7DEB71D
:100AD000698320919B032223F9F02091BE032032E9
:100AE00058F021E030E0FC013383228390E080E085
:100AF0000F90DF91CF91089580919C03E82FF0E053
:100B0000E356FC4F998190838F5F80939C03809381
:100B1000BE0381E090E0ECCF61E0CE0101960E943F
:100B2000BF03F7CFCF93DF93F0E0E0E0EB01C40F1A
:100B3000D51F9881992311F0903320F48E2FDF91E7
:100B4000CF91089586EC890F8730C0F385EA890F2D
:100B50008630A0F385E8890F853080F321E030E00E
:100B600097FF21C0923CE0F022E095FF06C023E011
:100B700094FF03C024E093FD25E0DE01119630E0F0
:100B8000CD018C1B9D0B821793076CF48D9190E027
:100B9000689415F8959587951694E1F7029781F377
:100BA0004F5F5F4FC3CF3196420F531FBFCFFC0142
:100BB000248131E030939B032093BD0310929C036A
:100BC0001092BE038385682B8CE594E00E94630538
:100BD0000C942504CF92DF92EF92FF92CF93DF9394
:100BE000DC011796CC911797D0E06111DC2F189695
:100BF0002C91189730E0220F331F2F563F4F50E0B3
:100C000040E0F90185919491FC01F080BA0190E0F7
:100C100080E0EF2DEC23ED1310C04F5F5F4F1D966A
:100C2000CD90DD90ED90FC9050976C157D058E0574
:100C30009F0538F36FEF7FEFCB01DF91CF91FF90EE
:100C4000EF90DF90CF9008958F929F92AF92BF92D6
:100C5000CF92DF92EF92FF920F931F93CF93DF9388
:100C6000CDB7DEB7C054D1400FB6F894DEBF0FBE8B
:100C7000CDBF2FB7F89440916B0350916C036091F6
:100C80006D0370916E032FBFFC01018512852385D2
:100C900034856A017B01C01AD10AE20AF30A97017E
:100CA0008601003D174021053105B0F4FC01818922
:100CB000C05CDE4F0FB6F894DEBF0FBECDBFDF9134
:100CC000CF911F910F91FF90EF90DF90CF90BF9049
:100CD000AF909F908F9008958C01FC0141875287BF
:100CE000638774871482138212821182108262E0F9
:100CF00085810E943C0261E070E080E090E00E940B
:100D00009D0261E0F80185810E943C0260E0F801EB
:100D100085810E94E201F80186818551823028F5A3
:100D20008BE291E10197F1F762E0F80185810E9481
:100D30003C02F801828990E08230910538F0880FFA
:100D4000991F880F991F05970197F1F7F89460E0B4
:100D5000C8010E94EA056F3F7F4F8F4F9F4F61F49C
:100D6000F801118A789480E0A3CF64E170E080E01C
:100D700090E00E949D02D8CF61E0C8010E94EA0580
:100D80006F3F7F4F8F4F9F4F59F3CE0101967C01EC
:100D90005E019FEBA91A9EEFB90A670160E0C801E6
:100DA0000E94EA05F601608371838283938361E088
:100DB000C8010E94EA05F6016483758386839783E0
:100DC000F8E0CF0ED11CCA14DB0441F7789430E070
:100DD00020E0F70180809180A280B380448155811A
:100DE00066817781FFEF8F169F06AF06BF0631F051
:100DF0004F3F8FEF58076807780719F4F801118AF9
:100E0000B2CFF90183E0F595E7958A95E1F7E00F18
:100E1000F11F8081880F84169506A606B706F0F0AC
:100E200080832F5F3F4FF8E0EF0EF11C2832310531
:100E300081F6F801448120818181280F3327331FF7
:100E40008281280F311D8381820F932F911D992755
:100E50004817190699F681E0818B2ACF8160E0CF8F
:100E6000FC01EE0FFF1FE15BFC4F2081318121303F
:100E7000310511F41182108261E00C943C02682F5C
:100E80008FEB93E00C944C01CF92DF92EF92FF92A4
:100E9000CF936B017C0183E00E943F07C701B6013D
:100EA0000E94C621862FC72F6093DF027093E00255
:100EB0000E943F078C2FCF91FF90EF90DF90CF9053
:100EC0000C943F070F931F93CF93DF938B01D82F81
:100ED000C92F82E00E943F07C801AD2FBC2F80932D
:100EE000500290935102A0935202B09353020E9479
:100EF0003F07812F0E943F078D2F0E943F078C2FB5
:100F0000DF91CF911F910F910C943F078FEF0E94BB
:100F10003F0785E50C943F070F931F93CF93DF9313
:100F2000DC015796ED91FC9140912703808510E0FC
:100F3000481708F064C0142F1170009124030111A8
:100F40004FC0842F90E0880F991FE80FF91F01848C
:100F5000F285E02D2CEE3FEF112311F024E130E07B
:100F6000C0912503D09126032C0F3D1FC90163E4D6
:100F700070E00E940822E617F70760F0C90168E2F6
:100F800070E00E9408226F5F7F4F81E090E06E1753
:100F90007F0710F52C0F3D1FC90163E470E00E942C
:100FA0000822E617F70750F0C90168E270E00E94D6
:100FB00008226F5F7F4F6E177F0760F42C0F3D1F75
:100FC000C90163E470E00E940822E617F707E8F41D
:100FD0001FEF15C082E090E090934F0280934E0285
:100FE0000F5F0093240380914E0290914F020817E7
:100FF000190628F0109224034F5F40932703812F96
:10100000DF91CF911F910F910895C90168E270E0BF
:101010000E9408226F5F7F4F6E177F07C8F283E040
:1010200090E0DACF089590E080E008955F926F92AB
:101030007F928F929F92AF92BF92CF92DF92EF9268
:10104000FF920F931F93CF93DF937C01562EDC0109
:101050005796ED91FC913F964A01B4E18B0E911C9D
:10106000D3E4CD2ED12CC401B6010E9408225B012D
:10107000C8E2D0E0C401BE010E9408223B018FEF0C
:10108000681A780A24513109C901B6010E94082260
:101090004B01C901BE010E9408229B012F5F3F4FF7
:1010A00004511109C801B6010E9408226B01C80150
:1010B000BE010E9408226F5F7F4F80E090E0DC015C
:1010C00040E0C081D181CA15DB0568F16C167D0650
:1010D00050F1C281D381C815D90510F12C173D07F5
:1010E00020F1880F991FAA1FBB1F816034964F5FA4
:1010F0005412E7CFF70183879487A587B68781E0ED
:10110000DF91CF911F910F91FF90EF90DF90CF90E3
:10111000BF90AF909F908F907F906F905F90089559
:10112000CC15DD0510F480E0EBCF6C177D07D8F30C
:10113000880F991FAA1FBB1FD9CF0F931F93CF935F
:101140008C01C62F0E94D7056C2F6460C8010E94D5
:10115000D7056C2F6B7FC8010E94D70583EC90E008
:101160000197F1F7CF911F910F9108950F931F935E
:10117000CF93DF938C01D62FC42F607F642B0E9406
:101180009D0880E1D89FB00111246C2BC801DF912C
:10119000CF911F910F910C949D08CF93DF93CDB702
:1011A000DEB728970FB6F894DEBF0FBECDBF28E09C
:1011B000E2E7F1E0DE01119601900D922A95E1F748
:1011C000FC012085241710F44FEF420F50E0440F2C
:1011D000551F21E030E02C0F3D1F420F531FFA0135
:1011E0002081620F606840E028960FB6F894DEBF59
:1011F0000FBECDBFDF91CF910C94B60841E00E94A5
:10120000B60881E090E0089542E050E06EEA71E0B7
:101210008FEB93E00C94AC000C9404090F931F9394
:10122000CF93DF93EC0188819981009759F02A814F
:101230003B812617370730F081E0DF91CF911F9176
:101240000F9108958B016F5F7F4F0E94622300977B
:1012500059F0998388831B830A832C813D81232B3A
:1012600059F7FC011082E8CF80E0E7CF85ED80934D
:10127000BC008091970390919803A0919903B0913D
:101280009A030796A11DB11D23E0B695A7959795E2
:1012900087952A95D1F72091BC0024FD03C01092B8
:1012A0009503089540919703509198036091990395
:1012B00070919A03452B462B472B69F30097A105A4
:1012C000B10541F025E32A95F1F700000197A10946
:1012D000B109E1CF809196030C940404CF93DF937E
:1012E000EC0189899A89009749F0FC01108E48E049
:1012F00050E06FEF70E007960E942824188E198E38
:101300008D858D8B40E061E0CE010E94B6088BE3B5
:101310009FE10197F1F7DF91CF9108956F927F924E
:101320008F929F92AF92BF92CF92DF92EF92FF92F5
:101330000F931F93CF93DF93EC01742E022F2A811A
:1013400030E050E040E090E080E0821793070CF03E
:10135000AEC0EB81FC81E40FF51F495F5F4FA081B8
:10136000B1816A177B0769F4682E188DDE01179624
:1013700080E0181741F09D91691609F474C08F5FE1
:10138000F8CF0196E2CF183008F07CC081E0810FE1
:10139000888F6E018FE0C80ED11CBF016E5F7F4F3A
:1013A00088E0D6011D928A95E9F75601F60130E0F2
:1013B00020E090E8F92EDB0143E050E08D918F2191
:1013C00090E0022E02C0880F991F0A94E2F7042EC3
:1013D00002C0959587950A94E2F79081892B8083C6
:1013E0004F5F5F4F4830510549F7F6942F5F3F4FED
:1013F000319628303105F9F68D809E80E12EF12C52
:10140000B70183E0660F771F8A95E1F7606440E0DB
:10141000C4010E94B608B8E0CB0ED11CF501619161
:101420005F01D401ED91FC910190F081E02DC401A8
:101430000995CA14DB0491F7FE01EE0DFF1D6782CA
:10144000ED81FE816789061720F0802F0E94FC2124
:10145000092F708E018F8585858B402F672DCF01D9
:101460000E94CD08812FDF91CF911F910F91FF90A6
:10147000EF90DF90CF90BF90AF909F908F907F9034
:101480006F900895E881F9810190F081E02DCE01FF
:10149000DF91CF911F910F91FF90EF90DF90CF9050
:1014A000BF90AF909F908F907F906F9009948FEF37
:1014B000DACF0F931F93CF93DF938C01EB016E373D
:1014C0007105E0F0DC0154968C915497861717064D
:1014D00030F053968C9186171706A9F0A0F0F8010A
:1014E000818992890097A9F0218D408DBE010E94CB
:1014F0008E098F3F71F0C82FD0E005C060327105B2
:1015000010F4CAE2D0E0CE01DF91CF911F910F918C
:101510000895D8011E962C9130E090E080E082176B
:1015200093077CF7AC01440F551F480F591FD80192
:101530001F96ED91FC91E40FF51F40815181C41776
:10154000D50721F4C281CF3FB9F6DBCF0196E7CFB3
:101550000F931F93CF93DF938C01EB016E377105CF
:10156000E0F0DC0154968C9154978617170630F002
:1015700053968C9186171706A9F0A0F0F80181897F
:1015800092890097A9F0218D408DBE010E948E099D
:101590008F3F71F0C82FD0E005C06032710510F4A4
:1015A000CAE2D0E0CE01DF91CF911F910F91089553
:1015B000CE01815A91098F359105A0F3D8011E966D
:1015C0002C9130E090E080E0821793074CF7AC015B
:1015D000440F551F480F591FD8011F96ED91FC91DC
:1015E000E40FF51F40815181C417D50721F4C28152
:1015F000CF3F89F6D5CF0196E7CF1F920F920FB656
:101600000F9211242F933F934F935F936F937F9388
:101610008F939F93AF93BF93EF93FF938091C302F8
:101620009091C402A091C502B091C602892B8A2B69
:101630008B2BD1F19091BE02E091BF02F091C002DC
:101640008081892780838091C3029091C402A091F8
:10165000C502B091C602181619061A061B069CF49C
:101660008091C3029091C402A091C502B091C602BC
:101670000197A109B1098093C3029093C402A0937A
:10168000C502B093C602FF91EF91BF91AF919F91B8
:101690008F917F916F915F914F913F912F910F901B
:1016A0000FBE0F901F901895809100010E941002AC
:1016B000EACF1F920F920FB60F9211242F933F93F0
:1016C0004F935F936F937F938F939F93AF93BF934A
:1016D000EF93FF938FEB93E00E942A01FF91EF912C
:1016E000BF91AF919F918F917F916F915F914F913A
:1016F0003F912F910F900FBE0F901F9018951F9242
:101700000F920FB60F9211242F938F939F93EF9305
:10171000FF93E091CF03F091D0038081E091D50356
:10172000F091D60382FD1BC090818091D8038F5F1A
:101730008F732091D903821741F0E091D803F0E034
:10174000E154FC4F958F8093D803FF91EF919F91C7
:101750008F912F910F900FBE0F901F901895808141
:10176000F4CF1F920F920FB60F9211242F933F9335
:101770008F939F93AF93BF9380916B0390916C0372
:10178000A0916D03B0916E033091B90223E0230F55
:101790002D3758F50196A11DB11D2093B9028093F4
:1017A0006B0390936C03A0936D03B0936E038091D1
:1017B000BA029091BB02A091BC02B091BD02019609
:1017C000A11DB11D8093BA029093BB02A093BC02ED
:1017D000B093BD02BF91AF919F918F913F912F9197
:1017E0000F900FBE0F901F90189526E8230F0296BA
:1017F000A11DB11DD2CF1F920F920FB60F921124CF
:101800002F933F934F935F936F937F938F939F9308
:10181000AF93BF93CF93DF93EF93FF938091B80281
:10182000C0918C04D0E087FF24C0109285001092F4
:1018300084008091B8028F5F8093B8028091B802D3
:10184000082E000C990B8C179D0724F48091B80288
:101850008C30C4F18091840090918500049680348E
:101860009C4908F47AC08091840090918500049688
:1018700076C08091B802082E000C990B8C179D073A
:10188000C4F6E091B8028E2FEE0F990BFC01EE0F1B
:10189000FF1FE80FF91FE859FB4F808186FFC9CF72
:1018A000E091B8028E2FEE0F990BFC01EE0FFF1F97
:1018B000E80FF91FE859FB4F808160E08F730E94A9
:1018C000E201B7CF2091840030918500E091B80209
:1018D0008E2FEE0F990BFC01EE0FFF1FE80FF91F83
:1018E000E859FB4F81819281820F931F9093890069
:1018F00080938800E091B8028E2FEE0F990BFC01C7
:10190000EE0FFF1FE80FF91FE859FB4F808186FF9C
:1019100011C0E091B8028E2FEE0F990BFC01EE0F73
:10192000FF1FE80FF91FE859FB4F808161E08F73BB
:101930000E94E201FF91EF91DF91CF91BF91AF91B2
:101940009F918F917F916F915F914F913F912F91D7
:101950000F900FBE0F901F90189580E49CE9909314
:101960008900809388008FEF8093B802E3CF1F92A5
:101970000F920FB60F9211242F933F934F935F93C3
:101980006F937F938F939F93AF93BF93EF93FF9347
:101990008091B900887F803609F44AC0F0F588321A
:1019A00009F4A7C018F5803109F49BC0B8F4882366
:1019B00009F4F9C0883009F494C0FF91EF91BF9108
:1019C000AF919F918F917F916F915F914F913F91D7
:1019D0002F910F900FBE0F901F901895883109F42A
:1019E00088C0803251F78093930314C0803409F487
:1019F0009DC040F48033B9F38833F9F680939303A4
:101A000085ECB0C0803509F485C0883509F496C0EE
:101A1000883499F60E943609D0CF883909F48CC0F1
:101A200038F5883729F050F4883611F0803729F6D8
:101A300083E0809395031092B70257C0883809F469
:101A40007BC0803919F0803809F0B7CF8091B70298
:101A5000803208F071C0E091B70281E08E0F809370
:101A6000B7028091BB00F0E0E956FD4F80833DC096
:101A7000803B39F0E0F4803A09F479C0883A09F003
:101A80009CCF84E080939503109296021092950269
:101A9000E091E302F091E4020995809195028111B1
:101AA0000FC081E0809395021092750209C0803CBE
:101AB00009F4A6CF883C09F4A3CF883B09F07DCF79
:101AC000E091960281E08E0F80939602F0E0EB5851
:101AD000FD4F80818093BB0090919602809195028A
:101AE00029C0809170038093BB0085EC8093BC007B
:101AF00064CF9091920380919103981758F5E091EB
:101B0000920381E08E0F80939203F0E0EF58FC4F38
:101B10008081E9CFE091920381E08E0F8093920360
:101B20008091BB00F0E0EF58FC4F808390919203CE
:101B3000809191039817C8F285E8D8CFE09192037D
:101B400081E08E0F809392038091BB00F0E0EF580C
:101B5000FC4F80838091940381115CCF81E080935E
:101B60006F0384EA8093BC001092950326CF85EC26
:101B70008093BC00109295038091B702803230F4BC
:101B8000E091B702F0E0E956FD4F10826091B70294
:101B900070E0E091E102F091E20287E992E00995BC
:101BA0001092B7020ACF1092930334CF1F920F9274
:101BB0000FB60F9211242F933F934F935F936F9320
:101BC0007F938F939F93AF93BF93EF93FF93E09196
:101BD0008F04F0919004908180919104982320913A
:101BE0009204309193042F3F320731F02F5F3F4F23
:101BF000309393042093920480918D04811135C019
:101C0000911116C02091920430919304253631052C
:101C100058F010929404309397042093960481E036
:101C20008093950480938D041092930410929204F3
:101C300080918F05813041F480918E05911161C0B2
:101C400061E0811161C02D9AFF91EF91BF91AF9139
:101C50009F918F917F916F915F914F913F912F91C4
:101C60000F900FBE0F901F90189580918D048130BA
:101C7000A1F49923E9F2E09195048E0F80939504E5
:101C8000F0E0EE0FFF1FE357FB4F209192043091DD
:101C900093043287218782E0C5CF80918D04823002
:101CA00039F5911119C0E091950481E0E03720F0F9
:101CB0008093940483E0B6CF8E0F80939504F0E078
:101CC000EE0FFF1FE357FB4F2091920430919304D6
:101CD0003287218781E0A6CF20919204309193042E
:101CE0002536310508F4A4CF83E080938D04A0CF7E
:101CF00080918D04833009F09BCF992309F494CF10
:101D000097CF882321F060E00E94E2019DCF2D98BB
:101D10009BCFCF92DF92EF92FF920F931F93E82F0A
:101D2000F92F05C0015011092109310961F1908194
:101D300096239417B9F305C00150110921093109FF
:101D400011F1908196239413F7CFC12CD12CE12C63
:101D5000F12C0AC08FEFC81AD80AE80AF80A0C1545
:101D60001D052E053F0579F080818623841791F3A8
:101D70006C2D7D2D8E2D9F2D1F910F91FF90EF903B
:101D8000DF90CF90089560E070E080E090E01F91D8
:101D90000F91FF90EF90DF90CF9008951092C203C3
:101DA0001092C10388EE93E0A0E0B0E08093C303FB
:101DB0009093C403A093C503B093C6032EE831E00B
:101DC0003093C0032093BF0325EC30E03093CC0365
:101DD0002093CB0324EC30E03093CE032093CD034B
:101DE00020EC30E03093D0032093CF0321EC30E09F
:101DF0003093D2032093D10322EC30E03093D4030C
:101E00002093D30326EC30E03093D6032093D50300
:101E10001092D8031092D9031092DA031092DB03C8
:101E200010925F0410925E048093600490936104AA
:101E3000A0936204B093630480EA91E090935D0400
:101E400080935C048DE894E09093A8058093A705A7
:101E500080E00E948D0010928E05E6E7F5E02FEFFE
:101E600048EB5BE080918C048C30B8F491E0980FE3
:101E700090938C04808390E0DC01AA0FBB1FA80F15
:101E8000B91FA859BB4F12965C934E931197339686
:101E900085E0EE38F80731F708952083F8CFCF9327
:101EA000DF93CDB7DEB7A5970FB6F894DEBF0FBEB0
:101EB000CDBF789484B5826084BD84B5816084BDD3
:101EC00085B5826085BD85B5816085BD80916E00D8
:101ED000816080936E001092810080918100826009
:101EE0008093810080918100816080938100809146
:101EF00080008160809380008091B1008460809335
:101F0000B1008091B00081608093B00080917A0030
:101F1000846080937A0080917A00826080937A0056
:101F200080917A00816080937A0080917A00806845
:101F300080937A001092C1001092E6021092E5029E
:101F400010929C031092BE030E94E6038AEA90E07E
:101F50009093E4028093E3028BEA90E09093E20294
:101F60008093E102E091CF03F091D00382E080837F
:101F7000E091CB03F091CC031082E091CD03F0917E
:101F8000CE0380E180831092D703E091D303F091D8
:101F9000D40386E08083E091D103F091D203808165
:101FA00080618083E091D103F091D20380818860C9
:101FB0008083E091D103F091D20380818068808397
:101FC000E091D103F091D20380818F7D80838FEBEC
:101FD00093E00E94990168EC70E080E090E00E943C
:101FE0009D0261E08DE00E943C0260E08DE00E9475
:101FF000E20181E090E09093400380933F0390934F
:10200000420380934103909344038093430390934E
:10201000460380934503909348038093470390932E
:102020004A038093490390934C0380934B0390930E
:102030004E0380934D039E012F5F3F4F19018FEB9D
:1020400093E00E940A016C01892B11F40C949418FE
:102050008FEB93E00E940A011816190684F78FEBA4
:1020600093E00E94E80090912103853509F061C05A
:1020700091115FC0809120038F3F29F481E080930C
:102080001F038093210380911F038F5F843308F027
:1020900068C080931F0380912103882381F280917F
:1020A0001E038111CCCF80911F03843040F2109227
:1020B0002103E091EF020091F002E02EF12C10914B
:1020C000EE02123009F4ADC0133009F44FC01130E4
:1020D00069F5E73009F055C0F0926701E0926601BA
:1020E000D090F1028D2D90E0909365018093640172
:1020F000F701EE0FFF1FE15BFC4F11821082880F8A
:10210000991FFC01E15BFC4F1182108261E0802F7E
:102110000E943C0260E08D2D0E943C0262E370E070
:1021200080E090E00E949D0210933E0310921F03F6
:1021300086CF80932003992309F4A5CFE0911F0354
:10214000E23039F480931E03F0E0E651FD4F8083C6
:102150009ACFE330C8F390911E03915090931E03E1
:10216000F3CF10921F031092210395CFEFE4F3E019
:1021700023E0EB36F20711F40C947B1811921192C4
:10218000F7CFF0E0EB30F10519F410933D03CECF1B
:10219000EC30F10519F410933C03C8CFEE30F10593
:1021A00021F481E080933B03C1CFE130F10581F55B
:1021B0008091660190916701E816F90639F08091E7
:1021C000640190916501E816F90661F410923E03EE
:1021D000F701EE0FFF1FE15BFC4F81E090E0918380
:1021E0008083A4CF8091680190916901E816F90677
:1021F00029F410923D0310923C03EACF80916A01CA
:1022000090916B01E816F90619F710923B03E0CFA5
:10221000329709F08BCFF701EE0FFF1FE15CFC4F07
:10222000DCCFE150E13108F081CF0E2E000CFF0B26
:10223000E45EFE4E0C9430222D1196103611B71329
:102240008F1196109610771483144A1596109610D5
:10225000A7159610E515BE167218C7010E94300723
:102260006091F102802F0E94E20160CFC7010E94BD
:1022700030071091F102C12ED12C61E0802F0E9415
:102280003C02111102C060E0EDCF3FEFC316D10454
:1022900011F461E0E7CFF701E358FF4FE491E33039
:1022A00021F148F4E130B9F0E230D1F080E8C8160D
:1022B000D1047CF7E8CFE73011F1E83041F1E430A8
:1022C000A9F780918000806280938000D0928B007B
:1022D000C0928A002BCF84B5806884BD17BD26CFFD
:1022E00084B5806284BD18BD21CF80918000806854
:1022F00080938000D0928900C092880017CF80918F
:10230000B00080688093B0001093B3000FCF80912D
:10231000B00080628093B0001093B40007CFC70173
:102320000E9430078091F1028093DF028091F202D7
:102330008093E002A091DF02B091E002BAA3A9A3CA
:102340008091F3028093DF028091F4028093E00297
:10235000E091DF02F091E002FCA3EBA31E161F0642
:102360000CF001C2809100018013CDC0ECE7F0E0D9
:10237000149117FDDBCE61E0802F0E943C021123F7
:10238000B1F029A13AA12901712C612C60E072E120
:102390008AE790E0A3010E94772069017A0181E039
:1023A000C81AD108E108F108123009F099C1A9A1B1
:1023B000BAA12D01712C612C60E072E18AE790E0F6
:1023C000A3019D010E94772049015A017A01690108
:1023D000B1E0CB1AD108E108F108EFEFCE16D10435
:1023E000E104F10409F00CF44EC160E472E48FE002
:1023F00090E0A30192010E94772069017A01F1E047
:10240000CF1AD108E108F108123009F0F3C082E0D8
:102410002FEFC216D104E104F10409F00CF46CC0F2
:1024200060E970ED83E090E0A30192010E947720C3
:1024300069017A0181E0C81AD108E108F10883E056
:102440009FEFC916D104E104F10409F00CF454C063
:1024500068E478EE81E090E0A30192010E94772089
:1024600069017A0181E0C81AD108E108F10884E025
:102470009FEFC916D104E104F104F1F1ECF164E23B
:1024800074EF80E090E0A30192010E94772069013F
:102490007A01E1E0CE1AD108E108F10885E0FFEF0A
:1024A000CF16D104E104F10439F130F162E17AE7A9
:1024B00080E090E0A30192010E94772069017A01F7
:1024C000B1E0CB1AD108E108F10886E0EFEFCE16B3
:1024D000D104E104F10481F078F0750164012AE08F
:1024E000F594E794D794C7942A95D1F7F1E0CF1AE1
:1024F000D108E108F10887E09091B100987F892B1D
:102500008093B100C7C08F3F09F010CE0093000147
:10251000ECE7F0E014911F3F09F408CE113031F1DF
:1025200050F0123009F442C017FD00CE61E0802F58
:102530000E943C0226CF14BC15BC84B5826084BDC9
:1025400085B5816085BDF701E556FF4FE491F0E068
:10255000EE0FFF1FEE58FF4F85919491F701E15563
:10256000FF4FE491E093C20210E005CF109280008B
:102570001092810080918100886080938100809119
:102580008100816080938100F701E556FF4FE4915F
:10259000F0E0EE0FFF1FEE58FF4F85919491F70189
:1025A000E155FF4FE491E093C102E5CE1092B000F7
:1025B0001092B1008091B00082608093B000809151
:1025C000B10081608093B100F701E556FF4FE491BF
:1025D000F0E0EE0FFF1FEE58FF4F8591949190931E
:1025E000C0028093BF02F701E155FF4FE491E093F1
:1025F000BE02C1CEAFEFCA16D104E104F10409F066
:102600000CF46CC068E478EE81E090E0A3019201E4
:102610000E94772069017A01B1E0CB1AD108E10864
:10262000F10884E011113BCF83E0AFEFCA16D1046B
:10263000E104F10459F154F162E17AE780E090E0BD
:10264000A30192010E94772069017A01F1E0CF1A7B
:10265000D108E108F10884E02FEFC216D104E104AB
:10266000F104A1F098F0750164019AE0F594E79403
:10267000D794C7949A95D1F721E0C21AD108E108FE
:10268000F10885E003C081E0111136CF95B5987F40
:10269000892B85BD29A13AA1220F331FABA1BCA173
:1026A0000E94362228EE33E040E050E00E945520A0
:1026B0001130B9F1123009F446C0111137CDC7BC41
:1026C0002093CB023093CC024093CD025093CE02A4
:1026D00080916E00826080936E0028CD82E0D4CF1E
:1026E00091E0C114D10431E0E306F10484F068E420
:1026F00078EE81E090E0A30192010E9477206901C9
:102700007A0181E0C81AD108E108F10893E011309C
:1027100009F0C0CF80918100887F892B8093810050
:10272000B9CFD0928900C09288002093C70230931D
:10273000C8024093C9025093CA0280916F00826020
:1027400080936F00F3CCC092B3002093C302309308
:10275000C4024093C5025093C6028091700082600B
:1027600080937000E3CC802F0E941002DFCCC70161
:102770000E943007C090F10294EB9C1508F4D6CC6F
:10278000EFECF2E090E080E021913191E216F30667
:1027900051F0232B09F0A3C0FC01EE0FFF1FE15302
:1027A000FD4FF182E082FC01EE0FFF1FE80FF91FE1
:1027B000EA58FA4FD08081819281ABE0AD15F0F1FB
:1027C00061E0802F0E943C028D2D90E0AC01440F0F
:1027D000551FFA01E80FF91FE859FB4F202F2F73FF
:1027E0000081007C022B008330E020E0F901EE0F35
:1027F000FF1FE20FF31FE859FB4F608166FD14C015
:102800002F5F3F4F2C30310589F71092800022E076
:10281000209381001092850010928400B19A20913B
:102820006F00226020936F00840F951FFC01E85910
:10283000FB4F80818064808390E080E0B8E5EB2EE0
:10284000B2E0FB2EE91AF10897FDF394EE0CFF1CA1
:10285000EE0CFF1C08E810E0081B110987FD13951A
:10286000000F111F000F111F4801012E000CAA08B4
:10287000BB0897010F2C000C440B550B2819390984
:102880004A095B09AC2DB0E00E94962024EB30E0B1
:1028900040E050E00E947720820E931EA41EB51ED9
:1028A000BBE0BD1508F442CC801691062CF08701E0
:1028B0008E149F040CF4840102501109000F111FA3
:1028C0002FB7F8948D2D90E0FC01EE0FFF1FE80F5D
:1028D000F91FE859FB4F128301832FBF27CC0196C4
:1028E0008830910509F050CF90E080E05CCF8FB741
:1028F000F89440916B0350916C0360916D0370915B
:102900006E038FBF13CC8091F1026091F30240916E
:10291000F5022091F7021091F9029091FB02909339
:10292000DF029091FC029093E002E090DF02F090D1
:10293000E002F701F85FE130F04108F0F7CB1C86C8
:102940001B861A8219821F8A188E198E1A8EE0E051
:10295000F8E0F887EF83E82FF0E0FE87ED8770E07E
:10296000788B6F8750E05A8B498B30E03C8B2B8BF8
:1029700061E00E943C0261E08F850E943C0261E0C0
:1029800089890E943C0261E08B890E943C021E8A78
:102990001D8A84E090E09A8789872F813885032EED
:1029A000000C440B550B60E077E883E993E00E944C
:1029B0007720CA01B901212F30E050E040E00E94A9
:1029C00077202B833C834D835E838701F7FE04C011
:1029D000002711270E191F091E141F040CF048C0F0
:1029E00081E090E09A83898374E0E72EF12C011551
:1029F000110509F49BCB0E9478028F88988CA98CD2
:102A0000BA8C2B013C01481859086A087B088B8056
:102A10009C80AD80BE80481459046A047B0438F35E
:102A20006F8B788F898F9A8F8B859C8529813A81CE
:102A30002130310519F501969C878B872F813885C8
:102A40008217930711F41C861B86015011098B8590
:102A50009C8529853A856AE070E02530310509F0CA
:102A6000B7010E941C22BC01C1010E94D002BFCF4D
:102A7000EF2809F4B9CF1A821982B6CF892B21F435
:102A80008F8198859C878B878B859C8501979C87F8
:102A90008B87DBCF8091220390912303009751F025
:102AA0002091680130916901E216F30609F443C0F0
:102AB0000E94D92283E190E00E943D226C01DC015A
:102AC00015960C9315978BE016968C931697F70135
:102AD000E155FF4FE4911796EC931797F701E556F0
:102AE000FF4FE4911896EC9380E89EE3A0E0B0E0FD
:102AF000F60185879687A787B08BD0922303C09273
:102B0000220362E0802F0E943C022FB7F89480914C
:102B10006B0390916C03A0916D03B0916E032FBF76
:102B2000805D9740A109B109F60181879287A3874B
:102B3000B48787E3828BF0926901E0926801F70124
:102B4000EE0FFF1FE15BFC4F11821082EFCA8091F4
:102B5000390390913A03009749F020916A0130912E
:102B60006B01E216F30661F10E94D92284E290E043
:102B70000E943D226C018DE894E0D60158969C930A
:102B80008E935797802F0E948D0010928E05D092C1
:102B90003A03C092390382E08093B0008093B10081
:102BA00084E68093B3008093B4001092B2008091C9
:102BB0008D04833011F410928D0484E080937000B2
:102BC000F0926B01E0926A01BACF8091E802909195
:102BD000E902009711F00E94D92211E001E0009370
:102BE0009B031093BD0310929C031092BE030E949E
:102BF0002504811101C01DA31F5F1F3781F78BE1E1
:102C000090E00E943D228C01FC01138212822DA1D2
:102C1000248390E1918782E082871386128A118A49
:102C2000138A148A158A968B878B108E118EFF2437
:102C3000F394F28E8EE791E09183808381E2868720
:102C400081E091E0908B87878AE0848786E08587A2
:102C50001093E9020093E8028091E702811118C005
:102C60001092E6021092E50210929C031092BE03AD
:102C70000E94E6038AEA90E09093E4028093E302E4
:102C80008BEA90E09093E2028093E102F092E702F7
:102C9000D80115961C9215971A968C911A97823026
:102CA00018F098E015969C93F801808762E370E035
:102CB00080E090E00E949D02D8011B966C91C801B3
:102CC0000E94D70568EE73E080E090E00E949D02CC
:102CD00060E3C8010E949D084BE4E42E46E4F42E14
:102CE000C7010197F1F760E3C8010E949D08C70181
:102CF0000197F1F760E3C8010E949D0883E592E027
:102D00000197F1F760E2C8010E949D08F801658112
:102D1000606240E0C8010E94B60884E0D8011696BF
:102D20008C9340E06CE0C8010E94B60840E061E08E
:102D3000C8010E94B6085BE3E52E5FE1F52EC701EE
:102D40000197F1F782E0F801878340E066E0C8016F
:102D50000E94B60840E062E0C8010E94B608C701C0
:102D60000197F1F788E0D8011B968C9360E0C801C9
:102D70000E94D705C8010E946E09D8C99090F1023F
:102D80008090F202E090F3020091E8021091E902D3
:102D90000115110509F4CAC9EE2061F31C8E1B8EC2
:102DA0001E8E1D8E18A21F8E70E060E0CE014B9625
:102DB0000E940E092B8D3C8D811137C021153105E4
:102DC00019F0C9010E94D9221C8E1B8E18A21F8ED9
:102DD0001E8E1D8E34EFA32E32E0B32EF12CBAE0FE
:102DE000EB0EF11CC5018A5E92408E159F052CF5F5
:102DF000F50181915F0189831A82CF8CD8A0FFEF02
:102E0000CF1ADF0AB601CE014B960E940E09882325
:102E100049F32B8D3C8D8F8D98A1B101820F931FAB
:102E20000E942F24D8A2CF8EDDCF18A21F8E60EB78
:102E300071E0C9010E942F24CDCFD80157966C9123
:102E4000961620F0892D0E94FC21992EF801808E83
:102E5000918E8585858B492D682DC8010E94CD08EE
:102E60004DB65EB6EF8CF8A0C70101962DB73EB700
:102E7000281B390B0FB6F8943EBF0FBE2DBFADB760
:102E8000BEB711966D01892B21F0E114F10429F5EB
:102E90001C92912C812C5601A80CB91CF501808143
:102EA000882309F410C1E82EF12C91E087FF45C07A
:102EB00091E0F12CE12C823C08F43FC0D501119641
:102EC000FE01339691E0880F87FF12C09F5F2D911E
:102ED0002F7730E021933193F6CF6B8D7C8DA70156
:102EE000CD010E943624F601EE0DFF1D1082D1CFD8
:102EF000E82EF12CE92FF0E0092E02C0F594E794BA
:102F00000A94E2F7FA82E982EE0FFF1FE20DF31D49
:102F100050E040E0F12CE12C32912291042E02C0CD
:102F2000220F331F0A94E2F731832083E20EF31E4F
:102F30004A5F5F4F2E163F0679F7D8015A968C915B
:102F40005A97692E712C882309F44EC055969C918E
:102F5000559758968C915897981708F045C0ED9161
:102F6000FC910284F385E02D9701A401B601C8010C
:102F70000995F8012689882331F0281770F58FEF1D
:102F8000820FF801858BD80155968C915597821741
:102F900058F159962C91599757963C91822F90E071
:102FA0000196632F70E00E941C22892BD1F0F8015A
:102FB000108E81E0820F632F0E94FC21918F858506
:102FC000858B492F60E0C8010E94CD08F0E2EF1622
:102FD000F10451F4860C971C5ECF908D9150890FAF
:102FE000D0CFC8010E946E09D80158969C9158977D
:102FF00056968C915697981768F7ED91FC9100843E
:10300000F185E02DB701C80109957C01D801ED914A
:10301000FC910190F081E02D682FC801BFEFEB1605
:10302000F10409F0C0F50995D80158968C9158978C
:103030008F5F58968C93589756969C915697891304
:10304000C9CFF501E60DF71D8081882319F25A9644
:103050008C915A97882309F4BDCF59962C91599792
:1030600057963C91822F90E00196632F70E00E946A
:103070001C22892BF9F0F801108E81E0820F632F5A
:103080000E94FC21918F8585858B492F60E0C801C6
:103090000E94CD089FCF0995D801ED91FC91019038
:1030A000F081E02D6F2DC8010995F801808D8F5FAB
:1030B000808FBACF60E070E0CB010E949D02C80112
:1030C0000E946E0987CF0FB6F8945EBE0FBE4DBE4C
:1030D0008B8D9C8D009711F40C9496100E94D92230
:1030E0000C9496108091E8029091E902009709F003
:1030F00042CE0C94961010923E0310923D03109213
:103100003C0310923B030E94860760E070E0CB0115
:103110000E94440780E00E943F078FEF0E943F0714
:103120000E940C090C9496106FE070E080E090E033
:103130000E949D029FE4E92E93E0F92E10E000E04A
:10314000D7018D919D917D01019709F03AC0902E94
:1031500060E0802F0E943C020E948607F801E3583D
:10316000FF4F8491F801E155FF4FA490F801E55617
:10317000FF4FB49070E060E0BB2099F081110E9495
:10318000B901EB2DF0E0EE0FFF1FEF56FF4FA591B9
:10319000B491EC91AE2291E080E009F490E0692FC7
:1031A000782F072E000C880B990B0E944C1F0E9451
:1031B0006207892D0E943F0781E00E943F070E941D
:1031C0000C090F5F1F4F0E30110509F0B9CF0FE347
:1031D00013E0F12CF801819191918F01019729F56C
:1031E0000E9486078F2D806480937C0080917A00F6
:1031F000806480937A0080917A0086FDFCCF809174
:10320000780060917900762F682F072E000C880BCC
:10321000990B0E944C1F0E9462078F2D0E943F074E
:1032200082E00E943F070E940C09F394F8E0FF122D
:10323000D1CF80913E03882309F460C010916601CC
:1032400060E0812F0E94E20183E090E00197F1F7B6
:1032500061E0812F0E94E20183E290E00197F1F7A3
:1032600060E0812F0E94E2018091640190916501EC
:103270009927FC01E155FF4F6491FC01E556FF4F92
:10328000E491F0E0EE0FFF1FEF56FF4F8591949110
:1032900000E315E720E030E0462F0E94890E4B0145
:1032A0005C0181149104A104B10439F02FEF821A5A
:1032B000920AA20AB20A3FE0B3220E948607C50121
:1032C000B4010E944A1F20E030E048EE51E40E9421
:1032D000542120E030E040E05FE30E94871F0E941D
:1032E0006207809166010E943F07809164010E94FD
:1032F0003F0787E00E943F070E940C0980913D0331
:10330000882309F472C00091220310912303011550
:10331000110509F4ADC0C8010E942406882349F0B4
:10332000D80116968C918C3009F481C038F48B301A
:10333000E9F060E070E080EC9FE741C085518230A9
:10334000C0F7F801F2806F2D70E0762F66276627B0
:103350007F778381682B90E080E00E944A1F2DECEC
:103360003CEC4CEC5DE30E94871F7EC0F80162815B
:1033700070E090E080E00E944A1F4B015C01D801A0
:1033800013961C9117FF0AC0AC019B0160E070E02E
:1033900080E89FEB0E94E7204B015C011F70612FCA
:1033A00070E090E080E00E944C1F2DEC3CEC4CEC77
:1033B0005DE30E94871FA50194010E94E8200E94FE
:1033C000C6218B010E948607B801110F880B990B4B
:1033D0000E944C1F0E944407809168010E943F0791
:1033E0008BE00E943F070E940C0980913C038823D8
:1033F00009F473C0009122031091230301151105F4
:1034000009F4B4C0C8010E942406882359F0D801E9
:1034100016968C918B3030F08D3068F1855182306A
:1034200008F493C060E070E080EC9FE740C0F801D2
:10343000F2806F2D70E090E080E00E944A1F4B0107
:103440005C01D80113966C916F7070E090E080E0A1
:103450000E944C1F2DEC3CEC4CEC5DE30E94871F5E
:10346000A50194010E94E820F7FEA9CF9058A7CFAC
:1034700010E000E0A7CFF801618170E090E080E00B
:103480000E944C1F2DEC3CEC4CEC5DE30E94871F2E
:103490004B015C01D8016C9170E090E080E00E94EB
:1034A0004C1F9B01AC01C501B4010E94E8200E94A1
:1034B000C6218B010E948607B801110F880B990B5A
:1034C0000E944C1F0E944407809168010E943F07A0
:1034D0008CE00E943F070E940C0980913B038823E7
:1034E000F1F0E0903903F0903A03E114F10409F0AF
:1034F00040C0CC24CA94DC2C0E948607B601DD0CA7
:10350000880B990B0E944C1F0E94440780916A010E
:103510000E943F078EE00E943F070E940C096AE06C
:1035200070E080E090E00E949D0280E090E0892BB6
:1035300011F40C941B100E941601882311F40C94B2
:103540001B100E9400000C941B10F8016081718117
:1035500076276727762790E080E00E944A1F2DECAF
:103560003CEC4CEC5DE30E94871FA1CF10E000E033
:10357000A1CF80918D04833009F0BBCF80912803C7
:1035800081110DC04BE950E061EB71E08FEB93E0EE
:103590000E94AC000E94040981E08093280386E920
:1035A00094E0909336038093350380919504809343
:1035B000370390919404992321F01092940410926F
:1035C0009504909194049093380310922D031092D7
:1035D0002E0310922F031092300390E8D7011A9611
:1035E0009C932091980430919904265831092C35E8
:1035F000310588F48430A9F580919A0490919B0458
:103600008197489740F480919C0490919D0408977D
:10361000089708F45FC0809137038A3108F491C09D
:10362000E0913503F0913603208131812A30310554
:1036300008F065C0109231038FEF9FEFDC0180939B
:103640002D0390932E03A0932F03B093300381E0BA
:10365000D7011A968C931A9782E190E08D939C93F0
:1036600026C18434C1F680919A0490919B048254BF
:1036700091098F9780F600E312E020E936E040E3FD
:1036800052E060E2C7010E941608882321F2E0910F
:103690003503F0913603EA57FF4F808191810897F7
:1036A000089708F0B8CFF70183859485A585B6857E
:1036B00080932D0390932E03A0932F03B093300398
:1036C00080E28093310387E090E090932A03809317
:1036D000290312C0109231038FEF9FEFDC0180931A
:1036E0002D0390932E03A0932F03B093300381E812
:1036F000F701828787E090E091838083D8C02281A0
:103700003381245231092A313105D8F443E050E0A5
:1037100060E0812C912C540190E04817590708F083
:103720005AC024813581285031092830310548F4A8
:103730002681378122313105C0F12032310508F46C
:103740003FC081E08093270389E793E090932603AD
:103750008093250310922403C7010E948C078130B7
:1037600009F0CEC0812C912C540110E0D70157965E
:10377000ED91FC915897908580912703891708F067
:1037800046C0C7010E948C07082FC7010E948C0702
:10379000011133C0813009F0B3C0880C991CAA1CF8
:1037A000BB1C689480F81F5FE1CF2930310548F2D7
:1037B0002131310530F6880C991CAA1CBB1C06C0AF
:1037C000880C991CAA1CBB1C689480F86F5F4E5F24
:1037D0005F4F3496A2CF6093310380922D03909275
:1037E0002E03A0922F03B092300382E190E09093D9
:1037F0002A0380932903F7017FCF013009F080C0AD
:1038000081117EC0880C991CAA1CBB1CCCCF812FB7
:1038100090E019969C938E9318971B968D929D928B
:10382000AD92BC921E97882D8F7390E015969C9355
:103830008E931497940146E0369527954A95E1F7C3
:103840002F71332713963C932E93129794012227BE
:103850003071232B31F4805C9F4F15969C938E938F
:10386000149780E8D7011A968C931A9793FE03C099
:1038700088E81A968C93818592858F3C994020F434
:10388000F7018285816082878EE090E0D7018D9379
:103890009C931093310380922D0390922E03A0925B
:1038A0002F03B092300390932A03809329038091D1
:1038B0002D0390912E03A0912F03B09130038D3BE7
:1038C000E2E49E07EFEFAE07B10509F4DFC208F0AE
:1038D000A9C212E0C12ED12C873E28E192072FEF1A
:1038E000A207B10509F496C208F081C28F3E90414B
:1038F000AF4FB10509F4C2C24AE0C42ED12C8AC22E
:10390000D7015796ED91FC918385948588974D97C3
:1039100008F04DC0858596850C970B9708F047C039
:1039200083E0809327038CEB91E0909326038093B0
:10393000250310922403C7010E948C078130B9F53A
:10394000C7010E948C07811132C0812C912C540137
:1039500010E0D7015796ED91FC9158979085809192
:103960002703891708F067C0C7010E948C07782ECB
:103970001330C1F0C7010E948C07082F133029F4BF
:10398000C7010E948C07081312C0B1E07B124AC025
:1039900001110DC0880C991CAA1CBB1C689480F8EE
:1039A0001F5FD7CFC7010E948C07781619F3E091EB
:1039B0003503F091360382819381209137032236BB
:1039C00008F47EC0C397859708F07AC084819581FA
:1039D0004A97439708F074C000EB11E020E135E00E
:1039E00040EB51E06CE2C7010E941608882309F4FD
:1039F00067C080E380933103F70183859485A585B3
:103A0000B68580932D0390932E03A0932F03B0933C
:103A1000300382E090E290932C0380932B0388E0A4
:103A200090E053CE7110C3CF013009F6880C991C79
:103A3000AA1CBB1CB5CF812F90E019969C938E9346
:103A400018971B968D929D92AD92BC921E97282D31
:103A500030E0892D1432F8F480E81A968C931A9786
:103A600015963C932E931497892D90E013969C9372
:103A70008E931297A0FE03C088E81A968C938185D6
:103A8000928583379A4020F4F7018285816082878E
:103A90008FE090E0FBCE90E81A969C931A9797FEE1
:103AA00003C098E81A969C93D70115963C932E93E1
:103AB00014978F7790E013969C938E931297DFCF95
:103AC000E0913503F0913603828193812091370391
:103AD0002C33A1F5865891098D35910578F58481AF
:103AE0009581CE978C9750F506E212E02CE236E0F5
:103AF00044EF51E06CE1C7010E9416088823F1F001
:103B0000E0913503F0913603EA58FF4F80819181AF
:103B10000797089798F4F70183859485A585B6855E
:103B200080932D0390932E03A0932F03B093300323
:103B30008CE18093310385E090E0C7CD409137035D
:103B4000E0913503F091360382819381423289F40A
:103B50009C01285031092730310558F4DF01AE5B54
:103B6000BF4F2D913C91285031092730310508F481
:103B700058C08D5791098735910508F467C0E091C9
:103B80003503F091360382819381835491098F9795
:103B900080F480913703843009F08DC08481958151
:103BA0008197489730F4868197810897089708F4A1
:103BB000ACC0D7015796ED91FC918085823209F017
:103BC000B9C0E0913503F091360382819381049767
:103BD000059708F0AFC0848195810B970A9708F08C
:103BE000A9C00CE013E02CE137E044E051E06FE0C5
:103BF000C7010E941608882309F49CC0F701838539
:103C00009485A585B68580932D0390932E03A0936C
:103C10002F03B09330038FE08093310382E090E074
:103C200054CD109231038FEF9FEFDC0180932D0371
:103C300090932E03A0932F03B093300381E0D7011C
:103C40001A968C931A9784E090E008CD443208F4D9
:103C500096CF84819581CE978C9708F090CF0EE017
:103C600012E02AE236E04EE052E060E1C7010E9435
:103C70001608882309F483CFE0913503F0913603C9
:103C8000EA5BFF4F808191810897079708F077CF13
:103C9000F70183859485A585B68580932D03909340
:103CA0002E03A0932F03B093300380E18093310360
:103CB00084E090E00ACD843408F47BCF8481958140
:103CC000825491098F9708F074CF00E312E020E945
:103CD00036E040E352E060E2C7010E941608882304
:103CE00009F467CFF70183859485A585B685809310
:103CF0002D0390932E03A0932F03B093300380E203
:103D00008093310380E190E0E0CC109231038FEF9B
:103D10009FEFDC0180932D0390932E03A0932F033C
:103D2000B093300381E0D7011A968C931A9780E103
:103D300090E094CC00913703063008F450C0E09135
:103D40003503F0913603329625EC3DE94CE151E81C
:103D500013E08AE0B82E8481958161917191B89EBB
:103D60004001B99E900C1124DB01AA0FBB1FAA0FC2
:103D7000BB1FAA0FBB1FA12C8A169B0688F0B69EFC
:103D8000D001B79EB00D112463E0880F991F6A958A
:103D9000E1F7AA24A394A817B90710F482E0A82E8B
:103DA00063E971E080E091E00E9445209B01AC0155
:103DB0002A251F5F0113CFCF20932D0330932E03AD
:103DC00040932F035093300380E28093310310928D
:103DD0002A0310922903D7011D921C9268CD80916D
:103DE0008D04833009F085CB10928D0482CBCC24D6
:103DF000C394D12C8F3CF0E39F07FFEFAF07B105D1
:103E000049F0F5E0CF2ED12C873C9843AF4FB10558
:103E100009F072CD80918D04833009F06DCB109242
:103E20008D046ACB853A3AE593073FEFA307B105C6
:103E300049F198F468E0C62ED12C853BFAE49F073F
:103E4000FFEFAF07B10531F359E0C52ED12C8D3A04
:103E50009245AF4FB105F1F24FCD873938E6930760
:103E60003FEFA307B105B1F285389A47AF4FB105CF
:103E700009F042CDB3E0CB2ED12CCCCFA4E0CA2E9A
:103E8000D12CC8CFE6E0CE2ED12CC4CF77E0C72E00
:103E9000D12CC0CFE89409C097FB3EF49095809553
:103EA000709561957F4F8F4F9F4F9923A9F0F92F00
:103EB00096E9BB279395F695879577956795B7957E
:103EC000F111F8CFFAF4BB0F11F460FF1BC06F5F64
:103ED0007F4F8F4F9F4F16C0882311F096E911C076
:103EE000772321F09EE8872F762F05C0662371F097
:103EF00096E8862F70E060E02AF09A95660F771FAB
:103F0000881FDAF7880F9695879597F908950E948C
:103F10009A1F0C940B200E94FD1F38F00E94042071
:103F200020F0952311F00C94F41F0C94FA1F112427
:103F30000C943F200E941C2070F3959FC1F3950FB5
:103F400050E0551F629FF001729FBB27F00DB11D1D
:103F5000639FAA27F00DB11DAA1F649F6627B00DAD
:103F6000A11D661F829F2227B00DA11D621F739F96
:103F7000B00DA11D621F839FA00D611D221F749FA4
:103F80003327A00D611D231F849F600D211D822FEB
:103F9000762F6A2F11249F5750409AF0F1F0882312
:103FA0004AF0EE0FFF1FBB1F661F771F881F91503F
:103FB0005040A9F79E3F510580F00C94F41F0C94DB
:103FC0003F205F3FE4F3983ED4F38695779567955D
:103FD000B795F795E7959F5FC1F7FE2B880F911D69
:103FE0009695879597F9089597F99F6780E870E00F
:103FF00060E008959FEF80EC089500240A9416165F
:10400000170618060906089500240A9412161306C6
:10401000140605060895092E0394000C11F4882354
:1040200052F0BB0F40F4BF2B11F460FF04C06F5F70
:104030007F4F8F4F9F4F089557FD9058440F551F46
:1040400059F05F3F71F04795880F97FB991F61F01A
:104050009F3F79F087950895121613061406551F91
:10406000F2CF4695F1DF08C0161617061806991FFD
:10407000F1CF86957105610508940895E894BB27F2
:1040800066277727CB0197F90895DB018F939F93DC
:104090000E949620BF91AF91A29F800D911DA39F7A
:1040A000900DB29F900D11240895A1E21A2EAA1B23
:1040B000BB1BFD010DC0AA1FBB1FEE1FFF1FA217D8
:1040C000B307E407F50720F0A21BB30BE40BF50BD5
:1040D000661F771F881F991F1A9469F7609570955E
:1040E000809590959B01AC01BD01CF010895052EEF
:1040F00097FB1EF400940E948E2057FD07D00E946B
:10410000552007FC03D04EF40C948E20509540951A
:10411000309521953F4F4F4F5F4F08959095809573
:10412000709561957F4F8F4F9F4F08950E94D820C3
:10413000A59F900DB49F900DA49F800D911D1124FB
:1041400008952F923F924F925F926F927F928F923B
:104150009F92AF92BF92CF92DF92EF92FF920F9316
:104160001F93CF93DF93CDB7DEB7CA1BDB0B0FB620
:10417000F894DEBF0FBECDBF09942A8839884888DD
:104180005F846E847D848C849B84AA84B984C88473
:10419000DF80EE80FD800C811B81AA81B981CE0F6A
:1041A000D11D0FB6F894DEBF0FBECDBFED0108954F
:1041B000A29FB001B39FC001A39F700D811D112468
:1041C000911DB29F700D811D1124911D08955058AD
:1041D000BB27AA270E94FF200C940B200E94FD1FE2
:1041E00038F00E94042020F039F49F3F19F426F49F
:1041F0000C94FA1F0EF4E095E7FB0C94F41FE92FE2
:104200000E941C2058F3BA176207730784079507AA
:1042100020F079F4A6F50C943E200EF4E0950B2ED8
:10422000BA2FA02D0B01B90190010C01CA01A00108
:104230001124FF27591B99F0593F50F4503E68F163
:104240001A16F040A22F232F342F4427585FF3CFA4
:10425000469537952795A795F0405395C9F77EF475
:104260001F16BA0B620B730B840BBAF09150A1F0BE
:10427000FF0FBB1F661F771F881FC2F70EC0BA0F44
:10428000621F731F841F48F4879577956795B795CC
:10429000F7959E3F08F0B0CF9395880F08F09927C7
:1042A000EE0F9795879508950E9468210C940B2036
:1042B0000E94042058F00E94FD1F40F029F45F3F47
:1042C00029F00C94F41F51110C943F200C94FA1F08
:1042D0000E941C2068F39923B1F3552391F3951B99
:1042E000550BBB27AA2762177307840738F09F5F17
:1042F0005F4F220F331F441FAA1FA9F335D00E2E84
:104300003AF0E0E832D091505040E695001CCAF7F0
:104310002BD0FE2F29D0660F771F881FBB1F2617B3
:1043200037074807AB07B0E809F0BB0B802DBF018A
:10433000FF2793585F4F3AF09E3F510578F00C9459
:10434000F41F0C943F205F3FE4F3983ED4F386952E
:1043500077956795B795F7959F5FC9F7880F911D7A
:104360009695879597F90895E1E0660F771F881F66
:10437000BB1F621773078407BA0720F0621B730B19
:10438000840BBA0BEE1F88F7E09508950E94CD21AB
:104390006894B1110C943F2008950E94242088F065
:1043A0009F5798F0B92F9927B751B0F0E1F0660FF9
:1043B000771F881F991F1AF0BA95C9F714C0B1303A
:1043C00091F00E943E20B1E008950C943E20672FAA
:1043D000782F8827B85F39F0B93FCCF38695779569
:1043E0006795B395D9F73EF4909580957095619552
:1043F0007F4F8F4F9F4F0895991B79E004C0991FFD
:10440000961708F0961B881F7A95C9F7809508952E
:10441000AA1BBB1B51E107C0AA1FBB1FA617B707EA
:1044200010F0A61BB70B881F991F5A95A9F7809506
:104430009095BC01CD01089597FB072E16F40094CA
:1044400007D077FD09D00E94082207FC05D03EF472
:10445000909581959F4F0895709561957F4F089530
:10446000EE0FFF1F0590F491E02D09940E94D820D3
:10447000B7FF0895821B930B08950F931F93CF935B
:10448000DF938230910510F482E090E0E091B60570
:10449000F091B70530E020E0B0E0A0E0309799F46B
:1044A0002115310509F44AC0281B390B2430310588
:1044B000D8F58A819B816115710589F1FB01938390
:1044C0008283FE0111C0408151810281138148170E
:1044D0005907E0F04817590799F4109761F01296C0
:1044E0000C93129713961C933296CF01DF91CF91C4
:1044F0001F910F9108950093B6051093B705F4CF5F
:104500002115310551F04217530738F0A901DB019D
:104510009A01BD01DF01F801C1CFEF01F9CF9093FE
:10452000B7058093B605CDCFFE01E20FF31F81934F
:1045300091932250310939832883D7CF2091B40534
:104540003091B505232B41F420916E0130916F011C
:104550003093B5052093B40520916C0130916D0125
:104560002115310541F42DB73EB7409170015091AE
:104570007101241B350BE091B405F091B505E217EC
:10458000F307A0F42E1B3F0B2817390778F0AC0176
:104590004E5F5F4F2417350748F04E0F5F1F509353
:1045A000B5054093B405819391939FCFF0E0E0E08F
:1045B0009CCFCF93DF930097E9F0FC0132971382F1
:1045C0001282A091B605B091B705ED0130E020E070
:1045D0001097A1F420813181820F931F2091B4059F
:1045E0003091B5052817390709F061C0F093B5057A
:1045F000E093B405DF91CF910895EA01CE17DF076C
:10460000E8F54A815B819E0141155105B1F7E90149
:10461000FB83EA8349915991C40FD51FEC17FD071D
:1046200061F4808191810296840F951FE90199833D
:104630008883828193819B838A83F0E0E0E01296F5
:104640008D919C9113970097B9F52D913C911197FD
:10465000CD010296820F931F2091B4053091B505CC
:104660002817390739F6309751F51092B70510928F
:10467000B605B093B505A093B405BCCFD383C28370
:1046800040815181840F951FC817D90761F44E5F8F
:104690005F4F88819981480F591F518340838A81D8
:1046A0009B81938382832115310509F0B0CFF0936C
:1046B000B705E093B6059ECFFD01DC01C0CF1382A4
:1046C0001282D7CFB0E0A0E0E8E6F3E20C94A3209A
:1046D0008C01009751F4CB010E943D228C01C8014E
:1046E000CDB7DEB7E0E10C94BF20FC01E60FF71F69
:1046F0009C0122503109E217F30708F49DC0D9014B
:10470000CD91DC911197C617D70798F0C530D10528
:1047100030F3CE0104978617970708F3C61BD70B13
:104720002297C193D1936D937C93CF010E94D9229C
:10473000D6CF5B01AC1ABD0A4C018C0E9D1EA09118
:10474000B605B091B705512C412CF12CE12C1097F6
:1047500031F58091B4059091B5058815990509F05A
:104760005CC04616570608F058C080916C019091C5
:104770006D01009741F48DB79EB740917001509143
:104780007101841B950BE817F90708F055C0F093E9
:10479000B505E093B405F90171836083A0CF8D91D5
:1047A0009C91119712966C90129713967C90139788
:1047B000A815B90559F56C0142E0C40ED11CCA1404
:1047C000DB0420F1AC014A195B09DA011296159756
:1047D00080F06282738251834083D9016D937C9310
:1047E000E114F10471F0D7011396FC93EE93129744
:1047F00076CF22968C0F9D1FF90191838083F30160
:10480000EFCFF093B705E093B60569CF4816590688
:1048100008F42C017D01D3019ACFCB010E943D22E7
:104820007C01009749F0AE01B8010E941F24C80125
:104830000E94D922870153CF10E000E050CFFB0146
:10484000DC0102C001900D9241505040D8F708950C
:10485000DC0101C06D9341505040E0F70895FB0129
:10486000DC0101900D920020E1F70895FB01DC01CD
:104870004150504048F001900D920020C9F701C00E
:0E4880001D9241505040E0F70895F894FFCF8C
:10488E00FF0104CB10044111048012044213049260
:10489E001404811504451604821704831804841920
:1048AE0004851A044B1B04861C044D1D04481E046B
:1048BE004F1F0487200450210443220454230488EC
:1048CE002404D825045826048927048A28048B2911
:1048DE00048C2A048D2B048E2C04622D048F2E043E
:1048EE00AC2F04AD0C000D00FFFFFFFF0000B8055C
:1048FE008000000040001400540000000000FE087C
:10490E00AC0013081208A80A9205000000004C0122
:10491E00AC00D90099010A01E800FC00000000007B
:10492E006305360513080C052F051C050D050D0A2C
:10493E00005468652066756E6374696F6E206465D9
:10494E00636F64652826726573756C7473292920EC
:10495E006973206465707265636174656420616E4D
:10496E0064206D6179206E6F7420776F726B206199
:10497E007320657870656374656421204A7573745D
:10498E0020757365206465636F64652829207769D7
:10499E0074686F7574206120706172616D657465E5
:1049AE007220616E64204972526563656976657224
:1049BE002E6465636F6465644952446174612E3C74
:0E49CE006669656C646E616D653E202E0000AA
:00000001FF
